{"abi":[{"type":"constructor","inputs":[{"name":"initialSettings","type":"tuple","internalType":"struct Settings","components":[{"name":"maxOperatorDataBytes","type":"uint16","internalType":"uint16"}]},{"name":"initialOperators","type":"tuple[]","internalType":"struct NodeOperator[]","components":[{"name":"addr","type":"address","internalType":"address"},{"name":"data","type":"bytes","internalType":"bytes"}]}],"stateMutability":"nonpayable"},{"type":"function","name":"abortMigration","inputs":[],"outputs":[],"stateMutability":"nonpayable"},{"type":"function","name":"addNodeOperator","inputs":[{"name":"idx","type":"uint8","internalType":"uint8"},{"name":"operator","type":"tuple","internalType":"struct NodeOperator","components":[{"name":"addr","type":"address","internalType":"address"},{"name":"data","type":"bytes","internalType":"bytes"}]}],"outputs":[],"stateMutability":"nonpayable"},{"type":"function","name":"completeMigration","inputs":[{"name":"id","type":"uint64","internalType":"uint64"}],"outputs":[],"stateMutability":"nonpayable"},{"type":"function","name":"finishMaintenance","inputs":[],"outputs":[],"stateMutability":"nonpayable"},{"type":"function","name":"getView","inputs":[],"outputs":[{"name":"","type":"tuple","internalType":"struct ClusterView","components":[{"name":"owner","type":"address","internalType":"address"},{"name":"nodeOperatorSlots","type":"tuple[]","internalType":"struct NodeOperator[]","components":[{"name":"addr","type":"address","internalType":"address"},{"name":"data","type":"bytes","internalType":"bytes"}]},{"name":"keyspaces","type":"tuple[2]","internalType":"struct Keyspace[2]","components":[{"name":"operatorsBitmask","type":"uint256","internalType":"uint256"},{"name":"replicationStrategy","type":"uint8","internalType":"uint8"}]},{"name":"keyspaceVersion","type":"uint64","internalType":"uint64"},{"name":"settings","type":"tuple","internalType":"struct Settings","components":[{"name":"maxOperatorDataBytes","type":"uint16","internalType":"uint16"}]},{"name":"migration","type":"tuple","internalType":"struct Migration","components":[{"name":"id","type":"uint64","internalType":"uint64"},{"name":"pullingOperatorsBitmask","type":"uint256","internalType":"uint256"}]},{"name":"maintenance","type":"tuple","internalType":"struct Maintenance","components":[{"name":"slot","type":"address","internalType":"address"}]},{"name":"version","type":"uint128","internalType":"uint128"}]}],"stateMutability":"view"},{"type":"function","name":"removeNodeOperator","inputs":[{"name":"operatorAddress","type":"address","internalType":"address"}],"outputs":[],"stateMutability":"nonpayable"},{"type":"function","name":"startMaintenance","inputs":[],"outputs":[],"stateMutability":"nonpayable"},{"type":"function","name":"startMigration","inputs":[{"name":"newKeyspace","type":"tuple","internalType":"struct Keyspace","components":[{"name":"operatorsBitmask","type":"uint256","internalType":"uint256"},{"name":"replicationStrategy","type":"uint8","internalType":"uint8"}]}],"outputs":[],"stateMutability":"nonpayable"},{"type":"function","name":"transferOwnership","inputs":[{"name":"newOwner","type":"address","internalType":"address"}],"outputs":[],"stateMutability":"nonpayable"},{"type":"function","name":"updateNodeOperator","inputs":[{"name":"operator","type":"tuple","internalType":"struct NodeOperator","components":[{"name":"addr","type":"address","internalType":"address"},{"name":"data","type":"bytes","internalType":"bytes"}]}],"outputs":[],"stateMutability":"nonpayable"},{"type":"function","name":"updateSettings","inputs":[{"name":"newSettings","type":"tuple","internalType":"struct Settings","components":[{"name":"maxOperatorDataBytes","type":"uint16","internalType":"uint16"}]}],"outputs":[],"stateMutability":"nonpayable"},{"type":"event","name":"MaintenanceFinished","inputs":[{"name":"clusterVersion","type":"uint128","indexed":false,"internalType":"uint128"}],"anonymous":false},{"type":"event","name":"MaintenanceStarted","inputs":[{"name":"addr","type":"address","indexed":false,"internalType":"address"},{"name":"clusterVersion","type":"uint128","indexed":false,"internalType":"uint128"}],"anonymous":false},{"type":"event","name":"MigrationAborted","inputs":[{"name":"id","type":"uint64","indexed":false,"internalType":"uint64"},{"name":"clusterVersion","type":"uint128","indexed":false,"internalType":"uint128"}],"anonymous":false},{"type":"event","name":"MigrationCompleted","inputs":[{"name":"id","type":"uint64","indexed":false,"internalType":"uint64"},{"name":"operatorAddress","type":"address","indexed":false,"internalType":"address"},{"name":"clusterVersion","type":"uint128","indexed":false,"internalType":"uint128"}],"anonymous":false},{"type":"event","name":"MigrationDataPullCompleted","inputs":[{"name":"id","type":"uint64","indexed":false,"internalType":"uint64"},{"name":"operatorAddress","type":"address","indexed":false,"internalType":"address"},{"name":"clusterVersion","type":"uint128","indexed":false,"internalType":"uint128"}],"anonymous":false},{"type":"event","name":"MigrationStarted","inputs":[{"name":"id","type":"uint64","indexed":false,"internalType":"uint64"},{"name":"newKeyspace","type":"tuple","indexed":false,"internalType":"struct Keyspace","components":[{"name":"operatorsBitmask","type":"uint256","internalType":"uint256"},{"name":"replicationStrategy","type":"uint8","internalType":"uint8"}]},{"name":"clusterVersion","type":"uint128","indexed":false,"internalType":"uint128"}],"anonymous":false},{"type":"event","name":"NodeOperatorAdded","inputs":[{"name":"idx","type":"uint8","indexed":false,"internalType":"uint8"},{"name":"operator","type":"tuple","indexed":false,"internalType":"struct NodeOperator","components":[{"name":"addr","type":"address","internalType":"address"},{"name":"data","type":"bytes","internalType":"bytes"}]},{"name":"clusterVersion","type":"uint128","indexed":false,"internalType":"uint128"}],"anonymous":false},{"type":"event","name":"NodeOperatorRemoved","inputs":[{"name":"operatorAddress","type":"address","indexed":false,"internalType":"address"},{"name":"clusterVersion","type":"uint128","indexed":false,"internalType":"uint128"}],"anonymous":false},{"type":"event","name":"NodeOperatorUpdated","inputs":[{"name":"operator","type":"tuple","indexed":false,"internalType":"struct NodeOperator","components":[{"name":"addr","type":"address","internalType":"address"},{"name":"data","type":"bytes","internalType":"bytes"}]},{"name":"clusterVersion","type":"uint128","indexed":false,"internalType":"uint128"}],"anonymous":false},{"type":"event","name":"OwnershipTransferred","inputs":[{"name":"newOwner","type":"address","indexed":false,"internalType":"address"},{"name":"cluserVersion","type":"uint128","indexed":false,"internalType":"uint128"}],"anonymous":false},{"type":"event","name":"SettingsUpdated","inputs":[{"name":"newSettings","type":"tuple","indexed":false,"internalType":"struct Settings","components":[{"name":"maxOperatorDataBytes","type":"uint16","internalType":"uint16"}]},{"name":"clusterVersion","type":"uint128","indexed":false,"internalType":"uint128"}],"anonymous":false}],"bytecode":{"object":"0x6080604052346100305761001a61001461030f565b90610acf565b610022610035565b6138ed610ed382396138ed90f35b61003b565b60405190565b5f80fd5b601f801991011690565b634e487b7160e01b5f52604160045260245ffd5b906100679061003f565b810190811060018060401b0382111761007f57604052565b610049565b90610097610090610035565b928361005d565b565b5f80fd5b5f80fd5b5f80fd5b5f80fd5b61ffff1690565b6100b9816100a9565b036100c057565b5f80fd5b905051906100d1826100b0565b565b91906020838203126100fb576100f5906100ed6020610084565b935f016100c4565b5f830152565b6100a1565b5f80fd5b60018060401b03811161011a5760208091020190565b610049565b5f80fd5b60018060a01b031690565b61013790610123565b90565b6101438161012e565b0361014a57565b5f80fd5b9050519061015b8261013a565b565b5f80fd5b60018060401b03811161017d5761017960209161003f565b0190565b610049565b90825f9392825e0152565b909291926101a261019d82610161565b610084565b938185526020850190828401116101be576101bc92610182565b565b61015d565b9080601f830112156101e1578160206101de9351910161018d565b90565b610100565b919091604081840312610236576101fd6040610084565b9261020a815f840161014e565b5f850152602082015160018060401b0381116102315761022a92016101c3565b6020830152565b6100a5565b6100a1565b92919061024f61024a82610104565b610084565b93818552602080860192028101918383116102a45781905b838210610275575050505050565b815160018060401b03811161029f5760209161029487849387016101e6565b815201910190610267565b610100565b61011f565b9080601f830112156102c7578160206102c49351910161023b565b90565b610100565b91909160408184031261030a576102e5835f83016100d3565b92602082015160018060401b0381116103055761030292016102a9565b90565b61009d565b610099565b61032d6147c08038038061032281610084565b9283398101906102cc565b9091565b5190565b90565b90565b90565b61035261034d61035792610338565b61033b565b610335565b90565b60209181520190565b5f7f746f6f206d616e79206f70657261746f72730000000000000000000000000000910152565b610397601260209261035a565b6103a081610363565b0190565b6103b99060208101905f81830391015261038a565b90565b156103c357565b6103cb610035565b62461bcd60e51b8152806103e1600482016103a4565b0390fd5b5f1b90565b906103fb60018060a01b03916103e5565b9181191691161790565b61041961041461041e92610123565b61033b565b610123565b90565b61042a90610405565b90565b61043690610421565b90565b90565b9061045161044c6104589261042d565b610439565b82546103ea565b9055565b634e487b7160e01b5f525f60045260245ffd5b61047990516100a9565b90565b9061048961ffff916103e5565b9181191691161790565b6104a76104a26104ac926100a9565b61033b565b6100a9565b90565b90565b906104c76104c26104ce92610493565b6104af565b825461047c565b9055565b906104e45f806104ea9401920161046f565b906104b2565b565b906104f6916104d2565b565b90565b61050f61050a610514926104f8565b61033b565b610335565b90565b60016105239101610335565b90565b634e487b7160e01b5f52603260045260245ffd5b9061054482610331565b811015610555576020809102010190565b610526565b5190565b610568905161012e565b90565b906105759061042d565b5f5260205260405f2090565b5f1c90565b60ff1690565b61059861059d91610581565b610586565b90565b6105aa905461058c565b90565b151590565b5f7f6475706c6963617465206f70657261746f720000000000000000000000000000910152565b6105e6601260209261035a565b6105ef816105b2565b0190565b6106089060208101905f8183039101526105d9565b90565b1561061257565b61061a610035565b62461bcd60e51b815280610630600482016105f3565b0390fd5b60ff1690565b61064e61064961065392610335565b61033b565b610634565b90565b6106606040610084565b90565b9061066d906105ad565b9052565b9061067b90610634565b9052565b61068990516105ad565b90565b9061069860ff916103e5565b9181191691161790565b6106ab906105ad565b90565b90565b906106c66106c16106cd926106a2565b6106ae565b825461068c565b9055565b6106db9051610634565b90565b60081b90565b906106f161ff00916106de565b9181191691161790565b61070f61070a61071492610634565b61033b565b610634565b90565b90565b9061072f61072a610736926106fb565b610717565b82546106e4565b9055565b9061076460205f61076a9461075c82820161075684880161067f565b906106b1565b0192016106d1565b9061071a565b565b906107769161073a565b565b5061010090565b90565b61078b81610778565b8210156107a55761079d60029161077f565b910201905f90565b610526565b5190565b634e487b7160e01b5f52602260045260245ffd5b90600160028304921680156107e2575b60208310146107dd57565b6107ae565b91607f16916107d2565b5f5260205f2090565b601f602091010490565b1b90565b9190600861081e9102916108185f19846107ff565b926107ff565b9181191691161790565b61083c61083761084192610335565b61033b565b610335565b90565b90565b919061085d61085861086593610828565b610844565b908354610803565b9055565b5f90565b61087f91610879610869565b91610847565b565b5b81811061088d575050565b8061089a5f60019361086d565b01610882565b9190601f81116108b0575b505050565b6108bc6108e1936107ec565b9060206108c8846107f5565b830193106108e9575b6108da906107f5565b0190610881565b5f80806108ab565b91506108da819290506108d1565b1c90565b9061090b905f19906008026108f7565b191690565b8161091a916108fb565b906002021790565b9061092c8161055a565b9060018060401b0382116109ea5761094e8261094885546107c2565b856108a0565b602090601f831160011461098257918091610971935f92610976575b5050610910565b90555b565b90915001515f8061096a565b601f19831691610991856107ec565b925f5b8181106109d2575091600293918560019694106109b8575b50505002019055610974565b6109c8910151601f8416906108fb565b90555f80806109ac565b91936020600181928787015181550195019201610994565b610049565b906109f991610922565b565b90610a2660206001610a2c94610a1e5f8201610a185f880161055e565b9061043c565b0192016107aa565b906109ef565b565b9190610a3f57610a3d916109fb565b565b61045c565b90610a505f19916103e5565b9181191691161790565b90610a6f610a6a610a7692610828565b610844565b8254610a44565b9055565b90565b610a89610a8e91610581565b610a7a565b90565b610a9b9054610a7d565b90565b50600290565b90565b610ab081610a9e565b821015610aca57610ac2600291610aa4565b910201905f90565b610526565b610b0c90610afa610adf84610331565b610af3610aed61010061033e565b91610335565b11156103bc565b610b04335f61043c565b6102086104ec565b610b155f6104fb565b5b80610b31610b2b610b2685610331565b610335565b91610335565b1015610c1c57610c1790610b5b610b566020610b4e86859061053a565b51015161055a565b610db4565b610b99610b94610b8e5f610b8881600101610b8283610b7b8b8a9061053a565b510161055e565b9061056b565b016105a0565b156105ad565b61060b565b610bef6001610bc7610baa8461063a565b610bbe610bb5610656565b935f8501610663565b60208301610671565b610bea5f600101610be45f610bdd89889061053a565b510161055e565b9061056b565b61076c565b610c12610bfd84839061053a565b51610c0c600180018490610782565b90610a2e565b610517565b610b16565b50610c39610c34610c2f610c4493610331565b61063a565b610e96565b610201600101610a5a565b610c6a610c55610201600101610a91565b5f610c636102038290610aa7565b5001610a5a565b565b5f7f656d707479206f70657261746f72206461746100000000000000000000000000910152565b610ca0601360209261035a565b610ca981610c6c565b0190565b610cc29060208101905f818303910152610c93565b90565b15610ccc57565b610cd4610035565b62461bcd60e51b815280610cea60048201610cad565b0390fd5b61ffff1690565b610d01610d0691610581565b610cee565b90565b610d139054610cf5565b90565b610d2a610d25610d2f926100a9565b61033b565b610335565b90565b5f7f6f70657261746f72206461746120746f6f206c61726765000000000000000000910152565b610d66601760209261035a565b610d6f81610d32565b0190565b610d889060208101905f818303910152610d59565b90565b15610d9257565b610d9a610035565b62461bcd60e51b815280610db060048201610d73565b0390fd5b610df990610dd481610dce610dc85f6104fb565b91610335565b11610cc5565b610df2610dec610de75f61020801610d09565b610d16565b91610335565b1115610d8b565b565b610e0f610e0a610e1492610634565b61033b565b610335565b90565b90565b610e2e610e29610e3392610e17565b61033b565b610335565b90565b610e5590610e4f610e49610e5a94610335565b91610335565b906107ff565b610335565b90565b634e487b7160e01b5f52601160045260245ffd5b610e80610e8691939293610335565b92610335565b8203918211610e9157565b610e5d565b610ebf610ecf91610ea5610869565b50610eba610eb4600192610dfb565b91610e1a565b610e36565b610ec96001610e1a565b90610e71565b9056fe60806040526004361015610013575b6107fc565b61001d5f356100cc565b806326322217146100c75780632b726062146100c257806347011c5c146100bd57806353bfb584146100b857806365706f9c146100b357806375418b9d146100ae5780639d44e717146100a9578063c05665dd146100a4578063c130809a1461009f578063f2fde38b1461009a5763f5f2d9f10361000e576107c9565b610796565b610763565b610730565b6106bc565b610646565b6102e1565b61027d565b61023b565b6101d6565b610135565b60e01c90565b60405190565b5f80fd5b5f80fd5b5f80fd5b5f80fd5b908160409103126100f65790565b6100e4565b9060208282031261012b575f82013567ffffffffffffffff81116101265761012392016100e8565b90565b6100e0565b6100dc565b5f0190565b346101635761014d6101483660046100fb565b610f6e565b6101556100d2565b8061015f81610130565b0390f35b6100d8565b60ff1690565b61017781610168565b0361017e57565b5f80fd5b9050359061018f8261016e565b565b9190916040818403126101d1576101aa835f8301610182565b92602082013567ffffffffffffffff81116101cc576101c992016100e8565b90565b6100e0565b6100dc565b34610205576101ef6101e9366004610191565b906115ec565b6101f76100d2565b8061020181610130565b0390f35b6100d8565b908160409103126102185790565b6100e4565b9060408282031261023657610233915f0161020a565b90565b6100dc565b346102695761025361024e36600461021d565b611b8d565b61025b6100d2565b8061026581610130565b0390f35b6100d8565b5f91031261027857565b6100dc565b346102ab5761028d36600461026e565b610295611d42565b61029d6100d2565b806102a781610130565b0390f35b6100d8565b908160209103126102be5790565b6100e4565b906020828203126102dc576102d9915f016102b0565b90565b6100dc565b3461030f576102f96102f43660046102c3565b611ee8565b6103016100d2565b8061030b81610130565b0390f35b6100d8565b60018060a01b031690565b61032890610314565b90565b6103349061031f565b9052565b5190565b60209181520190565b60200190565b5190565b60209181520190565b90825f9392825e0152565b601f801991011690565b61038c61039560209361039a936103838161034b565b9384809361034f565b95869101610358565b610363565b0190565b6103c991602060408201926103b95f8201515f85019061032b565b015190602081840391015261036d565b90565b906103d69161039e565b90565b60200190565b906103f36103ec83610338565b809261033c565b908161040460208302840194610345565b925f915b83831061041757505050505090565b90919293946020610439610433838560019503875289516103cc565b976103d9565b9301930191939290610408565b50600290565b905090565b90565b90565b61046090610454565b9052565b61046d90610168565b9052565b90602080610493936104895f8201515f860190610457565b0151910190610464565b565b906104a281604093610471565b0190565b60200190565b6104c86104c26104bb83610446565b809461044c565b91610451565b5f915b8383106104d85750505050565b6104ee6104e86001928451610495565b926104a6565b920191906104cb565b67ffffffffffffffff1690565b61050d906104f7565b9052565b61ffff1690565b61052190610511565b9052565b905f80610536930151910190610518565b565b9060208061055a936105505f8201515f860190610504565b0151910190610457565b565b905f8061056d93015191019061032b565b565b6fffffffffffffffffffffffffffffffff1690565b61058d9061056f565b9052565b9061062b9061016060e06105c561018084016105b35f8801515f87019061032b565b602087015185820360208701526103df565b946105d8604082015160408601906104ac565b6105ea606082015160c0860190610504565b6105fb608082015183860190610525565b61060e60a0820151610100860190610538565b61062160c082015161014086019061055c565b0151910190610584565b90565b6106439160208201915f818403910152610591565b90565b346106765761065636600461026e565b61067261066161253d565b6106696100d2565b9182918261062e565b0390f35b6100d8565b610684816104f7565b0361068b57565b5f80fd5b9050359061069c8261067b565b565b906020828203126106b7576106b4915f0161068f565b90565b6100dc565b346106ea576106d46106cf36600461069e565b612ab0565b6106dc6100d2565b806106e681610130565b0390f35b6100d8565b6106f88161031f565b036106ff57565b5f80fd5b90503590610710826106ef565b565b9060208282031261072b57610728915f01610703565b90565b6100dc565b3461075e57610748610743366004610712565b612f2c565b6107506100d2565b8061075a81610130565b0390f35b6100d8565b346107915761077336600461026e565b61077b613064565b6107836100d2565b8061078d81610130565b0390f35b6100d8565b346107c4576107ae6107a9366004610712565b61310b565b6107b66100d2565b806107c081610130565b0390f35b6100d8565b346107f7576107d936600461026e565b6107e161321e565b6107e96100d2565b806107f381610130565b0390f35b6100d8565b5f80fd5b5f80fd5b5f80fd5b5f80fd5b90359060016020038136030382121561084e570180359067ffffffffffffffff82116108495760200191600182023603831361084457565b610808565b610804565b610800565b5090565b35610861816106ef565b90565b5f1c90565b60018060a01b031690565b61088061088591610864565b610869565b90565b6108929054610874565b90565b60209181520190565b5f7f756e617574686f72697a65640000000000000000000000000000000000000000910152565b6108d2600c602092610895565b6108db8161089e565b0190565b6108f49060208101905f8183039101526108c5565b90565b156108fe57565b6109066100d2565b62461bcd60e51b81528061091c600482016108df565b0390fd5b90565b61093761093261093c92610314565b610920565b610314565b90565b61094890610923565b90565b6109549061093f565b90565b906109619061094b565b5f5260205260405f2090565b90565b60ff1690565b61098261098791610864565b610970565b90565b6109949054610976565b90565b5f7f756e6b6e6f776e206f70657261746f7200000000000000000000000000000000910152565b6109cb6010602092610895565b6109d481610997565b0190565b6109ed9060208101905f8183039101526109be565b90565b156109f757565b6109ff6100d2565b62461bcd60e51b815280610a15600482016109d8565b0390fd5b60081c90565b60ff1690565b610a31610a3691610a19565b610a1f565b90565b610a439054610a25565b90565b634e487b7160e01b5f52603260045260245ffd5b5061010090565b90565b610a6d81610a5a565b821015610a8757610a7f600291610a61565b910201905f90565b610a46565b634e487b7160e01b5f525f60045260245ffd5b5f1b90565b90610ab560018060a01b0391610a9f565b9181191691161790565b90565b90610ad7610ad2610ade9261094b565b610abf565b8254610aa4565b9055565b634e487b7160e01b5f52604160045260245ffd5b634e487b7160e01b5f52602260045260245ffd5b9060016002830492168015610b2a575b6020831014610b2557565b610af6565b91607f1691610b1a565b5f5260205f2090565b601f602091010490565b1b90565b91906008610b66910291610b605f1984610b47565b92610b47565b9181191691161790565b610b84610b7f610b8992610454565b610920565b610454565b90565b90565b9190610ba5610ba0610bad93610b70565b610b8c565b908354610b4b565b9055565b5f90565b610bc791610bc1610bb1565b91610b8f565b565b5b818110610bd5575050565b80610be25f600193610bb5565b01610bca565b9190601f8111610bf8575b505050565b610c04610c2993610b34565b906020610c1084610b3d565b83019310610c31575b610c2290610b3d565b0190610bc9565b5f8080610bf3565b9150610c2281929050610c19565b1c90565b90610c53905f1990600802610c3f565b191690565b81610c6291610c43565b906002021790565b91610c759082610853565b9067ffffffffffffffff8211610d3457610c9982610c938554610b0a565b85610be8565b5f90601f8311600114610ccc57918091610cbb935f92610cc0575b5050610c58565b90555b565b90915001355f80610cb4565b601f19831691610cdb85610b34565b925f5b818110610d1c57509160029391856001969410610d02575b50505002019055610cbe565b610d12910135601f841690610c43565b90555f8080610cf6565b91936020600181928787013581550195019201610cde565b610ae2565b90610d449291610c6a565b565b90610d736001610d7993610d675f8201610d615f8701610857565b90610ac2565b0191602081019061080c565b91610d39565b565b9190610d8c57610d8a91610d46565b565b610a8c565b6fffffffffffffffffffffffffffffffff1690565b610db2610db791610864565b610d91565b90565b610dc49054610da6565b90565b634e487b7160e01b5f52601160045260245ffd5b610de49061056f565b6fffffffffffffffffffffffffffffffff8114610e015760010190565b610dc7565b90610e216fffffffffffffffffffffffffffffffff91610a9f565b9181191691161790565b610e3f610e3a610e449261056f565b610920565b61056f565b90565b90565b90610e5f610e5a610e6692610e2b565b610e47565b8254610e06565b9055565b50610e79906020810190610703565b90565b5f80fd5b5f80fd5b5f80fd5b9035600160200382360303811215610ec957016020813591019167ffffffffffffffff8211610ec4576001820236038313610ebf57565b610e80565b610e7c565b610e84565b90825f939282370152565b9190610ef381610eec81610ef89561034f565b8095610ece565b610363565b0190565b610f3891610f2a6040820192610f20610f175f830183610e6a565b5f85019061032b565b6020810190610e88565b916020818503910152610ed9565b90565b610f449061056f565b9052565b92916020610f64610f6c9360408701908782035f890152610efc565b940190610f3b565b565b610f8d610f88610f8283602081019061080c565b90610853565b613348565b33610faa610fa4610f9f5f8501610857565b61031f565b9161031f565b148015611075575b610fbb906108f7565b611011610fde610fd95f600101610fd35f8601610857565b90610957565b61096d565b610ff1610fec5f830161098a565b6109f0565b61100b83916110055f600180019201610a39565b90610a64565b90610d7b565b61102f61102761102261020c610dba565b610ddb565b61020c610e4a565b61103a61020c610dba565b7f5aab2c32b1e447db4dba1d2790fe8b863d4775042b10b92e00dab9d6b671b5b5916110706110676100d2565b92839283610f48565b0390a1565b50610fbb3361109461108e6110895f610888565b61031f565b9161031f565b149050610fb2565b5f7f6e6f7420746865206f776e657200000000000000000000000000000000000000910152565b6110d0600d602092610895565b6110d98161109c565b0190565b6110f29060208101905f8183039101526110c3565b90565b156110fc57565b6111046100d2565b62461bcd60e51b81528061111a600482016110dd565b0390fd5b9061114c916111473361114161113b6111365f610888565b61031f565b9161031f565b146110f5565b61147f565b565b151590565b5f7f616c726561647920657869737473000000000000000000000000000000000000910152565b611187600e602092610895565b61119081611153565b0190565b6111a99060208101905f81830391015261117a565b90565b156111b357565b6111bb6100d2565b62461bcd60e51b8152806111d160048201611194565b0390fd5b6111df9054610b0a565b90565b90565b6111f96111f46111fe926111e2565b610920565b610454565b90565b5f7f736c6f74206f6363757069656400000000000000000000000000000000000000910152565b611235600d602092610895565b61123e81611201565b0190565b6112579060208101905f818303910152611228565b90565b1561126157565b6112696100d2565b62461bcd60e51b81528061127f60048201611242565b0390fd5b9061128d90610363565b810190811067ffffffffffffffff8211176112a757604052565b610ae2565b906112bf6112b86100d2565b9283611283565b565b6112cb60406112ac565b90565b906112d89061114e565b9052565b906112e690610168565b9052565b6112f4905161114e565b90565b9061130360ff91610a9f565b9181191691161790565b6113169061114e565b90565b90565b9061133161132c6113389261130d565b611319565b82546112f7565b9055565b6113469051610168565b90565b60081b90565b9061135c61ff0091611349565b9181191691161790565b61137a61137561137f92610168565b610920565b610168565b90565b90565b9061139a6113956113a192611366565b611382565b825461134f565b9055565b906113cf60205f6113d5946113c78282016113c18488016112ea565b9061131c565b01920161133c565b90611385565b565b906113e1916113a5565b565b90565b6113f26113f791610864565b6113e3565b90565b61140490546113e6565b90565b906114135f1991610a9f565b9181191691161790565b9061143261142d61143992610b70565b610b8c565b8254611407565b9055565b61144690610168565b9052565b93929061147560409161147d9461146860608901925f8a019061143d565b8782036020890152610efc565b940190610f3b565b565b61149e61149961149384602081019061080c565b90610853565b613348565b6114d16114cc6114c65f6114c0816001016114ba838901610857565b90610957565b0161098a565b1561114e565b6111ac565b6115056114ed60016114e68180018590610a64565b50016111d5565b6114ff6114f95f6111e5565b91610454565b1461125a565b611548600161152b836115226115196112c1565b935f85016112ce565b602083016112dc565b6115435f60010161153d5f8701610857565b90610957565b6113d7565b6115608261155a600180018490610a64565b90610d7b565b61158661157b6115746102016001016113fa565b83906133d2565b61020160010161141d565b6115a461159c61159761020c610dba565b610ddb565b61020c610e4a565b906115b061020c610dba565b916115e77f952e65f049c574f487580ba41dcf6b0ea8350ef8abc8647a8a11dfaa7af6bad6936115de6100d2565b9384938461144a565b0390a1565b906115f69161111e565b565b611625906116203361161a61161461160f5f610888565b61031f565b9161031f565b146110f5565b6116a9565b565b5f7f6d6967726174696f6e20696e2070726f67726573730000000000000000000000910152565b61165b6015602092610895565b61166481611627565b0190565b61167d9060208101905f81830391015261164e565b90565b1561168757565b61168f6100d2565b62461bcd60e51b8152806116a560048201611668565b0390fd5b6116cb906116c66116c16116bb613401565b1561114e565b611680565b61174f565b565b5f7f6d61696e74656e616e636520696e2070726f6772657373000000000000000000910152565b6117016017602092610895565b61170a816116cd565b0190565b6117239060208101905f8183039101526116f4565b90565b1561172d57565b6117356100d2565b62461bcd60e51b81528061174b6004820161170e565b0390fd5b6117719061176c61176761176161342f565b1561114e565b611726565b611a66565b565b61177c81610454565b0361178357565b5f80fd5b3561179181611773565b90565b5f7f696e76616c6964206269746d61736b0000000000000000000000000000000000910152565b6117c8600f602092610895565b6117d181611794565b0190565b6117ea9060208101905f8183039101526117bb565b90565b156117f457565b6117fc6100d2565b62461bcd60e51b815280611812600482016117d5565b0390fd5b67ffffffffffffffff1690565b61182f61183491610864565b611816565b90565b6118419054611823565b90565b61184d906104f7565b67ffffffffffffffff81146118625760010190565b610dc7565b9061187a67ffffffffffffffff91610a9f565b9181191691161790565b61189861189361189d926104f7565b610920565b6104f7565b90565b90565b906118b86118b36118bf92611884565b6118a0565b8254611867565b9055565b90565b6118da6118d56118df926118c3565b610920565b6104f7565b90565b634e487b7160e01b5f52601260045260245ffd5b611902611908916104f7565b916104f7565b908115611913570690565b6118e2565b50600290565b90565b61192a81611918565b8210156119445761193c60029161191e565b910201905f90565b610a46565b356119538161016e565b90565b9061196b61196661197292611366565b611382565b82546112f7565b9055565b906119a1602060016119a7946119995f82016119935f8801611787565b9061141d565b019201611949565b90611956565b565b91906119ba576119b891611976565b565b610a8c565b6119c8906104f7565b9052565b905035906119d982611773565b565b506119ea9060208101906119cc565b90565b506119fc906020810190610182565b90565b906020611a2a611a3293611a21611a185f8301836119db565b5f860190610457565b828101906119ed565b910190610464565b565b606090611a5d611a649496959396611a5360808401985f8501906119bf565b60208301906119ff565b0190610f3b565b565b611a90611a8b611a775f8401611787565b611a856102016001016113fa565b90613464565b6117ed565b611aaf5f61020901611aa9611aa482611837565b611844565b906118a3565b611acd611ac5611ac0610207611837565b611844565b6102076118a3565b611b0181611afb610203611af5611ae5610207611837565b611aef60026118c6565b906118f6565b90611921565b906119a9565b611b1a611b0f5f8301611787565b60016102090161141d565b611b38611b30611b2b61020c610dba565b610ddb565b61020c610e4a565b611b455f61020901611837565b90611b5161020c610dba565b91611b887f490341fd8fc7a8294fbad1cc0db9f41ae0ac5aeb655ea31b46a475ec3a77749c93611b7f6100d2565b93849384611a34565b0390a1565b611b96906115f8565b565b5f7f6e6f206d61696e74656e616e6365000000000000000000000000000000000000910152565b611bcc600e602092610895565b611bd581611b98565b0190565b611bee9060208101905f818303910152611bbf565b90565b15611bf857565b611c006100d2565b62461bcd60e51b815280611c1660048201611bd9565b0390fd5b611c2a611c2561342f565b611bf1565b611c32611c71565b565b611c48611c43611c4d926111e2565b610920565b610314565b90565b611c5990611c34565b90565b9190611c6f905f60208501940190610f3b565b565b611c7e5f61020b01610888565b611c90611c8a3361031f565b9161031f565b148015611d1b575b611ca1906108f7565b611cb7611cad5f611c50565b5f61020b01610ac2565b611cd5611ccd611cc861020c610dba565b610ddb565b61020c610e4a565b611ce061020c610dba565b611d167f11943d6deda6f0591d72674788d272eb0209e18b8a3a021fa51cb3b5e9a2ab6191611d0d6100d2565b91829182611c5c565b0390a1565b50611ca133611d3a611d34611d2f5f610888565b61031f565b9161031f565b149050611c98565b611d4a611c1a565b565b611d7990611d7433611d6e611d68611d635f610888565b61031f565b9161031f565b146110f5565b611e78565b565b611d8481610511565b03611d8b57565b5f80fd5b35611d9981611d7b565b90565b90611da961ffff91610a9f565b9181191691161790565b611dc7611dc2611dcc92610511565b610920565b610511565b90565b90565b90611de7611de2611dee92611db3565b611dcf565b8254611d9c565b9055565b90611e045f80611e0a94019201611d8f565b90611dd2565b565b90611e1691611df2565b565b90503590611e2582611d7b565b565b50611e36906020810190611e18565b90565b905f611e4b611e539382810190611e27565b910190610518565b565b916020611e76929493611e6f60408201965f830190611e39565b0190610f3b565b565b611e8481610208611e0c565b611ea2611e9a611e9561020c610dba565b610ddb565b61020c610e4a565b611ead61020c610dba565b7fb24d8d9dcfbb6be13176c1c7bfb0e76445a9ba2a3553b413d8671446f103083091611ee3611eda6100d2565b92839283611e55565b0390a1565b611ef190611d4c565b565b611efe6101006112ac565b90565b5f90565b606090565b67ffffffffffffffff8111611f1f5760200290565b610ae2565b611f30611f3591611f0a565b6112ac565b90565b611f4260406112ac565b90565b5f90565b5f90565b611f55611f38565b9060208083611f62611f45565b815201611f6d611f49565b81525050565b611f7b611f4d565b90565b5f5b828110611f8c57505050565b602090611f97611f73565b8184015201611f80565b90611fbf611fae83611f24565b92611fb98491611f0a565b90611f7e565b565b611fcb6002611fa1565b90565b5f90565b611fdc60206112ac565b90565b5f90565b611feb611fd2565b90602082611ff7611fdf565b81525050565b612005611fe3565b90565b61201260406112ac565b90565b61201d612008565b906020808361202a611fce565b815201612035611f45565b81525050565b612043612015565b90565b61205060206112ac565b90565b61205b612046565b90602082612067611f01565b81525050565b612075612053565b90565b5f90565b612084611ef3565b9060208080808080808089612097611f01565b8152016120a2611f05565b8152016120ad611fc1565b8152016120b8611fce565b8152016120c3611ffd565b8152016120ce61203b565b8152016120d961206d565b8152016120e4612078565b81525050565b6120f261207c565b90565b90565b61210c612107612111926120f5565b610920565b610454565b90565b61212361212991939293610454565b92610454565b820180921161213457565b610dc7565b67ffffffffffffffff81116121515760208091020190565b610ae2565b9061216861216383612139565b6112ac565b918252565b61217760406112ac565b90565b606090565b61218761216d565b9060208083612194611f01565b81520161219f61217a565b81525050565b6121ad61217f565b90565b5f5b8281106121be57505050565b6020906121c96121a5565b81840152016121b2565b906121f86121e083612156565b926020806121ee8693612139565b92019103906121b0565b565b6122056101006112ac565b90565b906122129061031f565b9052565b52565b9061222390610454565b9052565b61223361223891610864565b610a1f565b90565b6122459054612227565b90565b9061227f6122766001612259611f38565b946122706122685f83016113fa565b5f8801612219565b0161223b565b602084016112dc565b565b61228a90612248565b90565b9061229782611918565b6122a081611f24565b926122ab849161191e565b5f915b8383106122bb5750505050565b600260206001926122cb85612281565b8152019201920191906122ae565b6122e29061228d565b90565b52565b906122f2906104f7565b9052565b61ffff1690565b61230961230e91610864565b6122f6565b90565b61231b90546122fd565b90565b9061232890610511565b9052565b9061234b6123435f61233c611fd2565b9401612311565b5f840161231e565b565b6123569061232c565b90565b52565b9061239361238a600161236d612008565b9461238461237c5f8301611837565b5f88016122e8565b016113fa565b60208401612219565b565b61239e9061235c565b90565b52565b906123c36123bb5f6123b4612046565b9401610888565b5f8401612208565b565b6123ce906123a4565b90565b52565b906123de9061056f565b9052565b6123eb90610454565b5f1981146123f95760010190565b610dc7565b61241261240d61241792610454565b610920565b610168565b90565b9061242482610338565b811015612435576020809102010190565b610a46565b905f929180549061245461244d83610b0a565b809461034f565b916001811690815f146124ab575060011461246f575b505050565b61247c9192939450610b34565b915f925b81841061249357505001905f808061246a565b60018160209295939554848601520191019290612480565b92949550505060ff19168252151560200201905f808061246a565b906124d09161243a565b90565b906124f36124ec926124e36100d2565b938480926124c6565b0383611283565b565b52565b9061252f612526600161250961216d565b946125206125185f8301610888565b5f8801612208565b016124d3565b602084016124f5565b565b61253a906124f8565b90565b6125456120ea565b50600161020101612555906113fa565b61255e9061348f565b6125675f610888565b816001612573906120f8565b61257c91612114565b612585906121d3565b610203612593610207611837565b6102086102099161020b936125a961020c610dba565b956125b26121fa565b975f8901906125c091612208565b60208801906125ce91612216565b6125d7906122d9565b60408701906125e5916122e5565b60608601906125f3916122e8565b6125fc9061234d565b608085019061260a91612359565b61261390612395565b60a0840190612621916123a1565b61262a906123c5565b60c0830190612638916123d1565b60e0820190612646916123d4565b600161020101612655906113fa565b925f612660906111e5565b5b8061267461266e86610454565b91610454565b116126d7576126cd906126908661268a836123fe565b906134a4565b6126d2576126c56126a5600180018390610a64565b5060208601516126b58492612531565b6126bf838361241a565b5261241a565b51505b6123e2565b612661565b6126c8565b509250905090565b5f7f6e6f206d6967726174696f6e0000000000000000000000000000000000000000910152565b612713600c602092610895565b61271c816126df565b0190565b6127359060208101905f818303910152612706565b90565b1561273f57565b6127476100d2565b62461bcd60e51b81528061275d60048201612720565b0390fd5b61277a90612775612770613401565b612738565b612910565b565b5f7f77726f6e67206d6967726174696f6e2069640000000000000000000000000000910152565b6127b06012602092610895565b6127b98161277c565b0190565b6127d29060208101905f8183039101526127a3565b90565b156127dc57565b6127e46100d2565b62461bcd60e51b8152806127fa600482016127bd565b0390fd5b61280860406112ac565b90565b906128416128385f61281b6127fe565b9461283261282a83830161098a565b8388016112ce565b01610a39565b602084016112dc565b565b61284c9061280b565b90565b5f7f6e6f742070756c6c696e67000000000000000000000000000000000000000000910152565b612883600b602092610895565b61288c8161284f565b0190565b6128a59060208101905f818303910152612876565b90565b156128af57565b6128b76100d2565b62461bcd60e51b8152806128cd60048201612890565b0390fd5b6128da9061031f565b9052565b60409061290761290e94969593966128fd60608401985f8501906119bf565b60208301906128d1565b0190610f3b565b565b6129389061293261292c6129275f61020901611837565b6104f7565b916104f7565b146127d5565b6129bd6129b261295461294f5f6001013390610957565b612843565b6129676129625f83016112ea565b6109f0565b61299261298d61297b6001610209016113fa565b6129876020850161133c565b906134e2565b6128a8565b6129ac60206129a56001610209016113fa565b920161133c565b90613521565b60016102090161141d565b6129db6129d36129ce61020c610dba565b610ddb565b61020c610e4a565b6129e96001610209016113fa565b6129fb6129f55f6111e5565b91610454565b145f14612a5857612a0f5f61020901611837565b33612a1b61020c610dba565b91612a527f01269879535f40ee8957e15e160bf1866c5e2728ff0cbc583d848821e2639b4e93612a496100d2565b938493846128de565b0390a15b565b612a655f61020901611837565b33612a7161020c610dba565b91612aa87faf5e90e72015f43138f66b4cd08bd1dfa2839030104f22a00af843fe847c6d1993612a9f6100d2565b938493846128de565b0390a1612a56565b612ab990612761565b565b612ae890612ae333612add612ad7612ad25f610888565b61031f565b9161031f565b146110f5565b612d89565b565b5f7f696e206b65797370616365000000000000000000000000000000000000000000910152565b612b1e600b602092610895565b612b2781612aea565b0190565b612b409060208101905f818303910152612b11565b90565b15612b4a57565b612b526100d2565b62461bcd60e51b815280612b6860048201612b2b565b0390fd5b5f80910155565b905f03612b8557612b8390612b6c565b565b610a8c565b90612b9d905f1990602003600802610c3f565b8154169055565b905f91612bbb612bb382610b34565b928354610c58565b905555565b919290602082105f14612c1957601f8411600114612be957612be3929350610c58565b90555b5b565b5090612c0f612c14936001612c06612c0085610b34565b92610b3d565b82019101610bc9565b612ba4565b612be6565b50612c508293612c2a600194610b34565b612c49612c3685610b3d565b820192601f861680612c5b575b50610b3d565b0190610bc9565b600202179055612be7565b612c6790888603612b8a565b5f612c43565b929091680100000000000000008211612ccd576020115f14612cbe57602081105f14612ca257612c9c91610c58565b90555b5b565b60019160ff1916612cb284610b34565b55600202019055612c9f565b60019150600202019055612ca0565b610ae2565b908154612cde81610b0a565b90818311612d07575b818310612cf5575b50505050565b612cfe93612bc0565b5f808080612cef565b612d1383838387612c6d565b612ce7565b5f612d2291612cd2565b565b905f03612d3657612d3490612d18565b565b610a8c565b5f6001612d4d92828082015501612d24565b565b905f03612d6157612d5f90612d3b565b565b610a8c565b916020612d87929493612d8060408201965f8301906128d1565b0190610f3b565b565b612e4e612e43612dc25f612da9612da4826001018790610957565b61096d565b612dbc612db783830161098a565b6109f0565b01610a39565b612dca613401565b5f14612ee057612df2612deb5f612de46102038290611921565b50016113fa565b82906134a4565b80612eb2575b612e0190612b43565b5b612e195f612e14816001018790610957565b612b73565b612e30612e2a600180018390610a64565b90612d4f565b612e3e6102016001016113fa565b613521565b61020160010161141d565b612e6c612e64612e5f61020c610dba565b610ddb565b61020c610e4a565b612e7761020c610dba565b7f6a1d7ddc82d57e783a3ae60737a6c1a4704fcf38d966561fea0af8564f2d895d91612ead612ea46100d2565b92839283612d66565b0390a1565b50612e01612ed9612ed25f612ecb610203600190611921565b50016113fa565b83906134a4565b9050612df8565b612f27612f22612f1b5f612f14610203612f0e612efe610207611837565b612f0860026118c6565b906118f6565b90611921565b50016113fa565b83906134a4565b612b43565b612e02565b612f3590612abb565b565b612f5b33612f55612f4f612f4a5f610888565b61031f565b9161031f565b146110f5565b612f63612f65565b565b612f75612f70613401565b612738565b612f7d612fbe565b565b612f88906104f7565b5f8114612f96576001900390565b610dc7565b916020612fbc929493612fb560408201965f8301906119bf565b0190610f3b565b565b612fdc612fd4612fcf610207611837565b612f7f565b6102076118a3565b612ff3612fe85f6111e5565b60016102090161141d565b61301161300961300461020c610dba565b610ddb565b61020c610e4a565b61301e5f61020901611837565b61302961020c610dba565b7ff73240422246f63ed633ef3ce0726b8ab8fb69d46c8a4e5ecb0b2922668674a19161305f6130566100d2565b92839283612f9b565b0390a1565b61306c612f37565b565b61309b906130963361309061308a6130855f610888565b61031f565b9161031f565b146110f5565b61309d565b565b6130a7815f610ac2565b6130c56130bd6130b861020c610dba565b610ddb565b61020c610e4a565b6130d061020c610dba565b7f476610ebc6647c15376100955efbf22ef2a0c3b923fc00b380b660c873ef20ac916131066130fd6100d2565b92839283612d66565b0390a1565b6131149061306e565b565b61312f61312a613124613401565b1561114e565b611680565b613137613139565b565b61315261314d61314761342f565b1561114e565b611726565b61315a61315c565b565b6131745f61316e816001013390610957565b0161098a565b80156131f7575b613184906108f7565b613192335f61020b01610ac2565b6131b06131a86131a361020c610dba565b610ddb565b61020c610e4a565b336131bc61020c610dba565b7fbc2748cf02f7a1291525e866efc76ab3b96d32d7afcbb26c53daec617b38b479916131f26131e96100d2565b92839283612d66565b0390a1565b506131843361321661321061320b5f610888565b61031f565b9161031f565b14905061317b565b613226613116565b565b5f7f656d707479206f70657261746f72206461746100000000000000000000000000910152565b61325c6013602092610895565b61326581613228565b0190565b61327e9060208101905f81830391015261324f565b90565b1561328857565b6132906100d2565b62461bcd60e51b8152806132a660048201613269565b0390fd5b6132be6132b96132c392610511565b610920565b610454565b90565b5f7f6f70657261746f72206461746120746f6f206c61726765000000000000000000910152565b6132fa6017602092610895565b613303816132c6565b0190565b61331c9060208101905f8183039101526132ed565b90565b1561332657565b61332e6100d2565b62461bcd60e51b81528061334460048201613307565b0390fd5b61338d906133688161336261335c5f6111e5565b91610454565b11613281565b61338661338061337b5f61020801612311565b6132aa565b91610454565b111561331f565b565b6133a361339e6133a892610168565b610920565b610454565b90565b6133ca906133c46133be6133cf94610454565b91610454565b90610b47565b610454565b90565b6133f9906133de610bb1565b50916133f46133ee60019261338f565b916120f8565b6133ab565b1790565b5f90565b6134096133fd565b506134186001610209016113fa565b61342a6134245f6111e5565b91610454565b141590565b6134376133fd565b506134455f61020b01610888565b61345f6134596134545f611c50565b61031f565b9161031f565b141590565b613478906134706133fd565b509119610454565b1661348b6134855f6111e5565b91610454565b1490565b6134a19061349b610bb1565b50613714565b90565b6134cb906134b06133fd565b50916134c66134c060019261338f565b916120f8565b6133ab565b166134de6134d85f6111e5565b91610454565b1490565b613509906134ee6133fd565b50916135046134fe60019261338f565b916120f8565b6133ab565b1661351c6135165f6111e5565b91610454565b141590565b61354b61355191613530610bb1565b509261354661354060019261338f565b916120f8565b6133ab565b19610454565b1690565b90565b61356c61356761357192613555565b610920565b610454565b90565b90565b61358b61358661359092613574565b610920565b610168565b90565b6135b2906135ac6135a66135b794610168565b91610454565b90610b47565b610454565b90565b6135d9906135d36135cd6135de94610454565b91610454565b90610c3f565b610454565b90565b90565b6135f86135f36135fd926135e1565b610920565b610454565b90565b90565b61361761361261361c92613600565b610920565b610168565b90565b90565b61363661363161363b9261361f565b610920565b610454565b90565b90565b61365561365061365a9261363e565b610920565b610168565b90565b90565b61367461366f6136799261365d565b610920565b610454565b90565b90565b61369361368e6136989261367c565b610920565b610168565b90565b90565b6136b26136ad6136b79261369b565b610920565b610454565b90565b90565b6136d16136cc6136d6926136ba565b610920565b610168565b90565b90565b6136f06136eb6136f5926136d9565b610920565b610454565b90565b61370c613707613711926118c3565b610920565b610168565b90565b61371c610bb1565b5061375c61374c826137466137406fffffffffffffffffffffffffffffffff613558565b91610454565b116138a9565b6137566007613577565b90613593565b61379d61378d61376d8484906135ba565b61378761378167ffffffffffffffff6135e4565b91610454565b116138a9565b6137976006613603565b90613593565b176137db6137cb6137af8484906135ba565b6137c56137bf63ffffffff613622565b91610454565b116138a9565b6137d56005613641565b90613593565b176138176138076137ed8484906135ba565b6138016137fb61ffff613660565b91610454565b116138a9565b613811600461367f565b90613593565b176138526138426138298484906135ba565b61383c61383660ff61369e565b91610454565b116138a9565b61384c60036136bd565b90613593565b1761388d61387d6138648484906135ba565b613877613871600f6136dc565b91610454565b116138a9565b61388760026136f8565b90613593565b17906d010102020202030303030303030360801b90821c1a1790565b6138b1610bb1565b5015159056fea264697066735822122015abc4566b5a4eece53e06dab0721de14be34963877d9977ca41a88371cca70b64736f6c634300081c0033","linkReferences":{}},"methodIdentifiers":{"abortMigration()":"c130809a","addNodeOperator(uint8,(address,bytes))":"2b726062","completeMigration(uint64)":"9d44e717","finishMaintenance()":"53bfb584","getView()":"75418b9d","removeNodeOperator(address)":"c05665dd","startMaintenance()":"f5f2d9f1","startMigration((uint256,uint8))":"47011c5c","transferOwnership(address)":"f2fde38b","updateNodeOperator((address,bytes))":"26322217","updateSettings((uint16))":"65706f9c"},"id":24}