{"abi":[{"type":"constructor","inputs":[{"name":"initialSettings","type":"tuple","internalType":"struct Settings","components":[{"name":"maxOperatorDataBytes","type":"uint16","internalType":"uint16"}]},{"name":"initialOperators","type":"tuple[]","internalType":"struct NodeOperator[]","components":[{"name":"addr","type":"address","internalType":"address"},{"name":"data","type":"bytes","internalType":"bytes"},{"name":"maintenance","type":"bool","internalType":"bool"}]}],"stateMutability":"nonpayable"},{"type":"function","name":"abortMigration","inputs":[{"name":"id","type":"uint64","internalType":"uint64"}],"outputs":[],"stateMutability":"nonpayable"},{"type":"function","name":"acceptOwnership","inputs":[],"outputs":[],"stateMutability":"nonpayable"},{"type":"function","name":"addNodeOperator","inputs":[{"name":"operator","type":"tuple","internalType":"struct NodeOperator","components":[{"name":"addr","type":"address","internalType":"address"},{"name":"data","type":"bytes","internalType":"bytes"},{"name":"maintenance","type":"bool","internalType":"bool"}]}],"outputs":[],"stateMutability":"nonpayable"},{"type":"function","name":"completeMigration","inputs":[{"name":"id","type":"uint64","internalType":"uint64"}],"outputs":[],"stateMutability":"nonpayable"},{"type":"function","name":"getAllOperators","inputs":[],"outputs":[{"name":"","type":"address[]","internalType":"address[]"}],"stateMutability":"view"},{"type":"function","name":"getCurrentKeyspace","inputs":[],"outputs":[{"name":"","type":"address[]","internalType":"address[]"},{"name":"","type":"uint8","internalType":"uint8"}],"stateMutability":"view"},{"type":"function","name":"getMaintenanceOperators","inputs":[],"outputs":[{"name":"","type":"address[]","internalType":"address[]"}],"stateMutability":"view"},{"type":"function","name":"getMigrationStatus","inputs":[],"outputs":[{"name":"id","type":"uint64","internalType":"uint64"},{"name":"remaining","type":"uint16","internalType":"uint16"},{"name":"inProgress","type":"bool","internalType":"bool"}],"stateMutability":"view"},{"type":"function","name":"getOperatorAt","inputs":[{"name":"index","type":"uint256","internalType":"uint256"}],"outputs":[{"name":"","type":"address","internalType":"address"}],"stateMutability":"view"},{"type":"function","name":"getOperatorCount","inputs":[],"outputs":[{"name":"","type":"uint256","internalType":"uint256"}],"stateMutability":"view"},{"type":"function","name":"getPullingOperators","inputs":[],"outputs":[{"name":"","type":"address[]","internalType":"address[]"}],"stateMutability":"view"},{"type":"function","name":"info","inputs":[{"name":"","type":"address","internalType":"address"}],"outputs":[{"name":"addr","type":"address","internalType":"address"},{"name":"data","type":"bytes","internalType":"bytes"},{"name":"maintenance","type":"bool","internalType":"bool"}],"stateMutability":"view"},{"type":"function","name":"isInitialized","inputs":[],"outputs":[{"name":"","type":"bool","internalType":"bool"}],"stateMutability":"view"},{"type":"function","name":"isOperator","inputs":[{"name":"addr","type":"address","internalType":"address"}],"outputs":[{"name":"","type":"bool","internalType":"bool"}],"stateMutability":"view"},{"type":"function","name":"isPulling","inputs":[{"name":"","type":"address","internalType":"address"}],"outputs":[{"name":"","type":"bool","internalType":"bool"}],"stateMutability":"view"},{"type":"function","name":"keyspaceVersion","inputs":[],"outputs":[{"name":"","type":"uint64","internalType":"uint64"}],"stateMutability":"view"},{"type":"function","name":"keyspaces","inputs":[{"name":"","type":"uint256","internalType":"uint256"}],"outputs":[{"name":"replicationStrategy","type":"uint8","internalType":"uint8"}],"stateMutability":"view"},{"type":"function","name":"migrationId","inputs":[],"outputs":[{"name":"","type":"uint64","internalType":"uint64"}],"stateMutability":"view"},{"type":"function","name":"owner","inputs":[],"outputs":[{"name":"","type":"address","internalType":"address"}],"stateMutability":"view"},{"type":"function","name":"pendingOwner","inputs":[],"outputs":[{"name":"","type":"address","internalType":"address"}],"stateMutability":"view"},{"type":"function","name":"pullingCount","inputs":[],"outputs":[{"name":"","type":"uint16","internalType":"uint16"}],"stateMutability":"view"},{"type":"function","name":"removeNodeOperator","inputs":[{"name":"operatorAddr","type":"address","internalType":"address"}],"outputs":[],"stateMutability":"nonpayable"},{"type":"function","name":"renounceOwnership","inputs":[],"outputs":[],"stateMutability":"nonpayable"},{"type":"function","name":"setMaintenance","inputs":[{"name":"active","type":"bool","internalType":"bool"}],"outputs":[],"stateMutability":"nonpayable"},{"type":"function","name":"settings","inputs":[],"outputs":[{"name":"maxOperatorDataBytes","type":"uint16","internalType":"uint16"}],"stateMutability":"view"},{"type":"function","name":"startMigration","inputs":[{"name":"newOperators","type":"address[]","internalType":"address[]"},{"name":"replicationStrategy","type":"uint8","internalType":"uint8"}],"outputs":[],"stateMutability":"nonpayable"},{"type":"function","name":"transferOwnership","inputs":[{"name":"newOwner","type":"address","internalType":"address"}],"outputs":[],"stateMutability":"nonpayable"},{"type":"function","name":"updateNodeOperator","inputs":[{"name":"operator","type":"tuple","internalType":"struct NodeOperator","components":[{"name":"addr","type":"address","internalType":"address"},{"name":"data","type":"bytes","internalType":"bytes"},{"name":"maintenance","type":"bool","internalType":"bool"}]}],"outputs":[],"stateMutability":"nonpayable"},{"type":"function","name":"updateSettings","inputs":[{"name":"newSettings","type":"tuple","internalType":"struct Settings","components":[{"name":"maxOperatorDataBytes","type":"uint16","internalType":"uint16"}]}],"outputs":[],"stateMutability":"nonpayable"},{"type":"function","name":"version","inputs":[],"outputs":[{"name":"","type":"uint128","internalType":"uint128"}],"stateMutability":"view"},{"type":"event","name":"ClusterInitialized","inputs":[{"name":"operatorCount","type":"uint256","indexed":false,"internalType":"uint256"},{"name":"settings","type":"tuple","indexed":false,"internalType":"struct Settings","components":[{"name":"maxOperatorDataBytes","type":"uint16","internalType":"uint16"}]},{"name":"version","type":"uint128","indexed":false,"internalType":"uint128"}],"anonymous":false},{"type":"event","name":"MaintenanceToggled","inputs":[{"name":"operator","type":"address","indexed":true,"internalType":"address"},{"name":"active","type":"bool","indexed":false,"internalType":"bool"},{"name":"version","type":"uint128","indexed":false,"internalType":"uint128"}],"anonymous":false},{"type":"event","name":"MigrationAborted","inputs":[{"name":"id","type":"uint64","indexed":true,"internalType":"uint64"},{"name":"version","type":"uint128","indexed":false,"internalType":"uint128"}],"anonymous":false},{"type":"event","name":"MigrationCompleted","inputs":[{"name":"id","type":"uint64","indexed":true,"internalType":"uint64"},{"name":"operator","type":"address","indexed":true,"internalType":"address"},{"name":"version","type":"uint128","indexed":false,"internalType":"uint128"}],"anonymous":false},{"type":"event","name":"MigrationDataPullCompleted","inputs":[{"name":"id","type":"uint64","indexed":true,"internalType":"uint64"},{"name":"operator","type":"address","indexed":true,"internalType":"address"},{"name":"version","type":"uint128","indexed":false,"internalType":"uint128"}],"anonymous":false},{"type":"event","name":"MigrationStarted","inputs":[{"name":"id","type":"uint64","indexed":true,"internalType":"uint64"},{"name":"operators","type":"address[]","indexed":false,"internalType":"address[]"},{"name":"replicationStrategy","type":"uint8","indexed":false,"internalType":"uint8"},{"name":"keyspaceVersion","type":"uint64","indexed":false,"internalType":"uint64"},{"name":"version","type":"uint128","indexed":false,"internalType":"uint128"}],"anonymous":false},{"type":"event","name":"NodeOperatorAdded","inputs":[{"name":"operator","type":"address","indexed":true,"internalType":"address"},{"name":"operatorData","type":"tuple","indexed":false,"internalType":"struct NodeOperatorData","components":[{"name":"data","type":"bytes","internalType":"bytes"},{"name":"maintenance","type":"bool","internalType":"bool"}]},{"name":"version","type":"uint128","indexed":false,"internalType":"uint128"}],"anonymous":false},{"type":"event","name":"NodeOperatorRemoved","inputs":[{"name":"operator","type":"address","indexed":true,"internalType":"address"},{"name":"version","type":"uint128","indexed":false,"internalType":"uint128"}],"anonymous":false},{"type":"event","name":"NodeOperatorUpdated","inputs":[{"name":"operator","type":"address","indexed":true,"internalType":"address"},{"name":"operatorData","type":"tuple","indexed":false,"internalType":"struct NodeOperatorData","components":[{"name":"data","type":"bytes","internalType":"bytes"},{"name":"maintenance","type":"bool","internalType":"bool"}]},{"name":"version","type":"uint128","indexed":false,"internalType":"uint128"}],"anonymous":false},{"type":"event","name":"OwnershipTransferStarted","inputs":[{"name":"previousOwner","type":"address","indexed":true,"internalType":"address"},{"name":"newOwner","type":"address","indexed":true,"internalType":"address"}],"anonymous":false},{"type":"event","name":"OwnershipTransferred","inputs":[{"name":"previousOwner","type":"address","indexed":true,"internalType":"address"},{"name":"newOwner","type":"address","indexed":true,"internalType":"address"}],"anonymous":false},{"type":"event","name":"SettingsUpdated","inputs":[{"name":"newSettings","type":"tuple","indexed":false,"internalType":"struct Settings","components":[{"name":"maxOperatorDataBytes","type":"uint16","internalType":"uint16"}]},{"name":"updatedBy","type":"address","indexed":true,"internalType":"address"},{"name":"version","type":"uint128","indexed":false,"internalType":"uint128"}],"anonymous":false},{"type":"error","name":"CallerNotOperator","inputs":[]},{"type":"error","name":"InvalidOperator","inputs":[]},{"type":"error","name":"InvalidOperatorData","inputs":[]},{"type":"error","name":"MigrationInProgress","inputs":[]},{"type":"error","name":"NoMigrationInProgress","inputs":[]},{"type":"error","name":"NotInitialized","inputs":[]},{"type":"error","name":"OperatorExists","inputs":[]},{"type":"error","name":"OperatorInKeyspace","inputs":[]},{"type":"error","name":"OperatorNotFound","inputs":[]},{"type":"error","name":"OperatorNotPulling","inputs":[]},{"type":"error","name":"OwnableInvalidOwner","inputs":[{"name":"owner","type":"address","internalType":"address"}]},{"type":"error","name":"OwnableUnauthorizedAccount","inputs":[{"name":"account","type":"address","internalType":"address"}]},{"type":"error","name":"SameKeyspace","inputs":[]},{"type":"error","name":"TooManyOperators","inputs":[]},{"type":"error","name":"Unauthorized","inputs":[]},{"type":"error","name":"WrongMigrationId","inputs":[]}],"bytecode":{"object":"0x6080604052346100305761001a61001461034a565b90610a8a565b610022610035565b6141506113f8823961415090f35b61003b565b60405190565b5f80fd5b601f801991011690565b634e487b7160e01b5f52604160045260245ffd5b906100679061003f565b810190811060018060401b0382111761007f57604052565b610049565b90610097610090610035565b928361005d565b565b5f80fd5b5f80fd5b5f80fd5b5f80fd5b61ffff1690565b6100b9816100a9565b036100c057565b5f80fd5b905051906100d1826100b0565b565b91906020838203126100fb576100f5906100ed6020610084565b935f016100c4565b5f830152565b6100a1565b5f80fd5b60018060401b03811161011a5760208091020190565b610049565b5f80fd5b60018060a01b031690565b61013790610123565b90565b6101438161012e565b0361014a57565b5f80fd5b9050519061015b8261013a565b565b5f80fd5b60018060401b03811161017d5761017960209161003f565b0190565b610049565b90825f9392825e0152565b909291926101a261019d82610161565b610084565b938185526020850190828401116101be576101bc92610182565b565b61015d565b9080601f830112156101e1578160206101de9351910161018d565b90565b610100565b151590565b6101f4816101e6565b036101fb57565b5f80fd5b9050519061020c826101eb565b565b919091606081840312610271576102256060610084565b92610232815f840161014e565b5f85015260208201519160018060401b03831161026c57610258826102659483016101c3565b60208601526040016101ff565b6040830152565b6100a5565b6100a1565b92919061028a61028582610104565b610084565b93818552602080860192028101918383116102df5781905b8382106102b0575050505050565b815160018060401b0381116102da576020916102cf878493870161020e565b8152019101906102a2565b610100565b61011f565b9080601f83011215610302578160206102ff93519101610276565b90565b610100565b91909160408184031261034557610320835f83016100d3565b92602082015160018060401b0381116103405761033d92016102e4565b90565b61009d565b610099565b6103686155488038038061035d81610084565b928339810190610307565b9091565b5190565b90565b90565b90565b61038d61038861039292610370565b610376565b610373565b90565b6103a0610100610379565b90565b5f0190565b6103b290516100a9565b90565b5f1b90565b906103c761ffff916103b5565b9181191691161790565b6103e56103e06103ea926100a9565b610376565b6100a9565b90565b90565b9061040561040061040c926103d1565b6103ed565b82546103ba565b9055565b906104225f80610428940192016103a8565b906103f0565b565b9061043491610410565b565b90565b61044d61044861045292610436565b610376565b610373565b90565b634e487b7160e01b5f52603260045260245ffd5b906104738261036c565b811015610484576020809102010190565b610455565b90565b610496905161012e565b90565b6104ad6104a86104b292610123565b610376565b610123565b90565b6104be90610499565b90565b6104ca906104b5565b90565b906104d7906104c1565b5f5260205260405f2090565b906104f460018060a01b03916103b5565b9181191691161790565b90565b9061051661051161051d926104c1565b6104fe565b82546104e3565b9055565b5190565b5190565b634e487b7160e01b5f52602260045260245ffd5b906001600283049216801561055d575b602083101461055857565b610529565b91607f169161054d565b5f5260205f2090565b601f602091010490565b1b90565b919060086105999102916105935f198461057a565b9261057a565b9181191691161790565b6105b76105b26105bc92610373565b610376565b610373565b90565b90565b91906105d86105d36105e0936105a3565b6105bf565b90835461057e565b9055565b5f90565b6105fa916105f46105e4565b916105c2565b565b5b818110610608575050565b806106155f6001936105e8565b016105fd565b9190601f811161062b575b505050565b61063761065c93610567565b90602061064384610570565b83019310610664575b61065590610570565b01906105fc565b5f8080610626565b91506106558192905061064c565b1c90565b90610686905f1990600802610672565b191690565b8161069591610676565b906002021790565b906106a781610525565b9060018060401b038211610765576106c9826106c3855461053d565b8561061b565b602090601f83116001146106fd579180916106ec935f926106f1575b505061068b565b90555b565b90915001515f806106e5565b601f1983169161070c85610567565b925f5b81811061074d57509160029391856001969410610733575b505050020190556106ef565b610743910151601f841690610676565b90555f8080610727565b9193602060018192878701518155019501920161070f565b610049565b906107749161069d565b565b61078090516101e6565b90565b9061078f60ff916103b5565b9181191691161790565b6107a2906101e6565b90565b90565b906107bd6107b86107c492610799565b6107a5565b8254610783565b9055565b9061080c60406002610812946107eb5f82016107e55f880161048c565b90610501565b610804600182016107fe60208801610521565b9061076a565b019201610776565b906107a8565b565b9061081e916107c8565b565b600161082c9101610373565b90565b50600290565b90565b6108418161082f565b82101561085b57610853600291610835565b910201905f90565b610455565b5490565b600190818003010490565b5f5260205f2090565b5b818110610884575050565b806108915f6001936105e8565b01610879565b90918281106108a6575b505050565b6108c46108be6108b86108cf95610864565b92610864565b9261086f565b918201910190610878565b5f80806108a1565b9068010000000000000000811161090057816108f56108fe93610860565b90828155610897565b565b610049565b5190565b60200190565b60018060a01b031690565b9190600861093a91029161093460018060a01b038461057a565b9261057a565b9181191691161790565b61094d82610905565b9160018060401b0383116109ae5761097961097360019261096e86866108d7565b610909565b9261086f565b9204915f5b83811061098b5750505050565b60019060206109a161099c8661048c565b6104fe565b940193818401550161097e565b610049565b906109bd91610944565b565b5f1c90565b60018060801b031690565b6109db6109e0916109bf565b6109c4565b90565b6109ed90546109cf565b90565b6109f990610373565b9052565b61ffff1690565b610a10610a15916109bf565b6109fd565b90565b610a21906100a9565b9052565b905f610a3681610a3e940154610a04565b910190610a18565b565b60018060801b031690565b610a5490610a40565b9052565b604090610a81610a889496959396610a7760608401985f8501906109f0565b6020830190610a25565b0190610a4b565b565b610a9333610c1f565b610a9c8261036c565b610ab5610aaf610aaa610395565b610373565b91610373565b11610c0357610ac590600261042a565b610ace5f610439565b5b80610aea610ae4610adf8561036c565b610373565b91610373565b1015610b7f57610afb828290610469565b5190610b0a6020830151610cef565b610b31610b2b610b1a6004610489565b610b255f860161048c565b90610dc2565b156101e6565b610b6357610b5982610b54610b5e9491610b4e5f6006920161048c565b906104cd565b610814565b610820565b610acf565b5f632a322e2b60e01b815280610b7b600482016103a3565b0390fd5b50610bbb90610bb6610b99610b946004610489565b610e01565b610ba281610e29565b5f610baf60078290610838565b50016109b3565b61036c565b6002610bc760036109e3565b91610bfe7f188edf4ba92ec05c509ec997d073b181f8a92a86ee5010d93d1ca2e86851453d93610bf5610035565b93849384610a58565b0390a1565b5f636055dca160e01b815280610c1b600482016103a3565b0390fd5b610c2890610c74565b565b610c3e610c39610c4392610436565b610376565b610123565b90565b610c4f90610c2a565b90565b610c5b9061012e565b9052565b9190610c72905f60208501940190610c52565b565b80610c8f610c89610c845f610c46565b61012e565b9161012e565b14610c9f57610c9d90610e76565b565b610cc2610cab5f610c46565b5f918291631e4fbdf760e01b835260048301610c5f565b0390fd5b610cd09054610a04565b90565b610ce7610ce2610cec926100a9565b610376565b610373565b90565b610cf881610525565b610d0a610d045f610439565b91610373565b14610d5857610d1890610525565b610d35610d2f610d2a5f600201610cc6565b610cd3565b91610373565b11610d3c57565b5f635e9b2d5360e01b815280610d54600482016103a3565b0390fd5b5f635e9b2d5360e01b815280610d70600482016103a3565b0390fd5b5f90565b610d8190610499565b90565b610d98610d93610d9d92610123565b610376565b610373565b90565b90565b610db7610db2610dbc92610373565b6103b5565b610da0565b90565b90565b90610df4610dee610de9610de45f610df996610ddc610d74565b500194610d78565b610d84565b610da3565b91610dbf565b610f83565b90565b606090565b610e185f610e1d92610e11610dfc565b5001610dbf565b6110d7565b610e25610dfc565b5090565b610e35610e3a916110f3565b611272565b565b9190610e52610e4d610e5a936104c1565b6104fe565b90835461091a565b9055565b5f90565b610e7491610e6e610e5e565b91610e3c565b565b610e8a90610e855f6001610e62565b61133f565b565b90565b5f5260205f2090565b5490565b610ea581610e98565b821015610ebf57610eb7600191610e8f565b910201905f90565b610455565b610ecd90610da0565b90565b610ed9906109bf565b90565b9190610ef2610eed610efa93610ec4565b610ed0565b90835461057e565b9055565b9081549168010000000000000000831015610f2e5782610f26916001610f2c95018155610e9c565b90610edc565b565b610049565b5490565b90610f4190610ec4565b5f5260205260405f2090565b90610f595f19916103b5565b9181191691161790565b90610f78610f73610f7f926105a3565b6105bf565b8254610f4d565b9055565b610f8b610d74565b50610fa0610f9a8284906113c2565b156101e6565b5f14610fe057610fd6610fdb92610fc2610fbb5f8501610e8c565b8290610efe565b6001610fcf5f8501610f33565b9301610f37565b610f63565b600190565b50505f90565b606090565b60209181520190565b5f5260205f2090565b61100690610da0565b9052565b9061101781602093610ffd565b0190565b90565b61102a61102f916109bf565b61101b565b90565b61103c905461101e565b90565b60010190565b9061106261105c61105584610f33565b8093610feb565b92610ff4565b905f5b8181106110725750505090565b90919261109261108c60019261108787611032565b61100a565b9461103f565b9101919091611065565b906110a691611045565b90565b906110c96110c2926110b9610035565b9384809261109c565b038361005d565b565b6110d4906110a9565b90565b5f6110eb916110e4610fe6565b50016110cb565b90565b606090565b6110fb6110ee565b5090565b9091565b908151918151905252565b61018082840311156111f55781601f1683830160061c60051b0182518151808210156111e7575b8551808210156111be575b86528252835251918392815b5b6020018051821161114d57935b83018051821061115a57938481101561117c576111778582611103565b61114c565b505090928060208401036111aa575b50808203611199575b505050565b6111a29261110e565b5f8080611194565b6111b890602084018561110e565b5f61118b565b6111c7916110ff565b818310156111d5575b611140565b91906111e0916110ff565b90916111d0565b6111f0916110ff565b611135565b91929080602080920190815181511015611262575b505b0183811161125c57805193838201805186811115611250579085915b60208201520180518681111561124057908591611228565b509460208093929601525b61120c565b5050935060209061124b565b50915050565b61126c9082611103565b5f61120a565b8051906002821015611283575b5050565b601f19602082018360051b83019181835b805181840151111561131357111561130b5781835b80518184015110156113005711156112d157906112c992915f855261110e565b525f8061127f565b925092506020905b83518151855281528201920191808310156112f6576020906112d9565b5050505f8061127f565b9050810182906112a9565b50505061127f565b905081018290611294565b61132a61132f916109bf565b61090f565b90565b61133c905461131e565b90565b6113485f611332565b611352825f610501565b906113866113807f8be0079c531659141344cd1fd0a4f28419497f9722a3daafe3b4186f6b6457e0936104c1565b916104c1565b9161138f610035565b80611399816103a3565b0390a3565b90565b6113ad6113b2916109bf565b61139e565b90565b6113bf90546113a1565b90565b6113e09160016113db926113d4610d74565b5001610f37565b6113b5565b6113f26113ec5f610439565b91610373565b14159056fe60806040526004361015610013575b61115b565b61001d5f356101fc565b80630aae7a6b146101f75780630e89d8da146101f25780631a4a7c61146101ed578063392e53cd146101e857806344160458146101e35780634cc51e60146101de57806350647644146101d957806354fd4d50146101d45780635b59fd9b146101cf578063612f2f37146101ca57806365706f9c146101c557806366d1b187146101c05780636d70f7ae146101bb578063715018a6146101b657806373a18739146101b157806379ba5097146101ac5780638a3d4495146101a75780638da5cb5b146101a257806392265b651461019d5780639d44e71714610198578063a415c02c14610193578063c05665dd1461018e578063cc4bc50314610189578063d17b27d314610184578063d911c6321461017f578063e06174e41461017a578063e30c397814610175578063e88e974914610170578063f2fde38b1461016b5763f8c328d20361000e57611126565b6110f3565b6110c0565b61108b565b611056565b610ff1565b610fbc565b610f89565b610f56565b610f1e565b610eb9565b610e43565b610d1c565b610cd2565b610c90565b610c5b565b610bd3565b610b9e565b610b69565b610ac4565b610a60565b6109ea565b61099d565b6108e9565b610869565b61077c565b6106de565b610694565b610639565b610532565b60e01c90565b60405190565b5f80fd5b5f80fd5b5f80fd5b60018060a01b031690565b61022890610214565b90565b6102348161021f565b0361023b57565b5f80fd5b9050359061024c8261022b565b565b9060208282031261026757610264915f0161023f565b90565b61020c565b90565b61028361027e61028892610214565b61026c565b610214565b90565b6102949061026f565b90565b6102a09061028b565b90565b906102ad90610297565b5f5260205260405f2090565b5f1c90565b60018060a01b031690565b6102d56102da916102b9565b6102be565b90565b6102e790546102c9565b90565b634e487b7160e01b5f52602260045260245ffd5b906001600283049216801561031e575b602083101461031957565b6102ea565b91607f169161030e565b60209181520190565b5f5260205f2090565b905f929180549061035461034d836102fe565b8094610328565b916001811690815f146103ab575060011461036f575b505050565b61037c9192939450610331565b915f925b81841061039357505001905f808061036a565b60018160209295939554848601520191019290610380565b92949550505060ff19168252151560200201905f808061036a565b906103d09161033a565b90565b601f801991011690565b634e487b7160e01b5f52604160045260245ffd5b906103fb906103d3565b810190811067ffffffffffffffff82111761041557604052565b6103dd565b9061043a6104339261042a610202565b938480926103c6565b03836103f1565b565b60ff1690565b61044e610453916102b9565b61043c565b90565b6104609054610442565b90565b61046e9060066102a3565b6104795f82016102dd565b91610492600261048b6001850161041a565b9301610456565b90565b61049e9061021f565b9052565b5190565b60209181520190565b90825f9392825e0152565b6104d96104e26020936104e7936104d0816104a2565b938480936104a6565b958691016104af565b6103d3565b0190565b151590565b6104f9906104eb565b9052565b9392906105286040916105309461051b60608901925f8a0190610495565b87820360208901526104ba565b9401906104f0565b565b346105655761056161054d61054836600461024e565b610463565b610558939193610202565b938493846104fd565b0390f35b610208565b5f91031261057457565b61020c565b5190565b60209181520190565b60200190565b6105959061021f565b9052565b906105a68160209361058c565b0190565b60200190565b906105cd6105c76105c084610579565b809361057d565b92610586565b905f5b8181106105dd5750505090565b9091926105f66105f06001928651610599565b946105aa565b91019190916105d0565b60ff1690565b61060f90610600565b9052565b9291602061062f6106379360408701908782035f8901526105b0565b940190610606565b565b3461066a5761064936600461056a565b610651611312565b9061066661065d610202565b92839283610613565b0390f35b610208565b90565b61067b9061066f565b9052565b9190610692905f60208501940190610672565b565b346106c4576106a436600461056a565b6106c06106af611370565b6106b7610202565b9182918261067f565b0390f35b610208565b91906106dc905f602085019401906104f0565b565b3461070e576106ee36600461056a565b61070a6106f96113b1565b610701610202565b918291826106c9565b0390f35b610208565b1c90565b61ffff1690565b61072e9060086107339302610713565b610717565b90565b90610741915461071e565b90565b610750600d5f90610736565b90565b61ffff1690565b61076390610753565b9052565b919061077a905f6020850194019061075a565b565b346107ac5761078c36600461056a565b6107a8610797610744565b61079f610202565b91829182610767565b0390f35b610208565b5f80fd5b5f80fd5b5f80fd5b909182601f830112156107f75781359167ffffffffffffffff83116107f25760200192602083028401116107ed57565b6107b9565b6107b5565b6107b1565b61080581610600565b0361080c57565b5f80fd5b9050359061081d826107fc565b565b9160408383031261085f575f83013567ffffffffffffffff811161085a5761084c836108579286016107bd565b939094602001610810565b90565b610210565b61020c565b5f0190565b346108985761088261087c36600461081f565b91611edd565b61088a610202565b8061089481610864565b0390f35b610208565b5f80fd5b908160609103126108af5790565b61089d565b906020828203126108e4575f82013567ffffffffffffffff81116108df576108dc92016108a1565b90565b610210565b61020c565b34610917576109016108fc3660046108b4565b612482565b610909610202565b8061091381610864565b0390f35b610208565b6fffffffffffffffffffffffffffffffff1690565b6109419060086109469302610713565b61091c565b90565b906109549154610931565b90565b61096360035f90610949565b90565b6fffffffffffffffffffffffffffffffff1690565b61098490610966565b9052565b919061099b905f6020850194019061097b565b565b346109cd576109ad36600461056a565b6109c96109b8610957565b6109c0610202565b91829182610988565b0390f35b610208565b6109e79160208201915f8184039101526105b0565b90565b34610a1a576109fa36600461056a565b610a16610a056124de565b610a0d610202565b918291826109d2565b0390f35b610208565b610a28816104eb565b03610a2f57565b5f80fd5b90503590610a4082610a1f565b565b90602082820312610a5b57610a58915f01610a33565b90565b61020c565b34610a8e57610a78610a73366004610a42565b612773565b610a80610202565b80610a8a81610864565b0390f35b610208565b90816020910312610aa15790565b61089d565b90602082820312610abf57610abc915f01610a93565b90565b61020c565b34610af257610adc610ad7366004610aa6565b6128b2565b610ae4610202565b80610aee81610864565b0390f35b610208565b67ffffffffffffffff1690565b610b14906008610b199302610713565b610af7565b90565b90610b279154610b04565b90565b610b37600b600890610b1c565b90565b67ffffffffffffffff1690565b610b5090610b3a565b9052565b9190610b67905f60208501940190610b47565b565b34610b9957610b7936600461056a565b610b95610b84610b2a565b610b8c610202565b91829182610b54565b0390f35b610208565b34610bce57610bca610bb9610bb436600461024e565b6128bd565b610bc1610202565b918291826106c9565b0390f35b610208565b34610c0157610be336600461056a565b610beb612929565b610bf3610202565b80610bfd81610864565b0390f35b610208565b90610c1090610297565b5f5260205260405f2090565b610c2c906008610c319302610713565b61043c565b90565b90610c3f9154610c1c565b90565b610c5890610c53600c915f92610c06565b610c34565b90565b34610c8b57610c87610c76610c7136600461024e565b610c42565b610c7e610202565b918291826106c9565b0390f35b610208565b34610cbe57610ca036600461056a565b610ca8612933565b610cb0610202565b80610cba81610864565b0390f35b610208565b610ccf600b5f90610b1c565b90565b34610d0257610ce236600461056a565b610cfe610ced610cc3565b610cf5610202565b91829182610b54565b0390f35b610208565b9190610d1a905f60208501940190610495565b565b34610d4c57610d2c36600461056a565b610d48610d37612988565b610d3f610202565b91829182610d07565b0390f35b610208565b610d5a8161066f565b03610d6157565b5f80fd5b90503590610d7282610d51565b565b90602082820312610d8d57610d8a915f01610d65565b90565b61020c565b634e487b7160e01b5f52603260045260245ffd5b50600290565b90565b610db881610da6565b821015610dd257610dca600291610dac565b910201905f90565b610d92565b60ff1690565b610de9610dee916102b9565b610dd7565b90565b610dfb9054610ddd565b90565b600790610e0a82610da6565b811015610e2a57610e20600191610e2793610daf565b5001610df1565b90565b5f80fd5b9190610e41905f60208501940190610606565b565b34610e7357610e6f610e5e610e59366004610d74565b610dfe565b610e66610202565b91829182610e2e565b0390f35b610208565b610e8181610b3a565b03610e8857565b5f80fd5b90503590610e9982610e78565b565b90602082820312610eb457610eb1915f01610e8c565b90565b61020c565b34610ee757610ed1610ecc366004610e9b565b612c33565b610ed9610202565b80610ee381610864565b0390f35b610208565b604090610f15610f1c9496959396610f0b60608401985f850190610b47565b602083019061075a565b01906104f0565b565b34610f5157610f2e36600461056a565b610f4d610f39612c46565b610f44939193610202565b93849384610eec565b0390f35b610208565b34610f8457610f6e610f6936600461024e565b61302c565b610f76610202565b80610f8081610864565b0390f35b610208565b34610fb757610fa1610f9c3660046108b4565b613180565b610fa9610202565b80610fb381610864565b0390f35b610208565b34610fec57610fcc36600461056a565b610fe8610fd76131c3565b610fdf610202565b918291826109d2565b0390f35b610208565b346110215761100136600461056a565b61101d61100c6132fd565b611014610202565b918291826109d2565b0390f35b610208565b611032611037916102b9565b610717565b90565b6110449054611026565b90565b6110535f60020161103a565b90565b346110865761106636600461056a565b611082611071611047565b611079610202565b91829182610767565b0390f35b610208565b346110bb5761109b36600461056a565b6110b76110a6613324565b6110ae610202565b91829182610d07565b0390f35b610208565b346110ee576110d86110d3366004610e9b565b613514565b6110e0610202565b806110ea81610864565b0390f35b610208565b346111215761110b61110636600461024e565b613591565b611113610202565b8061111d81610864565b0390f35b610208565b346111565761115261114161113c366004610d74565b61359c565b611149610202565b91829182610d07565b0390f35b610208565b5f80fd5b606090565b5f90565b611174611179916102b9565b610af7565b90565b6111869054611168565b90565b90565b6111a061119b6111a592611189565b61026c565b610b3a565b90565b634e487b7160e01b5f52601260045260245ffd5b6111c86111ce91610b3a565b91610b3a565b9081156111d9570690565b6111a8565b5490565b60209181520190565b5f5260205f2090565b6111fe90546102c9565b90565b60010190565b9061122461121e611217846111de565b80936111e2565b926111eb565b905f5b8181106112345750505090565b90919261125461124e600192611249876111f4565b610599565b94611201565b9101919091611227565b9061126891611207565b90565b9061128b6112849261127b610202565b9384809261125e565b03836103f1565b565b52565b9061129a90610600565b9052565b906112b16112aa610202565b92836103f1565b565b6112bd604061129e565b90565b906112f76112ee60016112d16112b3565b946112e86112e05f830161126b565b5f880161128d565b01610df1565b60208401611290565b565b611302906112c0565b90565b61130f9051610600565b90565b61131a61115f565b50611323611164565b5061135561134f6007611349611339600b61117c565b611343600261118c565b906111bc565b90610daf565b506112f9565b9061136660205f8401519301611305565b90565b5f90565b90565b611378611369565b5061138b611386600461136d565b6135be565b90565b5f90565b90565b6113a96113a46113ae92611392565b61026c565b61066f565b90565b6113b961138e565b506113cc6113c7600461136d565b6135be565b6113de6113d85f611395565b9161066f565b1190565b906113f592916113f06135dd565b6113f7565b565b919061140b611406600461136d565b6135be565b61141d6114175f611395565b9161066f565b1461142d5761142b92611aed565b565b5f6321c4e35760e21b81528061144560048201610864565b0390fd5b61145d61145861146292611392565b61026c565b610753565b90565b5090565b90565b61148061147b61148592611469565b61026c565b61066f565b90565b61149361010061146c565b90565b90565b6114ad6114a86114b292611496565b61026c565b61066f565b90565b67ffffffffffffffff81116114cd5760208091020190565b6103dd565b909291926114e76114e2826114b5565b61129e565b938185526020808601920283019281841161152457915b83831061150b5750505050565b60208091611519848661023f565b8152019201916114fe565b6107b9565b6115349136916114d2565b90565b9190811015611547576020020190565b610d92565b356115568161022b565b90565b5f1b90565b9061156a60ff91611559565b9181191691161790565b61157d906104eb565b90565b90565b9061159861159361159f92611574565b611580565b825461155e565b9055565b60016115af910161066f565b90565b6115c66115c16115cb9261066f565b61026c565b610753565b90565b906115db61ffff91611559565b9181191691161790565b6115f96115f46115fe92610753565b61026c565b610753565b90565b90565b90611619611614611620926115e5565b611601565b82546115ce565b9055565b9061162e82610579565b81101561163f576020809102010190565b610d92565b61164e905161021f565b90565b60401c90565b61166361166891611651565b610af7565b90565b6116759054611657565b90565b634e487b7160e01b5f52601160045260245ffd5b61169590610b3a565b67ffffffffffffffff81146116aa5760010190565b611678565b60401b90565b906116d06fffffffffffffffff0000000000000000916116af565b9181191691161790565b6116ee6116e96116f392610b3a565b61026c565b610b3a565b90565b90565b9061170e611709611715926116da565b6116f6565b82546116b5565b9055565b9061172c67ffffffffffffffff91611559565b9181191691161790565b9061174b611746611752926116da565b6116f6565b8254611719565b9055565b90565b634e487b7160e01b5f525f60045260245ffd5b600190818003010490565b1b90565b919060086117969102916117905f1984611777565b92611777565b9181191691161790565b6117b46117af6117b99261066f565b61026c565b61066f565b90565b90565b91906117d56117d06117dd936117a0565b6117bc565b90835461177b565b9055565b6117f3916117ed611369565b916117bf565b565b5b818110611801575050565b8061180e5f6001936117e1565b016117f6565b90611827905f1990602003600802610713565b8154169055565b909182811061183d575b505050565b61185b61185561184f6118669561176c565b9261176c565b926111eb565b9182019101906117f5565b5f8080611838565b90680100000000000000008111611897578161188c611895936111de565b9082815561182e565b565b6103dd565b90565b919060086118bf9102916118b960018060a01b0384611777565b92611777565b9181191691161790565b90565b90916118d89083611465565b9167ffffffffffffffff831161193b576119066119006001926118fb868661186e565b61189c565b926111eb565b9204915f5b8381106119185750505050565b600190602061192e6119298661154c565b6118c9565b940193818401550161190b565b6103dd565b9061194b92916118cc565b565b61196161195c61196692610600565b61026c565b610600565b90565b90565b9061198161197c6119889261194d565b611969565b825461155e565b9055565b61199861199d916102b9565b61091c565b90565b6119aa905461198c565b90565b6119b690610966565b6fffffffffffffffffffffffffffffffff81146119d35760010190565b611678565b906119f36fffffffffffffffffffffffffffffffff91611559565b9181191691161790565b611a11611a0c611a1692610966565b61026c565b610966565b90565b90565b90611a31611a2c611a38926119fd565b611a19565b82546119d8565b9055565b50611a4b90602081019061023f565b90565b60200190565b91611a6282611a689261057d565b9261189c565b90815f905b828210611a7b575050505090565b90919293611a9d611a97600192611a928886611a3c565b610599565b95611a4e565b920190929192611a6d565b90611aeb94611ada611acf611ae4936060969a99979a60808701918783035f890152611a54565b986020850190610606565b6040830190610b47565b019061097b565b565b909192611afa600d61103a565b611b0c611b065f611449565b91610753565b11611ec157611b1c828490611465565b611b35611b2f611b2a611488565b61066f565b9161066f565b11611ea557611b45828490611465565b611b58611b526001611499565b9161066f565b1180611e83575b611e6757611b6c5f611395565b5b80611b8a611b84611b7f868890611465565b61066f565b9161066f565b1015611c0557611ba4611b9f84868491611537565b61154c565b90611bc2611bbc611bb5600461136d565b849061368f565b156104eb565b611be957611bdf611be492611bda600191600c610c06565b611583565b6115a3565b611b6d565b5f63ae4207eb60e01b815280611c0160048201610864565b0390fd5b5092611c24611c1d611c18848690611465565b6115b2565b600d611604565b611c55611c4f6007611c49611c39600b61117c565b611c43600261118c565b906111bc565b90610daf565b506112f9565b611c6160208201611305565b611c73611c6d84610600565b91610600565b1480611e38575b611d7e575b50611c9c611c95611c90600b61166b565b61168c565b600b6116f9565b611cb8611cb1611cac600b61117c565b61168c565b600b611736565b611d04611cec611ce66007611ce0611cd0600b61117c565b611cda600261118c565b906111bc565b90610daf565b50611756565b611cfa8486905f8401611940565b600183910161196c565b611d0e600b61166b565b91929092611d79611d1f600b61117c565b611d31611d2c60036119a0565b6119ad565b611d3c816003611a1c565b90611d677f43cbb710893c11b777c9f898100af4a24e9ef965790f5dc2fe01629e51b3d409966116da565b96611d70610202565b95869586611aa8565b0390a2565b929190600193611d8d5f611395565b5b80611dac611da6611da15f860151610579565b61066f565b9161066f565b1015611e2e57611dc8611dc35f8401518390611624565b611644565b611ded611de7611de2611ddd888a8791611537565b61154c565b61021f565b9161021f565b03611e0057611dfb906115a3565b611d8e565b5050909192505f5b611e12575f611c7f565b5f63d990d65560e01b815280611e2a60048201610864565b0390fd5b5050909192611e08565b50611e455f820151610579565b611e61611e5b611e56868890611465565b61066f565b9161066f565b14611c7a565b5f63ccea9e6f60e01b815280611e7f60048201610864565b0390fd5b50611ea0611e9a611e95848690611529565b61362b565b156104eb565b611b5f565b5f636055dca160e01b815280611ebd60048201610864565b0390fd5b5f6378a4646d60e11b815280611ed960048201610864565b0390fd5b90611ee892916113e2565b565b611ef55f820161154c565b611f08611f02339261021f565b9161021f565b141580611f3a575b611f1f57611f1d90611f5c565b565b5f6282b42960e81b815280611f3660048201610864565b0390fd5b5033611f55611f4f611f4a612988565b61021f565b9161021f565b1415611f10565b611f6e611f69600461136d565b6135be565b611f80611f7a5f611395565b9161066f565b14611f9057611f8e9061234c565b565b5f6321c4e35760e21b815280611fa860048201610864565b0390fd5b5f80fd5b5f80fd5b5f80fd5b903590600160200381360303821215611ffa570180359067ffffffffffffffff8211611ff557602001916001820236038313611ff057565b611fb4565b611fb0565b611fac565b5f80fd5b67ffffffffffffffff81116120215761201d6020916103d3565b0190565b6103dd565b90825f939282370152565b9092919261204661204182612003565b61129e565b938185526020850190828401116120625761206092612026565b565b611fff565b612072913691612031565b90565b9061208660018060a01b0391611559565b9181191691161790565b906120a56120a06120ac92610297565b6118c9565b8254612075565b9055565b5090565b601f602091010490565b5b8181106120ca575050565b806120d75f6001936117e1565b016120bf565b9190601f81116120ed575b505050565b6120f961211e93610331565b906020612105846120b4565b83019310612126575b612117906120b4565b01906120be565b5f80806120e8565b91506121178192905061210e565b90612144905f1990600802610713565b191690565b8161215391612134565b906002021790565b9161216690826120b0565b9067ffffffffffffffff82116122255761218a8261218485546102fe565b856120dd565b5f90601f83116001146121bd579180916121ac935f926121b1575b5050612149565b90555b565b90915001355f806121a5565b601f198316916121cc85610331565b925f5b81811061220d575091600293918560019694106121f3575b505050020190556121af565b612203910135601f841690612134565b90555f80806121e7565b919360206001819287870135815501950192016121cf565b6103dd565b90612235929161215b565b565b3561224181610a1f565b90565b906122896040600261228f946122675f82016122615f880161154c565b90612090565b6122816001820161227b6020880188611fb8565b9161222a565b019201612237565b90611583565b565b9061229b91612244565b565b6122a7604061129e565b90565b52565b906122b7906104eb565b9052565b6122da6122e36020936122e8936122d1816104a2565b93848093610328565b958691016104af565b6103d3565b0190565b6122f5906104eb565b9052565b9061232390602080612318604084015f8701518582035f8701526122bb565b9401519101906122ec565b90565b9291602061234261234a9360408701908782035f8901526122f9565b94019061097b565b565b61236b612366612360836020810190611fb8565b90612067565b6136c9565b61239261238c61237b600461136d565b6123865f850161154c565b9061368f565b156104eb565b612466576123b5816123b060066123aa5f860161154c565b906102a3565b612291565b6123c05f820161154c565b61240560406123fc6123f46123e56123dc876020810190611fb8565b94909701612237565b926123ee61229d565b96612067565b5f86016122aa565b602084016122ad565b61241761241260036119a0565b6119ad565b612422816003611a1c565b61244c7f6076a1141c023570d8bac12a8eded7974ffbeb9a9d255f6826fdf600d69cce1392610297565b92612461612458610202565b92839283612326565b0390a2565b5f63ae4207eb60e01b81528061247e60048201610864565b0390fd5b61248b90611eea565b565b9061249f61249a836114b5565b61129e565b918252565b369037565b906124ce6124b68361248d565b926020806124c486936114b5565b92019103906124a4565b565b906124da9061021f565b9052565b6124e661115f565b506124f96124f4600461136d565b61374e565b61250281613776565b61251361250e82610579565b6124a9565b61251c5f611395565b6125255f611395565b5b8061254161253b61253687610579565b61066f565b9161066f565b10156125c057612570600261256a600661256461255f898790611624565b611644565b906102a3565b01610456565b612583575b61257e906115a3565b612526565b906125b861257e916125b36125a161259c888790611624565b611644565b6125ae8791849092611624565b6124d0565b6115a3565b919050612575565b50909150815290565b6125db6125d6600461136d565b6135be565b6125ed6125e75f611395565b9161066f565b146125fd576125fb9061263c565b565b5f6321c4e35760e21b81528061261560048201610864565b0390fd5b91602061263a92949361263360408201965f8301906104f0565b019061097b565b565b3361265661265061264b612988565b61021f565b9161021f565b146127115761267861267261266b600461136d565b339061368f565b156104eb565b6126f65761269481600261268e600633906102a3565b01611583565b336126a76126a260036119a0565b6119ad565b6126b2816003611a1c565b6126dc7f1c1d5017b8b1542dedc14e2b0d29098feed77a27d5a6c2c18e71a432b67b262092610297565b926126f16126e8610202565b92839283612619565b0390a2565b5f6282b42960e81b81528061270d60048201610864565b0390fd5b3361272461271f60036119a0565b6119ad565b61272f816003611a1c565b6127597f1c1d5017b8b1542dedc14e2b0d29098feed77a27d5a6c2c18e71a432b67b262092610297565b9261276e612765610202565b92839283612619565b0390a2565b61277c906125c9565b565b61278f9061278a6135dd565b612845565b565b61279a81610753565b036127a157565b5f80fd5b356127af81612791565b90565b906127c45f806127ca940192016127a5565b90611604565b565b906127d6916127b2565b565b905035906127e582612791565b565b506127f69060208101906127d8565b90565b61280290610753565b9052565b905f61281861282093828101906127e7565b9101906127f9565b565b91602061284392949361283c60408201965f830190612806565b019061097b565b565b6128508160026127cc565b3361286361285e60036119a0565b6119ad565b61286e816003611a1c565b6128987f809f9d5f171b223ec3605402958c62a22d343640adea3a66fc1e38fe8ce084f892610297565b926128ad6128a4610202565b92839283612822565b0390a2565b6128bb9061277e565b565b6128d9906128c961138e565b506128d4600461136d565b61368f565b90565b6128e46135dd565b6128ec612916565b565b6129026128fd61290792611392565b61026c565b610214565b90565b612913906128ee565b90565b6129276129225f61290a565b6137bf565b565b6129316128dc565b565b61293b6137d5565b612943613324565b61295561294f8361021f565b9161021f565b0361296557612963906137bf565b565b612980905f91829163118cdaa760e01b835260048301610d07565b0390fd5b5f90565b612990612984565b5061299a5f6102dd565b90565b6129af6129aa600461136d565b6135be565b6129c16129bb5f611395565b9161066f565b146129d1576129cf906129fc565b565b5f6321c4e35760e21b8152806129e960048201610864565b0390fd5b60016129f99103610753565b90565b612a06600d61103a565b612a18612a125f611449565b91610753565b14612c1757612a38612a32612a2d600b61166b565b610b3a565b91610b3a565b03612bfb57612a5a612a54612a4d600461136d565b339061368f565b156104eb565b612bdf57612a7b612a75612a70600c3390610c06565b610456565b156104eb565b612bc357612a945f612a8f600c3390610c06565b611583565b612ab0612aa9612aa4600d61103a565b6129ed565b600d611604565b612aba600d61103a565b612acc612ac65f611449565b91610753565b145f14612b4a57612add600b61166b565b33612af0612aeb60036119a0565b6119ad565b612afb816003611a1c565b91612b44612b32612b2c7f01269879535f40ee8957e15e160bf1866c5e2728ff0cbc583d848821e2639b4e936116da565b93610297565b93612b3b610202565b91829182610988565b0390a35b565b612b54600b61166b565b33612b67612b6260036119a0565b6119ad565b612b72816003611a1c565b91612bbb612ba9612ba37faf5e90e72015f43138f66b4cd08bd1dfa2839030104f22a00af843fe847c6d19936116da565b93610297565b93612bb2610202565b91829182610988565b0390a3612b48565b5f6313a9a39160e31b815280612bdb60048201610864565b0390fd5b5f63a5523ee560e01b815280612bf760048201610864565b0390fd5b5f631a0fd8c760e21b815280612c1360048201610864565b0390fd5b5f631821b37560e31b815280612c2f60048201610864565b0390fd5b612c3c9061299d565b565b5f90565b5f90565b612c4e612c3e565b50612c57612c42565b50612c6061138e565b50612c6b600b61166b565b612c75600d61103a565b91612c80600d61103a565b612c92612c8c5f611449565b91610753565b1191929190565b612caa90612ca56135dd565b612e80565b565b612cb59061126b565b90565b905f91612ccf612cc782610331565b928354612149565b905555565b919290602082105f14612d2d57601f8411600114612cfd57612cf7929350612149565b90555b5b565b5090612d23612d28936001612d1a612d1485610331565b926120b4565b820191016120be565b612cb8565b612cfa565b50612d648293612d3e600194610331565b612d5d612d4a856120b4565b820192601f861680612d6f575b506120b4565b01906120be565b600202179055612cfb565b612d7b90888603611814565b5f612d57565b929091680100000000000000008211612de1576020115f14612dd257602081105f14612db657612db091612149565b90555b5b565b60019160ff1916612dc684610331565b55600202019055612db3565b60019150600202019055612db4565b6103dd565b908154612df2816102fe565b90818311612e1b575b818310612e09575b50505050565b612e1293612cd4565b5f808080612e03565b612e2783838387612d81565b612dfb565b5f612e3691612de6565b565b905f03612e4a57612e4890612e2c565b565b611759565b60025f918280820155612e658360018301612e38565b0155565b905f03612e7b57612e7990612e4f565b565b611759565b612e9d612e97612e90600461136d565b83906137e2565b156104eb565b61301057612eab600d61103a565b612ebd612eb75f611449565b91610753565b115f14612fb157612ee5612ede5f612ed760078290610daf565b5001612cac565b829061381c565b50612f08612f015f612efa6007600190610daf565b5001612cac565b839061381c565b508115612fa9575b50612f8d575b612f2b5f612f26600684906102a3565b612e69565b612f3d612f3860036119a0565b6119ad565b612f48816003611a1c565b90612f88612f767f6a1d7ddc82d57e783a3ae60737a6c1a4704fcf38d966561fea0af8564f2d895d92610297565b92612f7f610202565b91829182610988565b0390a2565b5f63997ac2d360e01b815280612fa560048201610864565b0390fd5b90505f612f10565b612fee612fe75f612fe06007612fda612fca600b61117c565b612fd4600261118c565b906111bc565b90610daf565b5001612cac565b829061381c565b5015612f16575f63997ac2d360e01b81528061300c60048201610864565b0390fd5b5f63ae4207eb60e01b81528061302860048201610864565b0390fd5b61303590612c99565b565b613048906130436135dd565b61304a565b565b61306961306461305e836020810190611fb8565b90612067565b6136c9565b61309061308a613079600461136d565b6130845f850161154c565b90613861565b156104eb565b613164576130b3816130ae60066130a85f860161154c565b906102a3565b612291565b6130be5f820161154c565b61310360406130fa6130f26130e36130da876020810190611fb8565b94909701612237565b926130ec61229d565b96612067565b5f86016122aa565b602084016122ad565b61311561311060036119a0565b6119ad565b613120816003611a1c565b61314a7f796ceae0800d5f0f733409e937e06147c87474e7b7b0fd02d2da87917f11e32a92610297565b9261315f613156610202565b92839283612326565b0390a2565b5f632a322e2b60e01b81528061317c60048201610864565b0390fd5b61318990613037565b565b61319f61319a6131a492610753565b61026c565b61066f565b90565b6131b09061066f565b5f1981146131be5760010190565b611678565b6131cb61115f565b506131d6600d61103a565b6131e86131e25f611449565b91610753565b146132e9576132076132026131fd600d61103a565b61318b565b6124a9565b61323a5f613233600761322d61321d600b61117c565b613227600261118c565b906111bc565b90610daf565b5001612cac565b906132445f611395565b61324d5f611395565b5b8061326961326361325e87610579565b61066f565b9161066f565b10156132e0576132a390613299613294600c61328e613289898690611624565b611644565b90610c06565b610456565b6132a8575b6115a3565b61324e565b6132db6132be6132b9878490611624565b611644565b936132d68691956132ce876131a7565b969092611624565b6124d0565b61329e565b50909150815290565b6132fa6132f55f611395565b6124a9565b90565b61330561115f565b50613318613313600461136d565b61374e565b61332181613776565b90565b61332c612984565b5061333760016102dd565b90565b61334b906133466135dd565b613369565b565b61335690610b3a565b5f8114613364576001900390565b611678565b613373600d61103a565b61338561337f5f611449565b91610753565b146134f8576133a561339f61339a600b61166b565b610b3a565b91610b3a565b036134dc576133dd5f6133d660076133d06133c0600b61117c565b6133ca600261118c565b906111bc565b90610daf565b5001612cac565b906133e75f611395565b5b806134036133fd6133f886610579565b61066f565b9161066f565b101561343e57613439906134345f61342f600c613429613424898790611624565b611644565b90610c06565b611583565b6115a3565b6133e8565b50905061345461344d5f611449565b600d611604565b613470613469613464600b61117c565b61334d565b600b611736565b61347a600b61166b565b61348c61348760036119a0565b6119ad565b613497816003611a1c565b906134d76134c57ff73240422246f63ed633ef3ce0726b8ab8fb69d46c8a4e5ecb0b2922668674a1926116da565b926134ce610202565b91829182610988565b0390a2565b5f631a0fd8c760e21b8152806134f460048201610864565b0390fd5b5f631821b37560e31b81528061351060048201610864565b0390fd5b61351d9061333a565b565b6135309061352b6135dd565b613532565b565b61353d816001612090565b613545612988565b906135796135737f38d16b8cac22d99fc7c124b9cd0de2d3fa1faef420bfe791d8c362d765e2270093610297565b91610297565b91613582610202565b8061358c81610864565b0390a3565b61359a9061351f565b565b6135b8906135a8612984565b506135b3600461136d565b6138cb565b90565b90565b6135d55f6135da926135ce611369565b50016135bb565b613907565b90565b6135e5612988565b6135fe6135f86135f36137d5565b61021f565b9161021f565b0361360557565b6136276136106137d5565b5f91829163118cdaa760e01b835260048301610d07565b0390fd5b6136406136459161363a61138e565b50613923565b61392f565b90565b6136519061026f565b90565b61366861366361366d92610214565b61026c565b61066f565b90565b90565b61368761368261368c9261066f565b611559565b613670565b90565b906136c16136bb6136b66136b15f6136c6966136a961138e565b500194613648565b613654565b613673565b916135bb565b6139c2565b90565b6136d2816104a2565b6136e46136de5f611395565b9161066f565b14613732576136f2906104a2565b61370f6137096137045f60020161103a565b61318b565b9161066f565b1161371657565b5f635e9b2d5360e01b81528061372e60048201610864565b0390fd5b5f635e9b2d5360e01b81528061374a60048201610864565b0390fd5b6137655f61376a9261375e61115f565b50016135bb565b613ae8565b61377261115f565b5090565b61378261378791613923565b613c72565b565b919061379f61379a6137a793610297565b6118c9565b90835461189f565b9055565b6137bd916137b7612984565b91613789565b565b6137d3906137ce5f60016137ab565b613d1e565b565b6137dd612984565b503390565b9061381461380e6138096138045f613819966137fc61138e565b500194613648565b613654565b613673565b916135bb565b613ee7565b90565b9061384461383e61385d9361382f61138e565b50613838611369565b50613923565b91613648565b6138576138515f92613654565b91611395565b91613fed565b9091565b9061389361388d6138886138835f6138989661387b61138e565b500194613648565b613654565b613673565b916135bb565b614096565b90565b6138a76138ac916102b9565b6117a0565b90565b6138c36138be6138c89261066f565b61026c565b610214565b90565b6138f66138f1613900936138ec5f6138fb956138e5612984565b50016135bb565b6140f9565b61389b565b6138af565b61028b565b90565b5490565b5f61391b91613914611369565b5001613903565b90565b606090565b61392b61391e565b5090565b9061393861138e565b5060019160028151101561394a575b50565b91506020825160051b83019201915b602083519301928351118184188102156139735750613959565b9250505f613947565b61398590613670565b90565b906139929061397c565b5f5260205260405f2090565b90565b6139ad6139b2916102b9565b61399e565b90565b6139bf90546139a1565b90565b6139e09160016139db926139d461138e565b5001613988565b6139b5565b6139f26139ec5f611395565b9161066f565b141590565b606090565b60209181520190565b5f5260205f2090565b613a1790613670565b9052565b90613a2881602093613a0e565b0190565b90565b613a3b613a40916102b9565b613a2c565b90565b613a4d9054613a2f565b90565b60010190565b90613a73613a6d613a6684613903565b80936139fc565b92613a05565b905f5b818110613a835750505090565b909192613aa3613a9d600192613a9887613a43565b613a1b565b94613a50565b9101919091613a76565b90613ab791613a56565b90565b90613ada613ad392613aca610202565b93848092613aad565b03836103f1565b565b613ae590613aba565b90565b5f613afc91613af56139f7565b5001613adc565b90565b9091565b908151918151905252565b6101808284031115613bf55781601f1683830160061c60051b018251815180821015613be7575b855180821015613bbe575b86528252835251918392815b5b60200180518211613b4d57935b830180518210613b5a579384811015613b7c57613b778582613b03565b613b4c565b50509092806020840103613baa575b50808203613b99575b505050565b613ba292613b0e565b5f8080613b94565b613bb8906020840185613b0e565b5f613b8b565b613bc791613aff565b81831015613bd5575b613b40565b9190613be091613aff565b9091613bd0565b613bf091613aff565b613b35565b91929080602080920190815181511015613c62575b505b01838111613c5c57805193838201805186811115613c50579085915b602082015201805186811115613c4057908591613c28565b509460208093929601525b613c0c565b50509350602090613c4b565b50915050565b613c6c9082613b03565b5f613c0a565b8051906002821015613c83575b5050565b601f19602082018360051b83019181835b8051818401511115613d13571115613d0b5781835b8051818401511015613d00571115613cd15790613cc992915f8552613b0e565b525f80613c7f565b925092506020905b8351815185528152820192019180831015613cf657602090613cd9565b5050505f80613c7f565b905081018290613ca9565b505050613c7f565b905081018290613c94565b613d275f6102dd565b613d31825f612090565b90613d65613d5f7f8be0079c531659141344cd1fd0a4f28419497f9722a3daafe3b4186f6b6457e093610297565b91610297565b91613d6e610202565b80613d7881610864565b0390a3565b613d8c613d929193929361066f565b9261066f565b8203918211613d9d57565b611678565b613dab81613903565b821015613dc557613dbd600191613a05565b910201905f90565b610d92565b613dda906008613ddf9302610713565b613a2c565b90565b90613ded9154613dca565b90565b613df9906102b9565b90565b9190613e12613e0d613e1a9361397c565b613df0565b90835461177b565b9055565b90613e2a5f1991611559565b9181191691161790565b90613e49613e44613e50926117a0565b6117bc565b8254613e1e565b9055565b90565b634e487b7160e01b5f52603160045260245ffd5b5490565b5f5260205f2090565b613e8181613e6b565b821015613e9b57613e93600191613e6f565b910201905f90565b610d92565b5f90565b613eb691613eb0613ea0565b91613dfc565b565b613ec181613e6b565b8015613ee2576001900390613edf613ed98383613e78565b90613ea4565b55565b613e57565b613eef61138e565b50613f06613f01600183018490613988565b6139b5565b9081613f1a613f145f611395565b9161066f565b14155f14613fe657613f98926001613f939284613f415f96613f3b85611499565b90613d7d565b613f5e613f4f888501613903565b613f5886611499565b90613d7d565b81613f71613f6b8361066f565b9161066f565b03613f9d575b505050613f8d613f88868301613e54565b613eb8565b01613988565b6117e1565b600190565b613fde92613fd0613fbc613fb6613fd9948c8901613da2565b90613de2565b93613fca85918c8901613da2565b90613dfc565b91858501613988565b613e34565b5f8080613f77565b5050505f90565b91613ff661138e565b50613fff611369565b505f19936001918451938101925b84810160011c908160051b87015183018581148783111761404a57889086111561403e575050600101905b9061400d565b91909295500193614038565b939795505094505014918015159182910102911691565b9081549168010000000000000000831015614091578261408991600161408f95018155613e78565b90613dfc565b565b6103dd565b61409e61138e565b506140b36140ad8284906139c2565b156104eb565b5f146140f3576140e96140ee926140d56140ce5f8501613e54565b8290614061565b60016140e25f8501613903565b9301613988565b613e34565b600190565b50505f90565b614117915f6141119261410a613ea0565b5001613da2565b90613de2565b9056fea26469706673582212205bc2187f6c787a2d8542951e206e3293b8ab9ae102ca54ab7303d2bef46736b164736f6c634300081c0033","linkReferences":{}},"methodIdentifiers":{"abortMigration(uint64)":"e88e9749","acceptOwnership()":"79ba5097","addNodeOperator((address,bytes,bool))":"cc4bc503","completeMigration(uint64)":"9d44e717","getAllOperators()":"d911c632","getCurrentKeyspace()":"0e89d8da","getMaintenanceOperators()":"5b59fd9b","getMigrationStatus()":"a415c02c","getOperatorAt(uint256)":"f8c328d2","getOperatorCount()":"1a4a7c61","getPullingOperators()":"d17b27d3","info(address)":"0aae7a6b","isInitialized()":"392e53cd","isOperator(address)":"6d70f7ae","isPulling(address)":"73a18739","keyspaceVersion()":"8a3d4495","keyspaces(uint256)":"92265b65","migrationId()":"66d1b187","owner()":"8da5cb5b","pendingOwner()":"e30c3978","pullingCount()":"44160458","removeNodeOperator(address)":"c05665dd","renounceOwnership()":"715018a6","setMaintenance(bool)":"612f2f37","settings()":"e06174e4","startMigration(address[],uint8)":"4cc51e60","transferOwnership(address)":"f2fde38b","updateNodeOperator((address,bytes,bool))":"50647644","updateSettings((uint16))":"65706f9c","version()":"54fd4d50"},"id":33}