{"abi":[{"type":"constructor","inputs":[{"name":"initialSettings","type":"tuple","internalType":"struct Settings","components":[{"name":"maxOperatorDataBytes","type":"uint16","internalType":"uint16"}]},{"name":"initialOperators","type":"tuple[]","internalType":"struct NodeOperator[]","components":[{"name":"addr","type":"address","internalType":"address"},{"name":"data","type":"bytes","internalType":"bytes"}]}],"stateMutability":"nonpayable"},{"type":"function","name":"abortMigration","inputs":[{"name":"id","type":"uint64","internalType":"uint64"}],"outputs":[],"stateMutability":"nonpayable"},{"type":"function","name":"addNodeOperator","inputs":[{"name":"idx","type":"uint8","internalType":"uint8"},{"name":"operator","type":"tuple","internalType":"struct NodeOperator","components":[{"name":"addr","type":"address","internalType":"address"},{"name":"data","type":"bytes","internalType":"bytes"}]}],"outputs":[],"stateMutability":"nonpayable"},{"type":"function","name":"completeMigration","inputs":[{"name":"id","type":"uint64","internalType":"uint64"}],"outputs":[],"stateMutability":"nonpayable"},{"type":"function","name":"finishMaintenance","inputs":[],"outputs":[],"stateMutability":"nonpayable"},{"type":"function","name":"getView","inputs":[],"outputs":[{"name":"","type":"tuple","internalType":"struct ClusterView","components":[{"name":"owner","type":"address","internalType":"address"},{"name":"nodeOperatorSlots","type":"tuple[]","internalType":"struct NodeOperator[]","components":[{"name":"addr","type":"address","internalType":"address"},{"name":"data","type":"bytes","internalType":"bytes"}]},{"name":"keyspaces","type":"tuple[2]","internalType":"struct Keyspace[2]","components":[{"name":"operatorsBitmask","type":"uint256","internalType":"uint256"},{"name":"replicationStrategy","type":"uint8","internalType":"uint8"}]},{"name":"keyspaceVersion","type":"uint64","internalType":"uint64"},{"name":"settings","type":"tuple","internalType":"struct Settings","components":[{"name":"maxOperatorDataBytes","type":"uint16","internalType":"uint16"}]},{"name":"migration","type":"tuple","internalType":"struct Migration","components":[{"name":"id","type":"uint64","internalType":"uint64"},{"name":"pullingOperatorsBitmask","type":"uint256","internalType":"uint256"}]},{"name":"maintenance","type":"tuple","internalType":"struct Maintenance","components":[{"name":"slot","type":"address","internalType":"address"}]},{"name":"version","type":"uint128","internalType":"uint128"}]}],"stateMutability":"view"},{"type":"function","name":"removeNodeOperator","inputs":[{"name":"operatorAddress","type":"address","internalType":"address"}],"outputs":[],"stateMutability":"nonpayable"},{"type":"function","name":"startMaintenance","inputs":[],"outputs":[],"stateMutability":"nonpayable"},{"type":"function","name":"startMigration","inputs":[{"name":"newKeyspace","type":"tuple","internalType":"struct Keyspace","components":[{"name":"operatorsBitmask","type":"uint256","internalType":"uint256"},{"name":"replicationStrategy","type":"uint8","internalType":"uint8"}]}],"outputs":[],"stateMutability":"nonpayable"},{"type":"function","name":"transferOwnership","inputs":[{"name":"newOwner","type":"address","internalType":"address"}],"outputs":[],"stateMutability":"nonpayable"},{"type":"function","name":"updateNodeOperator","inputs":[{"name":"operator","type":"tuple","internalType":"struct NodeOperator","components":[{"name":"addr","type":"address","internalType":"address"},{"name":"data","type":"bytes","internalType":"bytes"}]}],"outputs":[],"stateMutability":"nonpayable"},{"type":"function","name":"updateSettings","inputs":[{"name":"newSettings","type":"tuple","internalType":"struct Settings","components":[{"name":"maxOperatorDataBytes","type":"uint16","internalType":"uint16"}]}],"outputs":[],"stateMutability":"nonpayable"},{"type":"event","name":"MaintenanceFinished","inputs":[{"name":"clusterVersion","type":"uint128","indexed":false,"internalType":"uint128"}],"anonymous":false},{"type":"event","name":"MaintenanceStarted","inputs":[{"name":"addr","type":"address","indexed":false,"internalType":"address"},{"name":"clusterVersion","type":"uint128","indexed":false,"internalType":"uint128"}],"anonymous":false},{"type":"event","name":"MigrationAborted","inputs":[{"name":"id","type":"uint64","indexed":false,"internalType":"uint64"},{"name":"clusterVersion","type":"uint128","indexed":false,"internalType":"uint128"}],"anonymous":false},{"type":"event","name":"MigrationCompleted","inputs":[{"name":"id","type":"uint64","indexed":false,"internalType":"uint64"},{"name":"operatorAddress","type":"address","indexed":false,"internalType":"address"},{"name":"clusterVersion","type":"uint128","indexed":false,"internalType":"uint128"}],"anonymous":false},{"type":"event","name":"MigrationDataPullCompleted","inputs":[{"name":"id","type":"uint64","indexed":false,"internalType":"uint64"},{"name":"operatorAddress","type":"address","indexed":false,"internalType":"address"},{"name":"clusterVersion","type":"uint128","indexed":false,"internalType":"uint128"}],"anonymous":false},{"type":"event","name":"MigrationStarted","inputs":[{"name":"id","type":"uint64","indexed":false,"internalType":"uint64"},{"name":"newKeyspace","type":"tuple","indexed":false,"internalType":"struct Keyspace","components":[{"name":"operatorsBitmask","type":"uint256","internalType":"uint256"},{"name":"replicationStrategy","type":"uint8","internalType":"uint8"}]},{"name":"newKeyspaceVersion","type":"uint64","indexed":false,"internalType":"uint64"},{"name":"clusterVersion","type":"uint128","indexed":false,"internalType":"uint128"}],"anonymous":false},{"type":"event","name":"NodeOperatorAdded","inputs":[{"name":"idx","type":"uint8","indexed":false,"internalType":"uint8"},{"name":"operator","type":"tuple","indexed":false,"internalType":"struct NodeOperator","components":[{"name":"addr","type":"address","internalType":"address"},{"name":"data","type":"bytes","internalType":"bytes"}]},{"name":"clusterVersion","type":"uint128","indexed":false,"internalType":"uint128"}],"anonymous":false},{"type":"event","name":"NodeOperatorRemoved","inputs":[{"name":"operatorAddress","type":"address","indexed":false,"internalType":"address"},{"name":"clusterVersion","type":"uint128","indexed":false,"internalType":"uint128"}],"anonymous":false},{"type":"event","name":"NodeOperatorUpdated","inputs":[{"name":"operator","type":"tuple","indexed":false,"internalType":"struct NodeOperator","components":[{"name":"addr","type":"address","internalType":"address"},{"name":"data","type":"bytes","internalType":"bytes"}]},{"name":"clusterVersion","type":"uint128","indexed":false,"internalType":"uint128"}],"anonymous":false},{"type":"event","name":"OwnershipTransferred","inputs":[{"name":"newOwner","type":"address","indexed":false,"internalType":"address"},{"name":"cluserVersion","type":"uint128","indexed":false,"internalType":"uint128"}],"anonymous":false},{"type":"event","name":"SettingsUpdated","inputs":[{"name":"newSettings","type":"tuple","indexed":false,"internalType":"struct Settings","components":[{"name":"maxOperatorDataBytes","type":"uint16","internalType":"uint16"}]},{"name":"clusterVersion","type":"uint128","indexed":false,"internalType":"uint128"}],"anonymous":false}],"bytecode":{"object":"0x6080604052346100305761001a61001461030f565b90610acf565b610022610035565b613a5d610ed38239613a5d90f35b61003b565b60405190565b5f80fd5b601f801991011690565b634e487b7160e01b5f52604160045260245ffd5b906100679061003f565b810190811060018060401b0382111761007f57604052565b610049565b90610097610090610035565b928361005d565b565b5f80fd5b5f80fd5b5f80fd5b5f80fd5b61ffff1690565b6100b9816100a9565b036100c057565b5f80fd5b905051906100d1826100b0565b565b91906020838203126100fb576100f5906100ed6020610084565b935f016100c4565b5f830152565b6100a1565b5f80fd5b60018060401b03811161011a5760208091020190565b610049565b5f80fd5b60018060a01b031690565b61013790610123565b90565b6101438161012e565b0361014a57565b5f80fd5b9050519061015b8261013a565b565b5f80fd5b60018060401b03811161017d5761017960209161003f565b0190565b610049565b90825f9392825e0152565b909291926101a261019d82610161565b610084565b938185526020850190828401116101be576101bc92610182565b565b61015d565b9080601f830112156101e1578160206101de9351910161018d565b90565b610100565b919091604081840312610236576101fd6040610084565b9261020a815f840161014e565b5f850152602082015160018060401b0381116102315761022a92016101c3565b6020830152565b6100a5565b6100a1565b92919061024f61024a82610104565b610084565b93818552602080860192028101918383116102a45781905b838210610275575050505050565b815160018060401b03811161029f5760209161029487849387016101e6565b815201910190610267565b610100565b61011f565b9080601f830112156102c7578160206102c49351910161023b565b90565b610100565b91909160408184031261030a576102e5835f83016100d3565b92602082015160018060401b0381116103055761030292016102a9565b90565b61009d565b610099565b61032d6149308038038061032281610084565b9283398101906102cc565b9091565b5190565b90565b90565b90565b61035261034d61035792610338565b61033b565b610335565b90565b60209181520190565b5f7f746f6f206d616e79206f70657261746f72730000000000000000000000000000910152565b610397601260209261035a565b6103a081610363565b0190565b6103b99060208101905f81830391015261038a565b90565b156103c357565b6103cb610035565b62461bcd60e51b8152806103e1600482016103a4565b0390fd5b5f1b90565b906103fb60018060a01b03916103e5565b9181191691161790565b61041961041461041e92610123565b61033b565b610123565b90565b61042a90610405565b90565b61043690610421565b90565b90565b9061045161044c6104589261042d565b610439565b82546103ea565b9055565b634e487b7160e01b5f525f60045260245ffd5b61047990516100a9565b90565b9061048961ffff916103e5565b9181191691161790565b6104a76104a26104ac926100a9565b61033b565b6100a9565b90565b90565b906104c76104c26104ce92610493565b6104af565b825461047c565b9055565b906104e45f806104ea9401920161046f565b906104b2565b565b906104f6916104d2565b565b90565b61050f61050a610514926104f8565b61033b565b610335565b90565b60016105239101610335565b90565b634e487b7160e01b5f52603260045260245ffd5b9061054482610331565b811015610555576020809102010190565b610526565b5190565b610568905161012e565b90565b906105759061042d565b5f5260205260405f2090565b5f1c90565b60ff1690565b61059861059d91610581565b610586565b90565b6105aa905461058c565b90565b151590565b5f7f6475706c6963617465206f70657261746f720000000000000000000000000000910152565b6105e6601260209261035a565b6105ef816105b2565b0190565b6106089060208101905f8183039101526105d9565b90565b1561061257565b61061a610035565b62461bcd60e51b815280610630600482016105f3565b0390fd5b60ff1690565b61064e61064961065392610335565b61033b565b610634565b90565b6106606040610084565b90565b9061066d906105ad565b9052565b9061067b90610634565b9052565b61068990516105ad565b90565b9061069860ff916103e5565b9181191691161790565b6106ab906105ad565b90565b90565b906106c66106c16106cd926106a2565b6106ae565b825461068c565b9055565b6106db9051610634565b90565b60081b90565b906106f161ff00916106de565b9181191691161790565b61070f61070a61071492610634565b61033b565b610634565b90565b90565b9061072f61072a610736926106fb565b610717565b82546106e4565b9055565b9061076460205f61076a9461075c82820161075684880161067f565b906106b1565b0192016106d1565b9061071a565b565b906107769161073a565b565b5061010090565b90565b61078b81610778565b8210156107a55761079d60029161077f565b910201905f90565b610526565b5190565b634e487b7160e01b5f52602260045260245ffd5b90600160028304921680156107e2575b60208310146107dd57565b6107ae565b91607f16916107d2565b5f5260205f2090565b601f602091010490565b1b90565b9190600861081e9102916108185f19846107ff565b926107ff565b9181191691161790565b61083c61083761084192610335565b61033b565b610335565b90565b90565b919061085d61085861086593610828565b610844565b908354610803565b9055565b5f90565b61087f91610879610869565b91610847565b565b5b81811061088d575050565b8061089a5f60019361086d565b01610882565b9190601f81116108b0575b505050565b6108bc6108e1936107ec565b9060206108c8846107f5565b830193106108e9575b6108da906107f5565b0190610881565b5f80806108ab565b91506108da819290506108d1565b1c90565b9061090b905f19906008026108f7565b191690565b8161091a916108fb565b906002021790565b9061092c8161055a565b9060018060401b0382116109ea5761094e8261094885546107c2565b856108a0565b602090601f831160011461098257918091610971935f92610976575b5050610910565b90555b565b90915001515f8061096a565b601f19831691610991856107ec565b925f5b8181106109d2575091600293918560019694106109b8575b50505002019055610974565b6109c8910151601f8416906108fb565b90555f80806109ac565b91936020600181928787015181550195019201610994565b610049565b906109f991610922565b565b90610a2660206001610a2c94610a1e5f8201610a185f880161055e565b9061043c565b0192016107aa565b906109ef565b565b9190610a3f57610a3d916109fb565b565b61045c565b90610a505f19916103e5565b9181191691161790565b90610a6f610a6a610a7692610828565b610844565b8254610a44565b9055565b90565b610a89610a8e91610581565b610a7a565b90565b610a9b9054610a7d565b90565b50600290565b90565b610ab081610a9e565b821015610aca57610ac2600291610aa4565b910201905f90565b610526565b610b0c90610afa610adf84610331565b610af3610aed61010061033e565b91610335565b11156103bc565b610b04335f61043c565b6102086104ec565b610b155f6104fb565b5b80610b31610b2b610b2685610331565b610335565b91610335565b1015610c1c57610c1790610b5b610b566020610b4e86859061053a565b51015161055a565b610db4565b610b99610b94610b8e5f610b8881600101610b8283610b7b8b8a9061053a565b510161055e565b9061056b565b016105a0565b156105ad565b61060b565b610bef6001610bc7610baa8461063a565b610bbe610bb5610656565b935f8501610663565b60208301610671565b610bea5f600101610be45f610bdd89889061053a565b510161055e565b9061056b565b61076c565b610c12610bfd84839061053a565b51610c0c600180018490610782565b90610a2e565b610517565b610b16565b50610c39610c34610c2f610c4493610331565b61063a565b610e96565b610201600101610a5a565b610c6a610c55610201600101610a91565b5f610c636102038290610aa7565b5001610a5a565b565b5f7f656d707479206f70657261746f72206461746100000000000000000000000000910152565b610ca0601360209261035a565b610ca981610c6c565b0190565b610cc29060208101905f818303910152610c93565b90565b15610ccc57565b610cd4610035565b62461bcd60e51b815280610cea60048201610cad565b0390fd5b61ffff1690565b610d01610d0691610581565b610cee565b90565b610d139054610cf5565b90565b610d2a610d25610d2f926100a9565b61033b565b610335565b90565b5f7f6f70657261746f72206461746120746f6f206c61726765000000000000000000910152565b610d66601760209261035a565b610d6f81610d32565b0190565b610d889060208101905f818303910152610d59565b90565b15610d9257565b610d9a610035565b62461bcd60e51b815280610db060048201610d73565b0390fd5b610df990610dd481610dce610dc85f6104fb565b91610335565b11610cc5565b610df2610dec610de75f61020801610d09565b610d16565b91610335565b1115610d8b565b565b610e0f610e0a610e1492610634565b61033b565b610335565b90565b90565b610e2e610e29610e3392610e17565b61033b565b610335565b90565b610e5590610e4f610e49610e5a94610335565b91610335565b906107ff565b610335565b90565b634e487b7160e01b5f52601160045260245ffd5b610e80610e8691939293610335565b92610335565b8203918211610e9157565b610e5d565b610ebf610ecf91610ea5610869565b50610eba610eb4600192610dfb565b91610e1a565b610e36565b610ec96001610e1a565b90610e71565b9056fe60806040526004361015610013575b6107fc565b61001d5f356100cc565b806326322217146100c75780632b726062146100c257806347011c5c146100bd57806353bfb584146100b857806365706f9c146100b357806375418b9d146100ae5780639d44e717146100a9578063c05665dd146100a4578063e88e97491461009f578063f2fde38b1461009a5763f5f2d9f10361000e576107c9565b610796565b610763565b610730565b6106bc565b610646565b6102e1565b61027d565b61023b565b6101d6565b610135565b60e01c90565b60405190565b5f80fd5b5f80fd5b5f80fd5b5f80fd5b908160409103126100f65790565b6100e4565b9060208282031261012b575f82013567ffffffffffffffff81116101265761012392016100e8565b90565b6100e0565b6100dc565b5f0190565b346101635761014d6101483660046100fb565b610f6e565b6101556100d2565b8061015f81610130565b0390f35b6100d8565b60ff1690565b61017781610168565b0361017e57565b5f80fd5b9050359061018f8261016e565b565b9190916040818403126101d1576101aa835f8301610182565b92602082013567ffffffffffffffff81116101cc576101c992016100e8565b90565b6100e0565b6100dc565b34610205576101ef6101e9366004610191565b906115ec565b6101f76100d2565b8061020181610130565b0390f35b6100d8565b908160409103126102185790565b6100e4565b9060408282031261023657610233915f0161020a565b90565b6100dc565b346102695761025361024e36600461021d565b611d53565b61025b6100d2565b8061026581610130565b0390f35b6100d8565b5f91031261027857565b6100dc565b346102ab5761028d36600461026e565b610295611f08565b61029d6100d2565b806102a781610130565b0390f35b6100d8565b908160209103126102be5790565b6100e4565b906020828203126102dc576102d9915f016102b0565b90565b6100dc565b3461030f576102f96102f43660046102c3565b6120ae565b6103016100d2565b8061030b81610130565b0390f35b6100d8565b60018060a01b031690565b61032890610314565b90565b6103349061031f565b9052565b5190565b60209181520190565b60200190565b5190565b60209181520190565b90825f9392825e0152565b601f801991011690565b61038c61039560209361039a936103838161034b565b9384809361034f565b95869101610358565b610363565b0190565b6103c991602060408201926103b95f8201515f85019061032b565b015190602081840391015261036d565b90565b906103d69161039e565b90565b60200190565b906103f36103ec83610338565b809261033c565b908161040460208302840194610345565b925f915b83831061041757505050505090565b90919293946020610439610433838560019503875289516103cc565b976103d9565b9301930191939290610408565b50600290565b905090565b90565b90565b61046090610454565b9052565b61046d90610168565b9052565b90602080610493936104895f8201515f860190610457565b0151910190610464565b565b906104a281604093610471565b0190565b60200190565b6104c86104c26104bb83610446565b809461044c565b91610451565b5f915b8383106104d85750505050565b6104ee6104e86001928451610495565b926104a6565b920191906104cb565b67ffffffffffffffff1690565b61050d906104f7565b9052565b61ffff1690565b61052190610511565b9052565b905f80610536930151910190610518565b565b9060208061055a936105505f8201515f860190610504565b0151910190610457565b565b905f8061056d93015191019061032b565b565b6fffffffffffffffffffffffffffffffff1690565b61058d9061056f565b9052565b9061062b9061016060e06105c561018084016105b35f8801515f87019061032b565b602087015185820360208701526103df565b946105d8604082015160408601906104ac565b6105ea606082015160c0860190610504565b6105fb608082015183860190610525565b61060e60a0820151610100860190610538565b61062160c082015161014086019061055c565b0151910190610584565b90565b6106439160208201915f818403910152610591565b90565b346106765761065636600461026e565b610672610661612682565b6106696100d2565b9182918261062e565b0390f35b6100d8565b610684816104f7565b0361068b57565b5f80fd5b9050359061069c8261067b565b565b906020828203126106b7576106b4915f0161068f565b90565b6100dc565b346106ea576106d46106cf36600461069e565b612bf5565b6106dc6100d2565b806106e681610130565b0390f35b6100d8565b6106f88161031f565b036106ff57565b5f80fd5b90503590610710826106ef565b565b9060208282031261072b57610728915f01610703565b90565b6100dc565b3461075e57610748610743366004610712565b613071565b6107506100d2565b8061075a81610130565b0390f35b6100d8565b346107915761077b61077636600461069e565b6131d3565b6107836100d2565b8061078d81610130565b0390f35b6100d8565b346107c4576107ae6107a9366004610712565b61327b565b6107b66100d2565b806107c081610130565b0390f35b6100d8565b346107f7576107d936600461026e565b6107e161338e565b6107e96100d2565b806107f381610130565b0390f35b6100d8565b5f80fd5b5f80fd5b5f80fd5b5f80fd5b90359060016020038136030382121561084e570180359067ffffffffffffffff82116108495760200191600182023603831361084457565b610808565b610804565b610800565b5090565b35610861816106ef565b90565b5f1c90565b60018060a01b031690565b61088061088591610864565b610869565b90565b6108929054610874565b90565b60209181520190565b5f7f756e617574686f72697a65640000000000000000000000000000000000000000910152565b6108d2600c602092610895565b6108db8161089e565b0190565b6108f49060208101905f8183039101526108c5565b90565b156108fe57565b6109066100d2565b62461bcd60e51b81528061091c600482016108df565b0390fd5b90565b61093761093261093c92610314565b610920565b610314565b90565b61094890610923565b90565b6109549061093f565b90565b906109619061094b565b5f5260205260405f2090565b90565b60ff1690565b61098261098791610864565b610970565b90565b6109949054610976565b90565b5f7f756e6b6e6f776e206f70657261746f7200000000000000000000000000000000910152565b6109cb6010602092610895565b6109d481610997565b0190565b6109ed9060208101905f8183039101526109be565b90565b156109f757565b6109ff6100d2565b62461bcd60e51b815280610a15600482016109d8565b0390fd5b60081c90565b60ff1690565b610a31610a3691610a19565b610a1f565b90565b610a439054610a25565b90565b634e487b7160e01b5f52603260045260245ffd5b5061010090565b90565b610a6d81610a5a565b821015610a8757610a7f600291610a61565b910201905f90565b610a46565b634e487b7160e01b5f525f60045260245ffd5b5f1b90565b90610ab560018060a01b0391610a9f565b9181191691161790565b90565b90610ad7610ad2610ade9261094b565b610abf565b8254610aa4565b9055565b634e487b7160e01b5f52604160045260245ffd5b634e487b7160e01b5f52602260045260245ffd5b9060016002830492168015610b2a575b6020831014610b2557565b610af6565b91607f1691610b1a565b5f5260205f2090565b601f602091010490565b1b90565b91906008610b66910291610b605f1984610b47565b92610b47565b9181191691161790565b610b84610b7f610b8992610454565b610920565b610454565b90565b90565b9190610ba5610ba0610bad93610b70565b610b8c565b908354610b4b565b9055565b5f90565b610bc791610bc1610bb1565b91610b8f565b565b5b818110610bd5575050565b80610be25f600193610bb5565b01610bca565b9190601f8111610bf8575b505050565b610c04610c2993610b34565b906020610c1084610b3d565b83019310610c31575b610c2290610b3d565b0190610bc9565b5f8080610bf3565b9150610c2281929050610c19565b1c90565b90610c53905f1990600802610c3f565b191690565b81610c6291610c43565b906002021790565b91610c759082610853565b9067ffffffffffffffff8211610d3457610c9982610c938554610b0a565b85610be8565b5f90601f8311600114610ccc57918091610cbb935f92610cc0575b5050610c58565b90555b565b90915001355f80610cb4565b601f19831691610cdb85610b34565b925f5b818110610d1c57509160029391856001969410610d02575b50505002019055610cbe565b610d12910135601f841690610c43565b90555f8080610cf6565b91936020600181928787013581550195019201610cde565b610ae2565b90610d449291610c6a565b565b90610d736001610d7993610d675f8201610d615f8701610857565b90610ac2565b0191602081019061080c565b91610d39565b565b9190610d8c57610d8a91610d46565b565b610a8c565b6fffffffffffffffffffffffffffffffff1690565b610db2610db791610864565b610d91565b90565b610dc49054610da6565b90565b634e487b7160e01b5f52601160045260245ffd5b610de49061056f565b6fffffffffffffffffffffffffffffffff8114610e015760010190565b610dc7565b90610e216fffffffffffffffffffffffffffffffff91610a9f565b9181191691161790565b610e3f610e3a610e449261056f565b610920565b61056f565b90565b90565b90610e5f610e5a610e6692610e2b565b610e47565b8254610e06565b9055565b50610e79906020810190610703565b90565b5f80fd5b5f80fd5b5f80fd5b9035600160200382360303811215610ec957016020813591019167ffffffffffffffff8211610ec4576001820236038313610ebf57565b610e80565b610e7c565b610e84565b90825f939282370152565b9190610ef381610eec81610ef89561034f565b8095610ece565b610363565b0190565b610f3891610f2a6040820192610f20610f175f830183610e6a565b5f85019061032b565b6020810190610e88565b916020818503910152610ed9565b90565b610f449061056f565b9052565b92916020610f64610f6c9360408701908782035f890152610efc565b940190610f3b565b565b610f8d610f88610f8283602081019061080c565b90610853565b6134b8565b33610faa610fa4610f9f5f8501610857565b61031f565b9161031f565b148015611075575b610fbb906108f7565b611011610fde610fd95f600101610fd35f8601610857565b90610957565b61096d565b610ff1610fec5f830161098a565b6109f0565b61100b83916110055f600180019201610a39565b90610a64565b90610d7b565b61102f61102761102261020c610dba565b610ddb565b61020c610e4a565b61103a61020c610dba565b7f5aab2c32b1e447db4dba1d2790fe8b863d4775042b10b92e00dab9d6b671b5b5916110706110676100d2565b92839283610f48565b0390a1565b50610fbb3361109461108e6110895f610888565b61031f565b9161031f565b149050610fb2565b5f7f6e6f7420746865206f776e657200000000000000000000000000000000000000910152565b6110d0600d602092610895565b6110d98161109c565b0190565b6110f29060208101905f8183039101526110c3565b90565b156110fc57565b6111046100d2565b62461bcd60e51b81528061111a600482016110dd565b0390fd5b9061114c916111473361114161113b6111365f610888565b61031f565b9161031f565b146110f5565b61147f565b565b151590565b5f7f616c726561647920657869737473000000000000000000000000000000000000910152565b611187600e602092610895565b61119081611153565b0190565b6111a99060208101905f81830391015261117a565b90565b156111b357565b6111bb6100d2565b62461bcd60e51b8152806111d160048201611194565b0390fd5b6111df9054610b0a565b90565b90565b6111f96111f46111fe926111e2565b610920565b610454565b90565b5f7f736c6f74206f6363757069656400000000000000000000000000000000000000910152565b611235600d602092610895565b61123e81611201565b0190565b6112579060208101905f818303910152611228565b90565b1561126157565b6112696100d2565b62461bcd60e51b81528061127f60048201611242565b0390fd5b9061128d90610363565b810190811067ffffffffffffffff8211176112a757604052565b610ae2565b906112bf6112b86100d2565b9283611283565b565b6112cb60406112ac565b90565b906112d89061114e565b9052565b906112e690610168565b9052565b6112f4905161114e565b90565b9061130360ff91610a9f565b9181191691161790565b6113169061114e565b90565b90565b9061133161132c6113389261130d565b611319565b82546112f7565b9055565b6113469051610168565b90565b60081b90565b9061135c61ff0091611349565b9181191691161790565b61137a61137561137f92610168565b610920565b610168565b90565b90565b9061139a6113956113a192611366565b611382565b825461134f565b9055565b906113cf60205f6113d5946113c78282016113c18488016112ea565b9061131c565b01920161133c565b90611385565b565b906113e1916113a5565b565b90565b6113f26113f791610864565b6113e3565b90565b61140490546113e6565b90565b906114135f1991610a9f565b9181191691161790565b9061143261142d61143992610b70565b610b8c565b8254611407565b9055565b61144690610168565b9052565b93929061147560409161147d9461146860608901925f8a019061143d565b8782036020890152610efc565b940190610f3b565b565b61149e61149961149384602081019061080c565b90610853565b6134b8565b6114d16114cc6114c65f6114c0816001016114ba838901610857565b90610957565b0161098a565b1561114e565b6111ac565b6115056114ed60016114e68180018590610a64565b50016111d5565b6114ff6114f95f6111e5565b91610454565b1461125a565b611548600161152b836115226115196112c1565b935f85016112ce565b602083016112dc565b6115435f60010161153d5f8701610857565b90610957565b6113d7565b6115608261155a600180018490610a64565b90610d7b565b61158661157b6115746102016001016113fa565b8390613542565b61020160010161141d565b6115a461159c61159761020c610dba565b610ddb565b61020c610e4a565b906115b061020c610dba565b916115e77f952e65f049c574f487580ba41dcf6b0ea8350ef8abc8647a8a11dfaa7af6bad6936115de6100d2565b9384938461144a565b0390a1565b906115f69161111e565b565b611625906116203361161a61161461160f5f610888565b61031f565b9161031f565b146110f5565b6116a9565b565b5f7f6d6967726174696f6e20696e2070726f67726573730000000000000000000000910152565b61165b6015602092610895565b61166481611627565b0190565b61167d9060208101905f81830391015261164e565b90565b1561168757565b61168f6100d2565b62461bcd60e51b8152806116a560048201611668565b0390fd5b6116cb906116c66116c16116bb613571565b1561114e565b611680565b61174f565b565b5f7f6d61696e74656e616e636520696e2070726f6772657373000000000000000000910152565b6117016017602092610895565b61170a816116cd565b0190565b6117239060208101905f8183039101526116f4565b90565b1561172d57565b6117356100d2565b62461bcd60e51b81528061174b6004820161170e565b0390fd5b6117719061176c61176761176161359f565b1561114e565b611726565b611b82565b565b61177c81610454565b0361178357565b5f80fd5b3561179181611773565b90565b5f7f696e76616c6964206269746d61736b0000000000000000000000000000000000910152565b6117c8600f602092610895565b6117d181611794565b0190565b6117ea9060208101905f8183039101526117bb565b90565b156117f457565b6117fc6100d2565b62461bcd60e51b815280611812600482016117d5565b0390fd5b67ffffffffffffffff1690565b61182f61183491610864565b611816565b90565b6118419054611823565b90565b90565b61185b61185661186092611844565b610920565b6104f7565b90565b634e487b7160e01b5f52601260045260245ffd5b611883611889916104f7565b916104f7565b908115611894570690565b611863565b50600290565b90565b6118ab81611899565b8210156118c5576118bd60029161189f565b910201905f90565b610a46565b906118d490610454565b9052565b6118e46118e991610864565b610a1f565b90565b6118f690546118d8565b90565b61190360406112ac565b90565b9061193d61193460016119176118f9565b9461192e6119265f83016113fa565b5f88016118ca565b016118ec565b602084016112dc565b565b61194890611906565b90565b6119559051610454565b90565b356119628161016e565b90565b5f7f73616d65206b6579737061636500000000000000000000000000000000000000910152565b611999600d602092610895565b6119a281611965565b0190565b6119bb9060208101905f81830391015261198c565b90565b156119c557565b6119cd6100d2565b62461bcd60e51b8152806119e3600482016119a6565b0390fd5b6119f0906104f7565b67ffffffffffffffff8114611a055760010190565b610dc7565b90611a1d67ffffffffffffffff91610a9f565b9181191691161790565b611a3b611a36611a40926104f7565b610920565b6104f7565b90565b90565b90611a5b611a56611a6292611a27565b611a43565b8254611a0a565b9055565b90611a7b611a76611a8292611366565b611382565b82546112f7565b9055565b90611ab160206001611ab794611aa95f8201611aa35f8801611787565b9061141d565b019201611958565b90611a66565b565b9190611aca57611ac891611a86565b565b610a8c565b611ad8906104f7565b9052565b90503590611ae982611773565b565b50611afa906020810190611adc565b90565b50611b0c906020810190610182565b90565b906020611b3a611b4293611b31611b285f830183611aeb565b5f860190610457565b82810190611afd565b910190610464565b565b611b79611b8094611b6f608094989795611b6560a086019a5f870190611acf565b6020850190611b0f565b6060830190611acf565b0190610f3b565b565b611bac611ba7611b935f8401611787565b611ba16102016001016113fa565b906135d4565b6117ed565b611c19611be2611bdc610203611bd6611bc6610207611837565b611bd06002611847565b90611877565b906118a2565b5061193f565b611bed5f820161194b565b611c09611c03611bfe5f8701611787565b610454565b91610454565b1415908115611d21575b506119be565b611c385f61020901611c32611c2d82611837565b6119e7565b90611a46565b611c56611c4e611c49610207611837565b6119e7565b610207611a46565b611c8a81611c84610203611c7e611c6e610207611837565b611c786002611847565b90611877565b906118a2565b90611ab9565b611ca3611c985f8301611787565b60016102090161141d565b611cc1611cb9611cb461020c610dba565b610ddb565b61020c610e4a565b611cce5f61020901611837565b90611cda610207611837565b91611d1c611ce961020c610dba565b7f8b6495d1a64e57453f038b5fe923459a17fc3f4d5420af6c58007bdc78aa868494611d136100d2565b94859485611b44565b0390a1565b611d2e915060200161133c565b611d4b611d45611d4060208601611958565b610168565b91610168565b14155f611c13565b611d5c906115f8565b565b5f7f6e6f206d61696e74656e616e6365000000000000000000000000000000000000910152565b611d92600e602092610895565b611d9b81611d5e565b0190565b611db49060208101905f818303910152611d85565b90565b15611dbe57565b611dc66100d2565b62461bcd60e51b815280611ddc60048201611d9f565b0390fd5b611df0611deb61359f565b611db7565b611df8611e37565b565b611e0e611e09611e13926111e2565b610920565b610314565b90565b611e1f90611dfa565b90565b9190611e35905f60208501940190610f3b565b565b611e445f61020b01610888565b611e56611e503361031f565b9161031f565b148015611ee1575b611e67906108f7565b611e7d611e735f611e16565b5f61020b01610ac2565b611e9b611e93611e8e61020c610dba565b610ddb565b61020c610e4a565b611ea661020c610dba565b611edc7f11943d6deda6f0591d72674788d272eb0209e18b8a3a021fa51cb3b5e9a2ab6191611ed36100d2565b91829182611e22565b0390a1565b50611e6733611f00611efa611ef55f610888565b61031f565b9161031f565b149050611e5e565b611f10611de0565b565b611f3f90611f3a33611f34611f2e611f295f610888565b61031f565b9161031f565b146110f5565b61203e565b565b611f4a81610511565b03611f5157565b5f80fd5b35611f5f81611f41565b90565b90611f6f61ffff91610a9f565b9181191691161790565b611f8d611f88611f9292610511565b610920565b610511565b90565b90565b90611fad611fa8611fb492611f79565b611f95565b8254611f62565b9055565b90611fca5f80611fd094019201611f55565b90611f98565b565b90611fdc91611fb8565b565b90503590611feb82611f41565b565b50611ffc906020810190611fde565b90565b905f6120116120199382810190611fed565b910190610518565b565b91602061203c92949361203560408201965f830190611fff565b0190610f3b565b565b61204a81610208611fd2565b61206861206061205b61020c610dba565b610ddb565b61020c610e4a565b61207361020c610dba565b7fb24d8d9dcfbb6be13176c1c7bfb0e76445a9ba2a3553b413d8671446f1030830916120a96120a06100d2565b9283928361201b565b0390a1565b6120b790611f12565b565b6120c46101006112ac565b90565b5f90565b606090565b67ffffffffffffffff81116120e55760200290565b610ae2565b6120f66120fb916120d0565b6112ac565b90565b5f90565b5f90565b61210e6118f9565b906020808361211b6120fe565b815201612126612102565b81525050565b612134612106565b90565b5f5b82811061214557505050565b60209061215061212c565b8184015201612139565b90612178612167836120ea565b9261217284916120d0565b90612137565b565b612184600261215a565b90565b5f90565b61219560206112ac565b90565b5f90565b6121a461218b565b906020826121b0612198565b81525050565b6121be61219c565b90565b6121cb60406112ac565b90565b6121d66121c1565b90602080836121e3612187565b8152016121ee6120fe565b81525050565b6121fc6121ce565b90565b61220960206112ac565b90565b6122146121ff565b906020826122206120c7565b81525050565b61222e61220c565b90565b5f90565b61223d6120b9565b90602080808080808080896122506120c7565b81520161225b6120cb565b81520161226661217a565b815201612271612187565b81520161227c6121b6565b8152016122876121f4565b815201612292612226565b81520161229d612231565b81525050565b6122ab612235565b90565b90565b6122c56122c06122ca926122ae565b610920565b610454565b90565b6122dc6122e291939293610454565b92610454565b82018092116122ed57565b610dc7565b67ffffffffffffffff811161230a5760208091020190565b610ae2565b9061232161231c836122f2565b6112ac565b918252565b61233060406112ac565b90565b606090565b612340612326565b906020808361234d6120c7565b815201612358612333565b81525050565b612366612338565b90565b5f5b82811061237757505050565b60209061238261235e565b818401520161236b565b906123b16123998361230f565b926020806123a786936122f2565b9201910390612369565b565b6123be6101006112ac565b90565b906123cb9061031f565b9052565b52565b906123dc82611899565b6123e5816120ea565b926123f0849161189f565b5f915b8383106124005750505050565b600260206001926124108561193f565b8152019201920191906123f3565b612427906123d2565b90565b52565b90612437906104f7565b9052565b61ffff1690565b61244e61245391610864565b61243b565b90565b6124609054612442565b90565b9061246d90610511565b9052565b906124906124885f61248161218b565b9401612456565b5f8401612463565b565b61249b90612471565b90565b52565b906124d86124cf60016124b26121c1565b946124c96124c15f8301611837565b5f880161242d565b016113fa565b602084016118ca565b565b6124e3906124a1565b90565b52565b906125086125005f6124f96121ff565b9401610888565b5f84016123c1565b565b612513906124e9565b90565b52565b906125239061056f565b9052565b61253090610454565b5f19811461253e5760010190565b610dc7565b61255761255261255c92610454565b610920565b610168565b90565b9061256982610338565b81101561257a576020809102010190565b610a46565b905f929180549061259961259283610b0a565b809461034f565b916001811690815f146125f057506001146125b4575b505050565b6125c19192939450610b34565b915f925b8184106125d857505001905f80806125af565b600181602092959395548486015201910192906125c5565b92949550505060ff19168252151560200201905f80806125af565b906126159161257f565b90565b90612638612631926126286100d2565b9384809261260b565b0383611283565b565b52565b9061267461266b600161264e612326565b9461266561265d5f8301610888565b5f88016123c1565b01612618565b6020840161263a565b565b61267f9061263d565b90565b61268a6122a3565b5060016102010161269a906113fa565b6126a3906135ff565b6126ac5f610888565b8160016126b8906122b1565b6126c1916122cd565b6126ca9061238c565b6102036126d8610207611837565b6102086102099161020b936126ee61020c610dba565b956126f76123b3565b975f890190612705916123c1565b6020880190612713916123cf565b61271c9061241e565b604087019061272a9161242a565b60608601906127389161242d565b61274190612492565b608085019061274f9161249e565b612758906124da565b60a0840190612766916124e6565b61276f9061250a565b60c083019061277d91612516565b60e082019061278b91612519565b60016102010161279a906113fa565b925f6127a5906111e5565b5b806127b96127b386610454565b91610454565b1161281c57612812906127d5866127cf83612543565b90613614565b6128175761280a6127ea600180018390610a64565b5060208601516127fa8492612676565b612804838361255f565b5261255f565b51505b612527565b6127a6565b61280d565b509250905090565b5f7f6e6f206d6967726174696f6e0000000000000000000000000000000000000000910152565b612858600c602092610895565b61286181612824565b0190565b61287a9060208101905f81830391015261284b565b90565b1561288457565b61288c6100d2565b62461bcd60e51b8152806128a260048201612865565b0390fd5b6128bf906128ba6128b5613571565b61287d565b612a55565b565b5f7f77726f6e67206d6967726174696f6e2069640000000000000000000000000000910152565b6128f56012602092610895565b6128fe816128c1565b0190565b6129179060208101905f8183039101526128e8565b90565b1561292157565b6129296100d2565b62461bcd60e51b81528061293f60048201612902565b0390fd5b61294d60406112ac565b90565b9061298661297d5f612960612943565b9461297761296f83830161098a565b8388016112ce565b01610a39565b602084016112dc565b565b61299190612950565b90565b5f7f6e6f742070756c6c696e67000000000000000000000000000000000000000000910152565b6129c8600b602092610895565b6129d181612994565b0190565b6129ea9060208101905f8183039101526129bb565b90565b156129f457565b6129fc6100d2565b62461bcd60e51b815280612a12600482016129d5565b0390fd5b612a1f9061031f565b9052565b604090612a4c612a539496959396612a4260608401985f850190611acf565b6020830190612a16565b0190610f3b565b565b612a7d90612a77612a71612a6c5f61020901611837565b6104f7565b916104f7565b1461291a565b612b02612af7612a99612a945f6001013390610957565b612988565b612aac612aa75f83016112ea565b6109f0565b612ad7612ad2612ac06001610209016113fa565b612acc6020850161133c565b90613652565b6129ed565b612af16020612aea6001610209016113fa565b920161133c565b90613691565b60016102090161141d565b612b20612b18612b1361020c610dba565b610ddb565b61020c610e4a565b612b2e6001610209016113fa565b612b40612b3a5f6111e5565b91610454565b145f14612b9d57612b545f61020901611837565b33612b6061020c610dba565b91612b977f01269879535f40ee8957e15e160bf1866c5e2728ff0cbc583d848821e2639b4e93612b8e6100d2565b93849384612a23565b0390a15b565b612baa5f61020901611837565b33612bb661020c610dba565b91612bed7faf5e90e72015f43138f66b4cd08bd1dfa2839030104f22a00af843fe847c6d1993612be46100d2565b93849384612a23565b0390a1612b9b565b612bfe906128a6565b565b612c2d90612c2833612c22612c1c612c175f610888565b61031f565b9161031f565b146110f5565b612ece565b565b5f7f696e206b65797370616365000000000000000000000000000000000000000000910152565b612c63600b602092610895565b612c6c81612c2f565b0190565b612c859060208101905f818303910152612c56565b90565b15612c8f57565b612c976100d2565b62461bcd60e51b815280612cad60048201612c70565b0390fd5b5f80910155565b905f03612cca57612cc890612cb1565b565b610a8c565b90612ce2905f1990602003600802610c3f565b8154169055565b905f91612d00612cf882610b34565b928354610c58565b905555565b919290602082105f14612d5e57601f8411600114612d2e57612d28929350610c58565b90555b5b565b5090612d54612d59936001612d4b612d4585610b34565b92610b3d565b82019101610bc9565b612ce9565b612d2b565b50612d958293612d6f600194610b34565b612d8e612d7b85610b3d565b820192601f861680612da0575b50610b3d565b0190610bc9565b600202179055612d2c565b612dac90888603612ccf565b5f612d88565b929091680100000000000000008211612e12576020115f14612e0357602081105f14612de757612de191610c58565b90555b5b565b60019160ff1916612df784610b34565b55600202019055612de4565b60019150600202019055612de5565b610ae2565b908154612e2381610b0a565b90818311612e4c575b818310612e3a575b50505050565b612e4393612d05565b5f808080612e34565b612e5883838387612db2565b612e2c565b5f612e6791612e17565b565b905f03612e7b57612e7990612e5d565b565b610a8c565b5f6001612e9292828082015501612e69565b565b905f03612ea657612ea490612e80565b565b610a8c565b916020612ecc929493612ec560408201965f830190612a16565b0190610f3b565b565b612f93612f88612f075f612eee612ee9826001018790610957565b61096d565b612f01612efc83830161098a565b6109f0565b01610a39565b612f0f613571565b5f1461302557612f37612f305f612f2961020382906118a2565b50016113fa565b8290613614565b80612ff7575b612f4690612c88565b5b612f5e5f612f59816001018790610957565b612cb8565b612f75612f6f600180018390610a64565b90612e94565b612f836102016001016113fa565b613691565b61020160010161141d565b612fb1612fa9612fa461020c610dba565b610ddb565b61020c610e4a565b612fbc61020c610dba565b7f6a1d7ddc82d57e783a3ae60737a6c1a4704fcf38d966561fea0af8564f2d895d91612ff2612fe96100d2565b92839283612eab565b0390a1565b50612f4661301e6130175f6130106102036001906118a2565b50016113fa565b8390613614565b9050612f3d565b61306c6130676130605f613059610203613053613043610207611837565b61304d6002611847565b90611877565b906118a2565b50016113fa565b8390613614565b612c88565b612f47565b61307a90612c00565b565b6130a9906130a43361309e6130986130935f610888565b61031f565b9161031f565b146110f5565b6130ab565b565b6130c4906130bf6130ba613571565b61287d565b613105565b565b6130cf906104f7565b5f81146130dd576001900390565b610dc7565b9160206131039294936130fc60408201965f830190611acf565b0190610f3b565b565b61312d9061312761312161311c5f61020901611837565b6104f7565b916104f7565b1461291a565b61314b61314361313e610207611837565b6130c6565b610207611a46565b6131626131575f6111e5565b60016102090161141d565b61318061317861317361020c610dba565b610ddb565b61020c610e4a565b61318d5f61020901611837565b61319861020c610dba565b7ff73240422246f63ed633ef3ce0726b8ab8fb69d46c8a4e5ecb0b2922668674a1916131ce6131c56100d2565b928392836130e2565b0390a1565b6131dc9061307c565b565b61320b90613206336132006131fa6131f55f610888565b61031f565b9161031f565b146110f5565b61320d565b565b613217815f610ac2565b61323561322d61322861020c610dba565b610ddb565b61020c610e4a565b61324061020c610dba565b7f476610ebc6647c15376100955efbf22ef2a0c3b923fc00b380b660c873ef20ac9161327661326d6100d2565b92839283612eab565b0390a1565b613284906131de565b565b61329f61329a613294613571565b1561114e565b611680565b6132a76132a9565b565b6132c26132bd6132b761359f565b1561114e565b611726565b6132ca6132cc565b565b6132e45f6132de816001013390610957565b0161098a565b8015613367575b6132f4906108f7565b613302335f61020b01610ac2565b61332061331861331361020c610dba565b610ddb565b61020c610e4a565b3361332c61020c610dba565b7fbc2748cf02f7a1291525e866efc76ab3b96d32d7afcbb26c53daec617b38b479916133626133596100d2565b92839283612eab565b0390a1565b506132f43361338661338061337b5f610888565b61031f565b9161031f565b1490506132eb565b613396613286565b565b5f7f656d707479206f70657261746f72206461746100000000000000000000000000910152565b6133cc6013602092610895565b6133d581613398565b0190565b6133ee9060208101905f8183039101526133bf565b90565b156133f857565b6134006100d2565b62461bcd60e51b815280613416600482016133d9565b0390fd5b61342e61342961343392610511565b610920565b610454565b90565b5f7f6f70657261746f72206461746120746f6f206c61726765000000000000000000910152565b61346a6017602092610895565b61347381613436565b0190565b61348c9060208101905f81830391015261345d565b90565b1561349657565b61349e6100d2565b62461bcd60e51b8152806134b460048201613477565b0390fd5b6134fd906134d8816134d26134cc5f6111e5565b91610454565b116133f1565b6134f66134f06134eb5f61020801612456565b61341a565b91610454565b111561348f565b565b61351361350e61351892610168565b610920565b610454565b90565b61353a9061353461352e61353f94610454565b91610454565b90610b47565b610454565b90565b6135699061354e610bb1565b509161356461355e6001926134ff565b916122b1565b61351b565b1790565b5f90565b61357961356d565b506135886001610209016113fa565b61359a6135945f6111e5565b91610454565b141590565b6135a761356d565b506135b55f61020b01610888565b6135cf6135c96135c45f611e16565b61031f565b9161031f565b141590565b6135e8906135e061356d565b509119610454565b166135fb6135f55f6111e5565b91610454565b1490565b6136119061360b610bb1565b50613884565b90565b61363b9061362061356d565b50916136366136306001926134ff565b916122b1565b61351b565b1661364e6136485f6111e5565b91610454565b1490565b6136799061365e61356d565b509161367461366e6001926134ff565b916122b1565b61351b565b1661368c6136865f6111e5565b91610454565b141590565b6136bb6136c1916136a0610bb1565b50926136b66136b06001926134ff565b916122b1565b61351b565b19610454565b1690565b90565b6136dc6136d76136e1926136c5565b610920565b610454565b90565b90565b6136fb6136f6613700926136e4565b610920565b610168565b90565b6137229061371c61371661372794610168565b91610454565b90610b47565b610454565b90565b6137499061374361373d61374e94610454565b91610454565b90610c3f565b610454565b90565b90565b61376861376361376d92613751565b610920565b610454565b90565b90565b61378761378261378c92613770565b610920565b610168565b90565b90565b6137a66137a16137ab9261378f565b610920565b610454565b90565b90565b6137c56137c06137ca926137ae565b610920565b610168565b90565b90565b6137e46137df6137e9926137cd565b610920565b610454565b90565b90565b6138036137fe613808926137ec565b610920565b610168565b90565b90565b61382261381d6138279261380b565b610920565b610454565b90565b90565b61384161383c6138469261382a565b610920565b610168565b90565b90565b61386061385b61386592613849565b610920565b610454565b90565b61387c61387761388192611844565b610920565b610168565b90565b61388c610bb1565b506138cc6138bc826138b66138b06fffffffffffffffffffffffffffffffff6136c8565b91610454565b11613a19565b6138c660076136e7565b90613703565b61390d6138fd6138dd84849061372a565b6138f76138f167ffffffffffffffff613754565b91610454565b11613a19565b6139076006613773565b90613703565b1761394b61393b61391f84849061372a565b61393561392f63ffffffff613792565b91610454565b11613a19565b61394560056137b1565b90613703565b1761398761397761395d84849061372a565b61397161396b61ffff6137d0565b91610454565b11613a19565b61398160046137ef565b90613703565b176139c26139b261399984849061372a565b6139ac6139a660ff61380e565b91610454565b11613a19565b6139bc600361382d565b90613703565b176139fd6139ed6139d484849061372a565b6139e76139e1600f61384c565b91610454565b11613a19565b6139f76002613868565b90613703565b17906d010102020202030303030303030360801b90821c1a1790565b613a21610bb1565b5015159056fea2646970667358221220c28697cc6a6540c09428c2e17f38085e7684669de4a6b573cbcc14d6da425e7264736f6c634300081c0033","linkReferences":{}},"methodIdentifiers":{"abortMigration(uint64)":"e88e9749","addNodeOperator(uint8,(address,bytes))":"2b726062","completeMigration(uint64)":"9d44e717","finishMaintenance()":"53bfb584","getView()":"75418b9d","removeNodeOperator(address)":"c05665dd","startMaintenance()":"f5f2d9f1","startMigration((uint256,uint8))":"47011c5c","transferOwnership(address)":"f2fde38b","updateNodeOperator((address,bytes))":"26322217","updateSettings((uint16))":"65706f9c"},"id":24}