{"abi":[{"type":"constructor","inputs":[],"stateMutability":"nonpayable"},{"type":"function","name":"UPGRADE_INTERFACE_VERSION","inputs":[],"outputs":[{"name":"","type":"string","internalType":"string"}],"stateMutability":"view"},{"type":"function","name":"abortMigration","inputs":[{"name":"id","type":"uint64","internalType":"uint64"}],"outputs":[],"stateMutability":"nonpayable"},{"type":"function","name":"acceptOwnership","inputs":[],"outputs":[],"stateMutability":"nonpayable"},{"type":"function","name":"addNodeOperator","inputs":[{"name":"operator","type":"tuple","internalType":"struct NodeOperator","components":[{"name":"addr","type":"address","internalType":"address"},{"name":"data","type":"bytes","internalType":"bytes"},{"name":"maintenance","type":"bool","internalType":"bool"}]}],"outputs":[],"stateMutability":"nonpayable"},{"type":"function","name":"completeMigration","inputs":[{"name":"id","type":"uint64","internalType":"uint64"}],"outputs":[],"stateMutability":"nonpayable"},{"type":"function","name":"getAllOperators","inputs":[],"outputs":[{"name":"","type":"address[]","internalType":"address[]"}],"stateMutability":"view"},{"type":"function","name":"getCurrentKeyspace","inputs":[],"outputs":[{"name":"","type":"uint8[]","internalType":"uint8[]"},{"name":"","type":"uint8","internalType":"uint8"}],"stateMutability":"view"},{"type":"function","name":"getMaintenanceOperators","inputs":[],"outputs":[{"name":"","type":"address[]","internalType":"address[]"}],"stateMutability":"view"},{"type":"function","name":"getMigrationStatus","inputs":[],"outputs":[{"name":"id","type":"uint64","internalType":"uint64"},{"name":"remaining","type":"uint16","internalType":"uint16"},{"name":"inProgress","type":"bool","internalType":"bool"}],"stateMutability":"view"},{"type":"function","name":"getOperatorAt","inputs":[{"name":"slot","type":"uint8","internalType":"uint8"}],"outputs":[{"name":"","type":"address","internalType":"address"}],"stateMutability":"view"},{"type":"function","name":"getOperatorCount","inputs":[],"outputs":[{"name":"","type":"uint8","internalType":"uint8"}],"stateMutability":"view"},{"type":"function","name":"getPullingOperators","inputs":[],"outputs":[{"name":"","type":"uint8[]","internalType":"uint8[]"}],"stateMutability":"view"},{"type":"function","name":"getView","inputs":[],"outputs":[{"name":"","type":"tuple","internalType":"struct ClusterView","components":[{"name":"settings","type":"tuple","internalType":"struct Settings","components":[{"name":"maxOperatorDataBytes","type":"uint16","internalType":"uint16"},{"name":"minOperators","type":"uint8","internalType":"uint8"}]},{"name":"version","type":"uint128","internalType":"uint128"},{"name":"keyspaceVersion","type":"uint64","internalType":"uint64"},{"name":"operatorCount","type":"uint8","internalType":"uint8"},{"name":"operators","type":"address[]","internalType":"address[]"},{"name":"operatorData","type":"tuple[]","internalType":"struct NodeOperatorData[]","components":[{"name":"data","type":"bytes","internalType":"bytes"},{"name":"maintenance","type":"bool","internalType":"bool"}]},{"name":"currentKeyspace","type":"tuple","internalType":"struct Keyspace","components":[{"name":"members","type":"uint8[]","internalType":"uint8[]"},{"name":"replicationStrategy","type":"uint8","internalType":"uint8"}]},{"name":"migrationId","type":"uint64","internalType":"uint64"},{"name":"pullingOperators","type":"uint8[]","internalType":"uint8[]"},{"name":"maintenance","type":"tuple","internalType":"struct MaintenanceState","components":[{"name":"slot","type":"address","internalType":"address"},{"name":"isOwnerMaintenance","type":"bool","internalType":"bool"}]}]}],"stateMutability":"view"},{"type":"function","name":"initialize","inputs":[{"name":"initialSettings","type":"tuple","internalType":"struct Settings","components":[{"name":"maxOperatorDataBytes","type":"uint16","internalType":"uint16"},{"name":"minOperators","type":"uint8","internalType":"uint8"}]},{"name":"initialOperators","type":"tuple[]","internalType":"struct NodeOperator[]","components":[{"name":"addr","type":"address","internalType":"address"},{"name":"data","type":"bytes","internalType":"bytes"},{"name":"maintenance","type":"bool","internalType":"bool"}]}],"outputs":[],"stateMutability":"nonpayable"},{"type":"function","name":"isInitialized","inputs":[],"outputs":[{"name":"","type":"bool","internalType":"bool"}],"stateMutability":"view"},{"type":"function","name":"isOperator","inputs":[{"name":"addr","type":"address","internalType":"address"}],"outputs":[{"name":"","type":"bool","internalType":"bool"}],"stateMutability":"view"},{"type":"function","name":"keyspaceVersion","inputs":[],"outputs":[{"name":"","type":"uint64","internalType":"uint64"}],"stateMutability":"view"},{"type":"function","name":"keyspaces","inputs":[{"name":"","type":"uint256","internalType":"uint256"}],"outputs":[{"name":"replicationStrategy","type":"uint8","internalType":"uint8"}],"stateMutability":"view"},{"type":"function","name":"maintenance","inputs":[],"outputs":[{"name":"slot","type":"address","internalType":"address"},{"name":"isOwnerMaintenance","type":"bool","internalType":"bool"}],"stateMutability":"view"},{"type":"function","name":"migrationId","inputs":[],"outputs":[{"name":"","type":"uint64","internalType":"uint64"}],"stateMutability":"view"},{"type":"function","name":"nextFreeSlot","inputs":[],"outputs":[{"name":"","type":"uint8","internalType":"uint8"}],"stateMutability":"view"},{"type":"function","name":"operatorCount","inputs":[],"outputs":[{"name":"","type":"uint8","internalType":"uint8"}],"stateMutability":"view"},{"type":"function","name":"operatorInfo","inputs":[{"name":"","type":"address","internalType":"address"}],"outputs":[{"name":"data","type":"bytes","internalType":"bytes"},{"name":"maintenance","type":"bool","internalType":"bool"}],"stateMutability":"view"},{"type":"function","name":"operatorSlots","inputs":[{"name":"","type":"uint8","internalType":"uint8"}],"outputs":[{"name":"","type":"address","internalType":"address"}],"stateMutability":"view"},{"type":"function","name":"operatorToSlot","inputs":[{"name":"","type":"address","internalType":"address"}],"outputs":[{"name":"","type":"uint8","internalType":"uint8"}],"stateMutability":"view"},{"type":"function","name":"owner","inputs":[],"outputs":[{"name":"","type":"address","internalType":"address"}],"stateMutability":"view"},{"type":"function","name":"pendingOwner","inputs":[],"outputs":[{"name":"","type":"address","internalType":"address"}],"stateMutability":"view"},{"type":"function","name":"proxiableUUID","inputs":[],"outputs":[{"name":"","type":"bytes32","internalType":"bytes32"}],"stateMutability":"view"},{"type":"function","name":"pullingCount","inputs":[],"outputs":[{"name":"","type":"uint16","internalType":"uint16"}],"stateMutability":"view"},{"type":"function","name":"removeNodeOperator","inputs":[{"name":"operatorAddr","type":"address","internalType":"address"}],"outputs":[],"stateMutability":"nonpayable"},{"type":"function","name":"renounceOwnership","inputs":[],"outputs":[],"stateMutability":"nonpayable"},{"type":"function","name":"setMaintenance","inputs":[{"name":"active","type":"bool","internalType":"bool"}],"outputs":[],"stateMutability":"nonpayable"},{"type":"function","name":"settings","inputs":[],"outputs":[{"name":"maxOperatorDataBytes","type":"uint16","internalType":"uint16"},{"name":"minOperators","type":"uint8","internalType":"uint8"}],"stateMutability":"view"},{"type":"function","name":"slotOccupied","inputs":[{"name":"","type":"uint8","internalType":"uint8"}],"outputs":[{"name":"","type":"bool","internalType":"bool"}],"stateMutability":"view"},{"type":"function","name":"slotPulling","inputs":[{"name":"","type":"uint8","internalType":"uint8"}],"outputs":[{"name":"","type":"bool","internalType":"bool"}],"stateMutability":"view"},{"type":"function","name":"startMigration","inputs":[{"name":"newOperatorSlots","type":"uint8[]","internalType":"uint8[]"},{"name":"replicationStrategy","type":"uint8","internalType":"uint8"}],"outputs":[],"stateMutability":"nonpayable"},{"type":"function","name":"transferOwnership","inputs":[{"name":"newOwner","type":"address","internalType":"address"}],"outputs":[],"stateMutability":"nonpayable"},{"type":"function","name":"updateNodeOperator","inputs":[{"name":"operator","type":"tuple","internalType":"struct NodeOperator","components":[{"name":"addr","type":"address","internalType":"address"},{"name":"data","type":"bytes","internalType":"bytes"},{"name":"maintenance","type":"bool","internalType":"bool"}]}],"outputs":[],"stateMutability":"nonpayable"},{"type":"function","name":"updateSettings","inputs":[{"name":"newSettings","type":"tuple","internalType":"struct Settings","components":[{"name":"maxOperatorDataBytes","type":"uint16","internalType":"uint16"},{"name":"minOperators","type":"uint8","internalType":"uint8"}]}],"outputs":[],"stateMutability":"nonpayable"},{"type":"function","name":"upgradeToAndCall","inputs":[{"name":"newImplementation","type":"address","internalType":"address"},{"name":"data","type":"bytes","internalType":"bytes"}],"outputs":[],"stateMutability":"payable"},{"type":"function","name":"version","inputs":[],"outputs":[{"name":"","type":"uint128","internalType":"uint128"}],"stateMutability":"view"},{"type":"event","name":"ClusterInitialized","inputs":[{"name":"operators","type":"tuple[]","indexed":false,"internalType":"struct NodeOperator[]","components":[{"name":"addr","type":"address","internalType":"address"},{"name":"data","type":"bytes","internalType":"bytes"},{"name":"maintenance","type":"bool","internalType":"bool"}]},{"name":"settings","type":"tuple","indexed":false,"internalType":"struct Settings","components":[{"name":"maxOperatorDataBytes","type":"uint16","internalType":"uint16"},{"name":"minOperators","type":"uint8","internalType":"uint8"}]},{"name":"version","type":"uint128","indexed":false,"internalType":"uint128"}],"anonymous":false},{"type":"event","name":"Initialized","inputs":[{"name":"version","type":"uint64","indexed":false,"internalType":"uint64"}],"anonymous":false},{"type":"event","name":"MaintenanceToggled","inputs":[{"name":"operator","type":"address","indexed":true,"internalType":"address"},{"name":"active","type":"bool","indexed":false,"internalType":"bool"},{"name":"version","type":"uint128","indexed":false,"internalType":"uint128"}],"anonymous":false},{"type":"event","name":"MigrationAborted","inputs":[{"name":"id","type":"uint64","indexed":true,"internalType":"uint64"},{"name":"version","type":"uint128","indexed":false,"internalType":"uint128"}],"anonymous":false},{"type":"event","name":"MigrationCompleted","inputs":[{"name":"id","type":"uint64","indexed":true,"internalType":"uint64"},{"name":"operator","type":"address","indexed":true,"internalType":"address"},{"name":"version","type":"uint128","indexed":false,"internalType":"uint128"}],"anonymous":false},{"type":"event","name":"MigrationDataPullCompleted","inputs":[{"name":"id","type":"uint64","indexed":true,"internalType":"uint64"},{"name":"operator","type":"address","indexed":true,"internalType":"address"},{"name":"version","type":"uint128","indexed":false,"internalType":"uint128"}],"anonymous":false},{"type":"event","name":"MigrationStarted","inputs":[{"name":"id","type":"uint64","indexed":true,"internalType":"uint64"},{"name":"operators","type":"uint8[]","indexed":false,"internalType":"uint8[]"},{"name":"replicationStrategy","type":"uint8","indexed":false,"internalType":"uint8"},{"name":"keyspaceVersion","type":"uint64","indexed":false,"internalType":"uint64"},{"name":"version","type":"uint128","indexed":false,"internalType":"uint128"}],"anonymous":false},{"type":"event","name":"NodeOperatorAdded","inputs":[{"name":"operator","type":"address","indexed":true,"internalType":"address"},{"name":"slot","type":"uint8","indexed":true,"internalType":"uint8"},{"name":"operatorData","type":"tuple","indexed":false,"internalType":"struct NodeOperatorData","components":[{"name":"data","type":"bytes","internalType":"bytes"},{"name":"maintenance","type":"bool","internalType":"bool"}]},{"name":"version","type":"uint128","indexed":false,"internalType":"uint128"}],"anonymous":false},{"type":"event","name":"NodeOperatorRemoved","inputs":[{"name":"operator","type":"address","indexed":true,"internalType":"address"},{"name":"slot","type":"uint8","indexed":true,"internalType":"uint8"},{"name":"version","type":"uint128","indexed":false,"internalType":"uint128"}],"anonymous":false},{"type":"event","name":"NodeOperatorUpdated","inputs":[{"name":"operator","type":"address","indexed":true,"internalType":"address"},{"name":"slot","type":"uint8","indexed":true,"internalType":"uint8"},{"name":"operatorData","type":"tuple","indexed":false,"internalType":"struct NodeOperatorData","components":[{"name":"data","type":"bytes","internalType":"bytes"},{"name":"maintenance","type":"bool","internalType":"bool"}]},{"name":"version","type":"uint128","indexed":false,"internalType":"uint128"}],"anonymous":false},{"type":"event","name":"OwnershipTransferStarted","inputs":[{"name":"previousOwner","type":"address","indexed":true,"internalType":"address"},{"name":"newOwner","type":"address","indexed":true,"internalType":"address"}],"anonymous":false},{"type":"event","name":"OwnershipTransferred","inputs":[{"name":"previousOwner","type":"address","indexed":true,"internalType":"address"},{"name":"newOwner","type":"address","indexed":true,"internalType":"address"}],"anonymous":false},{"type":"event","name":"SettingsUpdated","inputs":[{"name":"newSettings","type":"tuple","indexed":false,"internalType":"struct Settings","components":[{"name":"maxOperatorDataBytes","type":"uint16","internalType":"uint16"},{"name":"minOperators","type":"uint8","internalType":"uint8"}]},{"name":"updatedBy","type":"address","indexed":true,"internalType":"address"},{"name":"version","type":"uint128","indexed":false,"internalType":"uint128"}],"anonymous":false},{"type":"event","name":"Upgraded","inputs":[{"name":"implementation","type":"address","indexed":true,"internalType":"address"}],"anonymous":false},{"type":"error","name":"AddressEmptyCode","inputs":[{"name":"target","type":"address","internalType":"address"}]},{"type":"error","name":"CallerNotOperator","inputs":[]},{"type":"error","name":"ERC1967InvalidImplementation","inputs":[{"name":"implementation","type":"address","internalType":"address"}]},{"type":"error","name":"ERC1967NonPayable","inputs":[]},{"type":"error","name":"FailedCall","inputs":[]},{"type":"error","name":"InsufficientOperators","inputs":[]},{"type":"error","name":"InvalidInitialization","inputs":[]},{"type":"error","name":"InvalidOperator","inputs":[]},{"type":"error","name":"InvalidOperatorData","inputs":[]},{"type":"error","name":"MaintenanceInProgress","inputs":[]},{"type":"error","name":"MigrationInProgress","inputs":[]},{"type":"error","name":"NoMigrationInProgress","inputs":[]},{"type":"error","name":"NotInitialized","inputs":[]},{"type":"error","name":"NotInitializing","inputs":[]},{"type":"error","name":"OperatorExists","inputs":[]},{"type":"error","name":"OperatorInKeyspace","inputs":[]},{"type":"error","name":"OperatorNotFound","inputs":[]},{"type":"error","name":"OperatorNotPulling","inputs":[]},{"type":"error","name":"OwnableInvalidOwner","inputs":[{"name":"owner","type":"address","internalType":"address"}]},{"type":"error","name":"OwnableUnauthorizedAccount","inputs":[{"name":"account","type":"address","internalType":"address"}]},{"type":"error","name":"SameKeyspace","inputs":[]},{"type":"error","name":"TooManyOperators","inputs":[]},{"type":"error","name":"UUPSUnauthorizedCallContext","inputs":[]},{"type":"error","name":"UUPSUnsupportedProxiableUUID","inputs":[{"name":"slot","type":"bytes32","internalType":"bytes32"}]},{"type":"error","name":"Unauthorized","inputs":[]},{"type":"error","name":"WrongMigrationId","inputs":[]}],"bytecode":{"object":"0x60a06040523461003e5761001161004d565b610019610043565b61728c6102c8823960805181818161650b0152818161657001526167af015261728c90f35b610049565b60405190565b5f80fd5b6100556100a1565b61005d61019e565b565b60018060a01b031690565b90565b61008161007c6100869261005f565b61006a565b61005f565b90565b6100929061006d565b90565b61009e90610089565b90565b6100aa30610095565b608052565b60401c90565b60ff1690565b6100c76100cc916100af565b6100b5565b90565b6100d990546100bb565b90565b5f0190565b5f1c90565b60018060401b031690565b6100fd610102916100e1565b6100e6565b90565b61010f90546100f1565b90565b60018060401b031690565b5f1b90565b9061013360018060401b039161011d565b9181191691161790565b61015161014c61015692610112565b61006a565b610112565b90565b90565b9061017161016c6101789261013d565b610159565b8254610122565b9055565b61018590610112565b9052565b919061019c905f6020850194019061017c565b565b6101a6610256565b6101b15f82016100cf565b61023a576101c05f8201610105565b6101d86101d260018060401b03610112565b91610112565b036101e1575b50565b6101f4905f60018060401b03910161015c565b60018060401b036102317fc7f505b2f371ae2175ee4913f4499e1f2633a7b5936321eed1cdaeb6115181d291610228610043565b91829182610189565b0390a15f6101de565b5f63f92ee8a960e01b815280610252600482016100dc565b0390fd5b61025e6102b3565b90565b5f90565b90565b90565b61027f61027a61028492610265565b61011d565b610268565b90565b6102b07ff0c57e16840df040f15088dc2f81fe391c3923bec73e23a9662efc9c229c6a0061026b565b90565b6102bb610261565b506102c4610287565b9056fe60806040526004361015610013575b611d6c565b61001d5f356102ac565b80630e89d8da146102a757806311fcaded146102a25780631a4a7c611461029d5780632be5079e14610298578063389be1c014610293578063392e53cd1461028e57806344160458146102895780634e4d0f74146102845780634f1ef2861461027f578063506476441461027a57806350c246d61461027557806352d1902d1461027057806354fd4d501461026b57806356f4de3b146102665780635b59fd9b146102615780635f7e7b831461025c578063612f2f371461025757806366d1b187146102525780636c376cc51461024d5780636d70f7ae14610248578063715018a61461024357806375418b9d1461023e57806379ba5097146102395780637c6f315814610234578063838b7dc81461022f5780638a3d44951461022a5780638da5cb5b1461022557806392265b65146102205780639d44e7171461021b578063a415c02c14610216578063ad3cb1cc14610211578063bf31b06d1461020c578063c05665dd14610207578063c187ba3d14610202578063cc4bc503146101fd578063d17b27d3146101f8578063d911c632146101f3578063e06174e4146101ee578063e30c3978146101e9578063e88e9749146101e45763f2fde38b0361000e57611d39565b611d06565b611cd1565b611c9b565b611be0565b611bab565b611b60565b611b2b565b611adf565b611aaa565b611a20565b6118f7565b611892565b61181c565b61170d565b6116d8565b611695565b6115d8565b611596565b611561565b611205565b6111d0565b61119a565b6110de565b611039565b610fe6565b610f35565b610e62565b610c3d565b610b87565b610b2c565b610917565b6108a5565b610740565b610664565b6105ca565b61056e565b6104fc565b61048d565b610443565b61038f565b60e01c90565b60405190565b5f80fd5b5f80fd5b5f9103126102ca57565b6102bc565b5190565b60209181520190565b60200190565b60ff1690565b6102f1906102e2565b9052565b90610302816020936102e8565b0190565b60200190565b9061032961032361031c846102cf565b80936102d3565b926102dc565b905f5b8181106103395750505090565b90919261035261034c60019286516102f5565b94610306565b910191909161032c565b610365906102e2565b9052565b9291602061038561038d9360408701908782035f89015261030c565b94019061035c565b565b346103c05761039f3660046102c0565b6103a7612a16565b906103bc6103b36102b2565b92839283610369565b0390f35b6102b8565b5f80fd5b6103d2816102e2565b036103d957565b5f80fd5b905035906103ea826103c9565b565b9060208282031261040557610402915f016103dd565b90565b6102bc565b60018060a01b031690565b61041e9061040a565b90565b61042a90610415565b9052565b9190610441905f60208501940190610421565b565b346104735761046f61045e6104593660046103ec565b612a71565b6104666102b2565b9182918261042e565b0390f35b6102b8565b919061048b905f6020850194019061035c565b565b346104bd5761049d3660046102c0565b6104b96104a8612acd565b6104b06102b2565b91829182610478565b0390f35b6102b8565b5f80fd5b908160409103126104d45790565b6104c2565b906040828203126104f2576104ef915f016104c6565b90565b6102bc565b5f0190565b3461052a5761051461050f3660046104d9565b612df1565b61051c6102b2565b80610526816104f7565b0390f35b6102b8565b1c90565b60ff1690565b61054990600861054e930261052f565b610533565b90565b9061055c9154610539565b90565b61056b600f5f90610551565b90565b3461059e5761057e3660046102c0565b61059a61058961055f565b6105916102b2565b91829182610478565b0390f35b6102b8565b151590565b6105b1906105a3565b9052565b91906105c8905f602085019401906105a8565b565b346105fa576105da3660046102c0565b6105f66105e5612e1f565b6105ed6102b2565b918291826105b5565b0390f35b6102b8565b61ffff1690565b61061690600861061b930261052f565b6105ff565b90565b906106299154610606565b90565b610638600d5f9061061e565b90565b61ffff1690565b61064b9061063b565b9052565b9190610662905f60208501940190610642565b565b34610694576106743660046102c0565b61069061067f61062c565b6106876102b2565b9182918261064f565b0390f35b6102b8565b6106a281610415565b036106a957565b5f80fd5b905035906106ba82610699565b565b906020828203126106d5576106d2915f016106ad565b90565b6102bc565b90565b6106f16106ec6106f69261040a565b6106da565b61040a565b90565b610702906106dd565b90565b61070e906106f9565b90565b9061071b90610705565b5f5260205260405f2090565b61073d906107386004915f92610711565b610551565b90565b346107705761076c61075b6107563660046106bc565b610727565b6107636102b2565b91829182610478565b0390f35b6102b8565b5f80fd5b5f80fd5b601f801991011690565b634e487b7160e01b5f52604160045260245ffd5b906107a59061077d565b810190811067ffffffffffffffff8211176107bf57604052565b610787565b906107d76107d06102b2565b928361079b565b565b67ffffffffffffffff81116107f7576107f360209161077d565b0190565b610787565b90825f939282370152565b9092919261081c610817826107d9565b6107c4565b9381855260208501908284011161083857610836926107fc565b565b610779565b9080601f8301121561085b5781602061085893359101610807565b90565b610775565b9190916040818403126108a057610879835f83016106ad565b92602082013567ffffffffffffffff811161089b57610898920161083d565b90565b6103c5565b6102bc565b6108b96108b3366004610860565b90612e71565b6108c16102b2565b806108cb816104f7565b0390f35b908160609103126108dd5790565b6104c2565b90602082820312610912575f82013567ffffffffffffffff811161090d5761090a92016108cf565b90565b6103c5565b6102bc565b346109455761092f61092a3660046108e2565b61343f565b6109376102b2565b80610941816104f7565b0390f35b6102b8565b9061095490610705565b5f5260205260405f2090565b634e487b7160e01b5f52602260045260245ffd5b9060016002830492168015610994575b602083101461098f57565b610960565b91607f1691610984565b60209181520190565b5f5260205f2090565b905f92918054906109ca6109c383610974565b809461099e565b916001811690815f14610a2157506001146109e5575b505050565b6109f291929394506109a7565b915f925b818410610a0957505001905f80806109e0565b600181602092959395548486015201910192906109f6565b92949550505060ff19168252151560200201905f80806109e0565b90610a46916109b0565b90565b90610a69610a6292610a596102b2565b93848092610a3c565b038361079b565b565b5f1c90565b60ff1690565b610a82610a8791610a6b565b610a70565b90565b610a949054610a76565b90565b610aa290600561094a565b90610aba6001610ab35f8501610a49565b9301610a8a565b90565b5190565b60209181520190565b90825f9392825e0152565b610af4610afd602093610b0293610aeb81610abd565b93848093610ac1565b95869101610aca565b61077d565b0190565b92916020610b22610b2a9360408701908782035f890152610ad5565b9401906105a8565b565b34610b5d57610b44610b3f3660046106bc565b610a97565b90610b59610b506102b2565b92839283610b06565b0390f35b6102b8565b90565b610b6e90610b62565b9052565b9190610b85905f60208501940190610b65565b565b34610bb757610b973660046102c0565b610bb3610ba26134b9565b610baa6102b2565b91829182610b72565b0390f35b6102b8565b6fffffffffffffffffffffffffffffffff1690565b610be1906008610be6930261052f565b610bbc565b90565b90610bf49154610bd1565b90565b610c0360015f90610be9565b90565b6fffffffffffffffffffffffffffffffff1690565b610c2490610c06565b9052565b9190610c3b905f60208501940190610c1b565b565b34610c6d57610c4d3660046102c0565b610c69610c58610bf7565b610c606102b2565b91829182610c28565b0390f35b6102b8565b5f80fd5b5f80fd5b610c838161063b565b03610c8a57565b5f80fd5b90503590610c9b82610c7a565b565b9190604083820312610cd757610cd090610cb760406107c4565b93610cc4825f8301610c8e565b5f8601526020016103dd565b6020830152565b610c72565b67ffffffffffffffff8111610cf45760208091020190565b610787565b5f80fd5b610d06816105a3565b03610d0d57565b5f80fd5b90503590610d1e82610cfd565b565b919091606081840312610d8557610d3760606107c4565b92610d44815f84016106ad565b5f85015260208201359167ffffffffffffffff8311610d8057610d6c82610d7994830161083d565b6020860152604001610d11565b6040830152565b610c76565b610c72565b929190610d9e610d9982610cdc565b6107c4565b9381855260208086019202810191838311610df55781905b838210610dc4575050505050565b813567ffffffffffffffff8111610df057602091610de58784938701610d20565b815201910190610db6565b610775565b610cf9565b9080601f83011215610e1857816020610e1593359101610d8a565b90565b610775565b919091606081840312610e5d57610e36835f8301610c9d565b92604082013567ffffffffffffffff8111610e5857610e559201610dfa565b90565b6103c5565b6102bc565b34610e9157610e7b610e75366004610e1d565b90613f94565b610e836102b2565b80610e8d816104f7565b0390f35b6102b8565b5190565b60209181520190565b60200190565b610eb290610415565b9052565b90610ec381602093610ea9565b0190565b60200190565b90610eea610ee4610edd84610e96565b8093610e9a565b92610ea3565b905f5b818110610efa5750505090565b909192610f13610f0d6001928651610eb6565b94610ec7565b9101919091610eed565b610f329160208201915f818403910152610ecd565b90565b34610f6557610f453660046102c0565b610f61610f50614113565b610f586102b2565b91829182610f1d565b0390f35b6102b8565b610f7e610f79610f83926102e2565b6106da565b6102e2565b90565b90610f9090610f6a565b5f5260205260405f2090565b60018060a01b031690565b610fb7906008610fbc930261052f565b610f9c565b90565b90610fca9154610fa7565b90565b610fe390610fde6002915f92610f86565b610fbf565b90565b3461101657611012611001610ffc3660046103ec565b610fcd565b6110096102b2565b9182918261042e565b0390f35b6102b8565b9060208282031261103457611031915f01610d11565b90565b6102bc565b346110675761105161104c36600461101b565b614502565b6110596102b2565b80611063816104f7565b0390f35b6102b8565b67ffffffffffffffff1690565b61108990600861108e930261052f565b61106c565b90565b9061109c9154611079565b90565b6110ac600b600890611091565b90565b67ffffffffffffffff1690565b6110c5906110af565b9052565b91906110dc905f602085019401906110bc565b565b3461110e576110ee3660046102c0565b61110a6110f961109f565b6111016102b2565b918291826110c9565b0390f35b6102b8565b61111f61112491610a6b565b610f9c565b90565b6111319054611113565b90565b60a01c90565b61114661114b91611134565b610a70565b90565b611158905461113a565b90565b600e906111745f61116d818501611127565b930161114e565b90565b91602061119892949361119160408201965f830190610421565b01906105a8565b565b346111cb576111aa3660046102c0565b6111b261115b565b906111c76111be6102b2565b92839283611177565b0390f35b6102b8565b34611200576111fc6111eb6111e63660046106bc565b61450d565b6111f36102b2565b918291826105b5565b0390f35b6102b8565b34611233576112153660046102c0565b61121d614577565b6112256102b2565b8061122f816104f7565b0390f35b6102b8565b6112419061063b565b9052565b906020806112679361125d5f8201515f860190611238565b01519101906102e8565b565b61127290610c06565b9052565b61127f906110af565b9052565b60209181520190565b906112a96112a361129c84610e96565b8093611283565b92610ea3565b905f5b8181106112b95750505090565b9091926112d26112cc6001928651610eb6565b94610ec7565b91019190916112ac565b5190565b60209181520190565b60200190565b61130e61131760209361131c9361130581610abd565b9384809361099e565b95869101610aca565b61077d565b0190565b611329906105a3565b9052565b906113579060208061134c604084015f8701518582035f8701526112ef565b940151910190611320565b90565b906113649161132d565b90565b60200190565b9061138161137a836112dc565b80926112e0565b9081611392602083028401946112e9565b925f915b8383106113a557505050505090565b909192939460206113c76113c18385600195038752895161135a565b97611367565b9301930191939290611396565b60209181520190565b906113fa6113f46113ed846102cf565b80936113d4565b926102dc565b905f5b81811061140a5750505090565b90919261142361141d60019286516102f5565b94610306565b91019190916113fd565b906114579060208061144c604084015f8701518582035f8701526113dd565b9401519101906102e8565b90565b9060208061147c936114725f8201515f860190610ea9565b0151910190611320565b565b906115469061014061012061153b6115166115046114f261018087016114aa5f8b01515f8a0190611245565b6114bc60208b015160408a0190611269565b6114ce60408b015160608a0190611276565b6114e060608b015160808a01906102e8565b60808a015188820360a08a015261128c565b60a089015187820360c089015261136d565b60c088015186820360e088015261142d565b61152960e0880151610100870190611276565b610100870151858203848701526113dd565b94015191019061145a565b90565b61155e9160208201915f81840391015261147e565b90565b34611591576115713660046102c0565b61158d61157c6149c8565b6115846102b2565b91829182611549565b0390f35b6102b8565b346115c4576115a63660046102c0565b6115ae614c4a565b6115b66102b2565b806115c0816104f7565b0390f35b6102b8565b6115d560065f90610551565b90565b34611608576115e83660046102c0565b6116046115f36115c9565b6115fb6102b2565b91829182610478565b0390f35b6102b8565b5f80fd5b909182601f8301121561164b5781359167ffffffffffffffff831161164657602001926020830284011161164157565b610cf9565b61160d565b610775565b91604083830312611690575f83013567ffffffffffffffff811161168b5761167d83611688928601611611565b9390946020016103dd565b90565b6103c5565b6102bc565b346116c4576116ae6116a8366004611650565b91615445565b6116b66102b2565b806116c0816104f7565b0390f35b6102b8565b6116d5600b5f90611091565b90565b34611708576116e83660046102c0565b6117046116f36116c9565b6116fb6102b2565b918291826110c9565b0390f35b6102b8565b3461173d5761171d3660046102c0565b611739611728615452565b6117306102b2565b9182918261042e565b0390f35b6102b8565b90565b61174e81611742565b0361175557565b5f80fd5b9050359061176682611745565b565b906020828203126117815761177e915f01611759565b90565b6102bc565b634e487b7160e01b5f52603260045260245ffd5b50600290565b90565b6117ac8161179a565b8210156117c6576117be6002916117a0565b910201905f90565b611786565b6117d76117dc91610a6b565b610533565b90565b6117e990546117cb565b90565b6007906117f88261179a565b8110156118185761180e600191611815936117a3565b50016117df565b90565b5f80fd5b3461184c57611848611837611832366004611768565b6117ec565b61183f6102b2565b91829182610478565b0390f35b6102b8565b61185a816110af565b0361186157565b5f80fd5b9050359061187282611851565b565b9060208282031261188d5761188a915f01611865565b90565b6102bc565b346118c0576118aa6118a5366004611874565b61571c565b6118b26102b2565b806118bc816104f7565b0390f35b6102b8565b6040906118ee6118f594969593966118e460608401985f8501906110bc565b6020830190610642565b01906105a8565b565b3461192a576119073660046102c0565b61192661191261572f565b61191d9391936102b2565b938493846118c5565b0390f35b6102b8565b67ffffffffffffffff811161194d5761194960209161077d565b0190565b610787565b9061196461195f8361192f565b6107c4565b918252565b5f7f352e302e30000000000000000000000000000000000000000000000000000000910152565b61199a6005611952565b906119a760208301611969565b565b6119b1611990565b90565b6119bc6119a9565b90565b6119c76119b4565b90565b5190565b60209181520190565b6119f66119ff602093611a04936119ed816119ca565b938480936119ce565b95869101610aca565b61077d565b0190565b611a1d9160208201915f8184039101526119d7565b90565b34611a5057611a303660046102c0565b611a4c611a3b6119bf565b611a436102b2565b91829182611a08565b0390f35b6102b8565b90611a5f90610f6a565b5f5260205260405f2090565b611a7b906008611a80930261052f565b610a70565b90565b90611a8e9154611a6b565b90565b611aa790611aa2600c915f92611a55565b611a83565b90565b34611ada57611ad6611ac5611ac03660046103ec565b611a91565b611acd6102b2565b918291826105b5565b0390f35b6102b8565b34611b0d57611af7611af23660046106bc565b615c63565b611aff6102b2565b80611b09816104f7565b0390f35b6102b8565b611b2890611b236003915f92611a55565b611a83565b90565b34611b5b57611b57611b46611b413660046103ec565b611b12565b611b4e6102b2565b918291826105b5565b0390f35b6102b8565b34611b8e57611b78611b733660046108e2565b615f8b565b611b806102b2565b80611b8a816104f7565b0390f35b6102b8565b611ba89160208201915f81840391015261030c565b90565b34611bdb57611bbb3660046102c0565b611bd7611bc6615fda565b611bce6102b2565b91829182611b93565b0390f35b6102b8565b34611c1057611bf03660046102c0565b611c0c611bfb616123565b611c036102b2565b91829182610f1d565b0390f35b6102b8565b611c21611c2691610a6b565b6105ff565b90565b611c339054611c15565b90565b60101c90565b611c48611c4d91611c36565b610533565b90565b611c5a9054611c3c565b90565b5f90611c755f611c6e818501611c29565b9301611c50565b90565b916020611c99929493611c9260408201965f830190610642565b019061035c565b565b34611ccc57611cab3660046102c0565b611cb3611c5d565b90611cc8611cbf6102b2565b92839283611c78565b0390f35b6102b8565b34611d0157611ce13660046102c0565b611cfd611cec616217565b611cf46102b2565b9182918261042e565b0390f35b6102b8565b34611d3457611d1e611d19366004611874565b61640f565b611d266102b2565b80611d30816104f7565b0390f35b6102b8565b34611d6757611d51611d4c3660046106bc565b616495565b611d596102b2565b80611d63816104f7565b0390f35b6102b8565b5f80fd5b606090565b5f90565b611d85611d8a91610a6b565b61106c565b90565b611d979054611d79565b90565b90565b611db1611dac611db692611d9a565b6106da565b6110af565b90565b634e487b7160e01b5f52601260045260245ffd5b611dd9611ddf916110af565b916110af565b908115611dea570690565b611db9565b5490565b5f5260205f2090565b60081c90565b611e0e611e1391611dfc565b610533565b90565b60181c90565b611e28611e2d91611e16565b610533565b90565b60201c90565b611e42611e4791611e30565b610533565b90565b60281c90565b611e5c611e6191611e4a565b610533565b90565b60301c90565b611e76611e7b91611e64565b610533565b90565b60381c90565b611e90611e9591611e7e565b610533565b90565b60401c90565b611eaa611eaf91611e98565b610533565b90565b60481c90565b611ec4611ec991611eb2565b610533565b90565b60501c90565b611ede611ee391611ecc565b610533565b90565b60581c90565b611ef8611efd91611ee6565b610533565b90565b60601c90565b611f12611f1791611f00565b610533565b90565b60681c90565b611f2c611f3191611f1a565b610533565b90565b60701c90565b611f46611f4b91611f34565b610533565b90565b60781c90565b611f60611f6591611f4e565b610533565b90565b60801c90565b611f7a611f7f91611f68565b610533565b90565b60881c90565b611f94611f9991611f82565b610533565b90565b60901c90565b611fae611fb391611f9c565b610533565b90565b60981c90565b611fc8611fcd91611fb6565b610533565b90565b611fdc611fe191611134565b610533565b90565b60a81c90565b611ff6611ffb91611fe4565b610533565b90565b60b01c90565b61201061201591611ffe565b610533565b90565b60b81c90565b61202a61202f91612018565b610533565b90565b60c01c90565b61204461204991612032565b610533565b90565b60c81c90565b61205e6120639161204c565b610533565b90565b60d01c90565b61207861207d91612066565b610533565b90565b60d81c90565b61209261209791612080565b610533565b90565b6120a66120ab916102ac565b610533565b90565b60e81c90565b6120c06120c5916120ae565b610533565b90565b60f01c90565b6120da6120df916120c8565b610533565b90565b60f81c90565b6120f46120f9916120e2565b610533565b90565b9060019061211c61211661210f85611def565b80936113d4565b93611df3565b5f92612676575b6001612130575b50505090565b5490808310612654575b808310612632575b808310612610575b8083106125ee575b8083106125cc575b8083106125aa575b808310612588575b808310612566575b808310612544575b808310612522575b808310612500575b8083106124de575b8083106124bc575b80831061249a575b808310612478575b808310612456575b808310612434575b808310612412575b8083106123f0575b8083106123ce575b8083106123ac575b80831061238a575b808310612368575b808310612346575b808310612324575b808310612302575b8083106122e0575b8083106122be575b80831061229c575b80831061227a575b808310612258575b8210612237575b8061212a565b8261224f6001939461224a6020946120e8565b6102e8565b0191015f612231565b919260208161227160019361226c866120ce565b6102e8565b0193019161222a565b919260208161229360019361228e866120b4565b6102e8565b01930191612222565b91926020816122b56001936122b08661209a565b6102e8565b0193019161221a565b91926020816122d76001936122d286612086565b6102e8565b01930191612212565b91926020816122f96001936122f48661206c565b6102e8565b0193019161220a565b919260208161231b60019361231686612052565b6102e8565b01930191612202565b919260208161233d60019361233886612038565b6102e8565b019301916121fa565b919260208161235f60019361235a8661201e565b6102e8565b019301916121f2565b919260208161238160019361237c86612004565b6102e8565b019301916121ea565b91926020816123a360019361239e86611fea565b6102e8565b019301916121e2565b91926020816123c56001936123c086611fd0565b6102e8565b019301916121da565b91926020816123e76001936123e286611fbc565b6102e8565b019301916121d2565b919260208161240960019361240486611fa2565b6102e8565b019301916121ca565b919260208161242b60019361242686611f88565b6102e8565b019301916121c2565b919260208161244d60019361244886611f6e565b6102e8565b019301916121ba565b919260208161246f60019361246a86611f54565b6102e8565b019301916121b2565b919260208161249160019361248c86611f3a565b6102e8565b019301916121aa565b91926020816124b36001936124ae86611f20565b6102e8565b019301916121a2565b91926020816124d56001936124d086611f06565b6102e8565b0193019161219a565b91926020816124f76001936124f286611eec565b6102e8565b01930191612192565b919260208161251960019361251486611ed2565b6102e8565b0193019161218a565b919260208161253b60019361253686611eb8565b6102e8565b01930191612182565b919260208161255d60019361255886611e9e565b6102e8565b0193019161217a565b919260208161257f60019361257a86611e84565b6102e8565b01930191612172565b91926020816125a160019361259c86611e6a565b6102e8565b0193019161216a565b91926020816125c36001936125be86611e50565b6102e8565b01930191612162565b91926020816125e56001936125e086611e36565b6102e8565b0193019161215a565b919260208161260760019361260286611e1c565b6102e8565b01930191612152565b919260208161262960019361262486611c3c565b6102e8565b0193019161214a565b919260208161264b60019361264686611e02565b6102e8565b01930191612142565b919260208161266d600193612668866117cb565b6102e8565b0193019161213a565b5b81600160200384011015612123579283549080612693836117cb565b9061269d916102e8565b602001806126aa83611e02565b906126b4916102e8565b602001806126c183611c3c565b906126cb916102e8565b602001806126d883611e1c565b906126e2916102e8565b602001806126ef83611e36565b906126f9916102e8565b6020018061270683611e50565b90612710916102e8565b6020018061271d83611e6a565b90612727916102e8565b6020018061273483611e84565b9061273e916102e8565b6020018061274b83611e9e565b90612755916102e8565b6020018061276283611eb8565b9061276c916102e8565b6020018061277983611ed2565b90612783916102e8565b6020018061279083611eec565b9061279a916102e8565b602001806127a783611f06565b906127b1916102e8565b602001806127be83611f20565b906127c8916102e8565b602001806127d583611f3a565b906127df916102e8565b602001806127ec83611f54565b906127f6916102e8565b6020018061280383611f6e565b9061280d916102e8565b6020018061281a83611f88565b90612824916102e8565b6020018061283183611fa2565b9061283b916102e8565b6020018061284883611fbc565b90612852916102e8565b6020018061285f83611fd0565b90612869916102e8565b6020018061287683611fea565b90612880916102e8565b6020018061288d83612004565b90612897916102e8565b602001806128a48361201e565b906128ae916102e8565b602001806128bb83612038565b906128c5916102e8565b602001806128d283612052565b906128dc916102e8565b602001806128e98361206c565b906128f3916102e8565b6020018061290083612086565b9061290a916102e8565b602001806129178361209a565b90612921916102e8565b6020018061292e836120b4565b90612938916102e8565b60200180612945836120ce565b9061294f916102e8565b60200161295c81926120e8565b90612966916102e8565b602001926001019160200191612677565b90612981916120fc565b90565b906129a461299d926129946102b2565b93848092612977565b038361079b565b565b52565b906129b3906102e2565b9052565b6129c160406107c4565b90565b906129fb6129f260016129d56129b7565b946129ec6129e45f8301612984565b5f88016129a6565b016117df565b602084016129a9565b565b612a06906129c4565b90565b612a1390516102e2565b90565b612a1e611d70565b50612a27611d75565b50612a59612a536007612a4d612a3d600b611d8d565b612a476002611d9d565b90611dcd565b906117a3565b506129fd565b90612a6a60205f8401519301612a09565b90565b5f90565b612a79612a6d565b50612a97612a91612a8c60038490611a55565b610a8a565b156105a3565b612ab157612aa9612aae916002610f86565b611127565b90565b5f63ae4207eb60e01b815280612ac9600482016104f7565b0390fd5b612ad5611d75565b50612ae060066117df565b90565b612af490612aef6164a0565b612d3d565b565b35612b00816103c9565b90565b634e487b7160e01b5f525f60045260245ffd5b35612b2081610c7a565b90565b5f1b90565b90612b3561ffff91612b23565b9181191691161790565b612b53612b4e612b589261063b565b6106da565b61063b565b90565b90565b90612b73612b6e612b7a92612b3f565b612b5b565b8254612b28565b9055565b60101b90565b90612b9262ff000091612b7e565b9181191691161790565b90565b90612bb4612baf612bbb92610f6a565b612b9c565b8254612b84565b9055565b90612be960205f612bef94612be1828201612bdb848801612b16565b90612b5e565b019201612af6565b90612b9f565b565b90612bfb91612bbf565b565b612c09612c0e91610a6b565b610bbc565b90565b612c1b9054612bfd565b90565b634e487b7160e01b5f52601160045260245ffd5b612c3b90610c06565b6fffffffffffffffffffffffffffffffff8114612c585760010190565b612c1e565b90612c786fffffffffffffffffffffffffffffffff91612b23565b9181191691161790565b612c96612c91612c9b92610c06565b6106da565b610c06565b90565b90565b90612cb6612cb1612cbd92612c82565b612c9e565b8254612c5d565b9055565b50612cd0906020810190610c8e565b90565b50612ce29060208101906103dd565b90565b906020612d10612d1893612d07612cfe5f830183612cc1565b5f860190611238565b82810190612cd3565b9101906102e8565b565b916040612d3b929493612d3460608201965f830190612ce5565b0190610c1b565b565b612d4760066117df565b612d64612d5e612d5960208501612af6565b6102e2565b916102e2565b10612dd557612d73815f612bf1565b33612d86612d816001612c11565b612c32565b612d91816001612ca1565b612dbb7fc4537136927baa4e0a3e9e5518a9fce0fde1cf0b4a4ddb07effde98d41d3b10592610705565b92612dd0612dc76102b2565b92839283612d1a565b0390a2565b5f6330e40a8160e11b815280612ded600482016104f7565b0390fd5b612dfa90612ae3565b565b5f90565b90565b612e17612e12612e1c92612e00565b6106da565b6102e2565b90565b612e27612dfc565b50612e3260066117df565b612e44612e3e5f612e03565b916102e2565b1190565b90612e5a91612e556164fa565b612e5c565b565b90612e6f91612e6a816165ac565b61661c565b565b90612e7b91612e48565b565b612e8760066117df565b612e99612e935f612e03565b916102e2565b14612ea957612ea79061324a565b565b5f6321c4e35760e21b815280612ec1600482016104f7565b0390fd5b35612ecf81610699565b90565b5f80fd5b5f80fd5b5f80fd5b903590600160200381360303821215612f20570180359067ffffffffffffffff8211612f1b57602001916001820236038313612f1657565b612eda565b612ed6565b612ed2565b612f30913691610807565b90565b35612f3d81610cfd565b90565b612f4a60406107c4565b90565b52565b90612f5a906105a3565b9052565b5190565b601f602091010490565b1b90565b91906008612f8b910291612f855f1984612f6c565b92612f6c565b9181191691161790565b612fa9612fa4612fae92611742565b6106da565b611742565b90565b90565b9190612fca612fc5612fd293612f95565b612fb1565b908354612f70565b9055565b5f90565b612fec91612fe6612fd6565b91612fb4565b565b5b818110612ffa575050565b806130075f600193612fda565b01612fef565b9190601f811161301d575b505050565b61302961304e936109a7565b90602061303584612f62565b83019310613056575b61304790612f62565b0190612fee565b5f8080613018565b91506130478192905061303e565b90613074905f199060080261052f565b191690565b8161308391613064565b906002021790565b9061309581610abd565b9067ffffffffffffffff8211613155576130b9826130b38554610974565b8561300d565b602090601f83116001146130ed579180916130dc935f926130e1575b5050613079565b90555b565b90915001515f806130d5565b601f198316916130fc856109a7565b925f5b81811061313d57509160029391856001969410613123575b505050020190556130df565b613133910151601f841690613064565b90555f8080613117565b919360206001819287870151815501950192016130ff565b610787565b906131649161308b565b565b61317090516105a3565b90565b9061317f60ff91612b23565b9181191691161790565b613192906105a3565b90565b90565b906131ad6131a86131b492613189565b613195565b8254613173565b9055565b906131e3602060016131e9946131db5f82016131d55f8801612f5e565b9061315a565b019201613166565b90613198565b565b906131f5916131b8565b565b9061322190602080613216604084015f8701518582035f8701526112ef565b940151910190611320565b90565b929160206132406132489360408701908782035f8901526131f7565b940190610c1b565b565b6132555f8201612ec5565b3361326861326283610415565b91610415565b14158061341d575b6134025761329361328e613288846020810190612ede565b90612f25565b61671a565b6132a76132a260048390610711565b6117df565b906132bc6132b760028490610f86565b611127565b6132ce6132c883610415565b91610415565b036133e65761332061332761332c926132eb866020810190612ede565b61331761330f61330060408b98959801612f33565b92613309612f40565b97612f25565b5f8701612f4d565b60208501612f50565b600561094a565b6131eb565b6133375f8301612ec5565b61337c604061337361336b61335c613353886020810190612ede565b94909801612f33565b92613365612f40565b97612f25565b5f8701612f4d565b60208501612f50565b61338e6133896001612c11565b612c32565b613399816001612ca1565b6133cc6133c67fce0bbd257524157b555e3bcd8abfbce5ab8be730f18833ce74d50d6c57a8d20693610705565b93610f6a565b936133e16133d86102b2565b92839283613224565b0390a3565b5f63ae4207eb60e01b8152806133fe600482016104f7565b0390fd5b5f6282b42960e81b815280613419600482016104f7565b0390fd5b503361343861343261342d615452565b610415565b91610415565b1415613270565b61344890612e7d565b565b5f90565b61345f9061345a61679e565b6134ad565b90565b90565b61347961347461347e92613462565b612b23565b610b62565b90565b6134aa7f360894a13ba1a3210667c828492db98dca3e2076cc3735a920a3ca505d382bbc613465565b90565b506134b6613481565b90565b6134c96134c461344a565b61344e565b90565b6134d86134dd91611e98565b610a70565b90565b6134ea90546134cc565b90565b6135016134fc61350692612e00565b6106da565b6110af565b90565b90565b61352061351b61352592613509565b6106da565b6110af565b90565b613531906106f9565b90565b61354861354361354d92612e00565b6106da565b611742565b90565b9061356367ffffffffffffffff91612b23565b9181191691161790565b61358161357c613586926110af565b6106da565b6110af565b90565b90565b906135a161359c6135a89261356d565b613589565b8254613550565b9055565b60401b90565b906135c668ff0000000000000000916135ac565b9181191691161790565b906135e56135e06135ec92613189565b613195565b82546135b2565b9055565b6135f99061350c565b9052565b9190613610905f602085019401906135f0565b565b9061361b6167fc565b9161363061362a5f85016134e0565b156105a3565b9161363c5f8501611d8d565b8061364f6136495f6134ed565b916110af565b1480613769575b9061366a613664600161350c565b916110af565b1480613741575b61367c9091156105a3565b9081613730575b50613714576136ac916136a1613699600161350c565b5f870161358c565b83613702575b613c8c565b6136b4575b50565b6136c1905f8091016135d0565b60016136f97fc7f505b2f371ae2175ee4913f4499e1f2633a7b5936321eed1cdaeb6115181d2916136f06102b2565b918291826135fd565b0390a15f6136b1565b61370f60015f87016135d0565b6136a7565b5f63f92ee8a960e01b81528061372c600482016104f7565b0390fd5b61373b9150156105a3565b5f613683565b5061367c61374e30613528565b3b61376161375b5f613534565b91611742565b149050613671565b5083613656565b5190565b90565b61378b61378661379092613774565b6106da565b6102e2565b90565b61379d60ff613777565b90565b6137b46137af6137b9926102e2565b6106da565b611742565b90565b6137c6905161063b565b90565b906137f360205f6137f9946137eb8282016137e58488016137bc565b90612b5e565b019201612a09565b90612b9f565b565b90613805916137c9565b565b9061381182613770565b811015613822576020809102010190565b611786565b61383b61383661384092611742565b6106da565b6102e2565b90565b61385761385261385c92612e00565b6106da565b61040a565b90565b61386890613843565b90565b6138759051610415565b90565b9061388960018060a01b0391612b23565b9181191691161790565b90565b906138ab6138a66138b292610705565b613893565b8254613878565b9055565b906138cb6138c66138d292610f6a565b612b9c565b8254613173565b9055565b60016138e29101611742565b90565b67ffffffffffffffff81116138fd5760208091020190565b610787565b9061391461390f836138e5565b6107c4565b918252565b369037565b9061394361392b83613902565b9260208061393986936138e5565b9201910390613919565b565b9061394f826102cf565b811015613960576020809102010190565b611786565b60209060018203010490565b5b81811061397d575050565b8061398a5f600193612fda565b01613972565b906139a3905f199060200360080261052f565b8154169055565b9190918282106139ba575b505050565b600160206139ca6139f295613965565b6139dc6139d686613965565b94611df3565b93840193019306025f81116139fa575b50613971565b5f80806139b5565b613a079060018303613990565b5f6139ec565b90680100000000000000008111613a365781613a2b613a3493611def565b908281556139aa565b565b610787565b91906008613a56910291613a5060ff84612f6c565b92612f6c565b9181191691161790565b90613a6a816102cf565b9067ffffffffffffffff8211613b4d57613a90613a9691613a8b8486613a0d565b6102dc565b92611df3565b60208204915f5b838110613b0557506020830290035f8111613ab9575b50505050565b925f935f5b818110613ad35750505001555f808080613ab3565b9091946020613af9600192613aef613aea8a612a09565b612b9c565b9085850290613a3b565b96019101919091613abe565b5f5f5b60208110613b1f5750906001918185015501613a9d565b95906020613b44600192613b3a613b3586612a09565b612b9c565b908a850290613a3b565b92019601613b08565b610787565b90613b5c91613a60565b565b60209181520190565b60200190565b90613ba990604080613b9e60608401613b8c5f8801515f870190610ea9565b602087015185820360208701526112ef565b940151910190611320565b90565b90613bb691613b6d565b90565b60200190565b90613bd3613bcc83613770565b8092613b5e565b9081613be460208302840194613b67565b925f915b838310613bf757505050505090565b90919293946020613c19613c1383856001950387528951613bac565b97613bb9565b9301930191939290613be8565b906020613c4d5f613c55940154613c48613c3f82611c15565b5f860190611238565b611c3c565b9101906102e8565b565b606090613c83613c78613c8a9597969460808401908482035f860152613bbf565b966020830190613c26565b0190610c1b565b565b613c9582613770565b613cae613ca8613ca3613793565b6137a0565b91611742565b11613f7857613cbc82613770565b613cd9613cd3613cce60208501612a09565b6137a0565b91611742565b10613f5c57613cf990613cea616811565b613cf333616839565b5f6137fb565b613d025f613534565b5b80613d1e613d18613d1385613770565b611742565b91611742565b1015613e4857613d2f828290613807565b5190613d3e602083015161671a565b613d4781613827565b613d5b613d5660028390610f86565b611127565b613d75613d6f613d6a5f61385f565b610415565b91610415565b03613e2c5782613dd5613e2292613da4613d935f613e27980161386b565b613d9f60028490610f86565b613896565b613dba6001613db560038490611a55565b613198565b613dd06004613dca5f860161386b565b90610711565b6138b6565b613e1d602082015191613e0a613ded60408301613166565b613e01613df8612f40565b955f8701612f4d565b60208501612f50565b613e175f6005920161386b565b9061094a565b6131eb565b6138d6565b613d03565b5f632a322e2b60e01b815280613e44600482016104f7565b0390fd5b50613e64613e5d613e5883613770565b613827565b60066138b6565b613e7f613e78613e7383613770565b613827565b600f6138b6565b613e90613e8b82613770565b61391e565b91613e9a5f613534565b5b80613eb6613eb0613eab86613770565b611742565b91611742565b1015613ee85780613ede613ecc613ee393613827565b613ed98791849092613945565b6129a9565b6138d6565b613e9b565b5091613f02905f613efb600782906117a3565b5001613b52565b5f613f15613f106001612c11565b612c32565b613f20816001612ca1565b91613f577f1e7e8725c792f19ec6549d85782fc5ced586526af5a6e9f82c9414ee881bf87793613f4e6102b2565b93849384613c57565b0390a1565b5f6330e40a8160e11b815280613f74600482016104f7565b0390fd5b5f636055dca160e01b815280613f90600482016104f7565b0390fd5b90613f9e91613612565b565b606090565b613fae906106f9565b90565b60e01b90565b67ffffffffffffffff8111613fcf5760208091020190565b610787565b90505190613fe182610699565b565b90929192613ff8613ff382613fb7565b6107c4565b938185526020808601920283019281841161403557915b83831061401c5750505050565b6020809161402a8486613fd4565b81520192019161400f565b610cf9565b9080601f830112156140585781602061405593519101613fe3565b90565b610775565b9060208282031261408d575f82015167ffffffffffffffff811161408857614085920161403a565b90565b6103c5565b6102bc565b61409a6102b2565b3d5f823e3d90fd5b906140b46140af83613fb7565b6107c4565b918252565b369037565b906140e36140cb836140a2565b926020806140d98693613fb7565b92019103906140b9565b565b906140ef82610e96565b811015614100576020809102010190565b611786565b9061410f90610415565b9052565b61411b613fa0565b5061413f5f61412930613fa5565b63d911c632906141376102b2565b938492613fb1565b8252818061414f600482016104f7565b03915afa90811561424b575f91614229575b5061417361416e82610e96565b6140be565b61417c5f613534565b6141855f613534565b5b806141a161419b61419687610e96565b611742565b91611742565b1015614220576141d060016141ca60056141c46141bf8987906140e5565b61386b565b9061094a565b01610a8a565b6141e3575b6141de906138d6565b614186565b906142186141de916142136142016141fc8887906140e5565b61386b565b61420e87918490926140e5565b614105565b6138d6565b9190506141d5565b50909150815290565b61424591503d805f833e61423d818361079b565b81019061405d565b5f614161565b614092565b61425a60066117df565b61426c6142665f612e03565b916102e2565b1461427c5761427a906142fa565b565b5f6321c4e35760e21b815280614294600482016104f7565b0390fd5b60a01b90565b906142ad60ff60a01b91614298565b9181191691161790565b906142cc6142c76142d392613189565b613195565b825461429e565b9055565b9160206142f89294936142f160408201965f8301906105a8565b0190610c1b565b565b805f146144745761430d5f600e01611127565b61432761432161431c5f61385f565b610415565b91610415565b0361445857614339335f600e01613896565b6143603361435661435061434b615452565b610415565b91610415565b145f600e016142b7565b5b3361437b614375614370615452565b610415565b91610415565b036143e3575b3361439461438f6001612c11565b612c32565b61439f816001612ca1565b6143c97f1c1d5017b8b1542dedc14e2b0d29098feed77a27d5a6c2c18e71a432b67b262092610705565b926143de6143d56102b2565b928392836142d7565b0390a2565b6144096144046143fd6143f860043390610711565b6117df565b6002610f86565b611127565b61441b61441533610415565b91610415565b0361443d576144388160016144326005339061094a565b01613198565b614381565b5f6282b42960e81b815280614454600482016104f7565b0390fd5b5f631ddb00d960e21b815280614470600482016104f7565b0390fd5b6144805f600e01611127565b61449261448c33610415565b91610415565b1415806144e0575b6144c5576144b36144aa5f61385f565b5f600e01613896565b6144c05f5f600e016142b7565b614361565b5f6282b42960e81b8152806144dc600482016104f7565b0390fd5b50336144fb6144f56144f0615452565b610415565b91610415565b141561449a565b61450b90614250565b565b614515612dfc565b5061454e61454861454261453d61453661453160048790610711565b6117df565b6002610f86565b611127565b92610415565b91610415565b1490565b61455a6164a0565b614562614564565b565b6145756145705f61385f565b6168a4565b565b61457f614552565b565b61458c6101406107c4565b90565b61459960406107c4565b90565b5f90565b5f90565b6145ac61458f565b90602080836145b961459c565b8152016145c46145a0565b81525050565b6145d26145a4565b90565b5f90565b5f90565b606090565b606090565b606090565b6145f46129b7565b90602080836146016145e7565b81520161460c6145a0565b81525050565b61461a6145ec565b90565b61462760406107c4565b90565b5f90565b5f90565b61463a61461d565b906020808361464761462a565b81520161465261462e565b81525050565b614660614632565b90565b61466b614581565b9060208080808080808080808b6146806145ca565b81520161468b6145d5565b8152016146966145d9565b8152016146a16145a0565b8152016146ac6145dd565b8152016146b76145e2565b8152016146c2614612565b8152016146cd6145d9565b8152016146d86145e7565b8152016146e3614658565b81525050565b6146f1614663565b90565b67ffffffffffffffff811161470c5760208091020190565b610787565b9061472361471e836146f4565b6107c4565b918252565b61473260406107c4565b90565b606090565b614742614728565b906020808361474f614735565b81520161475a61462e565b81525050565b61476861473a565b90565b5f5b82811061477957505050565b602090614784614760565b818401520161476d565b906147b361479b83614711565b926020806147a986936146f4565b920191039061476b565b565b906147bf826112dc565b8110156147d0576020809102010190565b611786565b9061480c61480360016147e6614728565b946147fd6147f55f8301610a49565b5f8801612f4d565b01610a8a565b60208401612f50565b565b614817906147d5565b90565b90505190614827826103c9565b565b9092919261483e614839826138e5565b6107c4565b938185526020808601920283019281841161487b57915b8383106148625750505050565b60208091614870848661481a565b815201920191614855565b610cf9565b9080601f8301121561489e5781602061489b93519101614829565b90565b610775565b906020828203126148d3575f82015167ffffffffffffffff81116148ce576148cb9201614880565b90565b6103c5565b6102bc565b6148e46148e991611e98565b61106c565b90565b6148f690546148d8565b90565b6149046101406107c4565b90565b906149119061063b565b9052565b9061494b6149425f61492561458f565b9461493c614934838301611c29565b838801614907565b01611c50565b602084016129a9565b565b61495690614915565b90565b52565b9061496690610c06565b9052565b90614974906110af565b9052565b52565b52565b52565b906149b76149ae5f61499161461d565b946149a86149a0838301611127565b838801614105565b0161114e565b60208401612f50565b565b6149c290614981565b90565b52565b6149d06146e9565b506149f45f6149de30613fa5565b63d911c632906149ec6102b2565b938492613fb1565b82528180614a04600482016104f7565b03915afa908115614c45575f91614c23575b5090614a29614a2483610e96565b61478e565b614a325f613534565b5b80614a4e614a48614a4387610e96565b611742565b91611742565b1015614aa057614a9b90614a94614a796005614a73614a6e8986906140e5565b61386b565b9061094a565b84614a84849261480e565b614a8e83836147b5565b526147b5565b51506138d6565b614a33565b50919091614ad5614acf6007614ac9614ab9600b611d8d565b614ac36002611d9d565b90611dcd565b906117a3565b506129fd565b90614af95f614ae330613fa5565b63d17b27d390614af16102b2565b938492613fb1565b82528180614b09600482016104f7565b03915afa908115614c1e575f91614bfc575b505f93614b286001612c11565b93614b33600b611d8d565b93614b3e60066117df565b92909192614b4c600b6148ec565b9495600e97614b596148f9565b99614b639061494d565b5f8b0190614b7091614959565b60208a0190614b7e9161495c565b6040890190614b8c9161496a565b6060880190614b9a916129a9565b6080870190614ba891614978565b60a0860190614bb69161497b565b60c0850190614bc49161497e565b60e0840190614bd29161496a565b610100830190614be1916129a6565b614bea906149b9565b610120820190614bf9916149c5565b90565b614c1891503d805f833e614c10818361079b565b8101906148a3565b5f614b1b565b614092565b614c3f91503d805f833e614c37818361079b565b81019061405d565b5f614a16565b614092565b614c526168c2565b614c5a616217565b614c6c614c6683610415565b91610415565b03614c7c57614c7a906168a4565b565b614c97905f91829163118cdaa760e01b83526004830161042e565b0390fd5b90614cae9291614ca96164a0565b614cb0565b565b9190614cbc60066117df565b614cce614cc85f612e03565b916102e2565b14614cde57614cdc92614f99565b565b5f6321c4e35760e21b815280614cf6600482016104f7565b0390fd5b614d0e614d09614d1392612e00565b6106da565b61063b565b90565b5090565b614d2e614d29614d3392613509565b6106da565b611742565b90565b9190811015614d46576020020190565b611786565b614d5a614d6091939293611742565b92611742565b8203918211614d6b57565b612c1e565b614d84614d7f614d8992611742565b6106da565b61063b565b90565b614d95906110af565b67ffffffffffffffff8114614daa5760010190565b612c1e565b90614dca6fffffffffffffffff0000000000000000916135ac565b9181191691161790565b90614de9614de4614df09261356d565b613589565b8254614daf565b9055565b90565b90565b91614e059082614d16565b9067ffffffffffffffff8211614ee857614e2b614e3191614e268486613a0d565b614df7565b92611df3565b60208204915f5b838110614ea057506020830290035f8111614e54575b50505050565b925f935f5b818110614e6e5750505001555f808080614e4e565b9091946020614e94600192614e8a614e858a612af6565b612b9c565b9085850290613a3b565b96019101919091614e59565b5f5f5b60208110614eba5750906001918185015501614e38565b95906020614edf600192614ed5614ed086612af6565b612b9c565b908a850290613a3b565b92019601614ea3565b610787565b90614ef89291614dfa565b565b60200190565b91614f0e82614f14926102d3565b92614df7565b90815f905b828210614f27575050505090565b90919293614f49614f43600192614f3e8886612cd3565b6102f5565b95614efa565b920190929192614f19565b90614f9794614f86614f7b614f90936060969a99979a60808701918783035f890152614f00565b98602085019061035c565b60408301906110bc565b0190610c1b565b565b909192614fa85f600e01611127565b614fc2614fbc614fb75f61385f565b610415565b91610415565b0361542957614fd1600d611c29565b614fe3614fdd5f614cfa565b9161063b565b1161540d57614ff3828490614d16565b61500c615006615001613793565b6137a0565b91611742565b116153f15761501c828490614d16565b61502f6150296001614d1a565b91611742565b11615339575b61503e5f613534565b5b8061505c615056615051868890614d16565b611742565b91611742565b10156150d75761507661507184868491614d36565b612af6565b9061509461508e61508960038590611a55565b610a8a565b156105a3565b6150bb576150b16150b6926150ac600191600c611a55565b613198565b6138d6565b61503f565b5f63ae4207eb60e01b8152806150d3600482016104f7565b0390fd5b50926150f66150ef6150ea848690614d16565b614d70565b600d612b5e565b615127615121600761511b61510b600b611d8d565b6151156002611d9d565b90611dcd565b906117a3565b506129fd565b61513360208201612a09565b61514561513f846102e2565b916102e2565b148061530a575b615250575b5061516e615167615162600b6148ec565b614d8c565b600b614dd4565b61518a61518361517e600b611d8d565b614d8c565b600b61358c565b6151d66151be6151b860076151b26151a2600b611d8d565b6151ac6002611d9d565b90611dcd565b906117a3565b50614df4565b6151cc8486905f8401614eed565b60018391016138b6565b6151e0600b6148ec565b9192909261524b6151f1600b611d8d565b6152036151fe6001612c11565b612c32565b61520e816001612ca1565b906152397fb95d8605e761f395e78cb1b5a269af6a9011d872bcb01715568de824b136435d9661356d565b966152426102b2565b95869586614f54565b0390a2565b92919060019361525f5f613534565b5b8061527e6152786152735f8601516102cf565b611742565b91611742565b10156153005761529a6152955f8401518390613945565b612a09565b6152bf6152b96152b46152af888a8791614d36565b612af6565b6102e2565b916102e2565b036152d2576152cd906138d6565b615260565b5050909192505f5b6152e4575f615151565b5f63d990d65560e01b8152806152fc600482016104f7565b0390fd5b50509091926152da565b506153175f8201516102cf565b61533361532d615328868890614d16565b611742565b91611742565b1461514c565b926153476001939293614d1a565b5b8061536561535f61535a878790614d16565b611742565b91611742565b10156153e75761537f61537a85858491614d36565b612af6565b6153b76153b16153ac6153a788886153a18861539b6001614d1a565b90614d4b565b91614d36565b612af6565b6102e2565b916102e2565b11156153cb576153c6906138d6565b615348565b5f63ccea9e6f60e01b8152806153e3600482016104f7565b0390fd5b5092919091615035565b5f636055dca160e01b815280615409600482016104f7565b0390fd5b5f6378a4646d60e11b815280615425600482016104f7565b0390fd5b5f631ddb00d960e21b815280615441600482016104f7565b0390fd5b906154509291614c9b565b565b61545a612a6d565b5061546d5f6154676168cf565b01611127565b90565b61547a60066117df565b61548c6154865f612e03565b916102e2565b1461549c5761549a906154c7565b565b5f6321c4e35760e21b8152806154b4600482016104f7565b0390fd5b60016154c4910361063b565b90565b6154d1600d611c29565b6154e36154dd5f614cfa565b9161063b565b14615700576155036154fd6154f8600b6148ec565b6110af565b916110af565b036156e45761551c61551760043390610711565b6117df565b61553061552b60028390610f86565b611127565b61554261553c33610415565b91610415565b036156c85761556461555e615559600c8490611a55565b610a8a565b156105a3565b6156ac5761557d906155785f91600c611a55565b613198565b61559961559261558d600d611c29565b6154b8565b600d612b5e565b6155a3600d611c29565b6155b56155af5f614cfa565b9161063b565b145f14615633576155c6600b6148ec565b336155d96155d46001612c11565b612c32565b6155e4816001612ca1565b9161562d61561b6156157f01269879535f40ee8957e15e160bf1866c5e2728ff0cbc583d848821e2639b4e9361356d565b93610705565b936156246102b2565b91829182610c28565b0390a35b565b61563d600b6148ec565b3361565061564b6001612c11565b612c32565b61565b816001612ca1565b916156a461569261568c7faf5e90e72015f43138f66b4cd08bd1dfa2839030104f22a00af843fe847c6d199361356d565b93610705565b9361569b6102b2565b91829182610c28565b0390a3615631565b5f6313a9a39160e31b8152806156c4600482016104f7565b0390fd5b5f63a5523ee560e01b8152806156e0600482016104f7565b0390fd5b5f631a0fd8c760e21b8152806156fc600482016104f7565b0390fd5b5f631821b37560e31b815280615718600482016104f7565b0390fd5b61572590615470565b565b5f90565b5f90565b615737615727565b5061574061572b565b50615749612dfc565b50615754600b6148ec565b61575e600d611c29565b91615769600d611c29565b61577b6157755f614cfa565b9161063b565b1191929190565b6157939061578e6164a0565b6159e1565b565b6157a96157a46157ae926110af565b6106da565b6102e2565b90565b6157c56157c06157ca92613509565b6106da565b6102e2565b90565b91906157e36157de6157eb93610f6a565b612b9c565b908354613a3b565b9055565b615801916157fb611d75565b916157cd565b565b905f9161581a615812826109a7565b928354613079565b905555565b919290602082105f1461587857601f841160011461584857615842929350613079565b90555b5b565b509061586e61587393600161586561585f856109a7565b92612f62565b82019101612fee565b615803565b615845565b506158af82936158896001946109a7565b6158a861589585612f62565b820192601f8616806158ba575b50612f62565b0190612fee565b600202179055615846565b6158c690888603613990565b5f6158a2565b92909168010000000000000000821161592c576020115f1461591d57602081105f14615901576158fb91613079565b90555b5b565b60019160ff1916615911846109a7565b556002020190556158fe565b600191506002020190556158ff565b610787565b90815461593d81610974565b90818311615966575b818310615954575b50505050565b61595d9361581f565b5f80808061594e565b615972838383876158cc565b615946565b5f61598191615931565b565b905f036159955761599390615977565b565b612b03565b60015f916159aa83808301615983565b0155565b905f036159c0576159be9061599a565b565b612b03565b6159ce906102e2565b5f81146159dc576001900390565b612c1e565b6159f56159f060048390610711565b6117df565b90615a0a615a0560028490610f86565b611127565b615a1c615a1683610415565b91610415565b03615c4757615a2b60066117df565b615a47615a41615a3c5f8001611c50565b6102e2565b916102e2565b1115615c2b57615a57600d611c29565b615a69615a635f614cfa565b9161063b565b115f14615bdb57615a8382615a7d5f612e03565b906168f3565b8015615bc1575b615ba5575b615aac615a9b5f61385f565b615aa760028590610f86565b613896565b615ac15f615abc60038590611a55565b613198565b615ad65f615ad160048490610711565b6157ef565b615aeb5f615ae66005849061094a565b6159ae565b615b07615b00615afb60066117df565b6159c5565b60066138b6565b81615b23615b1d615b18600f6117df565b6102e2565b916102e2565b10615b95575b90615b3c615b376001612c11565b612c32565b615b47816001612ca1565b91615b90615b7e615b787f09f530ee5721466a79a706ccbc5875d7f2fec6ff088f543aa3e838ac941aa95193610705565b93610f6a565b93615b876102b2565b91829182610c28565b0390a3565b615ba082600f6138b6565b615b29565b5f63997ac2d360e01b815280615bbd600482016104f7565b0390fd5b50615bd682615bd060016157b1565b906168f3565b615a8a565b615c0a82615c04615bff615bef600b611d8d565b615bf96002611d9d565b90611dcd565b615795565b906168f3565b15615a8f575f63997ac2d360e01b815280615c27600482016104f7565b0390fd5b5f6330e40a8160e11b815280615c43600482016104f7565b0390fd5b5f63ae4207eb60e01b815280615c5f600482016104f7565b0390fd5b615c6c90615782565b565b615c7f90615c7a6164a0565b615cb3565b565b90615c8b90612e03565b5f5260205260405f2090565b615ca0906102e2565b60ff8114615cae5760010190565b612c1e565b615cbd60066117df565b615cd6615cd0615ccb613793565b6102e2565b916102e2565b1015615f6f57615ce75f8201612ec5565b615d01615cfb615cf65f61385f565b610415565b91610415565b14615f5357615d24615d1f6004615d195f8501612ec5565b90610711565b6117df565b615d36615d305f612e03565b916102e2565b14158015615f1c575b615f0057615d62615d5d615d57836020810190612ede565b90612f25565b61671a565b615d6a616986565b615d89615d785f8401612ec5565b615d8460028490610f86565b613896565b615d9f6001615d9a60038490611a55565b613198565b615dbe81615db96004615db35f8701612ec5565b90610711565b6138b6565b615e22615e07615dd2846020810190612ede565b615dfe615df6615de760408996959601612f33565b92615df0612f40565b95612f25565b5f8501612f4d565b60208301612f50565b615e1d6005615e175f8701612ec5565b9061094a565b6131eb565b615e3e615e37615e3260066117df565b615c97565b60066138b6565b615e46616af1565b615e515f8301612ec5565b615e966040615e8d615e85615e76615e6d886020810190612ede565b94909801612f33565b92615e7f612f40565b97612f25565b5f8701612f4d565b60208501612f50565b615ea8615ea36001612c11565b612c32565b615eb3816001612ca1565b615ee6615ee07fa1a8572b1f23d9ca7b47bfeebb78a9f3d78239f4ff88435c15521dba7f2efc7b93610705565b93610f6a565b93615efb615ef26102b2565b92839283613224565b0390a3565b5f632a322e2b60e01b815280615f18600482016104f7565b0390fd5b50615f31615f2c60025f90615c81565b611127565b615f4d615f47615f425f8501612ec5565b610415565b91610415565b14615d3f565b5f63ccea9e6f60e01b815280615f6b600482016104f7565b0390fd5b5f636055dca160e01b815280615f87600482016104f7565b0390fd5b615f9490615c6e565b565b615faa615fa5615faf9261063b565b6106da565b611742565b90565b615fbb90612984565b90565b615fc790611742565b5f198114615fd55760010190565b612c1e565b615fe2611d70565b50615fed600d611c29565b615fff615ff95f614cfa565b9161063b565b146161005761601e616019616014600d611c29565b615f96565b61391e565b6160515f61604a6007616044616034600b611d8d565b61603e6002611d9d565b90611dcd565b906117a3565b5001615fb2565b9061605b5f613534565b6160645f613534565b5b8061608061607a616075876102cf565b611742565b91611742565b10156160f7576160ba906160b06160ab600c6160a56160a0898690613945565b612a09565b90611a55565b610a8a565b6160bf575b6138d6565b616065565b6160f26160d56160d0878490613945565b612a09565b936160ed8691956160e587615fbe565b969092613945565b6129a9565b6160b5565b50909150815290565b61611161610c5f613534565b61391e565b90565b600161612091016102e2565b90565b61612b613fa0565b5061614661614161613c60066117df565b6137a0565b6140be565b61614f5f613534565b906161595f612e03565b5b8061617461616e616169613793565b6102e2565b916102e2565b10806161f4575b156161e55761619461618f60038390611a55565b610a8a565b6161a7575b6161a290616114565b61615a565b916161dd6161a2916161d86161c66161c160028890610f86565b611127565b6161d386918490926140e5565b614105565b6138d6565b929050616199565b5090506161f181616be8565b90565b508261621161620b61620660066117df565b6137a0565b91611742565b1061617b565b61621f612a6d565b506162325f61622c616bfb565b01611127565b90565b616246906162416164a0565b616264565b565b616251906110af565b5f811461625f576001900390565b612c1e565b61626e600d611c29565b61628061627a5f614cfa565b9161063b565b146163f3576162a061629a616295600b6148ec565b6110af565b916110af565b036163d7576162d85f6162d160076162cb6162bb600b611d8d565b6162c56002611d9d565b90611dcd565b906117a3565b5001615fb2565b906162e25f613534565b5b806162fe6162f86162f3866102cf565b611742565b91611742565b1015616339576163349061632f5f61632a600c61632461631f898790613945565b612a09565b90611a55565b613198565b6138d6565b6162e3565b50905061634f6163485f614cfa565b600d612b5e565b61636b61636461635f600b611d8d565b616248565b600b61358c565b616375600b6148ec565b6163876163826001612c11565b612c32565b616392816001612ca1565b906163d26163c07ff73240422246f63ed633ef3ce0726b8ab8fb69d46c8a4e5ecb0b2922668674a19261356d565b926163c96102b2565b91829182610c28565b0390a2565b5f631a0fd8c760e21b8152806163ef600482016104f7565b0390fd5b5f631821b37560e31b81528061640b600482016104f7565b0390fd5b61641890616235565b565b61642b906164266164a0565b61642d565b565b616441616438616bfb565b5f839101613896565b616449615452565b9061647d6164777f38d16b8cac22d99fc7c124b9cd0de2d3fa1faef420bfe791d8c362d765e2270093610705565b91610705565b916164866102b2565b80616490816104f7565b0390a3565b61649e9061641a565b565b6164a8615452565b6164c16164bb6164b66168c2565b610415565b91610415565b036164c857565b6164ea6164d36168c2565b5f91829163118cdaa760e01b83526004830161042e565b0390fd5b6164f7906106f9565b90565b616503306164ee565b61653561652f7f0000000000000000000000000000000000000000000000000000000000000000610415565b91610415565b14801561655f575b61654357565b5f63703e46dd60e11b81528061655b600482016104f7565b0390fd5b50616568616c1f565b61659a6165947f0000000000000000000000000000000000000000000000000000000000000000610415565b91610415565b141561653d565b506165aa6164a0565b565b6165b5906165a1565b565b6165c0906106dd565b90565b6165cc906165b7565b90565b6165d8906106f9565b90565b6165e481610b62565b036165eb57565b5f80fd5b905051906165fc826165db565b565b9060208282031261661757616614915f016165ef565b90565b6102bc565b919061664a602061663461662f866165c3565b6165cf565b6352d1902d906166426102b2565b938492613fb1565b8252818061665a600482016104f7565b03915afa80915f926166ea575b50155f1461669b57505090600161667c57505b565b616697905f918291634c9c8ce360e01b83526004830161042e565b0390fd5b92836166b66166b06166ab613481565b610b62565b91610b62565b036166cb576166c6929350616c45565b61667a565b6166e6845f918291632a87526960e21b835260048301610b72565b0390fd5b61670c91925060203d8111616713575b616704818361079b565b8101906165fe565b905f616667565b503d6166fa565b61672381610abd565b61673561672f5f613534565b91611742565b146167825761674390610abd565b61675f6167596167545f8001611c29565b615f96565b91611742565b1161676657565b5f635e9b2d5360e01b81528061677e600482016104f7565b0390fd5b5f635e9b2d5360e01b81528061679a600482016104f7565b0390fd5b6167a7306164ee565b6167d96167d37f0000000000000000000000000000000000000000000000000000000000000000610415565b91610415565b036167e057565b5f63703e46dd60e11b8152806167f8600482016104f7565b0390fd5b616804616d19565b90565b61680f616d2d565b565b616819616807565b565b61682c90616827616d2d565b61682e565b565b61683790616dc5565b565b6168429061681b565b565b9190600861686491029161685e60018060a01b0384612f6c565b92612f6c565b9181191691161790565b919061688461687f61688c93610705565b613893565b908354616844565b9055565b6168a29161689c612a6d565b9161686e565b565b6168c0906168bb5f806168b5616bfb565b01616890565b616dd0565b565b6168ca612a6d565b503390565b7f9016d09d72d40fdae2fd8ceac6b6234c7706214fd39c1cd1e609a0528c19930090565b905f61690c61691392616904612dfc565b5060076117a3565b5001615fb2565b9061691d5f613534565b5b8061693961693361692e866102cf565b611742565b91611742565b101561697f5761695261694d848390613945565b612a09565b61696461695e846102e2565b916102e2565b1461697757616972906138d6565b61691e565b505050600190565b5050505f90565b61698e611d75565b50616999600f6117df565b6169b26169ac6169a7613793565b6102e2565b916102e2565b1080616aa2575b616a95576169c7600f6117df565b5b806169e26169dc6169d7613793565b6102e2565b916102e2565b1015616a1a57616a056169ff6169fa60038490611a55565b610a8a565b156105a3565b616a1757616a1290616114565b6169c8565b90565b50616a245f612e03565b5b80616a41616a3b616a36600f6117df565b6102e2565b916102e2565b1015616a7957616a64616a5e616a5960038490611a55565b610a8a565b156105a3565b616a7657616a7190616114565b616a25565b90565b5f636055dca160e01b815280616a91600482016104f7565b0390fd5b616a9f600f6117df565b90565b50616ac9616ac3616abe6003616ab8600f6117df565b90611a55565b610a8a565b156105a3565b6169b9565b616ada616ae0916102e2565b916102e2565b019060ff8211616aec57565b612c1e565b616b0e616afe600f6117df565b616b0860016157b1565b90616ace565b5b80616b29616b23616b1e613793565b6102e2565b916102e2565b1015616b6b57616b4c616b46616b4160038490611a55565b610a8a565b156105a3565b616b5e57616b5990616114565b616b0f565b616b6990600f6138b6565b565b50616b755f612e03565b5b80616b92616b8c616b87600f6117df565b6102e2565b916102e2565b11616bd357616bb4616bae616ba960038490611a55565b610a8a565b156105a3565b616bc657616bc190616114565b616b76565b616bd190600f6138b6565b565b50616be6616bdf613793565b600f6138b6565b565b616bf4616bf991616e41565b616fc0565b565b7f237e158222e3e6968b72b9db0d8043aacf074ad9f650f0d1606b4d82ee432c0090565b616c27612a6d565b50616c425f616c3c616c37613481565b61706c565b01611127565b90565b90616c4f8261706f565b81616c7a7fbc7cd75a20ee27fd9adebab32041f755214dbc6bffa90cc0225b39da2e5c2d3b91610705565b90616c836102b2565b80616c8d816104f7565b0390a2616c9981610abd565b616cab616ca55f613534565b91611742565b115f14616cbf57616cbb9161713f565b505b565b5050616cc96170c4565b616cbd565b90565b616ce5616ce0616cea92616cce565b612b23565b610b62565b90565b616d167ff0c57e16840df040f15088dc2f81fe391c3923bec73e23a9662efc9c229c6a00616cd1565b90565b616d2161344a565b50616d2a616ced565b90565b616d3e616d3861716e565b156105a3565b616d4457565b5f631afcd79f60e31b815280616d5c600482016104f7565b0390fd5b616d7190616d6c616d2d565b616d73565b565b80616d8e616d88616d835f61385f565b610415565b91610415565b14616d9e57616d9c906168a4565b565b616dc1616daa5f61385f565b5f918291631e4fbdf760e01b83526004830161042e565b0390fd5b616dce90616d60565b565b616dd86168cf565b616df0616de65f8301611127565b915f849101613896565b90616e24616e1e7f8be0079c531659141344cd1fd0a4f28419497f9722a3daafe3b4186f6b6457e093610705565b91610705565b91616e2d6102b2565b80616e37816104f7565b0390a3565b606090565b616e49616e3c565b5090565b9091565b908151918151905252565b6101808284031115616f435781601f1683830160061c60051b018251815180821015616f35575b855180821015616f0c575b86528252835251918392815b5b60200180518211616e9b57935b830180518210616ea8579384811015616eca57616ec58582616e51565b616e9a565b50509092806020840103616ef8575b50808203616ee7575b505050565b616ef092616e5c565b5f8080616ee2565b616f06906020840185616e5c565b5f616ed9565b616f1591616e4d565b81831015616f23575b616e8e565b9190616f2e91616e4d565b9091616f1e565b616f3e91616e4d565b616e83565b91929080602080920190815181511015616fb0575b505b01838111616faa57805193838201805186811115616f9e579085915b602082015201805186811115616f8e57908591616f76565b509460208093929601525b616f5a565b50509350602090616f99565b50915050565b616fba9082616e51565b5f616f58565b8051906002821015616fd1575b5050565b601f19602082018360051b83019181835b80518184015111156170615711156170595781835b805181840151101561704e57111561701f579061701792915f8552616e5c565b525f80616fcd565b925092506020905b835181518552815282019201918083101561704457602090617027565b5050505f80616fcd565b905081018290616ff7565b505050616fcd565b905081018290616fe2565b90565b803b61708361707d5f613534565b91611742565b146170a5576170a3905f61709d617098613481565b61706c565b01613896565b565b6170c0905f918291634c9c8ce360e01b83526004830161042e565b0390fd5b346170d76170d15f613534565b91611742565b116170de57565b5f63b398979f60e01b8152806170f6600482016104f7565b0390fd5b606090565b9061711161710c836107d9565b6107c4565b918252565b3d5f14617131576171263d6170ff565b903d5f602084013e5b565b6171396170fa565b9061712f565b5f8061716b9361714d6170fa565b508390602081019051915af490617162617116565b9091909161718c565b90565b617176612dfc565b506171895f6171836167fc565b016134e0565b90565b906171a0906171996170fa565b50156105a3565b5f146171ac5750617210565b6171b582610abd565b6171c76171c15f613534565b91611742565b14806171f5575b6171d6575090565b6171f1905f918291639996b31560e01b83526004830161042e565b0390fd5b50803b61720a6172045f613534565b91611742565b146171ce565b61721981610abd565b61722b6172255f613534565b91611742565b115f1461723a57805190602001fd5b5f63d6bda27560e01b815280617252600482016104f7565b0390fdfea2646970667358221220ffdc3315fce821c0d4fb86a12536df489b53ff410ff093b11cabfd48debdde9c64736f6c634300081c0033","linkReferences":{}},"methodIdentifiers":{"UPGRADE_INTERFACE_VERSION()":"ad3cb1cc","abortMigration(uint64)":"e88e9749","acceptOwnership()":"79ba5097","addNodeOperator((address,bytes,bool))":"cc4bc503","completeMigration(uint64)":"9d44e717","getAllOperators()":"d911c632","getCurrentKeyspace()":"0e89d8da","getMaintenanceOperators()":"5b59fd9b","getMigrationStatus()":"a415c02c","getOperatorAt(uint8)":"11fcaded","getOperatorCount()":"1a4a7c61","getPullingOperators()":"d17b27d3","getView()":"75418b9d","initialize((uint16,uint8),(address,bytes,bool)[])":"56f4de3b","isInitialized()":"392e53cd","isOperator(address)":"6d70f7ae","keyspaceVersion()":"8a3d4495","keyspaces(uint256)":"92265b65","maintenance()":"6c376cc5","migrationId()":"66d1b187","nextFreeSlot()":"389be1c0","operatorCount()":"7c6f3158","operatorInfo(address)":"50c246d6","operatorSlots(uint8)":"5f7e7b83","operatorToSlot(address)":"4e4d0f74","owner()":"8da5cb5b","pendingOwner()":"e30c3978","proxiableUUID()":"52d1902d","pullingCount()":"44160458","removeNodeOperator(address)":"c05665dd","renounceOwnership()":"715018a6","setMaintenance(bool)":"612f2f37","settings()":"e06174e4","slotOccupied(uint8)":"c187ba3d","slotPulling(uint8)":"bf31b06d","startMigration(uint8[],uint8)":"838b7dc8","transferOwnership(address)":"f2fde38b","updateNodeOperator((address,bytes,bool))":"50647644","updateSettings((uint16,uint8))":"2be5079e","upgradeToAndCall(address,bytes)":"4f1ef286","version()":"54fd4d50"},"id":56}