{"abi":[{"type":"constructor","inputs":[],"stateMutability":"nonpayable"},{"type":"function","name":"MAX_OPERATORS","inputs":[],"outputs":[{"name":"","type":"uint16","internalType":"uint16"}],"stateMutability":"view"},{"type":"function","name":"UPGRADE_INTERFACE_VERSION","inputs":[],"outputs":[{"name":"","type":"string","internalType":"string"}],"stateMutability":"view"},{"type":"function","name":"abortMigration","inputs":[{"name":"id","type":"uint64","internalType":"uint64"}],"outputs":[],"stateMutability":"nonpayable"},{"type":"function","name":"acceptOwnership","inputs":[],"outputs":[],"stateMutability":"nonpayable"},{"type":"function","name":"addNodeOperator","inputs":[{"name":"operator","type":"tuple","internalType":"struct NodeOperator","components":[{"name":"addr","type":"address","internalType":"address"},{"name":"data","type":"bytes","internalType":"bytes"}]}],"outputs":[],"stateMutability":"nonpayable"},{"type":"function","name":"completeMigration","inputs":[{"name":"id","type":"uint64","internalType":"uint64"}],"outputs":[],"stateMutability":"nonpayable"},{"type":"function","name":"getAllOperators","inputs":[],"outputs":[{"name":"","type":"address[]","internalType":"address[]"}],"stateMutability":"view"},{"type":"function","name":"getCurrentKeyspace","inputs":[],"outputs":[{"name":"","type":"uint8[]","internalType":"uint8[]"},{"name":"","type":"uint8","internalType":"uint8"}],"stateMutability":"view"},{"type":"function","name":"getMigrationStatus","inputs":[],"outputs":[{"name":"id","type":"uint64","internalType":"uint64"},{"name":"remaining","type":"uint16","internalType":"uint16"},{"name":"inProgress","type":"bool","internalType":"bool"}],"stateMutability":"view"},{"type":"function","name":"getOperatorAt","inputs":[{"name":"slot","type":"uint8","internalType":"uint8"}],"outputs":[{"name":"","type":"address","internalType":"address"}],"stateMutability":"view"},{"type":"function","name":"getOperatorCount","inputs":[],"outputs":[{"name":"","type":"uint16","internalType":"uint16"}],"stateMutability":"view"},{"type":"function","name":"getPullingOperators","inputs":[],"outputs":[{"name":"","type":"uint8[]","internalType":"uint8[]"}],"stateMutability":"view"},{"type":"function","name":"getView","inputs":[],"outputs":[{"name":"","type":"tuple","internalType":"struct ClusterView","components":[{"name":"owner","type":"address","internalType":"address"},{"name":"settings","type":"tuple","internalType":"struct Settings","components":[{"name":"maxOperatorDataBytes","type":"uint16","internalType":"uint16"},{"name":"minOperators","type":"uint8","internalType":"uint8"}]},{"name":"version","type":"uint128","internalType":"uint128"},{"name":"keyspaceVersion","type":"uint64","internalType":"uint64"},{"name":"operatorCount","type":"uint16","internalType":"uint16"},{"name":"operators","type":"address[]","internalType":"address[]"},{"name":"operatorData","type":"bytes[]","internalType":"bytes[]"},{"name":"keyspaces","type":"tuple[2]","internalType":"struct Keyspace[2]","components":[{"name":"members","type":"uint8[]","internalType":"uint8[]"},{"name":"replicationStrategy","type":"uint8","internalType":"uint8"}]},{"name":"migrationId","type":"uint64","internalType":"uint64"},{"name":"pullingOperators","type":"uint8[]","internalType":"uint8[]"},{"name":"maintenance","type":"tuple","internalType":"struct MaintenanceState","components":[{"name":"slot","type":"address","internalType":"address"},{"name":"isOwnerMaintenance","type":"bool","internalType":"bool"}]}]}],"stateMutability":"view"},{"type":"function","name":"initialize","inputs":[{"name":"initialSettings","type":"tuple","internalType":"struct Settings","components":[{"name":"maxOperatorDataBytes","type":"uint16","internalType":"uint16"},{"name":"minOperators","type":"uint8","internalType":"uint8"}]},{"name":"initialOperators","type":"tuple[]","internalType":"struct NodeOperator[]","components":[{"name":"addr","type":"address","internalType":"address"},{"name":"data","type":"bytes","internalType":"bytes"}]}],"outputs":[],"stateMutability":"nonpayable"},{"type":"function","name":"isOperator","inputs":[{"name":"addr","type":"address","internalType":"address"}],"outputs":[{"name":"","type":"bool","internalType":"bool"}],"stateMutability":"view"},{"type":"function","name":"keyspaceVersion","inputs":[],"outputs":[{"name":"","type":"uint64","internalType":"uint64"}],"stateMutability":"view"},{"type":"function","name":"keyspaces","inputs":[{"name":"","type":"uint256","internalType":"uint256"}],"outputs":[{"name":"replicationStrategy","type":"uint8","internalType":"uint8"}],"stateMutability":"view"},{"type":"function","name":"maintenance","inputs":[],"outputs":[{"name":"slot","type":"address","internalType":"address"},{"name":"isOwnerMaintenance","type":"bool","internalType":"bool"}],"stateMutability":"view"},{"type":"function","name":"migrationId","inputs":[],"outputs":[{"name":"","type":"uint64","internalType":"uint64"}],"stateMutability":"view"},{"type":"function","name":"nextFreeSlot","inputs":[],"outputs":[{"name":"","type":"uint8","internalType":"uint8"}],"stateMutability":"view"},{"type":"function","name":"operatorCount","inputs":[],"outputs":[{"name":"","type":"uint16","internalType":"uint16"}],"stateMutability":"view"},{"type":"function","name":"operatorData","inputs":[{"name":"","type":"address","internalType":"address"}],"outputs":[{"name":"","type":"bytes","internalType":"bytes"}],"stateMutability":"view"},{"type":"function","name":"operatorSlots","inputs":[{"name":"","type":"uint8","internalType":"uint8"}],"outputs":[{"name":"","type":"address","internalType":"address"}],"stateMutability":"view"},{"type":"function","name":"operatorToSlot","inputs":[{"name":"","type":"address","internalType":"address"}],"outputs":[{"name":"","type":"uint8","internalType":"uint8"}],"stateMutability":"view"},{"type":"function","name":"owner","inputs":[],"outputs":[{"name":"","type":"address","internalType":"address"}],"stateMutability":"view"},{"type":"function","name":"pendingOwner","inputs":[],"outputs":[{"name":"","type":"address","internalType":"address"}],"stateMutability":"view"},{"type":"function","name":"proxiableUUID","inputs":[],"outputs":[{"name":"","type":"bytes32","internalType":"bytes32"}],"stateMutability":"view"},{"type":"function","name":"pullingCount","inputs":[],"outputs":[{"name":"","type":"uint16","internalType":"uint16"}],"stateMutability":"view"},{"type":"function","name":"removeNodeOperator","inputs":[{"name":"operatorAddr","type":"address","internalType":"address"}],"outputs":[],"stateMutability":"nonpayable"},{"type":"function","name":"renounceOwnership","inputs":[],"outputs":[],"stateMutability":"nonpayable"},{"type":"function","name":"setMaintenance","inputs":[{"name":"active","type":"bool","internalType":"bool"}],"outputs":[],"stateMutability":"nonpayable"},{"type":"function","name":"settings","inputs":[],"outputs":[{"name":"maxOperatorDataBytes","type":"uint16","internalType":"uint16"},{"name":"minOperators","type":"uint8","internalType":"uint8"}],"stateMutability":"view"},{"type":"function","name":"slotOccupied","inputs":[{"name":"","type":"uint8","internalType":"uint8"}],"outputs":[{"name":"","type":"bool","internalType":"bool"}],"stateMutability":"view"},{"type":"function","name":"slotPulling","inputs":[{"name":"","type":"uint8","internalType":"uint8"}],"outputs":[{"name":"","type":"bool","internalType":"bool"}],"stateMutability":"view"},{"type":"function","name":"startMigration","inputs":[{"name":"newOperatorSlots","type":"uint8[]","internalType":"uint8[]"},{"name":"replicationStrategy","type":"uint8","internalType":"uint8"}],"outputs":[],"stateMutability":"nonpayable"},{"type":"function","name":"transferOwnership","inputs":[{"name":"newOwner","type":"address","internalType":"address"}],"outputs":[],"stateMutability":"nonpayable"},{"type":"function","name":"updateNodeOperatorData","inputs":[{"name":"operatorAddress","type":"address","internalType":"address"},{"name":"newData","type":"bytes","internalType":"bytes"}],"outputs":[],"stateMutability":"nonpayable"},{"type":"function","name":"updateSettings","inputs":[{"name":"newSettings","type":"tuple","internalType":"struct Settings","components":[{"name":"maxOperatorDataBytes","type":"uint16","internalType":"uint16"},{"name":"minOperators","type":"uint8","internalType":"uint8"}]}],"outputs":[],"stateMutability":"nonpayable"},{"type":"function","name":"upgradeToAndCall","inputs":[{"name":"newImplementation","type":"address","internalType":"address"},{"name":"data","type":"bytes","internalType":"bytes"}],"outputs":[],"stateMutability":"payable"},{"type":"function","name":"version","inputs":[],"outputs":[{"name":"","type":"uint128","internalType":"uint128"}],"stateMutability":"view"},{"type":"event","name":"ClusterInitialized","inputs":[{"name":"operators","type":"tuple[]","indexed":false,"internalType":"struct NodeOperator[]","components":[{"name":"addr","type":"address","internalType":"address"},{"name":"data","type":"bytes","internalType":"bytes"}]},{"name":"settings","type":"tuple","indexed":false,"internalType":"struct Settings","components":[{"name":"maxOperatorDataBytes","type":"uint16","internalType":"uint16"},{"name":"minOperators","type":"uint8","internalType":"uint8"}]},{"name":"version","type":"uint128","indexed":false,"internalType":"uint128"}],"anonymous":false},{"type":"event","name":"Initialized","inputs":[{"name":"version","type":"uint64","indexed":false,"internalType":"uint64"}],"anonymous":false},{"type":"event","name":"MaintenanceToggled","inputs":[{"name":"operator","type":"address","indexed":true,"internalType":"address"},{"name":"active","type":"bool","indexed":false,"internalType":"bool"},{"name":"version","type":"uint128","indexed":false,"internalType":"uint128"}],"anonymous":false},{"type":"event","name":"MigrationAborted","inputs":[{"name":"id","type":"uint64","indexed":true,"internalType":"uint64"},{"name":"version","type":"uint128","indexed":false,"internalType":"uint128"}],"anonymous":false},{"type":"event","name":"MigrationCompleted","inputs":[{"name":"id","type":"uint64","indexed":true,"internalType":"uint64"},{"name":"operator","type":"address","indexed":true,"internalType":"address"},{"name":"version","type":"uint128","indexed":false,"internalType":"uint128"}],"anonymous":false},{"type":"event","name":"MigrationDataPullCompleted","inputs":[{"name":"id","type":"uint64","indexed":true,"internalType":"uint64"},{"name":"operator","type":"address","indexed":true,"internalType":"address"},{"name":"version","type":"uint128","indexed":false,"internalType":"uint128"}],"anonymous":false},{"type":"event","name":"MigrationStarted","inputs":[{"name":"id","type":"uint64","indexed":true,"internalType":"uint64"},{"name":"operators","type":"uint8[]","indexed":false,"internalType":"uint8[]"},{"name":"replicationStrategy","type":"uint8","indexed":false,"internalType":"uint8"},{"name":"keyspaceVersion","type":"uint64","indexed":false,"internalType":"uint64"},{"name":"version","type":"uint128","indexed":false,"internalType":"uint128"}],"anonymous":false},{"type":"event","name":"NodeOperatorAdded","inputs":[{"name":"operator","type":"address","indexed":true,"internalType":"address"},{"name":"slot","type":"uint8","indexed":true,"internalType":"uint8"},{"name":"operatorData","type":"bytes","indexed":false,"internalType":"bytes"},{"name":"version","type":"uint128","indexed":false,"internalType":"uint128"}],"anonymous":false},{"type":"event","name":"NodeOperatorRemoved","inputs":[{"name":"operator","type":"address","indexed":true,"internalType":"address"},{"name":"slot","type":"uint8","indexed":true,"internalType":"uint8"},{"name":"version","type":"uint128","indexed":false,"internalType":"uint128"}],"anonymous":false},{"type":"event","name":"NodeOperatorUpdated","inputs":[{"name":"operator","type":"address","indexed":true,"internalType":"address"},{"name":"slot","type":"uint8","indexed":true,"internalType":"uint8"},{"name":"operatorData","type":"bytes","indexed":false,"internalType":"bytes"},{"name":"version","type":"uint128","indexed":false,"internalType":"uint128"}],"anonymous":false},{"type":"event","name":"OwnershipTransferStarted","inputs":[{"name":"previousOwner","type":"address","indexed":true,"internalType":"address"},{"name":"newOwner","type":"address","indexed":true,"internalType":"address"}],"anonymous":false},{"type":"event","name":"OwnershipTransferred","inputs":[{"name":"previousOwner","type":"address","indexed":true,"internalType":"address"},{"name":"newOwner","type":"address","indexed":true,"internalType":"address"}],"anonymous":false},{"type":"event","name":"SettingsUpdated","inputs":[{"name":"newSettings","type":"tuple","indexed":false,"internalType":"struct Settings","components":[{"name":"maxOperatorDataBytes","type":"uint16","internalType":"uint16"},{"name":"minOperators","type":"uint8","internalType":"uint8"}]},{"name":"updatedBy","type":"address","indexed":true,"internalType":"address"},{"name":"version","type":"uint128","indexed":false,"internalType":"uint128"}],"anonymous":false},{"type":"event","name":"Upgraded","inputs":[{"name":"implementation","type":"address","indexed":true,"internalType":"address"}],"anonymous":false},{"type":"error","name":"AddressEmptyCode","inputs":[{"name":"target","type":"address","internalType":"address"}]},{"type":"error","name":"CallerNotOperator","inputs":[]},{"type":"error","name":"ERC1967InvalidImplementation","inputs":[{"name":"implementation","type":"address","internalType":"address"}]},{"type":"error","name":"ERC1967NonPayable","inputs":[]},{"type":"error","name":"FailedCall","inputs":[]},{"type":"error","name":"InsufficientOperators","inputs":[]},{"type":"error","name":"InvalidInitialization","inputs":[]},{"type":"error","name":"InvalidOperator","inputs":[]},{"type":"error","name":"InvalidOperatorData","inputs":[]},{"type":"error","name":"MaintenanceInProgress","inputs":[]},{"type":"error","name":"MigrationInProgress","inputs":[]},{"type":"error","name":"NoMigrationInProgress","inputs":[]},{"type":"error","name":"NotInitializing","inputs":[]},{"type":"error","name":"OperatorExists","inputs":[]},{"type":"error","name":"OperatorInKeyspace","inputs":[]},{"type":"error","name":"OperatorNotFound","inputs":[]},{"type":"error","name":"OperatorNotPulling","inputs":[]},{"type":"error","name":"OwnableInvalidOwner","inputs":[{"name":"owner","type":"address","internalType":"address"}]},{"type":"error","name":"OwnableUnauthorizedAccount","inputs":[{"name":"account","type":"address","internalType":"address"}]},{"type":"error","name":"SameKeyspace","inputs":[]},{"type":"error","name":"TooManyOperators","inputs":[]},{"type":"error","name":"UUPSUnauthorizedCallContext","inputs":[]},{"type":"error","name":"UUPSUnsupportedProxiableUUID","inputs":[{"name":"slot","type":"bytes32","internalType":"bytes32"}]},{"type":"error","name":"Unauthorized","inputs":[]},{"type":"error","name":"WrongMigrationId","inputs":[]}],"bytecode":{"object":"0x60a080604052346100e857306080527ff0c57e16840df040f15088dc2f81fe391c3923bec73e23a9662efc9c229c6a005460ff8160401c166100d9576002600160401b03196001600160401b03821601610073575b604051613e6a90816100ed823960805181818161086101526109890152f35b6001600160401b0319166001600160401b039081177ff0c57e16840df040f15088dc2f81fe391c3923bec73e23a9662efc9c229c6a005581527fc7f505b2f371ae2175ee4913f4499e1f2633a7b5936321eed1cdaeb6115181d290602090a15f80610054565b63f92ee8a960e01b5f5260045ffd5b5f80fdfe60806040526004361015610011575f80fd5b5f3560e01c80630df4f7841461028f5780630e89d8da1461028a57806311fcaded146102855780631a4a7c61146102215780632b78c9f7146102805780632be5079e1461027b578063333d0ef014610276578063389be1c014610271578063441604581461026c5780634e4d0f74146102675780634f1ef2861461026257806352d1902d1461025d57806354fd4d5014610258578063558a22be146102535780635f7e7b831461024e578063605f9aee14610249578063612f2f371461024457806366d1b1871461023f5780636c376cc51461023a5780636d70f7ae14610235578063715018a61461023057806375418b9d1461022b57806379ba5097146102265780637c6f315814610221578063838b7dc81461021c5780638a3d4495146102175780638da5cb5b1461021257806392265b651461020d5780639d44e71714610208578063a415c02c14610203578063ad3cb1cc146101fe578063bf31b06d146101f9578063c05665dd146101f4578063c187ba3d146101ef578063d17b27d3146101ea578063d911c632146101e5578063e06174e4146101e0578063e30c3978146101db578063e88e9749146101d65763f2fde38b146101d1575f80fd5b611ef0565b611d83565b611d4f565b611d24565b611c56565b611c16565b611bdb565b6119a3565b611968565b611921565b6118e4565b61169a565b611644565b6115e8565b6115c2565b61155a565b61041d565b61150e565b611308565b611096565b611042565b61100c565b610fc8565b610e3b565b610d1b565b610cba565b6109f4565b6109ce565b610977565b61081f565b610762565b610741565b610721565b6106d2565b610479565b61043e565b6103b1565b610348565b6102a9565b6001600160a01b038116036102a557565b5f80fd5b346102a55760403660031901126102a5576004356102c681610294565b602435906001600160401b0382116102a557366023830112156102a5578160040135906001600160401b0382116102a55736602483850101116102a5576024610310930190612124565b005b90602080835192838152019201905f5b81811061032f5750505090565b825160ff16845260209384019390920191600101610322565b346102a5575f3660031901126102a557600b5460011660028110156103a1576103979060011b61038260ff6008830154169160070161221b565b90604051928392604084526040840190610312565b9060208301520390f35b61161c565b60ff8116036102a557565b346102a55760203660031901126102a55760ff6004356103d0816103a6565b16805f52600360205260ff60405f2054161561040e575f908152600260209081526040918290205491516001600160a01b03909216825290f35b0390f35b63ae4207eb60e01b5f5260045ffd5b346102a5575f3660031901126102a557602061ffff60065416604051908152f35b346102a5575f3660031901126102a55760206040516101008152f35b60409060031901126102a557600490565b908160409103126102a55790565b346102a55760403660031901126102a5576104933661045a565b61049b613739565b61ffff600654166020820135906104b1826103a6565b60ff821611610556576104fc906104dc83356104cc81610cf8565b61ffff1661ffff195f5416175f55565b6104e5816103a6565b62ff00005f549160101b169062ff00001916175f55565b7fc4537136927baa4e0a3e9e5518a9fce0fde1cf0b4a4ddb07effde98d41d3b10561055161053a6105356001546001600160801b031690565b6120ad565b610543816120cf565b604051918291339583612821565b0390a2005b6330e40a8160e11b5f5260045ffd5b90600182811c92168015610593575b602083101461057f57565b634e487b7160e01b5f52602260045260245ffd5b91607f1691610574565b634e487b7160e01b5f52604160045260245ffd5b604081019081106001600160401b038211176105cc57604052565b61059d565b61016081019081106001600160401b038211176105cc57604052565b90601f801991011681019081106001600160401b038211176105cc57604052565b9060405191825f82549261062184610565565b808452936001811690811561068c5750600114610648575b50610646925003836105ed565b565b90505f9291925260205f20905f915b818310610670575050906020610646928201015f610639565b6020919350806001915483858901015201910190918492610657565b90506020925061064694915060ff191682840152151560051b8201015f610639565b805180835260209291819084018484015e5f828201840152601f01601f1916010190565b346102a55760203660031901126102a5576004356106ef81610294565b60018060a01b03165f52600560205261040a61070d60405f2061060e565b6040519182916020835260208301906106ae565b346102a5575f3660031901126102a557602060ff600f5416604051908152f35b346102a5575f3660031901126102a557602061ffff600d5416604051908152f35b346102a55760203660031901126102a55760043561077f81610294565b60018060a01b03165f526004602052602060ff60405f205416604051908152f35b60405190610646610160836105ed565b6001600160401b0381116105cc57601f01601f191660200190565b9291926107d7826107b0565b916107e560405193846105ed565b8294818452818301116102a5578281602093845f960137010152565b9080601f830112156102a55781602061081c933591016107cb565b90565b60403660031901126102a55760043561083781610294565b6024356001600160401b0381116102a557610856903690600401610801565b906001600160a01b037f000000000000000000000000000000000000000000000000000000000000000016308114908115610955575b5061094657610899613739565b6040516352d1902d60e01b8152916020836004816001600160a01b0386165afa5f9381610915575b506108e257634c9c8ce360e01b5f526001600160a01b03821660045260245ffd5b905f80516020613dd58339815191528303610901576103109250613a4c565b632a87526960e21b5f52600483905260245ffd5b61093891945060203d60201161093f575b61093081836105ed565b810190613759565b925f6108c1565b503d610926565b63703e46dd60e11b5f5260045ffd5b5f80516020613dd5833981519152546001600160a01b0316141590505f61088c565b346102a5575f3660031901126102a5577f00000000000000000000000000000000000000000000000000000000000000006001600160a01b031630036109465760206040515f80516020613dd58339815191528152f35b346102a5575f3660031901126102a55760206001600160801b0360015416604051908152f35b346102a55760203660031901126102a5576004356001600160401b0381116102a557610a2490369060040161046b565b610a2c613739565b61010061ffff610a3f60065461ffff1690565b161015610cab576001600160a01b03610a5782612860565b1615610c9c5760ff610a8e610a87610a6e84612860565b6001600160a01b03165f90815260046020526040902090565b5460ff1690565b1615801590610c38575b610c2957610c247f170bf5a9733d1e9d97b286096f8b6366155678e76d5c4e4197c0e846a9b8278460ff60208401610ae2610add610ad6838861286a565b36916107cb565b613715565b610beb610aed613768565b91610b2e610afa88612860565b610b0f8560ff165f52600260205260405f2090565b80546001600160a01b0319166001600160a01b03909216919091179055565b610b53610b468460ff165f52600360205260405f2090565b805460ff19166001179055565b610b7283610b63610a6e8a612860565b9060ff1660ff19825416179055565b610baa610b7f828961286a565b90610ba5610b8c8b612860565b6001600160a01b03165f90815260056020526040902090565b611fd1565b610bd4610bc2610bbd60065461ffff1690565b61289c565b61ffff1661ffff196006541617600655565b610bdc613836565b610be587612860565b9661286a565b610c036105356001979397546001600160801b031690565b90610c0d826120cf565b604051948594169760018060a01b031696846120eb565b0390a3005b632a322e2b60e01b5f5260045ffd5b505f80526002602052610c737fac33ff75c19e70fe83507db0d683fd3465c996598dc972688b7ace676c89077b5b546001600160a01b031690565b610c8b610c7f83612860565b6001600160a01b031690565b6001600160a01b0390911614610a98565b63ccea9e6f60e01b5f5260045ffd5b636055dca160e01b5f5260045ffd5b346102a55760203660031901126102a55760ff600435610cd9816103a6565b165f526002602052602060018060a01b0360405f205416604051908152f35b61ffff8116036102a557565b6001600160401b0381116105cc5760051b60200190565b346102a5573660031901606081126102a5576040136102a557604051610d40816105b1565b600435610d4c81610cf8565b8152602435610d5a816103a6565b60208201526044356001600160401b0381116102a557366023820112156102a557806004013591610d8a83610d04565b91610d9860405193846105ed565b8383526024602084019460051b820101903682116102a55760248101945b828610610dc75761031085856128af565b85356001600160401b0381116102a5578201604060231982360301126102a55760405191610df4836105b1565b6024820135610e0281610294565b83526044820135926001600160401b0384116102a557610e2c602094936024869536920101610801565b83820152815201950194610db6565b346102a55760203660031901126102a55760043580151581036102a5578015610f7d57600e546001600160a01b0316610f6e57600e80546001600160a01b03191633179055610eaf610e8e610c7f610ff1565b600e805460ff60a01b1916339290921460a01b60ff60a01b16919091179055565b610eba610c7f610ff1565b3303610f26575b7f1c1d5017b8b1542dedc14e2b0d29098feed77a27d5a6c2c18e71a432b67b2620610551610efa6105356001546001600160801b031690565b610f03816120cf565b6040805194151585526001600160801b0390911660208501523393918291820190565b335f818152600460205260409020610f5a90610c7f90610c6690610f4990610a87565b60ff165f52600260205260405f2090565b14610ec1575b6282b42960e81b5f5260045ffd5b631ddb00d960e21b5f5260045ffd5b600e546001600160a01b03166001600160a01b031633141580610fb4575b610f6057600e80546001600160a81b0319169055610eaf565b50610fc0610c7f610ff1565b331415610f9b565b346102a5575f3660031901126102a55760206001600160401b03600b5460401c16604051908152f35b5f80516020613db5833981519152546001600160a01b031690565b346102a5575f3660031901126102a557600e54604080516001600160a01b038316815260a09290921c60ff161515602083015290f35b346102a55760203660031901126102a55760043561105f81610294565b6001600160a01b039081165f8181526004602090815260408083205460ff1683526002825291829020549151919093169091148152f35b346102a5575f3660031901126102a5576110ae613739565b5f80516020613e1583398151915280546001600160a01b03199081169091555f80516020613db5833981519152805491821690555f906001600160a01b03167f8be0079c531659141344cd1fd0a4f28419497f9722a3daafe3b4186f6b6457e08280a3005b90602080835192838152019201905f5b8181106111305750505090565b82516001600160a01b0316845260209384019390920191600101611123565b9080602083519182815201916020808360051b8301019401925f915b83831061117a57505050505090565b9091929394602080611198600193601f1986820301875289516106ae565b9701930193019193929061116b565b60408201915f815b600282106111be575050505090565b9091929360208082866001940385528751908260ff816111e78551604086526040860190610312565b940151169101529601920192019092916111af565b602080825282516001600160a01b03169082015261081c90602083810151805161ffff166040840152015160ff16606082015260408301516001600160801b0316608082015260608301516001600160401b031660a0820152608083015161ffff1660c08201526101806101406112e66112bb6112a461128d60a08901516101a060e08901526101c0880190611113565b60c0890151878203601f190161010089015261114f565b60e0880151868203601f19016101208801526111a7565b6101008701516001600160401b031685840152610120870151858203601f1901610160870152610312565b94015180516001600160a01b0316919092019081526020918201511515910152565b346102a5575f3660031901126102a557611320612efc565b50604051636c88e31960e11b81525f81600481305afa9081156114e7575f916114ec575b5061134f8151613028565b5f5b825181101561139e578061138261137d610b8c61137060019588612a03565b516001600160a01b031690565b61060e565b61138c8285612a03565b526113978184612a03565b5001611351565b5060405163d17b27d360e01b8152915f83600481305afa9081156114e75761040a935f926114bf575b5061149f906113d4610ff1565b936113e76001546001600160801b031690565b91611477600b5461146c611401826001600160401b031690565b61145c61142461141460065461ffff1690565b9460401c6001600160401b031690565b9761143f6114306107a0565b6001600160a01b03909d168d52565b6114476130f4565b60208d01526001600160801b031660408c0152565b6001600160401b031660608a0152565b61ffff166080880152565b60a086015260c0850152611489613117565b60e08501526001600160401b0316610100840152565b6101208201526114ad61316d565b610140820152604051918291826111fc565b61149f9192506114e0903d805f833e6114d881836105ed565b810190613071565b91906113c7565b61301d565b61150891503d805f833e61150081836105ed565b810190612f9a565b5f611344565b346102a5575f3660031901126102a5575f80516020613e1583398151915254336001600160a01b03909116036115475761031033613924565b63118cdaa760e01b5f523360045260245ffd5b346102a55760403660031901126102a5576004356001600160401b0381116102a557366023820112156102a5578060040135906001600160401b0382116102a5573660248360051b830101116102a5576103109160248035926115bc846103a6565b01613198565b346102a5575f3660031901126102a55760206001600160401b03600b5416604051908152f35b346102a5575f3660031901126102a5575f80516020613db5833981519152546040516001600160a01b039091168152602090f35b634e487b7160e01b5f52603260045260245ffd5b60028110156103a15760011b600701905f90565b346102a55760203660031901126102a55760043560028110156102a55760011b6008015460405160ff919091168152602090f35b60209060031901126102a5576004356001600160401b03811681036102a55790565b346102a5576116a836611678565b61ffff6116b8600d5461ffff1690565b16156118d5576001600160401b036116eb6116df600b546001600160401b039060401c1690565b6001600160401b031690565b9116036118c657335f90815260046020526040902061170990610a87565b3360018060a01b03611729610c668460ff165f52600260205260405f2090565b16036118b75761174e61174a610a878360ff165f52600c60205260405f2090565b1590565b6118a85761176a6117749160ff165f52600c60205260405f2090565b805460ff19169055565b6117a3611791611787600d5461ffff1690565b5f190161ffff1690565b61ffff1661ffff19600d541617600d55565b6117ba6117b3600d5461ffff1690565b61ffff1690565b61183357600b5460401c6001600160401b03166117e26105356001546001600160801b031690565b6117eb816120cf565b6040516001600160801b03909116815233916001600160401b0316907f01269879535f40ee8957e15e160bf1866c5e2728ff0cbc583d848821e2639b4e908060208101610c24565b600b5460401c6001600160401b03166118576105356001546001600160801b031690565b611860816120cf565b6040516001600160801b03909116815233916001600160401b0316907faf5e90e72015f43138f66b4cd08bd1dfa2839030104f22a00af843fe847c6d19908060208101610c24565b6313a9a39160e31b5f5260045ffd5b63a5523ee560e01b5f5260045ffd5b631a0fd8c760e21b5f5260045ffd5b631821b37560e31b5f5260045ffd5b346102a5575f3660031901126102a55760606001600160401b03600b5460401c1661ffff600d541660405191825280602083015215156040820152f35b346102a5575f3660031901126102a55761040a6040516119426040826105ed565b60058152640352e302e360dc1b60208201526040519182916020835260208301906106ae565b346102a55760203660031901126102a55760ff600435611987816103a6565b165f52600c602052602060ff60405f2054166040519015158152f35b346102a55760203660031901126102a5576004356119c081610294565b6119c8613739565b6001600160a01b0381165f9081526004602052604090206119e890610a87565b90611a01610c668360ff165f52600260205260405f2090565b6001600160a01b0380831692911682900361040e5760065461ffff1661ffff611a38611a325f5460ff9060101c1690565b60ff1690565b911611156105565761ffff611a50600d5461ffff1690565b1615611ba457611a5f8361398f565b8015611b95575b611b8657611ad6611adb915b611a9a611a8a8660ff165f52600260205260405f2090565b80546001600160a01b0319169055565b611ab261176a8660ff165f52600360205260405f2090565b6001600160a01b0381165f908152600460205260409020805460ff19169055610b8c565b6135e9565b611af3610bc2611aee60065461ffff1690565b613648565b611b02611a32600f5460ff1690565b9160ff8116928310611b6c575b507f09f530ee5721466a79a706ccbc5875d7f2fec6ff088f543aa3e838ac941aa951610c24611b496105356001546001600160801b031690565b611b52816120cf565b6040516001600160801b0390911681529081906020820190565b611b809060ff1660ff19600f541617600f55565b5f611b0f565b63997ac2d360e01b5f5260045ffd5b50611b9f836139d3565b611a66565b611bcb611bc5611a32611bbf600b546001600160401b031690565b60011690565b84613a08565b611b8657611ad6611adb91611a72565b346102a55760203660031901126102a55760ff600435611bfa816103a6565b165f526003602052602060ff60405f2054166040519015158152f35b346102a5575f3660031901126102a55761040a611c31613666565b604051918291602083526020830190610312565b90602061081c928181520190611113565b346102a5575f3660031901126102a557611c766117b360065461ffff1690565b611c7f81612af1565b5f805b61010060ff82161080611d1b575b15611d0257611cad610a878260ff165f52600360205260405f2090565b611cbd575b60010160ff16611c82565b9060018060ff92611cf8611cdf610c668760ff165f52600260205260405f2090565b611ce98389612a03565b6001600160a01b039091169052565b0192915050611cb2565b61040a83611d0f81613c62565b60405191829182611c45565b50838210611c90565b346102a5575f3660031901126102a55760405f5460ff82519161ffff8116835260101c166020820152f35b346102a5575f3660031901126102a5575f80516020613e15833981519152546040516001600160a01b039091168152602090f35b346102a557611d9136611678565b611d99613739565b61ffff611da9600d5461ffff1690565b16156118d557600b54906001600160401b03611dca604084901c82166116df565b9116036118c657611def611dea611bbf611df5936001600160401b031690565b611630565b5061221b565b5f5b8151811015611e345780611e2e61176a611e1d611e1660019587612a03565b5160ff1690565b60ff165f52600c60205260405f2090565b01611df7565b611e4461ffff19600d5416600d55565b611e7d611e61611e5c600b546001600160401b031690565b613700565b6001600160401b03166001600160401b0319600b541617600b55565b600b5460401c6001600160401b03167ff73240422246f63ed633ef3ce0726b8ab8fb69d46c8a4e5ecb0b2922668674a16001600160401b03611eca6105356001546001600160801b031690565b92611ed4846120cf565b6040516001600160801b03909416845216918060208101610551565b346102a55760203660031901126102a557600435611f0d81610294565b611f15613739565b5f80516020613e1583398151915280546001600160a01b0319166001600160a01b039283169081179091555f80516020613db5833981519152549091167f38d16b8cac22d99fc7c124b9cd0de2d3fa1faef420bfe791d8c362d765e227005f80a3005b818110611f83575050565b5f8155600101611f78565b9190601f8111611f9d57505050565b610646925f5260205f20906020601f840160051c83019310611fc7575b601f0160051c0190611f78565b9091508190611fba565b9092916001600160401b0381116105cc57611ff681611ff08454610565565b84611f8e565b5f601f82116001146120345781906120259394955f92612029575b50508160011b915f199060031b1c19161790565b9055565b013590505f80612011565b601f19821694612047845f5260205f2090565b915f5b878110612081575083600195969710612068575b505050811b019055565b01355f19600384901b60f8161c191690555f808061205e565b9092602060018192868601358155019401910161204a565b634e487b7160e01b5f52601160045260245ffd5b6001600160801b03166001600160801b0381146120ca5760010190565b612099565b6001600160801b03166001600160801b03196001541617600155565b916060816001600160801b039260209497969760408752816040880152838701375f828287010152601f80199101168401019416910152565b90916001600160a01b03821691903383141580612207575b610f605761214e610add3683876107cb565b6001600160a01b0382165f90815260046020526040902061216e90610a87565b8361218a610c7f610c668460ff165f52600260205260405f2090565b0361040e57612202826121d560ff9488610ba57fe69bedb27cdb1709feb6a744e2030bc5ca0e315bb1fb40df07e09e05a86969a79860018060a01b03165f52600560205260405f2090565b6121ea6105356001546001600160801b031690565b906121f4826120cf565b6040519485941697846120eb565b0390a3565b50612213610c7f610ff1565b33141561213c565b6040518154808252909291839061223960208301915f5260205f2090565b925f905b80601f83011061264457610646945491818110612630575b818110612618575b818110612600575b8181106125e8575b8181106125d1575b8181106125b9575b8181106125a1575b818110612589575b818110612571575b818110612559575b818110612541575b818110612529575b818110612511575b8181106124f9575b8181106124e1575b8181106124c9575b8181106124b1575b818110612499575b818110612481575b818110612469575b818110612451575b818110612439575b818110612421575b818110612409575b8181106123f1575b8181106123d9575b8181106123c1575b8181106123a9575b818110612391575b818110612379575b818110612361575b10612353575b5003836105ed565b60f81c81526020015f61234b565b60f083901c60ff168452926001906020019301612345565b60e883901c60ff16845292600190602001930161233d565b60e083901c60ff168452926001906020019301612335565b60d883901c60ff16845292600190602001930161232d565b60d083901c60ff168452926001906020019301612325565b60c883901c60ff16845292600190602001930161231d565b60c083901c60ff168452926001906020019301612315565b60b883901c60ff16845292600190602001930161230d565b60b083901c60ff168452926001906020019301612305565b60a883901c60ff1684529260019060200193016122fd565b60a083901c60ff1684529260019060200193016122f5565b609883901c60ff1684529260019060200193016122ed565b609083901c60ff1684529260019060200193016122e5565b608883901c60ff1684529260019060200193016122dd565b608083901c60ff1684529260019060200193016122d5565b607883901c60ff1684529260019060200193016122cd565b607083901c60ff1684529260019060200193016122c5565b606883901c60ff1684529260019060200193016122bd565b606083901c60ff1684529260019060200193016122b5565b605883901c60ff1684529260019060200193016122ad565b605083901c60ff1684529260019060200193016122a5565b604883901c60ff16845292600190602001930161229d565b604083901c60ff168452926001906020019301612295565b603883901c60ff16845292600190602001930161228d565b603083901c60ff168452926001906020019301612285565b602883901c60ff16845292600190602001930161227d565b602083811c60ff1685529093600191019301612275565b601883901c60ff16845292600190602001930161226d565b601083901c60ff168452926001906020019301612265565b600883901c60ff16845292600190602001930161225d565b60ff83168452926001906020019301612255565b91602091935061040060019161280987546126648360ff831660ff169052565b600881901c60ff1683870152601081901c60ff166040840152601881901c60ff16606084015280861c60ff166080840152602881901c60ff1660a0840152603081901c60ff1660c0840152603881901c60ff1660e0840152604081901c60ff16610100840152604881901c60ff16610120840152605081901c60ff16610140840152605881901c60ff16610160840152606081901c60ff16610180840152606881901c60ff166101a0840152607081901c60ff166101c0840152607881901c60ff166101e0840152608081901c60ff16610200840152608881901c60ff16610220840152609081901c60ff16610240840152609881901c60ff1661026084015260a081901c60ff1661028084015260a881901c60ff166102a084015260b081901c60ff166102c084015260b881901c60ff166102e084015260c081901c60ff1661030084015260c881901c60ff1661032084015260d081901c60ff1661034084015260d881901c60ff1661036084015260e081901c60ff1661038084015260e881901c60ff166103a084015260f081901c60ff166103c084015260f81c6103e0830152565b01940192018592939161223d565b3561081c816103a6565b9092916001600160801b0360409160ff6020606086019761ffff813561284681610cf8565b1687520135612854816103a6565b16602085015216910152565b3561081c81610294565b903590601e19813603018212156102a557018035906001600160401b0382116102a5576020019181360383136102a557565b61ffff1661ffff81146120ca5760010190565b5f80516020613df583398151915254916001600160401b036128e1604085901c60ff16155b946001600160401b031690565b16801590816129fb575b60011490816129f1575b1590816129e8575b506129d957612940918361293760016001600160401b03195f80516020613df58339815191525416175f80516020613df583398151915255565b6129a457612d04565b61294657565b61297060ff60401b195f80516020613df583398151915254165f80516020613df583398151915255565b604051600181527fc7f505b2f371ae2175ee4913f4499e1f2633a7b5936321eed1cdaeb6115181d29080602081015b0390a1565b6129d4600160401b60ff60401b195f80516020613df58339815191525416175f80516020613df583398151915255565b612d04565b63f92ee8a960e01b5f5260045ffd5b9050155f6128fd565b303b1591506128f5565b8491506128eb565b80518210156103a15760209160051b010190565b91909182516001600160401b0381116105cc57612a3881611ff08454610565565b6020601f8211600114612a725781906120259394955f92612a675750508160011b915f199060031b1c19161790565b015190505f80612011565b601f19821690612a85845f5260205f2090565b915f5b818110612abe57509583600195969710612aa657505050811b019055565b01515f1960f88460031b161c191690555f808061205e565b9192602060018192868b015181550194019201612a88565b60405190612ae56020836105ed565b5f808352366020840137565b90612afb82610d04565b612b0860405191826105ed565b8281528092612b19601f1991610d04565b0190602036910137565b90600160401b81116105cc578154818355808210612b4057505050565b610646925f52601f60205f20918180850160051c8401941680612b6a575b500160051c0190611f78565b5f198501908154905f199060200360031b1c1690555f612b5e565b908051906001600160401b0382116105cc576020612bb291612ba78486612b23565b01925f5260205f2090565b8160051c915f5b838110612c245750601f198116900380612bd4575b50505050565b925f935f5b818110612bee5750505001555f808080612bce565b9091946020612c1a60019284612c058a5160ff1690565b919060ff809160031b9316831b921b19161790565b9601929101612bd9565b5f805b60208110612c3c575083820155600101612bb9565b95906020612c5260019289612c05865160ff1690565b92019601612c27565b9291906080840160808552815180915260a0850190602060a08260051b8801019301915f905b828210612cc157505050509060606106469294612cb2602082015f60ff6020915461ffff8116845260101c16910152565b01906001600160801b03169052565b90919293602080612cf6600193609f198c82030186526040838a51878060a01b038151168452015191818582015201906106ae565b960192019201909291612c81565b610100825111610cab578151612d21611a32602084015160ff1690565b1161055657612d6990612d32613aee565b612d3b336138e9565b60209061ffff81511661ffff195f5416175f55015162ff0000805f549260101b16169062ff00001916175f55565b5f5b8151811015612e3157612d7e8183612a03565b51906020820191612d8f8351613715565b60ff821690612daf610c7f610c668460ff165f52600260205260405f2090565b610c2957612e26610b8c600195612e17612e2b95612deb612dd6875160018060a01b031690565b610b0f8360ff165f52600260205260405f2090565b612e03610b468260ff165f52600360205260405f2090565b8551610b63906001600160a01b0316610a6e565b5192516001600160a01b031690565b612a17565b01612d6b565b5090612e5a8251612e46610bc28261ffff1690565b600f805460ff191660ff8316179055612af1565b905f5b8351811015612e885780612e8260ff60019316612e7a8387612a03565b9060ff169052565b01612e5d565b5091612eb67f507a218c0435bc01f2758938419a06a69f7a024c96a0995dab79deb3da141b56926007612b85565b612ecb6105356001546001600160801b031690565b90612ed5826120cf565b61299f60405192839283612c5b565b60405190612ef1826105b1565b5f6020838281520152565b60405190612f09826105d1565b815f8152612f15612ee4565b60208201525f60408201525f60608201525f6080820152606060a0820152606060c08201526040805190612f4a6040836105ed565b5f5b818110612f7957505060e08201525f6101008201526060610120820152610140612f74612ee4565b910152565b6020908251612f87816105b1565b606081525f838201528185015201612f4c565b6020818303126102a5578051906001600160401b0382116102a557019080601f830112156102a5578151612fcd81610d04565b92612fdb60405194856105ed565b81845260208085019260051b8201019283116102a557602001905b8282106130035750505090565b60208091835161301281610294565b815201910190612ff6565b6040513d5f823e3d90fd5b9061303282610d04565b61303f60405191826105ed565b8281528092613050601f1991610d04565b01905f5b82811061306057505050565b806060602080938501015201613054565b6020818303126102a5578051906001600160401b0382116102a557019080601f830112156102a55781516130a481610d04565b926130b260405194856105ed565b81845260208085019260051b8201019283116102a557602001905b8282106130da5750505090565b6020809183516130e9816103a6565b8152019101906130cd565b60405190613101826105b1565b5f5461ffff8116835260101c60ff166020830152565b60405190613124826105b1565b60075f835b6002821061313657505050565b60026020600192604051613149816105b1565b6131528761221b565b815260ff858801541683820152815201930191019091613129565b6040519061317a826105b1565b600e546001600160a01b038116835260a01c60ff1615156020830152565b91906131a2613739565b600e546001600160a01b0316610f6e5761ffff6131c2600d5461ffff1690565b1661345a576101008111610cab5760018111613411575b5f5b8181106133c35750600d805461ffff191661ffff8316179055600b5461320c611dea6001600160401b038316611bbf565b50600181015460ff858116911614806133b9575b61333b575b50916133366001600160401b039261329c61327361326e7fb95d8605e761f395e78cb1b5a269af6a9011d872bcb01715568de824b136435d976001600160401b039060401c1690565b6134a5565b67ffffffffffffffff60401b600b549160401b169067ffffffffffffffff60401b191617600b55565b6132b4611e6161326e600b546001600160401b031690565b6132ee8360016132d2611dea611bbf600b546001600160401b031690565b506132de858b836134c2565b019060ff1660ff19825416179055565b600b5492613308604085901c6001600160401b03166128d4565b9061331e6105356001546001600160801b031690565b92613328846120cf565b604051968796169886613579565b0390a2565b80549193916001915f5b82811061336a575b50505061335b57915f613225565b63d990d65560e01b5f5260045ffd5b8760ff61339d611a32613398858b613392613385838b613487565b905460ff9160031b1c1690565b96613469565b612817565b9116036133ac57600101613345565b505050505f80808061334d565b5082815414613220565b6133d1613398828487613469565b906133ed61174a610a878460ff165f52600360205260405f2090565b61040e5761340b610b4660019360ff165f52600c60205260405f2090565b016131db565b60015b81811061342157506131d9565b61342f613398828487613469565b60ff61344a611a3261339861344386613479565b878a613469565b91161115610c9c57600101613414565b6378a4646d60e11b5f5260045ffd5b91908110156103a15760051b0190565b5f198101919082116120ca57565b91909180548310156103a1575f52601f60205f208360051c01921690565b6001600160401b03166001600160401b0381146120ca5760010190565b91906001600160401b0382116105cc576134ea906134e08385612b23565b925f5260205f2090565b8160051c915f5b8381106135445750601f19811690038061350b5750505050565b925f935f5b8181106135255750505001555f808080612bce565b909194602061353a60019284612c058a612817565b9601929101613510565b5f805b6020811061355c5750838201556001016134f1565b9590602061357060019289612c0586612817565b92019601613547565b9391959492958060808601608087525260a0850191905f5b8181106135c557505050916001600160401b036001600160801b039260ff6060959816602087015216604085015216910152565b90919260208060019260ff87356135db816103a6565b168152019401929101613591565b6135f38154610565565b90816135fd575050565b81601f5f931160011461360e575055565b8183526020832061362a91601f0160051c810190600101611f78565b808252602082209081548360011b9084198560031b1c191617905555565b61ffff1680156120ca575f190190565b5f1981146120ca5760010190565b600d5461ffff1680156136f7576136809061ffff16612af1565b9061369c611def611dea611bbf600b546001600160401b031690565b5f805b82518110156136f157806136be610a87611e1d611e1660019588612a03565b6136c9575b0161369f565b6136ec6136d9611e168387612a03565b612e7a6136e586613658565b9589612a03565b6136c3565b50835250565b5061081c612ad6565b6001600160401b031680156120ca575f190190565b80511561372a575161ffff5f54161061372a57565b635e9b2d5360e01b5f5260045ffd5b5f80516020613db5833981519152546001600160a01b0316330361154757565b908160209103126102a5575190565b600f5460ff1690610100821080613803575b61064657815b60ff808216106137d957505f9160ff16915b8260ff8216106137ab57636055dca160e01b5f5260045ffd5b6137c661174a610a878360ff165f52600360205260405f2090565b6137d55760010160ff16613792565b9150565b6137f461174a610a878360ff165f52600360205260405f2090565b6137d55760010160ff16613780565b5061381f61174a610a878460ff165f52600360205260405f2090565b61377a565b60ff60019116019060ff82116120ca57565b61384a613845600f5460ff1690565b613824565b60ff808216106138bf57505f5b613866611a32600f5460ff1690565b60ff8216116138ad5761388a61174a610a878360ff165f52600360205260405f2090565b6138995760010160ff16613857565b6106469060ff1660ff19600f541617600f55565b5061064660ff8019600f541617600f55565b6138da61174a610a878360ff165f52600360205260405f2090565b6138995760010160ff1661384a565b6138f1613aee565b6138f9613aee565b6001600160a01b038116156139115761064690613924565b631e4fbdf760e01b5f525f60045260245ffd5b5f80516020613e1583398151915280546001600160a01b03199081169091555f80516020613db583398151915280549182166001600160a01b0393841690811790915591167f8be0079c531659141344cd1fd0a4f28419497f9722a3daafe3b4186f6b6457e05f80a3565b613999600761221b565b905f5b82518110156139cc5760ff6139b18285612a03565b511660ff8316146139c45760010161399c565b505050600190565b5050505f90565b6139dd600961221b565b905f5b82518110156139cc5760ff6139f58285612a03565b511660ff8316146139c4576001016139e0565b9060028110156103a157613a219060011b60070161221b565b905f5b82518110156139cc5760ff613a398285612a03565b511660ff8316146139c457600101613a24565b90813b15613acd575f80516020613dd583398151915280546001600160a01b0319166001600160a01b0384169081179091557fbc7cd75a20ee27fd9adebab32041f755214dbc6bffa90cc0225b39da2e5c2d3b5f80a2805115613ab557613ab291613d16565b50565b505034613abe57565b63b398979f60e01b5f5260045ffd5b50634c9c8ce360e01b5f9081526001600160a01b0391909116600452602490fd5b60ff5f80516020613df58339815191525460401c1615613b0a57565b631afcd79f60e31b5f5260045ffd5b6101808284031115613be957815183830160011c6020600160ff1b0316601f84160180519091908181811015613be0575b5085518081831015613bcd575b5086528252835251928092805b5b60200180518611613b6557935b830180518610613b7257938480821015613b93578151815183529052613b64565b50509193506020830190808203613bbc575b5050808203613bb357505050565b61064692613b19565b613bc69185613b19565b5f80613ba5565b909190808410613b57579291505f613b57565b9150905f613b4a565b9190926020840193845181511015613c54575b505b60208401828111613c4d576020848251960101805186811115613c44579085915b602082015201805186811115613c3757908591613c1f565b5060200194909452613bfe565b50509350613bfe565b5092505050565b84518151865290525f613bfc565b80519060028210918060051b9215613c7957505050565b60208201939282019291835b8581519180601f190192835111613c9d575050613c85565b90915094919293941115613d0e57805b80519080601f190191825110613cc35750613cad565b86929394959691501115613ce4575f8352613ce19190601f19613b19565b52565b9250602091505b8251815184528152910190601f190180821015613d0a57602090613ceb565b5050565b509192505050565b5f8061081c93602081519101845af43d15613d52573d91613d36836107b0565b92613d4460405194856105ed565b83523d5f602085013e613d56565b6060915b90613d7a5750805115613d6b57805190602001fd5b63d6bda27560e01b5f5260045ffd5b81511580613dab575b613d8b575090565b639996b31560e01b5f9081526001600160a01b0391909116600452602490fd5b50803b15613d8356fe9016d09d72d40fdae2fd8ceac6b6234c7706214fd39c1cd1e609a0528c199300360894a13ba1a3210667c828492db98dca3e2076cc3735a920a3ca505d382bbcf0c57e16840df040f15088dc2f81fe391c3923bec73e23a9662efc9c229c6a00237e158222e3e6968b72b9db0d8043aacf074ad9f650f0d1606b4d82ee432c00a2646970667358221220acd2bf0e37a7ead9139535fd35e9c954728e0ed2568014620ffbfe437d9efd7b64736f6c634300081a0033","linkReferences":{}},"methodIdentifiers":{"MAX_OPERATORS()":"2b78c9f7","UPGRADE_INTERFACE_VERSION()":"ad3cb1cc","abortMigration(uint64)":"e88e9749","acceptOwnership()":"79ba5097","addNodeOperator((address,bytes))":"558a22be","completeMigration(uint64)":"9d44e717","getAllOperators()":"d911c632","getCurrentKeyspace()":"0e89d8da","getMigrationStatus()":"a415c02c","getOperatorAt(uint8)":"11fcaded","getOperatorCount()":"1a4a7c61","getPullingOperators()":"d17b27d3","getView()":"75418b9d","initialize((uint16,uint8),(address,bytes)[])":"605f9aee","isOperator(address)":"6d70f7ae","keyspaceVersion()":"8a3d4495","keyspaces(uint256)":"92265b65","maintenance()":"6c376cc5","migrationId()":"66d1b187","nextFreeSlot()":"389be1c0","operatorCount()":"7c6f3158","operatorData(address)":"333d0ef0","operatorSlots(uint8)":"5f7e7b83","operatorToSlot(address)":"4e4d0f74","owner()":"8da5cb5b","pendingOwner()":"e30c3978","proxiableUUID()":"52d1902d","pullingCount()":"44160458","removeNodeOperator(address)":"c05665dd","renounceOwnership()":"715018a6","setMaintenance(bool)":"612f2f37","settings()":"e06174e4","slotOccupied(uint8)":"c187ba3d","slotPulling(uint8)":"bf31b06d","startMigration(uint8[],uint8)":"838b7dc8","transferOwnership(address)":"f2fde38b","updateNodeOperatorData(address,bytes)":"0df4f784","updateSettings((uint16,uint8))":"2be5079e","upgradeToAndCall(address,bytes)":"4f1ef286","version()":"54fd4d50"},"id":56}