{"abi":[{"type":"constructor","inputs":[],"stateMutability":"nonpayable"},{"type":"function","name":"MAX_OPERATORS","inputs":[],"outputs":[{"name":"","type":"uint16","internalType":"uint16"}],"stateMutability":"view"},{"type":"function","name":"UPGRADE_INTERFACE_VERSION","inputs":[],"outputs":[{"name":"","type":"string","internalType":"string"}],"stateMutability":"view"},{"type":"function","name":"abortMigration","inputs":[{"name":"id","type":"uint64","internalType":"uint64"}],"outputs":[],"stateMutability":"nonpayable"},{"type":"function","name":"acceptOwnership","inputs":[],"outputs":[],"stateMutability":"nonpayable"},{"type":"function","name":"addNodeOperator","inputs":[{"name":"operator","type":"tuple","internalType":"struct NodeOperator","components":[{"name":"addr","type":"address","internalType":"address"},{"name":"data","type":"bytes","internalType":"bytes"}]}],"outputs":[],"stateMutability":"nonpayable"},{"type":"function","name":"completeMigration","inputs":[{"name":"id","type":"uint64","internalType":"uint64"}],"outputs":[],"stateMutability":"nonpayable"},{"type":"function","name":"getAllOperators","inputs":[],"outputs":[{"name":"","type":"address[]","internalType":"address[]"}],"stateMutability":"view"},{"type":"function","name":"getCurrentKeyspace","inputs":[],"outputs":[{"name":"","type":"uint8[]","internalType":"uint8[]"},{"name":"","type":"uint8","internalType":"uint8"}],"stateMutability":"view"},{"type":"function","name":"getMigrationStatus","inputs":[],"outputs":[{"name":"id","type":"uint64","internalType":"uint64"},{"name":"remaining","type":"uint16","internalType":"uint16"},{"name":"inProgress","type":"bool","internalType":"bool"}],"stateMutability":"view"},{"type":"function","name":"getOperatorAt","inputs":[{"name":"slot","type":"uint8","internalType":"uint8"}],"outputs":[{"name":"","type":"address","internalType":"address"}],"stateMutability":"view"},{"type":"function","name":"getOperatorCount","inputs":[],"outputs":[{"name":"","type":"uint16","internalType":"uint16"}],"stateMutability":"view"},{"type":"function","name":"getPullingOperators","inputs":[],"outputs":[{"name":"","type":"uint8[]","internalType":"uint8[]"}],"stateMutability":"view"},{"type":"function","name":"getView","inputs":[],"outputs":[{"name":"","type":"tuple","internalType":"struct ClusterView","components":[{"name":"owner","type":"address","internalType":"address"},{"name":"settings","type":"tuple","internalType":"struct Settings","components":[{"name":"maxOperatorDataBytes","type":"uint16","internalType":"uint16"},{"name":"minOperators","type":"uint8","internalType":"uint8"}]},{"name":"version","type":"uint128","internalType":"uint128"},{"name":"keyspaceVersion","type":"uint64","internalType":"uint64"},{"name":"operatorCount","type":"uint16","internalType":"uint16"},{"name":"operators","type":"address[]","internalType":"address[]"},{"name":"operatorData","type":"bytes[]","internalType":"bytes[]"},{"name":"keyspaces","type":"tuple[2]","internalType":"struct Keyspace[2]","components":[{"name":"members","type":"uint8[]","internalType":"uint8[]"},{"name":"replicationStrategy","type":"uint8","internalType":"uint8"}]},{"name":"migrationId","type":"uint64","internalType":"uint64"},{"name":"pullingOperators","type":"uint8[]","internalType":"uint8[]"},{"name":"maintenance","type":"tuple","internalType":"struct MaintenanceState","components":[{"name":"slot","type":"address","internalType":"address"},{"name":"isOwnerMaintenance","type":"bool","internalType":"bool"}]}]}],"stateMutability":"view"},{"type":"function","name":"initialize","inputs":[{"name":"initialSettings","type":"tuple","internalType":"struct Settings","components":[{"name":"maxOperatorDataBytes","type":"uint16","internalType":"uint16"},{"name":"minOperators","type":"uint8","internalType":"uint8"}]},{"name":"initialOperators","type":"tuple[]","internalType":"struct NodeOperator[]","components":[{"name":"addr","type":"address","internalType":"address"},{"name":"data","type":"bytes","internalType":"bytes"}]}],"outputs":[],"stateMutability":"nonpayable"},{"type":"function","name":"isOperator","inputs":[{"name":"addr","type":"address","internalType":"address"}],"outputs":[{"name":"","type":"bool","internalType":"bool"}],"stateMutability":"view"},{"type":"function","name":"keyspaceVersion","inputs":[],"outputs":[{"name":"","type":"uint64","internalType":"uint64"}],"stateMutability":"view"},{"type":"function","name":"keyspaces","inputs":[{"name":"","type":"uint256","internalType":"uint256"}],"outputs":[{"name":"replicationStrategy","type":"uint8","internalType":"uint8"}],"stateMutability":"view"},{"type":"function","name":"maintenance","inputs":[],"outputs":[{"name":"slot","type":"address","internalType":"address"},{"name":"isOwnerMaintenance","type":"bool","internalType":"bool"}],"stateMutability":"view"},{"type":"function","name":"migrationId","inputs":[],"outputs":[{"name":"","type":"uint64","internalType":"uint64"}],"stateMutability":"view"},{"type":"function","name":"nextFreeSlot","inputs":[],"outputs":[{"name":"","type":"uint8","internalType":"uint8"}],"stateMutability":"view"},{"type":"function","name":"operatorCount","inputs":[],"outputs":[{"name":"","type":"uint16","internalType":"uint16"}],"stateMutability":"view"},{"type":"function","name":"operatorData","inputs":[{"name":"","type":"address","internalType":"address"}],"outputs":[{"name":"","type":"bytes","internalType":"bytes"}],"stateMutability":"view"},{"type":"function","name":"operatorSlots","inputs":[{"name":"","type":"uint8","internalType":"uint8"}],"outputs":[{"name":"","type":"address","internalType":"address"}],"stateMutability":"view"},{"type":"function","name":"operatorToSlot","inputs":[{"name":"","type":"address","internalType":"address"}],"outputs":[{"name":"","type":"uint8","internalType":"uint8"}],"stateMutability":"view"},{"type":"function","name":"owner","inputs":[],"outputs":[{"name":"","type":"address","internalType":"address"}],"stateMutability":"view"},{"type":"function","name":"pendingOwner","inputs":[],"outputs":[{"name":"","type":"address","internalType":"address"}],"stateMutability":"view"},{"type":"function","name":"proxiableUUID","inputs":[],"outputs":[{"name":"","type":"bytes32","internalType":"bytes32"}],"stateMutability":"view"},{"type":"function","name":"pullingCount","inputs":[],"outputs":[{"name":"","type":"uint16","internalType":"uint16"}],"stateMutability":"view"},{"type":"function","name":"removeNodeOperator","inputs":[{"name":"operatorAddr","type":"address","internalType":"address"}],"outputs":[],"stateMutability":"nonpayable"},{"type":"function","name":"renounceOwnership","inputs":[],"outputs":[],"stateMutability":"nonpayable"},{"type":"function","name":"setMaintenance","inputs":[{"name":"active","type":"bool","internalType":"bool"}],"outputs":[],"stateMutability":"nonpayable"},{"type":"function","name":"settings","inputs":[],"outputs":[{"name":"maxOperatorDataBytes","type":"uint16","internalType":"uint16"},{"name":"minOperators","type":"uint8","internalType":"uint8"}],"stateMutability":"view"},{"type":"function","name":"slotOccupied","inputs":[{"name":"","type":"uint8","internalType":"uint8"}],"outputs":[{"name":"","type":"bool","internalType":"bool"}],"stateMutability":"view"},{"type":"function","name":"slotPulling","inputs":[{"name":"","type":"uint8","internalType":"uint8"}],"outputs":[{"name":"","type":"bool","internalType":"bool"}],"stateMutability":"view"},{"type":"function","name":"startMigration","inputs":[{"name":"newOperatorSlots","type":"uint8[]","internalType":"uint8[]"},{"name":"replicationStrategy","type":"uint8","internalType":"uint8"}],"outputs":[],"stateMutability":"nonpayable"},{"type":"function","name":"transferOwnership","inputs":[{"name":"newOwner","type":"address","internalType":"address"}],"outputs":[],"stateMutability":"nonpayable"},{"type":"function","name":"updateNodeOperatorData","inputs":[{"name":"operatorAddress","type":"address","internalType":"address"},{"name":"newData","type":"bytes","internalType":"bytes"}],"outputs":[],"stateMutability":"nonpayable"},{"type":"function","name":"updateSettings","inputs":[{"name":"newSettings","type":"tuple","internalType":"struct Settings","components":[{"name":"maxOperatorDataBytes","type":"uint16","internalType":"uint16"},{"name":"minOperators","type":"uint8","internalType":"uint8"}]}],"outputs":[],"stateMutability":"nonpayable"},{"type":"function","name":"upgradeToAndCall","inputs":[{"name":"newImplementation","type":"address","internalType":"address"},{"name":"data","type":"bytes","internalType":"bytes"}],"outputs":[],"stateMutability":"payable"},{"type":"function","name":"version","inputs":[],"outputs":[{"name":"","type":"uint128","internalType":"uint128"}],"stateMutability":"view"},{"type":"event","name":"ClusterInitialized","inputs":[{"name":"operators","type":"tuple[]","indexed":false,"internalType":"struct NodeOperator[]","components":[{"name":"addr","type":"address","internalType":"address"},{"name":"data","type":"bytes","internalType":"bytes"}]},{"name":"settings","type":"tuple","indexed":false,"internalType":"struct Settings","components":[{"name":"maxOperatorDataBytes","type":"uint16","internalType":"uint16"},{"name":"minOperators","type":"uint8","internalType":"uint8"}]},{"name":"version","type":"uint128","indexed":false,"internalType":"uint128"}],"anonymous":false},{"type":"event","name":"Initialized","inputs":[{"name":"version","type":"uint64","indexed":false,"internalType":"uint64"}],"anonymous":false},{"type":"event","name":"MaintenanceToggled","inputs":[{"name":"operator","type":"address","indexed":true,"internalType":"address"},{"name":"active","type":"bool","indexed":false,"internalType":"bool"},{"name":"version","type":"uint128","indexed":false,"internalType":"uint128"}],"anonymous":false},{"type":"event","name":"MigrationAborted","inputs":[{"name":"id","type":"uint64","indexed":true,"internalType":"uint64"},{"name":"version","type":"uint128","indexed":false,"internalType":"uint128"}],"anonymous":false},{"type":"event","name":"MigrationCompleted","inputs":[{"name":"id","type":"uint64","indexed":true,"internalType":"uint64"},{"name":"operator","type":"address","indexed":true,"internalType":"address"},{"name":"version","type":"uint128","indexed":false,"internalType":"uint128"}],"anonymous":false},{"type":"event","name":"MigrationDataPullCompleted","inputs":[{"name":"id","type":"uint64","indexed":true,"internalType":"uint64"},{"name":"operator","type":"address","indexed":true,"internalType":"address"},{"name":"version","type":"uint128","indexed":false,"internalType":"uint128"}],"anonymous":false},{"type":"event","name":"MigrationStarted","inputs":[{"name":"id","type":"uint64","indexed":true,"internalType":"uint64"},{"name":"operators","type":"uint8[]","indexed":false,"internalType":"uint8[]"},{"name":"replicationStrategy","type":"uint8","indexed":false,"internalType":"uint8"},{"name":"keyspaceVersion","type":"uint64","indexed":false,"internalType":"uint64"},{"name":"version","type":"uint128","indexed":false,"internalType":"uint128"}],"anonymous":false},{"type":"event","name":"NodeOperatorAdded","inputs":[{"name":"operator","type":"address","indexed":true,"internalType":"address"},{"name":"slot","type":"uint8","indexed":true,"internalType":"uint8"},{"name":"operatorData","type":"bytes","indexed":false,"internalType":"bytes"},{"name":"version","type":"uint128","indexed":false,"internalType":"uint128"}],"anonymous":false},{"type":"event","name":"NodeOperatorRemoved","inputs":[{"name":"operator","type":"address","indexed":true,"internalType":"address"},{"name":"slot","type":"uint8","indexed":true,"internalType":"uint8"},{"name":"version","type":"uint128","indexed":false,"internalType":"uint128"}],"anonymous":false},{"type":"event","name":"NodeOperatorUpdated","inputs":[{"name":"operator","type":"address","indexed":true,"internalType":"address"},{"name":"slot","type":"uint8","indexed":true,"internalType":"uint8"},{"name":"operatorData","type":"bytes","indexed":false,"internalType":"bytes"},{"name":"version","type":"uint128","indexed":false,"internalType":"uint128"}],"anonymous":false},{"type":"event","name":"OwnershipTransferStarted","inputs":[{"name":"previousOwner","type":"address","indexed":true,"internalType":"address"},{"name":"newOwner","type":"address","indexed":true,"internalType":"address"}],"anonymous":false},{"type":"event","name":"OwnershipTransferred","inputs":[{"name":"previousOwner","type":"address","indexed":true,"internalType":"address"},{"name":"newOwner","type":"address","indexed":true,"internalType":"address"}],"anonymous":false},{"type":"event","name":"SettingsUpdated","inputs":[{"name":"newSettings","type":"tuple","indexed":false,"internalType":"struct Settings","components":[{"name":"maxOperatorDataBytes","type":"uint16","internalType":"uint16"},{"name":"minOperators","type":"uint8","internalType":"uint8"}]},{"name":"updatedBy","type":"address","indexed":true,"internalType":"address"},{"name":"version","type":"uint128","indexed":false,"internalType":"uint128"}],"anonymous":false},{"type":"event","name":"Upgraded","inputs":[{"name":"implementation","type":"address","indexed":true,"internalType":"address"}],"anonymous":false},{"type":"error","name":"AddressEmptyCode","inputs":[{"name":"target","type":"address","internalType":"address"}]},{"type":"error","name":"CallerNotOperator","inputs":[]},{"type":"error","name":"ERC1967InvalidImplementation","inputs":[{"name":"implementation","type":"address","internalType":"address"}]},{"type":"error","name":"ERC1967NonPayable","inputs":[]},{"type":"error","name":"FailedCall","inputs":[]},{"type":"error","name":"InsufficientOperators","inputs":[]},{"type":"error","name":"InvalidInitialization","inputs":[]},{"type":"error","name":"InvalidOperator","inputs":[]},{"type":"error","name":"InvalidOperatorData","inputs":[]},{"type":"error","name":"MaintenanceInProgress","inputs":[]},{"type":"error","name":"MigrationInProgress","inputs":[]},{"type":"error","name":"NoMigrationInProgress","inputs":[]},{"type":"error","name":"NotInitializing","inputs":[]},{"type":"error","name":"OperatorExists","inputs":[]},{"type":"error","name":"OperatorInKeyspace","inputs":[]},{"type":"error","name":"OperatorNotFound","inputs":[]},{"type":"error","name":"OperatorNotPulling","inputs":[]},{"type":"error","name":"OwnableInvalidOwner","inputs":[{"name":"owner","type":"address","internalType":"address"}]},{"type":"error","name":"OwnableUnauthorizedAccount","inputs":[{"name":"account","type":"address","internalType":"address"}]},{"type":"error","name":"SameKeyspace","inputs":[]},{"type":"error","name":"TooManyOperators","inputs":[]},{"type":"error","name":"UUPSUnauthorizedCallContext","inputs":[]},{"type":"error","name":"UUPSUnsupportedProxiableUUID","inputs":[{"name":"slot","type":"bytes32","internalType":"bytes32"}]},{"type":"error","name":"Unauthorized","inputs":[]},{"type":"error","name":"WrongMigrationId","inputs":[]}],"bytecode":{"object":"0x60a080604052346100e857306080527ff0c57e16840df040f15088dc2f81fe391c3923bec73e23a9662efc9c229c6a005460ff8160401c166100d9576002600160401b03196001600160401b03821601610073575b604051613e9e90816100ed823960805181818161086101526109890152f35b6001600160401b0319166001600160401b039081177ff0c57e16840df040f15088dc2f81fe391c3923bec73e23a9662efc9c229c6a005581527fc7f505b2f371ae2175ee4913f4499e1f2633a7b5936321eed1cdaeb6115181d290602090a15f80610054565b63f92ee8a960e01b5f5260045ffd5b5f80fdfe60806040526004361015610011575f80fd5b5f3560e01c80630df4f7841461028f5780630e89d8da1461028a57806311fcaded146102855780631a4a7c61146102215780632b78c9f7146102805780632be5079e1461027b578063333d0ef014610276578063389be1c014610271578063441604581461026c5780634e4d0f74146102675780634f1ef2861461026257806352d1902d1461025d57806354fd4d5014610258578063558a22be146102535780635f7e7b831461024e578063605f9aee14610249578063612f2f371461024457806366d1b1871461023f5780636c376cc51461023a5780636d70f7ae14610235578063715018a61461023057806375418b9d1461022b57806379ba5097146102265780637c6f315814610221578063838b7dc81461021c5780638a3d4495146102175780638da5cb5b1461021257806392265b651461020d5780639d44e71714610208578063a415c02c14610203578063ad3cb1cc146101fe578063bf31b06d146101f9578063c05665dd146101f4578063c187ba3d146101ef578063d17b27d3146101ea578063d911c632146101e5578063e06174e4146101e0578063e30c3978146101db578063e88e9749146101d65763f2fde38b146101d1575f80fd5b611f51565b611de4565b611db0565b611d85565b611cc6565b611c86565b611c4b565b611a19565b6119de565b611997565b61195a565b611710565b6116ba565b61165e565b611638565b6115d0565b61041d565b611584565b611308565b611096565b611042565b61100c565b610fc8565b610e3b565b610d1b565b610cba565b6109f4565b6109ce565b610977565b61081f565b610762565b610741565b610721565b6106d2565b610479565b61043e565b6103b1565b610348565b6102a9565b6001600160a01b038116036102a557565b5f80fd5b346102a55760403660031901126102a5576004356102c681610294565b602435906001600160401b0382116102a557366023830112156102a5578160040135906001600160401b0382116102a55736602483850101116102a5576024610310930190612185565b005b90602080835192838152019201905f5b81811061032f5750505090565b825160ff16845260209384019390920191600101610322565b346102a5575f3660031901126102a557600b5460011660028110156103a1576103979060011b61038260ff6008830154169160070161227c565b90604051928392604084526040840190610312565b9060208301520390f35b611692565b60ff8116036102a557565b346102a55760203660031901126102a55760ff6004356103d0816103a6565b16805f52600360205260ff60405f2054161561040e575f908152600260209081526040918290205491516001600160a01b03909216825290f35b0390f35b63ae4207eb60e01b5f5260045ffd5b346102a5575f3660031901126102a557602061ffff60065416604051908152f35b346102a5575f3660031901126102a55760206040516101008152f35b60409060031901126102a557600490565b908160409103126102a55790565b346102a55760403660031901126102a5576104933661045a565b61049b61377f565b61ffff600654166020820135906104b1826103a6565b60ff821611610556576104fc906104dc83356104cc81610cf8565b61ffff1661ffff195f5416175f55565b6104e5816103a6565b62ff00005f549160101b169062ff00001916175f55565b7fc4537136927baa4e0a3e9e5518a9fce0fde1cf0b4a4ddb07effde98d41d3b10561055161053a6105356001546001600160801b031690565b61210e565b61054381612130565b604051918291339583612882565b0390a2005b6330e40a8160e11b5f5260045ffd5b90600182811c92168015610593575b602083101461057f57565b634e487b7160e01b5f52602260045260245ffd5b91607f1691610574565b634e487b7160e01b5f52604160045260245ffd5b604081019081106001600160401b038211176105cc57604052565b61059d565b61016081019081106001600160401b038211176105cc57604052565b90601f801991011681019081106001600160401b038211176105cc57604052565b9060405191825f82549261062184610565565b808452936001811690811561068c5750600114610648575b50610646925003836105ed565b565b90505f9291925260205f20905f915b818310610670575050906020610646928201015f610639565b6020919350806001915483858901015201910190918492610657565b90506020925061064694915060ff191682840152151560051b8201015f610639565b805180835260209291819084018484015e5f828201840152601f01601f1916010190565b346102a55760203660031901126102a5576004356106ef81610294565b60018060a01b03165f52600560205261040a61070d60405f2061060e565b6040519182916020835260208301906106ae565b346102a5575f3660031901126102a557602060ff600f5416604051908152f35b346102a5575f3660031901126102a557602061ffff600d5416604051908152f35b346102a55760203660031901126102a55760043561077f81610294565b60018060a01b03165f526004602052602060ff60405f205416604051908152f35b60405190610646610160836105ed565b6001600160401b0381116105cc57601f01601f191660200190565b9291926107d7826107b0565b916107e560405193846105ed565b8294818452818301116102a5578281602093845f960137010152565b9080601f830112156102a55781602061081c933591016107cb565b90565b60403660031901126102a55760043561083781610294565b6024356001600160401b0381116102a557610856903690600401610801565b906001600160a01b037f000000000000000000000000000000000000000000000000000000000000000016308114908115610955575b506109465761089961377f565b6040516352d1902d60e01b8152916020836004816001600160a01b0386165afa5f9381610915575b506108e257634c9c8ce360e01b5f526001600160a01b03821660045260245ffd5b905f80516020613e098339815191528303610901576103109250613a80565b632a87526960e21b5f52600483905260245ffd5b61093891945060203d60201161093f575b61093081836105ed565b81019061379f565b925f6108c1565b503d610926565b63703e46dd60e11b5f5260045ffd5b5f80516020613e09833981519152546001600160a01b0316141590505f61088c565b346102a5575f3660031901126102a5577f00000000000000000000000000000000000000000000000000000000000000006001600160a01b031630036109465760206040515f80516020613e098339815191528152f35b346102a5575f3660031901126102a55760206001600160801b0360015416604051908152f35b346102a55760203660031901126102a5576004356001600160401b0381116102a557610a2490369060040161046b565b610a2c61377f565b61010061ffff610a3f60065461ffff1690565b161015610cab576001600160a01b03610a57826128c1565b1615610c9c5760ff610a8e610a87610a6e846128c1565b6001600160a01b03165f90815260046020526040902090565b5460ff1690565b1615801590610c38575b610c2957610c247f170bf5a9733d1e9d97b286096f8b6366155678e76d5c4e4197c0e846a9b8278460ff60208401610ae2610add610ad683886128cb565b36916107cb565b61375b565b610beb610aed6137ae565b91610b2e610afa886128c1565b610b0f8560ff165f52600260205260405f2090565b80546001600160a01b0319166001600160a01b03909216919091179055565b610b53610b468460ff165f52600360205260405f2090565b805460ff19166001179055565b610b7283610b63610a6e8a6128c1565b9060ff1660ff19825416179055565b610baa610b7f82896128cb565b90610ba5610b8c8b6128c1565b6001600160a01b03165f90815260056020526040902090565b612032565b610bd4610bc2610bbd60065461ffff1690565b6128fd565b61ffff1661ffff196006541617600655565b610bdc61386a565b610be5876128c1565b966128cb565b610c036105356001979397546001600160801b031690565b90610c0d82612130565b604051948594169760018060a01b0316968461214c565b0390a3005b632a322e2b60e01b5f5260045ffd5b505f80526002602052610c737fac33ff75c19e70fe83507db0d683fd3465c996598dc972688b7ace676c89077b5b546001600160a01b031690565b610c8b610c7f836128c1565b6001600160a01b031690565b6001600160a01b0390911614610a98565b63ccea9e6f60e01b5f5260045ffd5b636055dca160e01b5f5260045ffd5b346102a55760203660031901126102a55760ff600435610cd9816103a6565b165f526002602052602060018060a01b0360405f205416604051908152f35b61ffff8116036102a557565b6001600160401b0381116105cc5760051b60200190565b346102a5573660031901606081126102a5576040136102a557604051610d40816105b1565b600435610d4c81610cf8565b8152602435610d5a816103a6565b60208201526044356001600160401b0381116102a557366023820112156102a557806004013591610d8a83610d04565b91610d9860405193846105ed565b8383526024602084019460051b820101903682116102a55760248101945b828610610dc7576103108585612910565b85356001600160401b0381116102a5578201604060231982360301126102a55760405191610df4836105b1565b6024820135610e0281610294565b83526044820135926001600160401b0384116102a557610e2c602094936024869536920101610801565b83820152815201950194610db6565b346102a55760203660031901126102a55760043580151581036102a5578015610f7d57600e546001600160a01b0316610f6e57600e80546001600160a01b03191633179055610eaf610e8e610c7f610ff1565b600e805460ff60a01b1916339290921460a01b60ff60a01b16919091179055565b610eba610c7f610ff1565b3303610f26575b7f1c1d5017b8b1542dedc14e2b0d29098feed77a27d5a6c2c18e71a432b67b2620610551610efa6105356001546001600160801b031690565b610f0381612130565b6040805194151585526001600160801b0390911660208501523393918291820190565b335f818152600460205260409020610f5a90610c7f90610c6690610f4990610a87565b60ff165f52600260205260405f2090565b14610ec1575b6282b42960e81b5f5260045ffd5b631ddb00d960e21b5f5260045ffd5b600e546001600160a01b03166001600160a01b031633141580610fb4575b610f6057600e80546001600160a81b0319169055610eaf565b50610fc0610c7f610ff1565b331415610f9b565b346102a5575f3660031901126102a55760206001600160401b03600b5460401c16604051908152f35b5f80516020613de9833981519152546001600160a01b031690565b346102a5575f3660031901126102a557600e54604080516001600160a01b038316815260a09290921c60ff161515602083015290f35b346102a55760203660031901126102a55760043561105f81610294565b6001600160a01b039081165f8181526004602090815260408083205460ff1683526002825291829020549151919093169091148152f35b346102a5575f3660031901126102a5576110ae61377f565b5f80516020613e4983398151915280546001600160a01b03199081169091555f80516020613de9833981519152805491821690555f906001600160a01b03167f8be0079c531659141344cd1fd0a4f28419497f9722a3daafe3b4186f6b6457e08280a3005b90602080835192838152019201905f5b8181106111305750505090565b82516001600160a01b0316845260209384019390920191600101611123565b9080602083519182815201916020808360051b8301019401925f915b83831061117a57505050505090565b9091929394602080611198600193601f1986820301875289516106ae565b9701930193019193929061116b565b60408201915f815b600282106111be575050505090565b9091929360208082866001940385528751908260ff816111e78551604086526040860190610312565b940151169101529601920192019092916111af565b602080825282516001600160a01b03169082015261081c90602083810151805161ffff166040840152015160ff16606082015260408301516001600160801b0316608082015260608301516001600160401b031660a0820152608083015161ffff1660c08201526101806101406112e66112bb6112a461128d60a08901516101a060e08901526101c0880190611113565b60c0890151878203601f190161010089015261114f565b60e0880151868203601f19016101208801526111a7565b6101008701516001600160401b031685840152610120870151858203601f1901610160870152610312565b94015180516001600160a01b0316919092019081526020918201511515910152565b346102a5575f3660031901126102a557611320612f5d565b5060065461ffff168061147c57611335612b37565b61133d613019565b60405163d17b27d360e01b8152925f84600481305afa9081156114775761040a945f92611451575b506114319192611373610ff1565b946114096113896001546001600160801b031690565b936113fe600b546113ee6113b66113a6836001600160401b031690565b9260401c6001600160401b031690565b976113d16113c26107a0565b6001600160a01b03909d168d52565b6113d9613123565b60208d01526001600160801b031660408c0152565b6001600160401b031660608a0152565b61ffff166080880152565b60a086015260c085015261141b613146565b60e08501526001600160401b0316610100840152565b61012082015261143f61319c565b610140820152604051918291826111fc565b6114319250611471903d805f833e61146981836105ed565b810190613095565b91611365565b613118565b60ff5f815b610100811061154a575b5061149861149e91613007565b60ff1690565b906114a882612b52565b916114b28161304c565b915f5b8281106114c45750505061133d565b8082600192166114e2610a878260ff165f52600360205260405f2090565b6114ee575b50016114b5565b61152961150c610c6661152e9360ff165f52600260205260405f2090565b610b8c8161151a868c612a64565b6001600160a01b039091169052565b61060e565b6115388287612a64565b526115438186612a64565b505f6114e7565b828116611565610a878260ff165f52600360205260405f2090565b611578575061157390612ffb565b611481565b9150611498905061148b565b346102a5575f3660031901126102a5575f80516020613e4983398151915254336001600160a01b03909116036115bd5761031033613958565b63118cdaa760e01b5f523360045260245ffd5b346102a55760403660031901126102a5576004356001600160401b0381116102a557366023820112156102a5578060040135906001600160401b0382116102a5573660248360051b830101116102a557610310916024803592611632846103a6565b016131c7565b346102a5575f3660031901126102a55760206001600160401b03600b5416604051908152f35b346102a5575f3660031901126102a5575f80516020613de9833981519152546040516001600160a01b039091168152602090f35b634e487b7160e01b5f52603260045260245ffd5b60028110156103a15760011b600701905f90565b346102a55760203660031901126102a55760043560028110156102a55760011b6008015460405160ff919091168152602090f35b60209060031901126102a5576004356001600160401b03811681036102a55790565b346102a55761171e366116ee565b61ffff61172e600d5461ffff1690565b161561194b576001600160401b03611761611755600b546001600160401b039060401c1690565b6001600160401b031690565b91160361193c57335f90815260046020526040902061177f90610a87565b3360018060a01b0361179f610c668460ff165f52600260205260405f2090565b160361192d576117c46117c0610a878360ff165f52600c60205260405f2090565b1590565b61191e576117e06117ea9160ff165f52600c60205260405f2090565b805460ff19169055565b6118196118076117fd600d5461ffff1690565b5f190161ffff1690565b61ffff1661ffff19600d541617600d55565b611830611829600d5461ffff1690565b61ffff1690565b6118a957600b5460401c6001600160401b03166118586105356001546001600160801b031690565b61186181612130565b6040516001600160801b03909116815233916001600160401b0316907f01269879535f40ee8957e15e160bf1866c5e2728ff0cbc583d848821e2639b4e908060208101610c24565b600b5460401c6001600160401b03166118cd6105356001546001600160801b031690565b6118d681612130565b6040516001600160801b03909116815233916001600160401b0316907faf5e90e72015f43138f66b4cd08bd1dfa2839030104f22a00af843fe847c6d19908060208101610c24565b6313a9a39160e31b5f5260045ffd5b63a5523ee560e01b5f5260045ffd5b631a0fd8c760e21b5f5260045ffd5b631821b37560e31b5f5260045ffd5b346102a5575f3660031901126102a55760606001600160401b03600b5460401c1661ffff600d541660405191825280602083015215156040820152f35b346102a5575f3660031901126102a55761040a6040516119b86040826105ed565b60058152640352e302e360dc1b60208201526040519182916020835260208301906106ae565b346102a55760203660031901126102a55760ff6004356119fd816103a6565b165f52600c602052602060ff60405f2054166040519015158152f35b346102a55760203660031901126102a557600435611a3681610294565b611a3e61377f565b6001600160a01b0381165f908152600460205260409020611a5e90610a87565b90611a77610c668360ff165f52600260205260405f2090565b6001600160a01b0380831692911682900361040e5760065461ffff1661ffff611aa86114985f5460ff9060101c1690565b911611156105565761ffff611ac0600d5461ffff1690565b1615611c1457611acf836139c3565b8015611c05575b611bf657611b46611b4b915b611b0a611afa8660ff165f52600260205260405f2090565b80546001600160a01b0319169055565b611b226117e08660ff165f52600360205260405f2090565b6001600160a01b0381165f908152600460205260409020805460ff19169055610b8c565b61362f565b611b63610bc2611b5e60065461ffff1690565b61368e565b611b72611498600f5460ff1690565b9160ff8116928310611bdc575b507f09f530ee5721466a79a706ccbc5875d7f2fec6ff088f543aa3e838ac941aa951610c24611bb96105356001546001600160801b031690565b611bc281612130565b6040516001600160801b0390911681529081906020820190565b611bf09060ff1660ff19600f541617600f55565b5f611b7f565b63997ac2d360e01b5f5260045ffd5b50611c0f83613a07565b611ad6565b611c3b611c35611498611c2f600b546001600160401b031690565b60011690565b84613a3c565b611bf657611b46611b4b91611ae2565b346102a55760203660031901126102a55760ff600435611c6a816103a6565b165f526003602052602060ff60405f2054166040519015158152f35b346102a5575f3660031901126102a55761040a611ca16136ac565b604051918291602083526020830190610312565b90602061081c928181520190611113565b346102a5575f3660031901126102a557611ce661182960065461ffff1690565b611cef81612b52565b5f805b61010060ff82161080611d7c575b15611d6357611d1d610a878260ff165f52600360205260405f2090565b611d2d575b60010160ff16611cf2565b9060018060ff92611d59611d4f610c668760ff165f52600260205260405f2090565b61151a8389612a64565b0192915050611d22565b61040a83611d7081613c96565b60405191829182611cb5565b50838210611d00565b346102a5575f3660031901126102a55760405f5460ff82519161ffff8116835260101c166020820152f35b346102a5575f3660031901126102a5575f80516020613e49833981519152546040516001600160a01b039091168152602090f35b346102a557611df2366116ee565b611dfa61377f565b61ffff611e0a600d5461ffff1690565b161561194b57600b54906001600160401b03611e2b604084901c8216611755565b91160361193c57611e50611e4b611c2f611e56936001600160401b031690565b6116a6565b5061227c565b5f5b8151811015611e955780611e8f6117e0611e7e611e7760019587612a64565b5160ff1690565b60ff165f52600c60205260405f2090565b01611e58565b611ea561ffff19600d5416600d55565b611ede611ec2611ebd600b546001600160401b031690565b613746565b6001600160401b03166001600160401b0319600b541617600b55565b600b5460401c6001600160401b03167ff73240422246f63ed633ef3ce0726b8ab8fb69d46c8a4e5ecb0b2922668674a16001600160401b03611f2b6105356001546001600160801b031690565b92611f3584612130565b6040516001600160801b03909416845216918060208101610551565b346102a55760203660031901126102a557600435611f6e81610294565b611f7661377f565b5f80516020613e4983398151915280546001600160a01b0319166001600160a01b039283169081179091555f80516020613de9833981519152549091167f38d16b8cac22d99fc7c124b9cd0de2d3fa1faef420bfe791d8c362d765e227005f80a3005b818110611fe4575050565b5f8155600101611fd9565b9190601f8111611ffe57505050565b610646925f5260205f20906020601f840160051c83019310612028575b601f0160051c0190611fd9565b909150819061201b565b9092916001600160401b0381116105cc57612057816120518454610565565b84611fef565b5f601f82116001146120955781906120869394955f9261208a575b50508160011b915f199060031b1c19161790565b9055565b013590505f80612072565b601f198216946120a8845f5260205f2090565b915f5b8781106120e25750836001959697106120c9575b505050811b019055565b01355f19600384901b60f8161c191690555f80806120bf565b909260206001819286860135815501940191016120ab565b634e487b7160e01b5f52601160045260245ffd5b6001600160801b03166001600160801b03811461212b5760010190565b6120fa565b6001600160801b03166001600160801b03196001541617600155565b916060816001600160801b039260209497969760408752816040880152838701375f828287010152601f80199101168401019416910152565b90916001600160a01b03821691903383141580612268575b610f60576121af610add3683876107cb565b6001600160a01b0382165f9081526004602052604090206121cf90610a87565b836121eb610c7f610c668460ff165f52600260205260405f2090565b0361040e576122638261223660ff9488610ba57fe69bedb27cdb1709feb6a744e2030bc5ca0e315bb1fb40df07e09e05a86969a79860018060a01b03165f52600560205260405f2090565b61224b6105356001546001600160801b031690565b9061225582612130565b60405194859416978461214c565b0390a3565b50612274610c7f610ff1565b33141561219d565b6040518154808252909291839061229a60208301915f5260205f2090565b925f905b80601f8301106126a557610646945491818110612691575b818110612679575b818110612661575b818110612649575b818110612632575b81811061261a575b818110612602575b8181106125ea575b8181106125d2575b8181106125ba575b8181106125a2575b81811061258a575b818110612572575b81811061255a575b818110612542575b81811061252a575b818110612512575b8181106124fa575b8181106124e2575b8181106124ca575b8181106124b2575b81811061249a575b818110612482575b81811061246a575b818110612452575b81811061243a575b818110612422575b81811061240a575b8181106123f2575b8181106123da575b8181106123c2575b106123b4575b5003836105ed565b60f81c81526020015f6123ac565b60f083901c60ff1684529260019060200193016123a6565b60e883901c60ff16845292600190602001930161239e565b60e083901c60ff168452926001906020019301612396565b60d883901c60ff16845292600190602001930161238e565b60d083901c60ff168452926001906020019301612386565b60c883901c60ff16845292600190602001930161237e565b60c083901c60ff168452926001906020019301612376565b60b883901c60ff16845292600190602001930161236e565b60b083901c60ff168452926001906020019301612366565b60a883901c60ff16845292600190602001930161235e565b60a083901c60ff168452926001906020019301612356565b609883901c60ff16845292600190602001930161234e565b609083901c60ff168452926001906020019301612346565b608883901c60ff16845292600190602001930161233e565b608083901c60ff168452926001906020019301612336565b607883901c60ff16845292600190602001930161232e565b607083901c60ff168452926001906020019301612326565b606883901c60ff16845292600190602001930161231e565b606083901c60ff168452926001906020019301612316565b605883901c60ff16845292600190602001930161230e565b605083901c60ff168452926001906020019301612306565b604883901c60ff1684529260019060200193016122fe565b604083901c60ff1684529260019060200193016122f6565b603883901c60ff1684529260019060200193016122ee565b603083901c60ff1684529260019060200193016122e6565b602883901c60ff1684529260019060200193016122de565b602083811c60ff16855290936001910193016122d6565b601883901c60ff1684529260019060200193016122ce565b601083901c60ff1684529260019060200193016122c6565b600883901c60ff1684529260019060200193016122be565b60ff831684529260019060200193016122b6565b91602091935061040060019161286a87546126c58360ff831660ff169052565b600881901c60ff1683870152601081901c60ff166040840152601881901c60ff16606084015280861c60ff166080840152602881901c60ff1660a0840152603081901c60ff1660c0840152603881901c60ff1660e0840152604081901c60ff16610100840152604881901c60ff16610120840152605081901c60ff16610140840152605881901c60ff16610160840152606081901c60ff16610180840152606881901c60ff166101a0840152607081901c60ff166101c0840152607881901c60ff166101e0840152608081901c60ff16610200840152608881901c60ff16610220840152609081901c60ff16610240840152609881901c60ff1661026084015260a081901c60ff1661028084015260a881901c60ff166102a084015260b081901c60ff166102c084015260b881901c60ff166102e084015260c081901c60ff1661030084015260c881901c60ff1661032084015260d081901c60ff1661034084015260d881901c60ff1661036084015260e081901c60ff1661038084015260e881901c60ff166103a084015260f081901c60ff166103c084015260f81c6103e0830152565b01940192018592939161229e565b3561081c816103a6565b9092916001600160801b0360409160ff6020606086019761ffff81356128a781610cf8565b16875201356128b5816103a6565b16602085015216910152565b3561081c81610294565b903590601e19813603018212156102a557018035906001600160401b0382116102a5576020019181360383136102a557565b61ffff1661ffff811461212b5760010190565b5f80516020613e2983398151915254916001600160401b03612942604085901c60ff16155b946001600160401b031690565b1680159081612a5c575b6001149081612a52575b159081612a49575b50612a3a576129a1918361299860016001600160401b03195f80516020613e298339815191525416175f80516020613e2983398151915255565b612a0557612d65565b6129a757565b6129d160ff60401b195f80516020613e2983398151915254165f80516020613e2983398151915255565b604051600181527fc7f505b2f371ae2175ee4913f4499e1f2633a7b5936321eed1cdaeb6115181d29080602081015b0390a1565b612a35600160401b60ff60401b195f80516020613e298339815191525416175f80516020613e2983398151915255565b612d65565b63f92ee8a960e01b5f5260045ffd5b9050155f61295e565b303b159150612956565b84915061294c565b80518210156103a15760209160051b010190565b91909182516001600160401b0381116105cc57612a99816120518454610565565b6020601f8211600114612ad35781906120869394955f92612ac85750508160011b915f199060031b1c19161790565b015190505f80612072565b601f19821690612ae6845f5260205f2090565b915f5b818110612b1f57509583600195969710612b0757505050811b019055565b01515f1960f88460031b161c191690555f80806120bf565b9192602060018192868b015181550194019201612ae9565b60405190612b466020836105ed565b5f808352366020840137565b90612b5c82610d04565b612b6960405191826105ed565b8281528092612b7a601f1991610d04565b0190602036910137565b90600160401b81116105cc578154818355808210612ba157505050565b610646925f52601f60205f20918180850160051c8401941680612bcb575b500160051c0190611fd9565b5f198501908154905f199060200360031b1c1690555f612bbf565b908051906001600160401b0382116105cc576020612c1391612c088486612b84565b01925f5260205f2090565b8160051c915f5b838110612c855750601f198116900380612c35575b50505050565b925f935f5b818110612c4f5750505001555f808080612c2f565b9091946020612c7b60019284612c668a5160ff1690565b919060ff809160031b9316831b921b19161790565b9601929101612c3a565b5f805b60208110612c9d575083820155600101612c1a565b95906020612cb360019289612c66865160ff1690565b92019601612c88565b9291906080840160808552815180915260a0850190602060a08260051b8801019301915f905b828210612d2257505050509060606106469294612d13602082015f60ff6020915461ffff8116845260101c16910152565b01906001600160801b03169052565b90919293602080612d57600193609f198c82030186526040838a51878060a01b038151168452015191818582015201906106ae565b960192019201909291612ce2565b610100825111610cab578151612d82611498602084015160ff1690565b1161055657612dca90612d93613b22565b612d9c3361391d565b60209061ffff81511661ffff195f5416175f55015162ff0000805f549260101b16169062ff00001916175f55565b5f5b8151811015612e9257612ddf8183612a64565b51906020820191612df0835161375b565b60ff821690612e10610c7f610c668460ff165f52600260205260405f2090565b610c2957612e87610b8c600195612e78612e8c95612e4c612e37875160018060a01b031690565b610b0f8360ff165f52600260205260405f2090565b612e64610b468260ff165f52600360205260405f2090565b8551610b63906001600160a01b0316610a6e565b5192516001600160a01b031690565b612a78565b01612dcc565b5090612ebb8251612ea7610bc28261ffff1690565b600f805460ff191660ff8316179055612b52565b905f5b8351811015612ee95780612ee360ff60019316612edb8387612a64565b9060ff169052565b01612ebe565b5091612f177f507a218c0435bc01f2758938419a06a69f7a024c96a0995dab79deb3da141b56926007612be6565b612f2c6105356001546001600160801b031690565b90612f3682612130565b612a0060405192839283612cbc565b60405190612f52826105b1565b5f6020838281520152565b60405190612f6a826105d1565b815f8152612f76612f45565b60208201525f60408201525f60608201525f6080820152606060a0820152606060c08201526040805190612fab6040836105ed565b5f5b818110612fda57505060e08201525f6101008201526060610120820152610140612fd5612f45565b910152565b6020908251612fe8816105b1565b606081525f838201528185015201612fad565b801561212b575f190190565b60ff60019116019060ff821161212b57565b604051906130286020836105ed565b5f80835282815b82811061303b57505050565b80606060208093850101520161302f565b9061305682610d04565b61306360405191826105ed565b8281528092613074601f1991610d04565b01905f5b82811061308457505050565b806060602080938501015201613078565b6020818303126102a5578051906001600160401b0382116102a557019080601f830112156102a55781516130c881610d04565b926130d660405194856105ed565b81845260208085019260051b8201019283116102a557602001905b8282106130fe5750505090565b60208091835161310d816103a6565b8152019101906130f1565b6040513d5f823e3d90fd5b60405190613130826105b1565b5f5461ffff8116835260101c60ff166020830152565b60405190613153826105b1565b60075f835b6002821061316557505050565b60026020600192604051613178816105b1565b6131818761227c565b815260ff858801541683820152815201930191019091613158565b604051906131a9826105b1565b600e546001600160a01b038116835260a01c60ff1615156020830152565b91906131d161377f565b600e546001600160a01b0316610f6e5761ffff6131f1600d5461ffff1690565b166134a0576101008111610cab575f546132109060101c60ff16611498565b81106105565760018111613457575b5f5b8181106134095750600d805461ffff191661ffff8316179055600b54613252611e4b6001600160401b038316611c2f565b50600181015460ff858116911614806133ff575b613381575b509161337c6001600160401b03926132e26132b96132b47fb95d8605e761f395e78cb1b5a269af6a9011d872bcb01715568de824b136435d976001600160401b039060401c1690565b6134eb565b67ffffffffffffffff60401b600b549160401b169067ffffffffffffffff60401b191617600b55565b6132fa611ec26132b4600b546001600160401b031690565b613334836001613318611e4b611c2f600b546001600160401b031690565b50613324858b83613508565b019060ff1660ff19825416179055565b600b549261334e604085901c6001600160401b0316612935565b906133646105356001546001600160801b031690565b9261336e84612130565b6040519687961698866135bf565b0390a2565b80549193916001915f5b8281106133b0575b5050506133a157915f61326b565b63d990d65560e01b5f5260045ffd5b8760ff6133e36114986133de858b6133d86133cb838b6134cd565b905460ff9160031b1c1690565b966134af565b612878565b9116036133f25760010161338b565b505050505f808080613393565b5082815414613266565b6134176133de8284876134af565b906134336117c0610a878460ff165f52600360205260405f2090565b61040e57613451610b4660019360ff165f52600c60205260405f2090565b01613221565b60015b818110613467575061321f565b6134756133de8284876134af565b60ff6134906114986133de613489866134bf565b878a6134af565b91161115610c9c5760010161345a565b6378a4646d60e11b5f5260045ffd5b91908110156103a15760051b0190565b5f1981019190821161212b57565b91909180548310156103a1575f52601f60205f208360051c01921690565b6001600160401b03166001600160401b03811461212b5760010190565b91906001600160401b0382116105cc57613530906135268385612b84565b925f5260205f2090565b8160051c915f5b83811061358a5750601f1981169003806135515750505050565b925f935f5b81811061356b5750505001555f808080612c2f565b909194602061358060019284612c668a612878565b9601929101613556565b5f805b602081106135a2575083820155600101613537565b959060206135b660019289612c6686612878565b9201960161358d565b9391959492958060808601608087525260a0850191905f5b81811061360b57505050916001600160401b036001600160801b039260ff6060959816602087015216604085015216910152565b90919260208060019260ff8735613621816103a6565b1681520194019291016135d7565b6136398154610565565b9081613643575050565b81601f5f9311600114613654575055565b8183526020832061367091601f0160051c810190600101611fd9565b808252602082209081548360011b9084198560031b1c191617905555565b61ffff16801561212b575f190190565b5f19811461212b5760010190565b600d5461ffff16801561373d576136c69061ffff16612b52565b906136e2611e50611e4b611c2f600b546001600160401b031690565b5f805b82518110156137375780613704610a87611e7e611e7760019588612a64565b61370f575b016136e5565b61373261371f611e778387612a64565b612edb61372b8661369e565b9589612a64565b613709565b50835250565b5061081c612b37565b6001600160401b0316801561212b575f190190565b805115613770575161ffff5f54161061377057565b635e9b2d5360e01b5f5260045ffd5b5f80516020613de9833981519152546001600160a01b031633036115bd57565b908160209103126102a5575190565b600f5460ff1690610100821080613849575b61064657815b60ff8082161061381f57505f9160ff16915b8260ff8216106137f157636055dca160e01b5f5260045ffd5b61380c6117c0610a878360ff165f52600360205260405f2090565b61381b5760010160ff166137d8565b9150565b61383a6117c0610a878360ff165f52600360205260405f2090565b61381b5760010160ff166137c6565b506138656117c0610a878460ff165f52600360205260405f2090565b6137c0565b61387e613879600f5460ff1690565b613007565b60ff808216106138f357505f5b61389a611498600f5460ff1690565b60ff8216116138e1576138be6117c0610a878360ff165f52600360205260405f2090565b6138cd5760010160ff1661388b565b6106469060ff1660ff19600f541617600f55565b5061064660ff8019600f541617600f55565b61390e6117c0610a878360ff165f52600360205260405f2090565b6138cd5760010160ff1661387e565b613925613b22565b61392d613b22565b6001600160a01b038116156139455761064690613958565b631e4fbdf760e01b5f525f60045260245ffd5b5f80516020613e4983398151915280546001600160a01b03199081169091555f80516020613de983398151915280549182166001600160a01b0393841690811790915591167f8be0079c531659141344cd1fd0a4f28419497f9722a3daafe3b4186f6b6457e05f80a3565b6139cd600761227c565b905f5b8251811015613a005760ff6139e58285612a64565b511660ff8316146139f8576001016139d0565b505050600190565b5050505f90565b613a11600961227c565b905f5b8251811015613a005760ff613a298285612a64565b511660ff8316146139f857600101613a14565b9060028110156103a157613a559060011b60070161227c565b905f5b8251811015613a005760ff613a6d8285612a64565b511660ff8316146139f857600101613a58565b90813b15613b01575f80516020613e0983398151915280546001600160a01b0319166001600160a01b0384169081179091557fbc7cd75a20ee27fd9adebab32041f755214dbc6bffa90cc0225b39da2e5c2d3b5f80a2805115613ae957613ae691613d4a565b50565b505034613af257565b63b398979f60e01b5f5260045ffd5b50634c9c8ce360e01b5f9081526001600160a01b0391909116600452602490fd5b60ff5f80516020613e298339815191525460401c1615613b3e57565b631afcd79f60e31b5f5260045ffd5b6101808284031115613c1d57815183830160011c6020600160ff1b0316601f84160180519091908181811015613c14575b5085518081831015613c01575b5086528252835251928092805b5b60200180518611613b9957935b830180518610613ba657938480821015613bc7578151815183529052613b98565b50509193506020830190808203613bf0575b5050808203613be757505050565b61064692613b4d565b613bfa9185613b4d565b5f80613bd9565b909190808410613b8b579291505f613b8b565b9150905f613b7e565b9190926020840193845181511015613c88575b505b60208401828111613c81576020848251960101805186811115613c78579085915b602082015201805186811115613c6b57908591613c53565b5060200194909452613c32565b50509350613c32565b5092505050565b84518151865290525f613c30565b80519060028210918060051b9215613cad57505050565b60208201939282019291835b8581519180601f190192835111613cd1575050613cb9565b90915094919293941115613d4257805b80519080601f190191825110613cf75750613ce1565b86929394959691501115613d18575f8352613d159190601f19613b4d565b52565b9250602091505b8251815184528152910190601f190180821015613d3e57602090613d1f565b5050565b509192505050565b5f8061081c93602081519101845af43d15613d86573d91613d6a836107b0565b92613d7860405194856105ed565b83523d5f602085013e613d8a565b6060915b90613dae5750805115613d9f57805190602001fd5b63d6bda27560e01b5f5260045ffd5b81511580613ddf575b613dbf575090565b639996b31560e01b5f9081526001600160a01b0391909116600452602490fd5b50803b15613db756fe9016d09d72d40fdae2fd8ceac6b6234c7706214fd39c1cd1e609a0528c199300360894a13ba1a3210667c828492db98dca3e2076cc3735a920a3ca505d382bbcf0c57e16840df040f15088dc2f81fe391c3923bec73e23a9662efc9c229c6a00237e158222e3e6968b72b9db0d8043aacf074ad9f650f0d1606b4d82ee432c00a26469706673582212205bedeb7a53be0792fe100fd7fc5f1fc1cb67a8f3f82aeb14c956cbe5cd8b8dbb64736f6c634300081a0033","linkReferences":{}},"methodIdentifiers":{"MAX_OPERATORS()":"2b78c9f7","UPGRADE_INTERFACE_VERSION()":"ad3cb1cc","abortMigration(uint64)":"e88e9749","acceptOwnership()":"79ba5097","addNodeOperator((address,bytes))":"558a22be","completeMigration(uint64)":"9d44e717","getAllOperators()":"d911c632","getCurrentKeyspace()":"0e89d8da","getMigrationStatus()":"a415c02c","getOperatorAt(uint8)":"11fcaded","getOperatorCount()":"1a4a7c61","getPullingOperators()":"d17b27d3","getView()":"75418b9d","initialize((uint16,uint8),(address,bytes)[])":"605f9aee","isOperator(address)":"6d70f7ae","keyspaceVersion()":"8a3d4495","keyspaces(uint256)":"92265b65","maintenance()":"6c376cc5","migrationId()":"66d1b187","nextFreeSlot()":"389be1c0","operatorCount()":"7c6f3158","operatorData(address)":"333d0ef0","operatorSlots(uint8)":"5f7e7b83","operatorToSlot(address)":"4e4d0f74","owner()":"8da5cb5b","pendingOwner()":"e30c3978","proxiableUUID()":"52d1902d","pullingCount()":"44160458","removeNodeOperator(address)":"c05665dd","renounceOwnership()":"715018a6","setMaintenance(bool)":"612f2f37","settings()":"e06174e4","slotOccupied(uint8)":"c187ba3d","slotPulling(uint8)":"bf31b06d","startMigration(uint8[],uint8)":"838b7dc8","transferOwnership(address)":"f2fde38b","updateNodeOperatorData(address,bytes)":"0df4f784","updateSettings((uint16,uint8))":"2be5079e","upgradeToAndCall(address,bytes)":"4f1ef286","version()":"54fd4d50"},"id":56}