{"abi":[{"type":"constructor","inputs":[{"name":"initialSettings","type":"tuple","internalType":"struct Settings","components":[{"name":"maxOperatorDataBytes","type":"uint16","internalType":"uint16"}]},{"name":"initialOperators","type":"tuple[]","internalType":"struct NodeOperator[]","components":[{"name":"addr","type":"address","internalType":"address"},{"name":"data","type":"bytes","internalType":"bytes"}]}],"stateMutability":"nonpayable"},{"type":"function","name":"abortMigration","inputs":[{"name":"id","type":"uint64","internalType":"uint64"}],"outputs":[],"stateMutability":"nonpayable"},{"type":"function","name":"addNodeOperator","inputs":[{"name":"idx","type":"uint8","internalType":"uint8"},{"name":"operator","type":"tuple","internalType":"struct NodeOperator","components":[{"name":"addr","type":"address","internalType":"address"},{"name":"data","type":"bytes","internalType":"bytes"}]}],"outputs":[],"stateMutability":"nonpayable"},{"type":"function","name":"completeMigration","inputs":[{"name":"id","type":"uint64","internalType":"uint64"}],"outputs":[],"stateMutability":"nonpayable"},{"type":"function","name":"finishMaintenance","inputs":[],"outputs":[],"stateMutability":"nonpayable"},{"type":"function","name":"getView","inputs":[],"outputs":[{"name":"","type":"tuple","internalType":"struct ClusterView","components":[{"name":"owner","type":"address","internalType":"address"},{"name":"nodeOperatorSlots","type":"tuple[]","internalType":"struct NodeOperator[]","components":[{"name":"addr","type":"address","internalType":"address"},{"name":"data","type":"bytes","internalType":"bytes"}]},{"name":"keyspaces","type":"tuple[2]","internalType":"struct Keyspace[2]","components":[{"name":"operatorsBitmask","type":"uint256","internalType":"uint256"},{"name":"replicationStrategy","type":"uint8","internalType":"uint8"}]},{"name":"keyspaceVersion","type":"uint64","internalType":"uint64"},{"name":"settings","type":"tuple","internalType":"struct Settings","components":[{"name":"maxOperatorDataBytes","type":"uint16","internalType":"uint16"}]},{"name":"migration","type":"tuple","internalType":"struct Migration","components":[{"name":"id","type":"uint64","internalType":"uint64"},{"name":"pullingOperatorsBitmask","type":"uint256","internalType":"uint256"}]},{"name":"maintenance","type":"tuple","internalType":"struct Maintenance","components":[{"name":"slot","type":"address","internalType":"address"}]},{"name":"version","type":"uint128","internalType":"uint128"}]}],"stateMutability":"view"},{"type":"function","name":"removeNodeOperator","inputs":[{"name":"operatorAddress","type":"address","internalType":"address"}],"outputs":[],"stateMutability":"nonpayable"},{"type":"function","name":"startMaintenance","inputs":[],"outputs":[],"stateMutability":"nonpayable"},{"type":"function","name":"startMigration","inputs":[{"name":"newKeyspace","type":"tuple","internalType":"struct Keyspace","components":[{"name":"operatorsBitmask","type":"uint256","internalType":"uint256"},{"name":"replicationStrategy","type":"uint8","internalType":"uint8"}]}],"outputs":[],"stateMutability":"nonpayable"},{"type":"function","name":"transferOwnership","inputs":[{"name":"newOwner","type":"address","internalType":"address"}],"outputs":[],"stateMutability":"nonpayable"},{"type":"function","name":"updateNodeOperator","inputs":[{"name":"operator","type":"tuple","internalType":"struct NodeOperator","components":[{"name":"addr","type":"address","internalType":"address"},{"name":"data","type":"bytes","internalType":"bytes"}]}],"outputs":[],"stateMutability":"nonpayable"},{"type":"function","name":"updateSettings","inputs":[{"name":"newSettings","type":"tuple","internalType":"struct Settings","components":[{"name":"maxOperatorDataBytes","type":"uint16","internalType":"uint16"}]}],"outputs":[],"stateMutability":"nonpayable"},{"type":"event","name":"MaintenanceFinished","inputs":[{"name":"clusterVersion","type":"uint128","indexed":false,"internalType":"uint128"}],"anonymous":false},{"type":"event","name":"MaintenanceStarted","inputs":[{"name":"addr","type":"address","indexed":false,"internalType":"address"},{"name":"clusterVersion","type":"uint128","indexed":false,"internalType":"uint128"}],"anonymous":false},{"type":"event","name":"MigrationAborted","inputs":[{"name":"id","type":"uint64","indexed":false,"internalType":"uint64"},{"name":"clusterVersion","type":"uint128","indexed":false,"internalType":"uint128"}],"anonymous":false},{"type":"event","name":"MigrationCompleted","inputs":[{"name":"id","type":"uint64","indexed":false,"internalType":"uint64"},{"name":"operatorAddress","type":"address","indexed":false,"internalType":"address"},{"name":"clusterVersion","type":"uint128","indexed":false,"internalType":"uint128"}],"anonymous":false},{"type":"event","name":"MigrationDataPullCompleted","inputs":[{"name":"id","type":"uint64","indexed":false,"internalType":"uint64"},{"name":"operatorAddress","type":"address","indexed":false,"internalType":"address"},{"name":"clusterVersion","type":"uint128","indexed":false,"internalType":"uint128"}],"anonymous":false},{"type":"event","name":"MigrationStarted","inputs":[{"name":"id","type":"uint64","indexed":false,"internalType":"uint64"},{"name":"newKeyspace","type":"tuple","indexed":false,"internalType":"struct Keyspace","components":[{"name":"operatorsBitmask","type":"uint256","internalType":"uint256"},{"name":"replicationStrategy","type":"uint8","internalType":"uint8"}]},{"name":"clusterVersion","type":"uint128","indexed":false,"internalType":"uint128"}],"anonymous":false},{"type":"event","name":"NodeOperatorAdded","inputs":[{"name":"idx","type":"uint8","indexed":false,"internalType":"uint8"},{"name":"operator","type":"tuple","indexed":false,"internalType":"struct NodeOperator","components":[{"name":"addr","type":"address","internalType":"address"},{"name":"data","type":"bytes","internalType":"bytes"}]},{"name":"clusterVersion","type":"uint128","indexed":false,"internalType":"uint128"}],"anonymous":false},{"type":"event","name":"NodeOperatorRemoved","inputs":[{"name":"operatorAddress","type":"address","indexed":false,"internalType":"address"},{"name":"clusterVersion","type":"uint128","indexed":false,"internalType":"uint128"}],"anonymous":false},{"type":"event","name":"NodeOperatorUpdated","inputs":[{"name":"operator","type":"tuple","indexed":false,"internalType":"struct NodeOperator","components":[{"name":"addr","type":"address","internalType":"address"},{"name":"data","type":"bytes","internalType":"bytes"}]},{"name":"clusterVersion","type":"uint128","indexed":false,"internalType":"uint128"}],"anonymous":false},{"type":"event","name":"OwnershipTransferred","inputs":[{"name":"newOwner","type":"address","indexed":false,"internalType":"address"},{"name":"cluserVersion","type":"uint128","indexed":false,"internalType":"uint128"}],"anonymous":false},{"type":"event","name":"SettingsUpdated","inputs":[{"name":"newSettings","type":"tuple","indexed":false,"internalType":"struct Settings","components":[{"name":"maxOperatorDataBytes","type":"uint16","internalType":"uint16"}]},{"name":"clusterVersion","type":"uint128","indexed":false,"internalType":"uint128"}],"anonymous":false}],"bytecode":{"object":"0x6080604052346100305761001a61001461030f565b90610acf565b610022610035565b613a46610ed38239613a4690f35b61003b565b60405190565b5f80fd5b601f801991011690565b634e487b7160e01b5f52604160045260245ffd5b906100679061003f565b810190811060018060401b0382111761007f57604052565b610049565b90610097610090610035565b928361005d565b565b5f80fd5b5f80fd5b5f80fd5b5f80fd5b61ffff1690565b6100b9816100a9565b036100c057565b5f80fd5b905051906100d1826100b0565b565b91906020838203126100fb576100f5906100ed6020610084565b935f016100c4565b5f830152565b6100a1565b5f80fd5b60018060401b03811161011a5760208091020190565b610049565b5f80fd5b60018060a01b031690565b61013790610123565b90565b6101438161012e565b0361014a57565b5f80fd5b9050519061015b8261013a565b565b5f80fd5b60018060401b03811161017d5761017960209161003f565b0190565b610049565b90825f9392825e0152565b909291926101a261019d82610161565b610084565b938185526020850190828401116101be576101bc92610182565b565b61015d565b9080601f830112156101e1578160206101de9351910161018d565b90565b610100565b919091604081840312610236576101fd6040610084565b9261020a815f840161014e565b5f850152602082015160018060401b0381116102315761022a92016101c3565b6020830152565b6100a5565b6100a1565b92919061024f61024a82610104565b610084565b93818552602080860192028101918383116102a45781905b838210610275575050505050565b815160018060401b03811161029f5760209161029487849387016101e6565b815201910190610267565b610100565b61011f565b9080601f830112156102c7578160206102c49351910161023b565b90565b610100565b91909160408184031261030a576102e5835f83016100d3565b92602082015160018060401b0381116103055761030292016102a9565b90565b61009d565b610099565b61032d6149198038038061032281610084565b9283398101906102cc565b9091565b5190565b90565b90565b90565b61035261034d61035792610338565b61033b565b610335565b90565b60209181520190565b5f7f746f6f206d616e79206f70657261746f72730000000000000000000000000000910152565b610397601260209261035a565b6103a081610363565b0190565b6103b99060208101905f81830391015261038a565b90565b156103c357565b6103cb610035565b62461bcd60e51b8152806103e1600482016103a4565b0390fd5b5f1b90565b906103fb60018060a01b03916103e5565b9181191691161790565b61041961041461041e92610123565b61033b565b610123565b90565b61042a90610405565b90565b61043690610421565b90565b90565b9061045161044c6104589261042d565b610439565b82546103ea565b9055565b634e487b7160e01b5f525f60045260245ffd5b61047990516100a9565b90565b9061048961ffff916103e5565b9181191691161790565b6104a76104a26104ac926100a9565b61033b565b6100a9565b90565b90565b906104c76104c26104ce92610493565b6104af565b825461047c565b9055565b906104e45f806104ea9401920161046f565b906104b2565b565b906104f6916104d2565b565b90565b61050f61050a610514926104f8565b61033b565b610335565b90565b60016105239101610335565b90565b634e487b7160e01b5f52603260045260245ffd5b9061054482610331565b811015610555576020809102010190565b610526565b5190565b610568905161012e565b90565b906105759061042d565b5f5260205260405f2090565b5f1c90565b60ff1690565b61059861059d91610581565b610586565b90565b6105aa905461058c565b90565b151590565b5f7f6475706c6963617465206f70657261746f720000000000000000000000000000910152565b6105e6601260209261035a565b6105ef816105b2565b0190565b6106089060208101905f8183039101526105d9565b90565b1561061257565b61061a610035565b62461bcd60e51b815280610630600482016105f3565b0390fd5b60ff1690565b61064e61064961065392610335565b61033b565b610634565b90565b6106606040610084565b90565b9061066d906105ad565b9052565b9061067b90610634565b9052565b61068990516105ad565b90565b9061069860ff916103e5565b9181191691161790565b6106ab906105ad565b90565b90565b906106c66106c16106cd926106a2565b6106ae565b825461068c565b9055565b6106db9051610634565b90565b60081b90565b906106f161ff00916106de565b9181191691161790565b61070f61070a61071492610634565b61033b565b610634565b90565b90565b9061072f61072a610736926106fb565b610717565b82546106e4565b9055565b9061076460205f61076a9461075c82820161075684880161067f565b906106b1565b0192016106d1565b9061071a565b565b906107769161073a565b565b5061010090565b90565b61078b81610778565b8210156107a55761079d60029161077f565b910201905f90565b610526565b5190565b634e487b7160e01b5f52602260045260245ffd5b90600160028304921680156107e2575b60208310146107dd57565b6107ae565b91607f16916107d2565b5f5260205f2090565b601f602091010490565b1b90565b9190600861081e9102916108185f19846107ff565b926107ff565b9181191691161790565b61083c61083761084192610335565b61033b565b610335565b90565b90565b919061085d61085861086593610828565b610844565b908354610803565b9055565b5f90565b61087f91610879610869565b91610847565b565b5b81811061088d575050565b8061089a5f60019361086d565b01610882565b9190601f81116108b0575b505050565b6108bc6108e1936107ec565b9060206108c8846107f5565b830193106108e9575b6108da906107f5565b0190610881565b5f80806108ab565b91506108da819290506108d1565b1c90565b9061090b905f19906008026108f7565b191690565b8161091a916108fb565b906002021790565b9061092c8161055a565b9060018060401b0382116109ea5761094e8261094885546107c2565b856108a0565b602090601f831160011461098257918091610971935f92610976575b5050610910565b90555b565b90915001515f8061096a565b601f19831691610991856107ec565b925f5b8181106109d2575091600293918560019694106109b8575b50505002019055610974565b6109c8910151601f8416906108fb565b90555f80806109ac565b91936020600181928787015181550195019201610994565b610049565b906109f991610922565b565b90610a2660206001610a2c94610a1e5f8201610a185f880161055e565b9061043c565b0192016107aa565b906109ef565b565b9190610a3f57610a3d916109fb565b565b61045c565b90610a505f19916103e5565b9181191691161790565b90610a6f610a6a610a7692610828565b610844565b8254610a44565b9055565b90565b610a89610a8e91610581565b610a7a565b90565b610a9b9054610a7d565b90565b50600290565b90565b610ab081610a9e565b821015610aca57610ac2600291610aa4565b910201905f90565b610526565b610b0c90610afa610adf84610331565b610af3610aed61010061033e565b91610335565b11156103bc565b610b04335f61043c565b6102086104ec565b610b155f6104fb565b5b80610b31610b2b610b2685610331565b610335565b91610335565b1015610c1c57610c1790610b5b610b566020610b4e86859061053a565b51015161055a565b610db4565b610b99610b94610b8e5f610b8881600101610b8283610b7b8b8a9061053a565b510161055e565b9061056b565b016105a0565b156105ad565b61060b565b610bef6001610bc7610baa8461063a565b610bbe610bb5610656565b935f8501610663565b60208301610671565b610bea5f600101610be45f610bdd89889061053a565b510161055e565b9061056b565b61076c565b610c12610bfd84839061053a565b51610c0c600180018490610782565b90610a2e565b610517565b610b16565b50610c39610c34610c2f610c4493610331565b61063a565b610e96565b610201600101610a5a565b610c6a610c55610201600101610a91565b5f610c636102038290610aa7565b5001610a5a565b565b5f7f656d707479206f70657261746f72206461746100000000000000000000000000910152565b610ca0601360209261035a565b610ca981610c6c565b0190565b610cc29060208101905f818303910152610c93565b90565b15610ccc57565b610cd4610035565b62461bcd60e51b815280610cea60048201610cad565b0390fd5b61ffff1690565b610d01610d0691610581565b610cee565b90565b610d139054610cf5565b90565b610d2a610d25610d2f926100a9565b61033b565b610335565b90565b5f7f6f70657261746f72206461746120746f6f206c61726765000000000000000000910152565b610d66601760209261035a565b610d6f81610d32565b0190565b610d889060208101905f818303910152610d59565b90565b15610d9257565b610d9a610035565b62461bcd60e51b815280610db060048201610d73565b0390fd5b610df990610dd481610dce610dc85f6104fb565b91610335565b11610cc5565b610df2610dec610de75f61020801610d09565b610d16565b91610335565b1115610d8b565b565b610e0f610e0a610e1492610634565b61033b565b610335565b90565b90565b610e2e610e29610e3392610e17565b61033b565b610335565b90565b610e5590610e4f610e49610e5a94610335565b91610335565b906107ff565b610335565b90565b634e487b7160e01b5f52601160045260245ffd5b610e80610e8691939293610335565b92610335565b8203918211610e9157565b610e5d565b610ebf610ecf91610ea5610869565b50610eba610eb4600192610dfb565b91610e1a565b610e36565b610ec96001610e1a565b90610e71565b9056fe60806040526004361015610013575b6107fc565b61001d5f356100cc565b806326322217146100c75780632b726062146100c257806347011c5c146100bd57806353bfb584146100b857806365706f9c146100b357806375418b9d146100ae5780639d44e717146100a9578063c05665dd146100a4578063e88e97491461009f578063f2fde38b1461009a5763f5f2d9f10361000e576107c9565b610796565b610763565b610730565b6106bc565b610646565b6102e1565b61027d565b61023b565b6101d6565b610135565b60e01c90565b60405190565b5f80fd5b5f80fd5b5f80fd5b5f80fd5b908160409103126100f65790565b6100e4565b9060208282031261012b575f82013567ffffffffffffffff81116101265761012392016100e8565b90565b6100e0565b6100dc565b5f0190565b346101635761014d6101483660046100fb565b610f6e565b6101556100d2565b8061015f81610130565b0390f35b6100d8565b60ff1690565b61017781610168565b0361017e57565b5f80fd5b9050359061018f8261016e565b565b9190916040818403126101d1576101aa835f8301610182565b92602082013567ffffffffffffffff81116101cc576101c992016100e8565b90565b6100e0565b6100dc565b34610205576101ef6101e9366004610191565b906115ec565b6101f76100d2565b8061020181610130565b0390f35b6100d8565b908160409103126102185790565b6100e4565b9060408282031261023657610233915f0161020a565b90565b6100dc565b346102695761025361024e36600461021d565b611d3c565b61025b6100d2565b8061026581610130565b0390f35b6100d8565b5f91031261027857565b6100dc565b346102ab5761028d36600461026e565b610295611ef1565b61029d6100d2565b806102a781610130565b0390f35b6100d8565b908160209103126102be5790565b6100e4565b906020828203126102dc576102d9915f016102b0565b90565b6100dc565b3461030f576102f96102f43660046102c3565b612097565b6103016100d2565b8061030b81610130565b0390f35b6100d8565b60018060a01b031690565b61032890610314565b90565b6103349061031f565b9052565b5190565b60209181520190565b60200190565b5190565b60209181520190565b90825f9392825e0152565b601f801991011690565b61038c61039560209361039a936103838161034b565b9384809361034f565b95869101610358565b610363565b0190565b6103c991602060408201926103b95f8201515f85019061032b565b015190602081840391015261036d565b90565b906103d69161039e565b90565b60200190565b906103f36103ec83610338565b809261033c565b908161040460208302840194610345565b925f915b83831061041757505050505090565b90919293946020610439610433838560019503875289516103cc565b976103d9565b9301930191939290610408565b50600290565b905090565b90565b90565b61046090610454565b9052565b61046d90610168565b9052565b90602080610493936104895f8201515f860190610457565b0151910190610464565b565b906104a281604093610471565b0190565b60200190565b6104c86104c26104bb83610446565b809461044c565b91610451565b5f915b8383106104d85750505050565b6104ee6104e86001928451610495565b926104a6565b920191906104cb565b67ffffffffffffffff1690565b61050d906104f7565b9052565b61ffff1690565b61052190610511565b9052565b905f80610536930151910190610518565b565b9060208061055a936105505f8201515f860190610504565b0151910190610457565b565b905f8061056d93015191019061032b565b565b6fffffffffffffffffffffffffffffffff1690565b61058d9061056f565b9052565b9061062b9061016060e06105c561018084016105b35f8801515f87019061032b565b602087015185820360208701526103df565b946105d8604082015160408601906104ac565b6105ea606082015160c0860190610504565b6105fb608082015183860190610525565b61060e60a0820151610100860190610538565b61062160c082015161014086019061055c565b0151910190610584565b90565b6106439160208201915f818403910152610591565b90565b346106765761065636600461026e565b61067261066161266b565b6106696100d2565b9182918261062e565b0390f35b6100d8565b610684816104f7565b0361068b57565b5f80fd5b9050359061069c8261067b565b565b906020828203126106b7576106b4915f0161068f565b90565b6100dc565b346106ea576106d46106cf36600461069e565b612bde565b6106dc6100d2565b806106e681610130565b0390f35b6100d8565b6106f88161031f565b036106ff57565b5f80fd5b90503590610710826106ef565b565b9060208282031261072b57610728915f01610703565b90565b6100dc565b3461075e57610748610743366004610712565b61305a565b6107506100d2565b8061075a81610130565b0390f35b6100d8565b346107915761077b61077636600461069e565b6131bc565b6107836100d2565b8061078d81610130565b0390f35b6100d8565b346107c4576107ae6107a9366004610712565b613264565b6107b66100d2565b806107c081610130565b0390f35b6100d8565b346107f7576107d936600461026e565b6107e1613377565b6107e96100d2565b806107f381610130565b0390f35b6100d8565b5f80fd5b5f80fd5b5f80fd5b5f80fd5b90359060016020038136030382121561084e570180359067ffffffffffffffff82116108495760200191600182023603831361084457565b610808565b610804565b610800565b5090565b35610861816106ef565b90565b5f1c90565b60018060a01b031690565b61088061088591610864565b610869565b90565b6108929054610874565b90565b60209181520190565b5f7f756e617574686f72697a65640000000000000000000000000000000000000000910152565b6108d2600c602092610895565b6108db8161089e565b0190565b6108f49060208101905f8183039101526108c5565b90565b156108fe57565b6109066100d2565b62461bcd60e51b81528061091c600482016108df565b0390fd5b90565b61093761093261093c92610314565b610920565b610314565b90565b61094890610923565b90565b6109549061093f565b90565b906109619061094b565b5f5260205260405f2090565b90565b60ff1690565b61098261098791610864565b610970565b90565b6109949054610976565b90565b5f7f756e6b6e6f776e206f70657261746f7200000000000000000000000000000000910152565b6109cb6010602092610895565b6109d481610997565b0190565b6109ed9060208101905f8183039101526109be565b90565b156109f757565b6109ff6100d2565b62461bcd60e51b815280610a15600482016109d8565b0390fd5b60081c90565b60ff1690565b610a31610a3691610a19565b610a1f565b90565b610a439054610a25565b90565b634e487b7160e01b5f52603260045260245ffd5b5061010090565b90565b610a6d81610a5a565b821015610a8757610a7f600291610a61565b910201905f90565b610a46565b634e487b7160e01b5f525f60045260245ffd5b5f1b90565b90610ab560018060a01b0391610a9f565b9181191691161790565b90565b90610ad7610ad2610ade9261094b565b610abf565b8254610aa4565b9055565b634e487b7160e01b5f52604160045260245ffd5b634e487b7160e01b5f52602260045260245ffd5b9060016002830492168015610b2a575b6020831014610b2557565b610af6565b91607f1691610b1a565b5f5260205f2090565b601f602091010490565b1b90565b91906008610b66910291610b605f1984610b47565b92610b47565b9181191691161790565b610b84610b7f610b8992610454565b610920565b610454565b90565b90565b9190610ba5610ba0610bad93610b70565b610b8c565b908354610b4b565b9055565b5f90565b610bc791610bc1610bb1565b91610b8f565b565b5b818110610bd5575050565b80610be25f600193610bb5565b01610bca565b9190601f8111610bf8575b505050565b610c04610c2993610b34565b906020610c1084610b3d565b83019310610c31575b610c2290610b3d565b0190610bc9565b5f8080610bf3565b9150610c2281929050610c19565b1c90565b90610c53905f1990600802610c3f565b191690565b81610c6291610c43565b906002021790565b91610c759082610853565b9067ffffffffffffffff8211610d3457610c9982610c938554610b0a565b85610be8565b5f90601f8311600114610ccc57918091610cbb935f92610cc0575b5050610c58565b90555b565b90915001355f80610cb4565b601f19831691610cdb85610b34565b925f5b818110610d1c57509160029391856001969410610d02575b50505002019055610cbe565b610d12910135601f841690610c43565b90555f8080610cf6565b91936020600181928787013581550195019201610cde565b610ae2565b90610d449291610c6a565b565b90610d736001610d7993610d675f8201610d615f8701610857565b90610ac2565b0191602081019061080c565b91610d39565b565b9190610d8c57610d8a91610d46565b565b610a8c565b6fffffffffffffffffffffffffffffffff1690565b610db2610db791610864565b610d91565b90565b610dc49054610da6565b90565b634e487b7160e01b5f52601160045260245ffd5b610de49061056f565b6fffffffffffffffffffffffffffffffff8114610e015760010190565b610dc7565b90610e216fffffffffffffffffffffffffffffffff91610a9f565b9181191691161790565b610e3f610e3a610e449261056f565b610920565b61056f565b90565b90565b90610e5f610e5a610e6692610e2b565b610e47565b8254610e06565b9055565b50610e79906020810190610703565b90565b5f80fd5b5f80fd5b5f80fd5b9035600160200382360303811215610ec957016020813591019167ffffffffffffffff8211610ec4576001820236038313610ebf57565b610e80565b610e7c565b610e84565b90825f939282370152565b9190610ef381610eec81610ef89561034f565b8095610ece565b610363565b0190565b610f3891610f2a6040820192610f20610f175f830183610e6a565b5f85019061032b565b6020810190610e88565b916020818503910152610ed9565b90565b610f449061056f565b9052565b92916020610f64610f6c9360408701908782035f890152610efc565b940190610f3b565b565b610f8d610f88610f8283602081019061080c565b90610853565b6134a1565b33610faa610fa4610f9f5f8501610857565b61031f565b9161031f565b148015611075575b610fbb906108f7565b611011610fde610fd95f600101610fd35f8601610857565b90610957565b61096d565b610ff1610fec5f830161098a565b6109f0565b61100b83916110055f600180019201610a39565b90610a64565b90610d7b565b61102f61102761102261020c610dba565b610ddb565b61020c610e4a565b61103a61020c610dba565b7f5aab2c32b1e447db4dba1d2790fe8b863d4775042b10b92e00dab9d6b671b5b5916110706110676100d2565b92839283610f48565b0390a1565b50610fbb3361109461108e6110895f610888565b61031f565b9161031f565b149050610fb2565b5f7f6e6f7420746865206f776e657200000000000000000000000000000000000000910152565b6110d0600d602092610895565b6110d98161109c565b0190565b6110f29060208101905f8183039101526110c3565b90565b156110fc57565b6111046100d2565b62461bcd60e51b81528061111a600482016110dd565b0390fd5b9061114c916111473361114161113b6111365f610888565b61031f565b9161031f565b146110f5565b61147f565b565b151590565b5f7f616c726561647920657869737473000000000000000000000000000000000000910152565b611187600e602092610895565b61119081611153565b0190565b6111a99060208101905f81830391015261117a565b90565b156111b357565b6111bb6100d2565b62461bcd60e51b8152806111d160048201611194565b0390fd5b6111df9054610b0a565b90565b90565b6111f96111f46111fe926111e2565b610920565b610454565b90565b5f7f736c6f74206f6363757069656400000000000000000000000000000000000000910152565b611235600d602092610895565b61123e81611201565b0190565b6112579060208101905f818303910152611228565b90565b1561126157565b6112696100d2565b62461bcd60e51b81528061127f60048201611242565b0390fd5b9061128d90610363565b810190811067ffffffffffffffff8211176112a757604052565b610ae2565b906112bf6112b86100d2565b9283611283565b565b6112cb60406112ac565b90565b906112d89061114e565b9052565b906112e690610168565b9052565b6112f4905161114e565b90565b9061130360ff91610a9f565b9181191691161790565b6113169061114e565b90565b90565b9061133161132c6113389261130d565b611319565b82546112f7565b9055565b6113469051610168565b90565b60081b90565b9061135c61ff0091611349565b9181191691161790565b61137a61137561137f92610168565b610920565b610168565b90565b90565b9061139a6113956113a192611366565b611382565b825461134f565b9055565b906113cf60205f6113d5946113c78282016113c18488016112ea565b9061131c565b01920161133c565b90611385565b565b906113e1916113a5565b565b90565b6113f26113f791610864565b6113e3565b90565b61140490546113e6565b90565b906114135f1991610a9f565b9181191691161790565b9061143261142d61143992610b70565b610b8c565b8254611407565b9055565b61144690610168565b9052565b93929061147560409161147d9461146860608901925f8a019061143d565b8782036020890152610efc565b940190610f3b565b565b61149e61149961149384602081019061080c565b90610853565b6134a1565b6114d16114cc6114c65f6114c0816001016114ba838901610857565b90610957565b0161098a565b1561114e565b6111ac565b6115056114ed60016114e68180018590610a64565b50016111d5565b6114ff6114f95f6111e5565b91610454565b1461125a565b611548600161152b836115226115196112c1565b935f85016112ce565b602083016112dc565b6115435f60010161153d5f8701610857565b90610957565b6113d7565b6115608261155a600180018490610a64565b90610d7b565b61158661157b6115746102016001016113fa565b839061352b565b61020160010161141d565b6115a461159c61159761020c610dba565b610ddb565b61020c610e4a565b906115b061020c610dba565b916115e77f952e65f049c574f487580ba41dcf6b0ea8350ef8abc8647a8a11dfaa7af6bad6936115de6100d2565b9384938461144a565b0390a1565b906115f69161111e565b565b611625906116203361161a61161461160f5f610888565b61031f565b9161031f565b146110f5565b6116a9565b565b5f7f6d6967726174696f6e20696e2070726f67726573730000000000000000000000910152565b61165b6015602092610895565b61166481611627565b0190565b61167d9060208101905f81830391015261164e565b90565b1561168757565b61168f6100d2565b62461bcd60e51b8152806116a560048201611668565b0390fd5b6116cb906116c66116c16116bb61355a565b1561114e565b611680565b61174f565b565b5f7f6d61696e74656e616e636520696e2070726f6772657373000000000000000000910152565b6117016017602092610895565b61170a816116cd565b0190565b6117239060208101905f8183039101526116f4565b90565b1561172d57565b6117356100d2565b62461bcd60e51b81528061174b6004820161170e565b0390fd5b6117719061176c611767611761613588565b1561114e565b611726565b611b76565b565b61177c81610454565b0361178357565b5f80fd5b3561179181611773565b90565b5f7f696e76616c6964206269746d61736b0000000000000000000000000000000000910152565b6117c8600f602092610895565b6117d181611794565b0190565b6117ea9060208101905f8183039101526117bb565b90565b156117f457565b6117fc6100d2565b62461bcd60e51b815280611812600482016117d5565b0390fd5b67ffffffffffffffff1690565b61182f61183491610864565b611816565b90565b6118419054611823565b90565b90565b61185b61185661186092611844565b610920565b6104f7565b90565b634e487b7160e01b5f52601260045260245ffd5b611883611889916104f7565b916104f7565b908115611894570690565b611863565b50600290565b90565b6118ab81611899565b8210156118c5576118bd60029161189f565b910201905f90565b610a46565b906118d490610454565b9052565b6118e46118e991610864565b610a1f565b90565b6118f690546118d8565b90565b61190360406112ac565b90565b9061193d61193460016119176118f9565b9461192e6119265f83016113fa565b5f88016118ca565b016118ec565b602084016112dc565b565b61194890611906565b90565b6119559051610454565b90565b356119628161016e565b90565b5f7f73616d65206b6579737061636500000000000000000000000000000000000000910152565b611999600d602092610895565b6119a281611965565b0190565b6119bb9060208101905f81830391015261198c565b90565b156119c557565b6119cd6100d2565b62461bcd60e51b8152806119e3600482016119a6565b0390fd5b6119f0906104f7565b67ffffffffffffffff8114611a055760010190565b610dc7565b90611a1d67ffffffffffffffff91610a9f565b9181191691161790565b611a3b611a36611a40926104f7565b610920565b6104f7565b90565b90565b90611a5b611a56611a6292611a27565b611a43565b8254611a0a565b9055565b90611a7b611a76611a8292611366565b611382565b82546112f7565b9055565b90611ab160206001611ab794611aa95f8201611aa35f8801611787565b9061141d565b019201611958565b90611a66565b565b9190611aca57611ac891611a86565b565b610a8c565b611ad8906104f7565b9052565b90503590611ae982611773565b565b50611afa906020810190611adc565b90565b50611b0c906020810190610182565b90565b906020611b3a611b4293611b31611b285f830183611aeb565b5f860190610457565b82810190611afd565b910190610464565b565b606090611b6d611b749496959396611b6360808401985f850190611acf565b6020830190611b0f565b0190610f3b565b565b611ba0611b9b611b875f8401611787565b611b956102016001016113fa565b906135bd565b6117ed565b611c0d611bd6611bd0610203611bca611bba610207611837565b611bc46002611847565b90611877565b906118a2565b5061193f565b611be15f820161194b565b611bfd611bf7611bf25f8701611787565b610454565b91610454565b1415908115611d0a575b506119be565b611c2c5f61020901611c26611c2182611837565b6119e7565b90611a46565b611c4a611c42611c3d610207611837565b6119e7565b610207611a46565b611c7e81611c78610203611c72611c62610207611837565b611c6c6002611847565b90611877565b906118a2565b90611ab9565b611c97611c8c5f8301611787565b60016102090161141d565b611cb5611cad611ca861020c610dba565b610ddb565b61020c610e4a565b611cc25f61020901611837565b90611cce61020c610dba565b91611d057f490341fd8fc7a8294fbad1cc0db9f41ae0ac5aeb655ea31b46a475ec3a77749c93611cfc6100d2565b93849384611b44565b0390a1565b611d17915060200161133c565b611d34611d2e611d2960208601611958565b610168565b91610168565b14155f611c07565b611d45906115f8565b565b5f7f6e6f206d61696e74656e616e6365000000000000000000000000000000000000910152565b611d7b600e602092610895565b611d8481611d47565b0190565b611d9d9060208101905f818303910152611d6e565b90565b15611da757565b611daf6100d2565b62461bcd60e51b815280611dc560048201611d88565b0390fd5b611dd9611dd4613588565b611da0565b611de1611e20565b565b611df7611df2611dfc926111e2565b610920565b610314565b90565b611e0890611de3565b90565b9190611e1e905f60208501940190610f3b565b565b611e2d5f61020b01610888565b611e3f611e393361031f565b9161031f565b148015611eca575b611e50906108f7565b611e66611e5c5f611dff565b5f61020b01610ac2565b611e84611e7c611e7761020c610dba565b610ddb565b61020c610e4a565b611e8f61020c610dba565b611ec57f11943d6deda6f0591d72674788d272eb0209e18b8a3a021fa51cb3b5e9a2ab6191611ebc6100d2565b91829182611e0b565b0390a1565b50611e5033611ee9611ee3611ede5f610888565b61031f565b9161031f565b149050611e47565b611ef9611dc9565b565b611f2890611f2333611f1d611f17611f125f610888565b61031f565b9161031f565b146110f5565b612027565b565b611f3381610511565b03611f3a57565b5f80fd5b35611f4881611f2a565b90565b90611f5861ffff91610a9f565b9181191691161790565b611f76611f71611f7b92610511565b610920565b610511565b90565b90565b90611f96611f91611f9d92611f62565b611f7e565b8254611f4b565b9055565b90611fb35f80611fb994019201611f3e565b90611f81565b565b90611fc591611fa1565b565b90503590611fd482611f2a565b565b50611fe5906020810190611fc7565b90565b905f611ffa6120029382810190611fd6565b910190610518565b565b91602061202592949361201e60408201965f830190611fe8565b0190610f3b565b565b61203381610208611fbb565b61205161204961204461020c610dba565b610ddb565b61020c610e4a565b61205c61020c610dba565b7fb24d8d9dcfbb6be13176c1c7bfb0e76445a9ba2a3553b413d8671446f1030830916120926120896100d2565b92839283612004565b0390a1565b6120a090611efb565b565b6120ad6101006112ac565b90565b5f90565b606090565b67ffffffffffffffff81116120ce5760200290565b610ae2565b6120df6120e4916120b9565b6112ac565b90565b5f90565b5f90565b6120f76118f9565b90602080836121046120e7565b81520161210f6120eb565b81525050565b61211d6120ef565b90565b5f5b82811061212e57505050565b602090612139612115565b8184015201612122565b90612161612150836120d3565b9261215b84916120b9565b90612120565b565b61216d6002612143565b90565b5f90565b61217e60206112ac565b90565b5f90565b61218d612174565b90602082612199612181565b81525050565b6121a7612185565b90565b6121b460406112ac565b90565b6121bf6121aa565b90602080836121cc612170565b8152016121d76120e7565b81525050565b6121e56121b7565b90565b6121f260206112ac565b90565b6121fd6121e8565b906020826122096120b0565b81525050565b6122176121f5565b90565b5f90565b6122266120a2565b90602080808080808080896122396120b0565b8152016122446120b4565b81520161224f612163565b81520161225a612170565b81520161226561219f565b8152016122706121dd565b81520161227b61220f565b81520161228661221a565b81525050565b61229461221e565b90565b90565b6122ae6122a96122b392612297565b610920565b610454565b90565b6122c56122cb91939293610454565b92610454565b82018092116122d657565b610dc7565b67ffffffffffffffff81116122f35760208091020190565b610ae2565b9061230a612305836122db565b6112ac565b918252565b61231960406112ac565b90565b606090565b61232961230f565b90602080836123366120b0565b81520161234161231c565b81525050565b61234f612321565b90565b5f5b82811061236057505050565b60209061236b612347565b8184015201612354565b9061239a612382836122f8565b9260208061239086936122db565b9201910390612352565b565b6123a76101006112ac565b90565b906123b49061031f565b9052565b52565b906123c582611899565b6123ce816120d3565b926123d9849161189f565b5f915b8383106123e95750505050565b600260206001926123f98561193f565b8152019201920191906123dc565b612410906123bb565b90565b52565b90612420906104f7565b9052565b61ffff1690565b61243761243c91610864565b612424565b90565b612449905461242b565b90565b9061245690610511565b9052565b906124796124715f61246a612174565b940161243f565b5f840161244c565b565b6124849061245a565b90565b52565b906124c16124b8600161249b6121aa565b946124b26124aa5f8301611837565b5f8801612416565b016113fa565b602084016118ca565b565b6124cc9061248a565b90565b52565b906124f16124e95f6124e26121e8565b9401610888565b5f84016123aa565b565b6124fc906124d2565b90565b52565b9061250c9061056f565b9052565b61251990610454565b5f1981146125275760010190565b610dc7565b61254061253b61254592610454565b610920565b610168565b90565b9061255282610338565b811015612563576020809102010190565b610a46565b905f929180549061258261257b83610b0a565b809461034f565b916001811690815f146125d9575060011461259d575b505050565b6125aa9192939450610b34565b915f925b8184106125c157505001905f8080612598565b600181602092959395548486015201910192906125ae565b92949550505060ff19168252151560200201905f8080612598565b906125fe91612568565b90565b9061262161261a926126116100d2565b938480926125f4565b0383611283565b565b52565b9061265d612654600161263761230f565b9461264e6126465f8301610888565b5f88016123aa565b01612601565b60208401612623565b565b61266890612626565b90565b61267361228c565b50600161020101612683906113fa565b61268c906135e8565b6126955f610888565b8160016126a19061229a565b6126aa916122b6565b6126b390612375565b6102036126c1610207611837565b6102086102099161020b936126d761020c610dba565b956126e061239c565b975f8901906126ee916123aa565b60208801906126fc916123b8565b61270590612407565b604087019061271391612413565b606086019061272191612416565b61272a9061247b565b608085019061273891612487565b612741906124c3565b60a084019061274f916124cf565b612758906124f3565b60c0830190612766916124ff565b60e082019061277491612502565b600161020101612783906113fa565b925f61278e906111e5565b5b806127a261279c86610454565b91610454565b11612805576127fb906127be866127b88361252c565b906135fd565b612800576127f36127d3600180018390610a64565b5060208601516127e3849261265f565b6127ed8383612548565b52612548565b51505b612510565b61278f565b6127f6565b509250905090565b5f7f6e6f206d6967726174696f6e0000000000000000000000000000000000000000910152565b612841600c602092610895565b61284a8161280d565b0190565b6128639060208101905f818303910152612834565b90565b1561286d57565b6128756100d2565b62461bcd60e51b81528061288b6004820161284e565b0390fd5b6128a8906128a361289e61355a565b612866565b612a3e565b565b5f7f77726f6e67206d6967726174696f6e2069640000000000000000000000000000910152565b6128de6012602092610895565b6128e7816128aa565b0190565b6129009060208101905f8183039101526128d1565b90565b1561290a57565b6129126100d2565b62461bcd60e51b815280612928600482016128eb565b0390fd5b61293660406112ac565b90565b9061296f6129665f61294961292c565b9461296061295883830161098a565b8388016112ce565b01610a39565b602084016112dc565b565b61297a90612939565b90565b5f7f6e6f742070756c6c696e67000000000000000000000000000000000000000000910152565b6129b1600b602092610895565b6129ba8161297d565b0190565b6129d39060208101905f8183039101526129a4565b90565b156129dd57565b6129e56100d2565b62461bcd60e51b8152806129fb600482016129be565b0390fd5b612a089061031f565b9052565b604090612a35612a3c9496959396612a2b60608401985f850190611acf565b60208301906129ff565b0190610f3b565b565b612a6690612a60612a5a612a555f61020901611837565b6104f7565b916104f7565b14612903565b612aeb612ae0612a82612a7d5f6001013390610957565b612971565b612a95612a905f83016112ea565b6109f0565b612ac0612abb612aa96001610209016113fa565b612ab56020850161133c565b9061363b565b6129d6565b612ada6020612ad36001610209016113fa565b920161133c565b9061367a565b60016102090161141d565b612b09612b01612afc61020c610dba565b610ddb565b61020c610e4a565b612b176001610209016113fa565b612b29612b235f6111e5565b91610454565b145f14612b8657612b3d5f61020901611837565b33612b4961020c610dba565b91612b807f01269879535f40ee8957e15e160bf1866c5e2728ff0cbc583d848821e2639b4e93612b776100d2565b93849384612a0c565b0390a15b565b612b935f61020901611837565b33612b9f61020c610dba565b91612bd67faf5e90e72015f43138f66b4cd08bd1dfa2839030104f22a00af843fe847c6d1993612bcd6100d2565b93849384612a0c565b0390a1612b84565b612be79061288f565b565b612c1690612c1133612c0b612c05612c005f610888565b61031f565b9161031f565b146110f5565b612eb7565b565b5f7f696e206b65797370616365000000000000000000000000000000000000000000910152565b612c4c600b602092610895565b612c5581612c18565b0190565b612c6e9060208101905f818303910152612c3f565b90565b15612c7857565b612c806100d2565b62461bcd60e51b815280612c9660048201612c59565b0390fd5b5f80910155565b905f03612cb357612cb190612c9a565b565b610a8c565b90612ccb905f1990602003600802610c3f565b8154169055565b905f91612ce9612ce182610b34565b928354610c58565b905555565b919290602082105f14612d4757601f8411600114612d1757612d11929350610c58565b90555b5b565b5090612d3d612d42936001612d34612d2e85610b34565b92610b3d565b82019101610bc9565b612cd2565b612d14565b50612d7e8293612d58600194610b34565b612d77612d6485610b3d565b820192601f861680612d89575b50610b3d565b0190610bc9565b600202179055612d15565b612d9590888603612cb8565b5f612d71565b929091680100000000000000008211612dfb576020115f14612dec57602081105f14612dd057612dca91610c58565b90555b5b565b60019160ff1916612de084610b34565b55600202019055612dcd565b60019150600202019055612dce565b610ae2565b908154612e0c81610b0a565b90818311612e35575b818310612e23575b50505050565b612e2c93612cee565b5f808080612e1d565b612e4183838387612d9b565b612e15565b5f612e5091612e00565b565b905f03612e6457612e6290612e46565b565b610a8c565b5f6001612e7b92828082015501612e52565b565b905f03612e8f57612e8d90612e69565b565b610a8c565b916020612eb5929493612eae60408201965f8301906129ff565b0190610f3b565b565b612f7c612f71612ef05f612ed7612ed2826001018790610957565b61096d565b612eea612ee583830161098a565b6109f0565b01610a39565b612ef861355a565b5f1461300e57612f20612f195f612f1261020382906118a2565b50016113fa565b82906135fd565b80612fe0575b612f2f90612c71565b5b612f475f612f42816001018790610957565b612ca1565b612f5e612f58600180018390610a64565b90612e7d565b612f6c6102016001016113fa565b61367a565b61020160010161141d565b612f9a612f92612f8d61020c610dba565b610ddb565b61020c610e4a565b612fa561020c610dba565b7f6a1d7ddc82d57e783a3ae60737a6c1a4704fcf38d966561fea0af8564f2d895d91612fdb612fd26100d2565b92839283612e94565b0390a1565b50612f2f6130076130005f612ff96102036001906118a2565b50016113fa565b83906135fd565b9050612f26565b6130556130506130495f61304261020361303c61302c610207611837565b6130366002611847565b90611877565b906118a2565b50016113fa565b83906135fd565b612c71565b612f30565b61306390612be9565b565b6130929061308d3361308761308161307c5f610888565b61031f565b9161031f565b146110f5565b613094565b565b6130ad906130a86130a361355a565b612866565b6130ee565b565b6130b8906104f7565b5f81146130c6576001900390565b610dc7565b9160206130ec9294936130e560408201965f830190611acf565b0190610f3b565b565b6131169061311061310a6131055f61020901611837565b6104f7565b916104f7565b14612903565b61313461312c613127610207611837565b6130af565b610207611a46565b61314b6131405f6111e5565b60016102090161141d565b61316961316161315c61020c610dba565b610ddb565b61020c610e4a565b6131765f61020901611837565b61318161020c610dba565b7ff73240422246f63ed633ef3ce0726b8ab8fb69d46c8a4e5ecb0b2922668674a1916131b76131ae6100d2565b928392836130cb565b0390a1565b6131c590613065565b565b6131f4906131ef336131e96131e36131de5f610888565b61031f565b9161031f565b146110f5565b6131f6565b565b613200815f610ac2565b61321e61321661321161020c610dba565b610ddb565b61020c610e4a565b61322961020c610dba565b7f476610ebc6647c15376100955efbf22ef2a0c3b923fc00b380b660c873ef20ac9161325f6132566100d2565b92839283612e94565b0390a1565b61326d906131c7565b565b61328861328361327d61355a565b1561114e565b611680565b613290613292565b565b6132ab6132a66132a0613588565b1561114e565b611726565b6132b36132b5565b565b6132cd5f6132c7816001013390610957565b0161098a565b8015613350575b6132dd906108f7565b6132eb335f61020b01610ac2565b6133096133016132fc61020c610dba565b610ddb565b61020c610e4a565b3361331561020c610dba565b7fbc2748cf02f7a1291525e866efc76ab3b96d32d7afcbb26c53daec617b38b4799161334b6133426100d2565b92839283612e94565b0390a1565b506132dd3361336f6133696133645f610888565b61031f565b9161031f565b1490506132d4565b61337f61326f565b565b5f7f656d707479206f70657261746f72206461746100000000000000000000000000910152565b6133b56013602092610895565b6133be81613381565b0190565b6133d79060208101905f8183039101526133a8565b90565b156133e157565b6133e96100d2565b62461bcd60e51b8152806133ff600482016133c2565b0390fd5b61341761341261341c92610511565b610920565b610454565b90565b5f7f6f70657261746f72206461746120746f6f206c61726765000000000000000000910152565b6134536017602092610895565b61345c8161341f565b0190565b6134759060208101905f818303910152613446565b90565b1561347f57565b6134876100d2565b62461bcd60e51b81528061349d60048201613460565b0390fd5b6134e6906134c1816134bb6134b55f6111e5565b91610454565b116133da565b6134df6134d96134d45f6102080161243f565b613403565b91610454565b1115613478565b565b6134fc6134f761350192610168565b610920565b610454565b90565b6135239061351d61351761352894610454565b91610454565b90610b47565b610454565b90565b61355290613537610bb1565b509161354d6135476001926134e8565b9161229a565b613504565b1790565b5f90565b613562613556565b506135716001610209016113fa565b61358361357d5f6111e5565b91610454565b141590565b613590613556565b5061359e5f61020b01610888565b6135b86135b26135ad5f611dff565b61031f565b9161031f565b141590565b6135d1906135c9613556565b509119610454565b166135e46135de5f6111e5565b91610454565b1490565b6135fa906135f4610bb1565b5061386d565b90565b61362490613609613556565b509161361f6136196001926134e8565b9161229a565b613504565b166136376136315f6111e5565b91610454565b1490565b61366290613647613556565b509161365d6136576001926134e8565b9161229a565b613504565b1661367561366f5f6111e5565b91610454565b141590565b6136a46136aa91613689610bb1565b509261369f6136996001926134e8565b9161229a565b613504565b19610454565b1690565b90565b6136c56136c06136ca926136ae565b610920565b610454565b90565b90565b6136e46136df6136e9926136cd565b610920565b610168565b90565b61370b906137056136ff61371094610168565b91610454565b90610b47565b610454565b90565b6137329061372c61372661373794610454565b91610454565b90610c3f565b610454565b90565b90565b61375161374c6137569261373a565b610920565b610454565b90565b90565b61377061376b61377592613759565b610920565b610168565b90565b90565b61378f61378a61379492613778565b610920565b610454565b90565b90565b6137ae6137a96137b392613797565b610920565b610168565b90565b90565b6137cd6137c86137d2926137b6565b610920565b610454565b90565b90565b6137ec6137e76137f1926137d5565b610920565b610168565b90565b90565b61380b613806613810926137f4565b610920565b610454565b90565b90565b61382a61382561382f92613813565b610920565b610168565b90565b90565b61384961384461384e92613832565b610920565b610454565b90565b61386561386061386a92611844565b610920565b610168565b90565b613875610bb1565b506138b56138a58261389f6138996fffffffffffffffffffffffffffffffff6136b1565b91610454565b11613a02565b6138af60076136d0565b906136ec565b6138f66138e66138c6848490613713565b6138e06138da67ffffffffffffffff61373d565b91610454565b11613a02565b6138f0600661375c565b906136ec565b17613934613924613908848490613713565b61391e61391863ffffffff61377b565b91610454565b11613a02565b61392e600561379a565b906136ec565b17613970613960613946848490613713565b61395a61395461ffff6137b9565b91610454565b11613a02565b61396a60046137d8565b906136ec565b176139ab61399b613982848490613713565b61399561398f60ff6137f7565b91610454565b11613a02565b6139a56003613816565b906136ec565b176139e66139d66139bd848490613713565b6139d06139ca600f613835565b91610454565b11613a02565b6139e06002613851565b906136ec565b17906d010102020202030303030303030360801b90821c1a1790565b613a0a610bb1565b5015159056fea2646970667358221220bc4a2db5c2380b433af49bee3a9ba8346459244bbf4bf330a5ad42faf155a8c364736f6c634300081c0033","linkReferences":{}},"methodIdentifiers":{"abortMigration(uint64)":"e88e9749","addNodeOperator(uint8,(address,bytes))":"2b726062","completeMigration(uint64)":"9d44e717","finishMaintenance()":"53bfb584","getView()":"75418b9d","removeNodeOperator(address)":"c05665dd","startMaintenance()":"f5f2d9f1","startMigration((uint256,uint8))":"47011c5c","transferOwnership(address)":"f2fde38b","updateNodeOperator((address,bytes))":"26322217","updateSettings((uint16))":"65706f9c"},"id":24}