{"abi":[{"type":"constructor","inputs":[{"name":"initialSettings","type":"tuple","internalType":"struct Settings","components":[{"name":"maxOperatorDataBytes","type":"uint16","internalType":"uint16"}]},{"name":"initialOperators","type":"tuple[]","internalType":"struct NodeOperator[]","components":[{"name":"addr","type":"address","internalType":"address"},{"name":"data","type":"bytes","internalType":"bytes"}]}],"stateMutability":"nonpayable"},{"type":"function","name":"abortMigration","inputs":[],"outputs":[],"stateMutability":"nonpayable"},{"type":"function","name":"completeMigration","inputs":[{"name":"id","type":"uint64","internalType":"uint64"}],"outputs":[],"stateMutability":"nonpayable"},{"type":"function","name":"createNodeOperator","inputs":[{"name":"operator","type":"tuple","internalType":"struct NodeOperator","components":[{"name":"addr","type":"address","internalType":"address"},{"name":"data","type":"bytes","internalType":"bytes"}]}],"outputs":[],"stateMutability":"nonpayable"},{"type":"function","name":"deleteNodeOperator","inputs":[{"name":"operatorAddress","type":"address","internalType":"address"}],"outputs":[],"stateMutability":"nonpayable"},{"type":"function","name":"finishMaintenance","inputs":[],"outputs":[],"stateMutability":"nonpayable"},{"type":"function","name":"getView","inputs":[],"outputs":[{"name":"","type":"tuple","internalType":"struct ClusterView","components":[{"name":"keyspace","type":"tuple","internalType":"struct KeyspaceView","components":[{"name":"operators","type":"tuple[]","internalType":"struct NodeOperator[]","components":[{"name":"addr","type":"address","internalType":"address"},{"name":"data","type":"bytes","internalType":"bytes"}]},{"name":"replicationStrategy","type":"uint8","internalType":"uint8"}]},{"name":"migration","type":"tuple","internalType":"struct Migration","components":[{"name":"id","type":"uint64","internalType":"uint64"},{"name":"pullingOperatorsBitmask","type":"uint256","internalType":"uint256"}]},{"name":"migrationKeyspace","type":"tuple","internalType":"struct KeyspaceView","components":[{"name":"operators","type":"tuple[]","internalType":"struct NodeOperator[]","components":[{"name":"addr","type":"address","internalType":"address"},{"name":"data","type":"bytes","internalType":"bytes"}]},{"name":"replicationStrategy","type":"uint8","internalType":"uint8"}]},{"name":"maintenance","type":"tuple","internalType":"struct Maintenance","components":[{"name":"slot","type":"address","internalType":"address"}]},{"name":"keyspaceVersion","type":"uint64","internalType":"uint64"},{"name":"version","type":"uint128","internalType":"uint128"}]}],"stateMutability":"view"},{"type":"function","name":"startMaintenance","inputs":[],"outputs":[],"stateMutability":"nonpayable"},{"type":"function","name":"startMigration","inputs":[{"name":"plan","type":"tuple","internalType":"struct MigrationPlan","components":[{"name":"slots","type":"tuple[]","internalType":"struct KeyspaceSlot[]","components":[{"name":"idx","type":"uint8","internalType":"uint8"},{"name":"operatorAddress","type":"address","internalType":"address"}]},{"name":"replicationStrategy","type":"uint8","internalType":"uint8"}]}],"outputs":[],"stateMutability":"nonpayable"},{"type":"function","name":"transferOwnership","inputs":[{"name":"newOwner","type":"address","internalType":"address"}],"outputs":[],"stateMutability":"nonpayable"},{"type":"function","name":"updateNodeOperator","inputs":[{"name":"operator","type":"tuple","internalType":"struct NodeOperator","components":[{"name":"addr","type":"address","internalType":"address"},{"name":"data","type":"bytes","internalType":"bytes"}]}],"outputs":[],"stateMutability":"nonpayable"},{"type":"function","name":"updateSettings","inputs":[{"name":"newSettings","type":"tuple","internalType":"struct Settings","components":[{"name":"maxOperatorDataBytes","type":"uint16","internalType":"uint16"}]}],"outputs":[],"stateMutability":"nonpayable"},{"type":"event","name":"MaintenanceFinished","inputs":[{"name":"operatorAddress","type":"address","indexed":false,"internalType":"address"},{"name":"clusterVersion","type":"uint128","indexed":false,"internalType":"uint128"}],"anonymous":false},{"type":"event","name":"MaintenanceStarted","inputs":[{"name":"operatorAddress","type":"address","indexed":false,"internalType":"address"},{"name":"clusterVersion","type":"uint128","indexed":false,"internalType":"uint128"}],"anonymous":false},{"type":"event","name":"MigrationAborted","inputs":[{"name":"id","type":"uint64","indexed":false,"internalType":"uint64"},{"name":"clusterVersion","type":"uint128","indexed":false,"internalType":"uint128"}],"anonymous":false},{"type":"event","name":"MigrationCompleted","inputs":[{"name":"id","type":"uint64","indexed":false,"internalType":"uint64"},{"name":"operatorAddress","type":"address","indexed":false,"internalType":"address"},{"name":"clusterVersion","type":"uint128","indexed":false,"internalType":"uint128"}],"anonymous":false},{"type":"event","name":"MigrationDataPullCompleted","inputs":[{"name":"id","type":"uint64","indexed":false,"internalType":"uint64"},{"name":"operatorAddress","type":"address","indexed":false,"internalType":"address"},{"name":"clusterVersion","type":"uint128","indexed":false,"internalType":"uint128"}],"anonymous":false},{"type":"event","name":"MigrationStarted","inputs":[{"name":"id","type":"uint64","indexed":false,"internalType":"uint64"},{"name":"plan","type":"tuple","indexed":false,"internalType":"struct MigrationPlan","components":[{"name":"slots","type":"tuple[]","internalType":"struct KeyspaceSlot[]","components":[{"name":"idx","type":"uint8","internalType":"uint8"},{"name":"operatorAddress","type":"address","internalType":"address"}]},{"name":"replicationStrategy","type":"uint8","internalType":"uint8"}]},{"name":"clusterVersion","type":"uint128","indexed":false,"internalType":"uint128"}],"anonymous":false},{"type":"event","name":"NodeOperatorCreated","inputs":[{"name":"operator","type":"tuple","indexed":false,"internalType":"struct NodeOperator","components":[{"name":"addr","type":"address","internalType":"address"},{"name":"data","type":"bytes","internalType":"bytes"}]},{"name":"clusterVersion","type":"uint128","indexed":false,"internalType":"uint128"}],"anonymous":false},{"type":"event","name":"NodeOperatorDeleted","inputs":[{"name":"operatorAddress","type":"address","indexed":false,"internalType":"address"},{"name":"clusterVersion","type":"uint128","indexed":false,"internalType":"uint128"}],"anonymous":false},{"type":"event","name":"NodeOperatorUpdated","inputs":[{"name":"operator","type":"tuple","indexed":false,"internalType":"struct NodeOperator","components":[{"name":"addr","type":"address","internalType":"address"},{"name":"data","type":"bytes","internalType":"bytes"}]},{"name":"clusterVersion","type":"uint128","indexed":false,"internalType":"uint128"}],"anonymous":false},{"type":"event","name":"OwnershipTransferred","inputs":[{"name":"newOwner","type":"address","indexed":false,"internalType":"address"},{"name":"cluserVersion","type":"uint128","indexed":false,"internalType":"uint128"}],"anonymous":false},{"type":"event","name":"SettingsUpdated","inputs":[{"name":"newSettings","type":"tuple","indexed":false,"internalType":"struct Settings","components":[{"name":"maxOperatorDataBytes","type":"uint16","internalType":"uint16"}]},{"name":"clusterVersion","type":"uint128","indexed":false,"internalType":"uint128"}],"anonymous":false}],"bytecode":{"object":"0x6080604052346100305761001a61001461030f565b90610a8f565b610022610035565b613d5a610edd8239613d5a90f35b61003b565b60405190565b5f80fd5b601f801991011690565b634e487b7160e01b5f52604160045260245ffd5b906100679061003f565b810190811060018060401b0382111761007f57604052565b610049565b90610097610090610035565b928361005d565b565b5f80fd5b5f80fd5b5f80fd5b5f80fd5b61ffff1690565b6100b9816100a9565b036100c057565b5f80fd5b905051906100d1826100b0565b565b91906020838203126100fb576100f5906100ed6020610084565b935f016100c4565b5f830152565b6100a1565b5f80fd5b60018060401b03811161011a5760208091020190565b610049565b5f80fd5b60018060a01b031690565b61013790610123565b90565b6101438161012e565b0361014a57565b5f80fd5b9050519061015b8261013a565b565b5f80fd5b60018060401b03811161017d5761017960209161003f565b0190565b610049565b90825f9392825e0152565b909291926101a261019d82610161565b610084565b938185526020850190828401116101be576101bc92610182565b565b61015d565b9080601f830112156101e1578160206101de9351910161018d565b90565b610100565b919091604081840312610236576101fd6040610084565b9261020a815f840161014e565b5f850152602082015160018060401b0381116102315761022a92016101c3565b6020830152565b6100a5565b6100a1565b92919061024f61024a82610104565b610084565b93818552602080860192028101918383116102a45781905b838210610275575050505050565b815160018060401b03811161029f5760209161029487849387016101e6565b815201910190610267565b610100565b61011f565b9080601f830112156102c7578160206102c49351910161023b565b90565b610100565b91909160408184031261030a576102e5835f83016100d3565b92602082015160018060401b0381116103055761030292016102a9565b90565b61009d565b610099565b61032d614c378038038061032281610084565b9283398101906102cc565b9091565b5190565b90565b90565b90565b61035261034d61035792610338565b61033b565b610335565b90565b60209181520190565b5f7f746f6f206d616e79206f70657261746f72730000000000000000000000000000910152565b610397601260209261035a565b6103a081610363565b0190565b6103b99060208101905f81830391015261038a565b90565b156103c357565b6103cb610035565b62461bcd60e51b8152806103e1600482016103a4565b0390fd5b5f1b90565b906103fb60018060a01b03916103e5565b9181191691161790565b61041961041461041e92610123565b61033b565b610123565b90565b61042a90610405565b90565b61043690610421565b90565b90565b9061045161044c6104589261042d565b610439565b82546103ea565b9055565b61046690516100a9565b90565b9061047661ffff916103e5565b9181191691161790565b61049461048f610499926100a9565b61033b565b6100a9565b90565b90565b906104b46104af6104bb92610480565b61049c565b8254610469565b9055565b906104d15f806104d79401920161045c565b9061049f565b565b906104e3916104bf565b565b90565b6104fc6104f7610501926104e5565b61033b565b610335565b90565b60016105109101610335565b90565b634e487b7160e01b5f52603260045260245ffd5b9061053182610331565b811015610542576020809102010190565b610513565b5190565b610555905161012e565b90565b906105629061042d565b5f5260205260405f2090565b634e487b7160e01b5f52602260045260245ffd5b90600160028304921680156105a2575b602083101461059d57565b61056e565b91607f1691610592565b6105b69054610582565b90565b5f7f6475706c6963617465206f70657261746f720000000000000000000000000000910152565b6105ed601260209261035a565b6105f6816105b9565b0190565b61060f9060208101905f8183039101526105e0565b90565b1561061957565b610621610035565b62461bcd60e51b815280610637600482016105fa565b0390fd5b50600290565b90565b61064d8161063b565b8210156106685761066061010391610641565b910201905f90565b610513565b5061010090565b90565b6106808161066d565b82101561069a57610692600191610674565b910201905f90565b610513565b1b90565b919060086106c39102916106bd60018060a01b038461069f565b9261069f565b9181191691161790565b91906106e36106de6106eb9361042d565b610439565b9083546106a3565b9055565b60ff1690565b61070961070461070e92610335565b61033b565b6106ef565b90565b61071b6040610084565b90565b151590565b9061072d9061071e565b9052565b9061073b906106ef565b9052565b906107499061042d565b5f5260205260405f2090565b61075f905161071e565b90565b9061076e60ff916103e5565b9181191691161790565b6107819061071e565b90565b90565b9061079c6107976107a392610778565b610784565b8254610762565b9055565b6107b190516106ef565b90565b60081b90565b906107c761ff00916107b4565b9181191691161790565b6107e56107e06107ea926106ef565b61033b565b6106ef565b90565b90565b9061080561080061080c926107d1565b6107ed565b82546107ba565b9055565b9061083a60205f6108409461083282820161082c848801610755565b90610787565b0192016107a7565b906107f0565b565b9061084c91610810565b565b5f5260205f2090565b601f602091010490565b9190600861087c9102916108765f198461069f565b9261069f565b9181191691161790565b61089a61089561089f92610335565b61033b565b610335565b90565b90565b91906108bb6108b66108c393610886565b6108a2565b908354610861565b9055565b5f90565b6108dd916108d76108c7565b916108a5565b565b5b8181106108eb575050565b806108f85f6001936108cb565b016108e0565b9190601f811161090e575b505050565b61091a61093f9361084e565b90602061092684610857565b83019310610947575b61093890610857565b01906108df565b5f8080610909565b91506109388192905061092f565b1c90565b90610969905f1990600802610955565b191690565b8161097891610959565b906002021790565b9061098a81610547565b9060018060401b038211610a48576109ac826109a68554610582565b856108fe565b602090601f83116001146109e0579180916109cf935f926109d4575b505061096e565b90555b565b90915001515f806109c8565b601f198316916109ef8561084e565b925f5b818110610a3057509160029391856001969410610a16575b505050020190556109d2565b610a26910151601f841690610959565b90555f8080610a0a565b919360206001819287870151815501950192016109f2565b610049565b90610a5791610980565b565b90610a655f19916103e5565b9181191691161790565b90610a84610a7f610a8b92610886565b6108a2565b8254610a59565b9055565b610acc90610aba610a9f84610331565b610ab3610aad61010061033e565b91610335565b11156103bc565b610ac4335f61043c565b6102096104d9565b610ad55f6104e8565b5b80610af1610aeb610ae685610331565b610335565b91610335565b1015610c3c57610c3790610b1b610b166020610b0e868590610527565b510151610547565b610dbe565b610b5f610b47610b426001610b3c5f610b35898890610527565b510161054b565b90610558565b6105ac565b610b59610b535f6104e8565b91610335565b14610612565b610b98610b785f610b71868590610527565b510161054b565b610b926001610b8960025f90610644565b50018490610677565b906106cd565b610bf96001610bc6610ba9846106f5565b610bbd610bb4610711565b935f8501610723565b60208301610731565b610bf45f610bd660028290610644565b5001610bee5f610be7898890610527565b510161054b565b9061073f565b610842565b610c326020610c09858490610527565b510151610c2d6001610c275f610c20898890610527565b510161054b565b90610558565b610a4d565b610504565b610ad6565b50610c59610c54610c4f610c6f93610331565b6106f5565b610ea0565b610101610c6860025f90610644565b5001610a6f565b565b5f7f656d707479206f70657261746f72206461746100000000000000000000000000910152565b610ca5601360209261035a565b610cae81610c71565b0190565b610cc79060208101905f818303910152610c98565b90565b15610cd157565b610cd9610035565b62461bcd60e51b815280610cef60048201610cb2565b0390fd5b5f1c90565b61ffff1690565b610d0b610d1091610cf3565b610cf8565b90565b610d1d9054610cff565b90565b610d34610d2f610d39926100a9565b61033b565b610335565b90565b5f7f6f70657261746f72206461746120746f6f206c61726765000000000000000000910152565b610d70601760209261035a565b610d7981610d3c565b0190565b610d929060208101905f818303910152610d63565b90565b15610d9c57565b610da4610035565b62461bcd60e51b815280610dba60048201610d7d565b0390fd5b610e0390610dde81610dd8610dd25f6104e8565b91610335565b11610cca565b610dfc610df6610df15f61020901610d13565b610d20565b91610335565b1115610d95565b565b610e19610e14610e1e926106ef565b61033b565b610335565b90565b90565b610e38610e33610e3d92610e21565b61033b565b610335565b90565b610e5f90610e59610e53610e6494610335565b91610335565b9061069f565b610335565b90565b634e487b7160e01b5f52601160045260245ffd5b610e8a610e9091939293610335565b92610335565b8203918211610e9b57565b610e67565b610ec9610ed991610eaf6108c7565b50610ec4610ebe600192610e05565b91610e24565b610e40565b610ed36001610e24565b90610e7b565b9056fe60806040526004361015610013575b6106f7565b61001d5f356100cc565b806326322217146100c757806353bfb584146100c257806365706f9c146100bd57806375418b9d146100b85780639d44e717146100b3578063b55a4142146100ae578063c130809a146100a9578063cdbfc62d146100a4578063db1b0fd71461009f578063f2fde38b1461009a5763f5f2d9f10361000e576106c4565b610691565b61065e565b6105ea565b61056f565b61053c565b610509565b610493565b6101db565b610177565b610135565b60e01c90565b60405190565b5f80fd5b5f80fd5b5f80fd5b5f80fd5b908160409103126100f65790565b6100e4565b9060208282031261012b575f82013567ffffffffffffffff81116101265761012392016100e8565b90565b6100e0565b6100dc565b5f0190565b346101635761014d6101483660046100fb565b610d6f565b6101556100d2565b8061015f81610130565b0390f35b6100d8565b5f91031261017257565b6100dc565b346101a557610187366004610168565b61018f6110b2565b6101976100d2565b806101a181610130565b0390f35b6100d8565b908160209103126101b85790565b6100e4565b906020828203126101d6576101d3915f016101aa565b90565b6100dc565b34610209576101f36101ee3660046101bd565b6112ee565b6101fb6100d2565b8061020581610130565b0390f35b6100d8565b5190565b60209181520190565b60200190565b60018060a01b031690565b61023590610221565b90565b6102419061022c565b9052565b5190565b60209181520190565b90825f9392825e0152565b601f801991011690565b61028661028f6020936102949361027d81610245565b93848093610249565b95869101610252565b61025d565b0190565b6102c391602060408201926102b35f8201515f850190610238565b0151906020818403910152610267565b90565b906102d091610298565b90565b60200190565b906102ed6102e68361020e565b8092610212565b90816102fe6020830284019461021b565b925f915b83831061031157505050505090565b9091929394602061033361032d838560019503875289516102c6565b976102d3565b9301930191939290610302565b60ff1690565b61034f90610340565b9052565b9061037d90602080610372604084015f8701518582035f8701526102d9565b940151910190610346565b90565b67ffffffffffffffff1690565b61039690610380565b9052565b90565b6103a69061039a565b9052565b906020806103cc936103c25f8201515f86019061038d565b015191019061039d565b565b905f806103df930151910190610238565b565b6fffffffffffffffffffffffffffffffff1690565b6103ff906103e1565b9052565b906104789060c060a061044a61042660e085015f8801518682035f880152610353565b610438602088015160208701906103aa565b60408701518582036060870152610353565b9461045d606082015160808601906103ce565b61046e60808201518386019061038d565b01519101906103f6565b90565b6104909160208201915f818403910152610403565b90565b346104c3576104a3366004610168565b6104bf6104ae6118a9565b6104b66100d2565b9182918261047b565b0390f35b6100d8565b6104d181610380565b036104d857565b5f80fd5b905035906104e9826104c8565b565b9060208282031261050457610501915f016104dc565b90565b6100dc565b346105375761052161051c3660046104eb565b6121b7565b6105296100d2565b8061053381610130565b0390f35b6100d8565b3461056a5761055461054f3660046100fb565b61235c565b61055c6100d2565b8061056681610130565b0390f35b6100d8565b3461059d5761057f366004610168565b6105876124f0565b61058f6100d2565b8061059981610130565b0390f35b6100d8565b908160409103126105b05790565b6100e4565b906020828203126105e5575f82013567ffffffffffffffff81116105e0576105dd92016105a2565b90565b6100e0565b6100dc565b34610618576106026105fd3660046105b5565b61297e565b61060a6100d2565b8061061481610130565b0390f35b6100d8565b6106268161022c565b0361062d57565b5f80fd5b9050359061063e8261061d565b565b9060208282031261065957610656915f01610631565b90565b6100dc565b3461068c57610676610671366004610640565b612d62565b61067e6100d2565b8061068881610130565b0390f35b6100d8565b346106bf576106a96106a4366004610640565b612e0a565b6106b16100d2565b806106bb81610130565b0390f35b6100d8565b346106f2576106d4366004610168565b6106dc612f45565b6106e46100d2565b806106ee81610130565b0390f35b6100d8565b5f80fd5b5f1c90565b60018060a01b031690565b61071761071c916106fb565b610700565b90565b610729905461070b565b90565b356107368161061d565b90565b60209181520190565b5f7f756e617574686f72697a65640000000000000000000000000000000000000000910152565b610776600c602092610739565b61077f81610742565b0190565b6107989060208101905f818303910152610769565b90565b156107a257565b6107aa6100d2565b62461bcd60e51b8152806107c060048201610783565b0390fd5b90565b6107db6107d66107e092610221565b6107c4565b610221565b90565b6107ec906107c7565b90565b6107f8906107e3565b90565b90610805906107ef565b5f5260205260405f2090565b634e487b7160e01b5f52602260045260245ffd5b9060016002830492168015610845575b602083101461084057565b610811565b91607f1691610835565b6108599054610825565b90565b90565b61087361086e6108789261085c565b6107c4565b61039a565b90565b5f7f756e6b6e6f776e206f70657261746f7200000000000000000000000000000000910152565b6108af6010602092610739565b6108b88161087b565b0190565b6108d19060208101905f8183039101526108a2565b90565b156108db57565b6108e36100d2565b62461bcd60e51b8152806108f9600482016108bc565b0390fd5b5f80fd5b5f80fd5b5f80fd5b90359060016020038136030382121561094b570180359067ffffffffffffffff82116109465760200191600182023603831361094157565b610905565b610901565b6108fd565b5090565b634e487b7160e01b5f525f60045260245ffd5b634e487b7160e01b5f52604160045260245ffd5b5f5260205f2090565b601f602091010490565b1b90565b919060086109ad9102916109a75f198461098e565b9261098e565b9181191691161790565b6109cb6109c66109d09261039a565b6107c4565b61039a565b90565b90565b91906109ec6109e76109f4936109b7565b6109d3565b908354610992565b9055565b5f90565b610a0e91610a086109f8565b916109d6565b565b5b818110610a1c575050565b80610a295f6001936109fc565b01610a11565b9190601f8111610a3f575b505050565b610a4b610a709361097b565b906020610a5784610984565b83019310610a78575b610a6990610984565b0190610a10565b5f8080610a3a565b9150610a6981929050610a60565b1c90565b90610a9a905f1990600802610a86565b191690565b81610aa991610a8a565b906002021790565b91610abc9082610950565b9067ffffffffffffffff8211610b7b57610ae082610ada8554610825565b85610a2f565b5f90601f8311600114610b1357918091610b02935f92610b07575b5050610a9f565b90555b565b90915001355f80610afb565b601f19831691610b228561097b565b925f5b818110610b6357509160029391856001969410610b49575b50505002019055610b05565b610b59910135601f841690610a8a565b90555f8080610b3d565b91936020600181928787013581550195019201610b25565b610967565b90610b8b9291610ab1565b565b6fffffffffffffffffffffffffffffffff1690565b610bae610bb3916106fb565b610b8d565b90565b610bc09054610ba2565b90565b634e487b7160e01b5f52601160045260245ffd5b610be0906103e1565b6fffffffffffffffffffffffffffffffff8114610bfd5760010190565b610bc3565b5f1b90565b90610c226fffffffffffffffffffffffffffffffff91610c02565b9181191691161790565b610c40610c3b610c45926103e1565b6107c4565b6103e1565b90565b90565b90610c60610c5b610c6792610c2c565b610c48565b8254610c07565b9055565b50610c7a906020810190610631565b90565b5f80fd5b5f80fd5b5f80fd5b9035600160200382360303811215610cca57016020813591019167ffffffffffffffff8211610cc5576001820236038313610cc057565b610c81565b610c7d565b610c85565b90825f939282370152565b9190610cf481610ced81610cf995610249565b8095610ccf565b61025d565b0190565b610d3991610d2b6040820192610d21610d185f830183610c6b565b5f850190610238565b6020810190610c89565b916020818503910152610cda565b90565b610d45906103e1565b9052565b92916020610d65610d6d9360408701908782035f890152610cfd565b940190610d3c565b565b33610d8a610d84610d7f5f61071f565b61022c565b9161022c565b148015610e85575b610d9b9061079b565b610dd5610dbc610db76001610db15f860161072c565b906107fb565b61084f565b610dce610dc85f61085f565b9161039a565b14156108d4565b610df4610def610de9836020810190610909565b90610950565b613097565b610e21610e05826020810190610909565b90610e1c6001610e165f870161072c565b906107fb565b610b80565b610e3f610e37610e3261020d610bb6565b610bd7565b61020d610c4b565b610e4a61020d610bb6565b7f5aab2c32b1e447db4dba1d2790fe8b863d4775042b10b92e00dab9d6b671b5b591610e80610e776100d2565b92839283610d49565b0390a1565b50610d9b33610ea6610ea0610e9b5f860161072c565b61022c565b9161022c565b149050610d92565b5f7f6e6f206d61696e74656e616e6365000000000000000000000000000000000000910152565b610ee2600e602092610739565b610eeb81610eae565b0190565b610f049060208101905f818303910152610ed5565b90565b15610f0e57565b610f166100d2565b62461bcd60e51b815280610f2c60048201610eef565b0390fd5b610f40610f3b6130e2565b610f07565b610f48610fe0565b565b610f5e610f59610f639261085c565b6107c4565b610221565b90565b610f6f90610f4a565b90565b90610f8360018060a01b0391610c02565b9181191691161790565b90565b90610fa5610fa0610fac926107ef565b610f8d565b8254610f72565b9055565b610fb99061022c565b9052565b916020610fde929493610fd760408201965f830190610fb0565b0190610d3c565b565b33610ffb610ff5610ff05f61071f565b61022c565b9161022c565b148015611087575b61100c9061079b565b6110226110185f610f66565b5f61020c01610f90565b61104061103861103361020d610bb6565b610bd7565b61020d610c4b565b3361104c61020d610bb6565b7f2e1c659da2dc5f4ec69512e86bda1a7a48c5e97669b37f9bb5a3064b6353159f916110826110796100d2565b92839283610fbd565b0390a1565b5061100c6110985f61020c0161071f565b6110aa6110a43361022c565b9161022c565b149050611003565b6110ba610f30565b565b5f7f6e6f7420746865206f776e657200000000000000000000000000000000000000910152565b6110f0600d602092610739565b6110f9816110bc565b0190565b6111129060208101905f8183039101526110e3565b90565b1561111c57565b6111246100d2565b62461bcd60e51b81528061113a600482016110fd565b0390fd5b61116b906111663361116061115a6111555f61071f565b61022c565b9161022c565b14611115565b61127e565b565b61ffff1690565b61117d8161116d565b0361118457565b5f80fd5b3561119281611174565b90565b906111a261ffff91610c02565b9181191691161790565b6111c06111bb6111c59261116d565b6107c4565b61116d565b90565b90565b906111e06111db6111e7926111ac565b6111c8565b8254611195565b9055565b906111fd5f8061120394019201611188565b906111cb565b565b9061120f916111eb565b565b9050359061121e82611174565b565b5061122f906020810190611211565b90565b61123b9061116d565b9052565b905f6112516112599382810190611220565b910190611232565b565b91602061127c92949361127560408201965f83019061123f565b0190610d3c565b565b61128a81610209611205565b6112a86112a061129b61020d610bb6565b610bd7565b61020d610c4b565b6112b361020d610bb6565b7fb24d8d9dcfbb6be13176c1c7bfb0e76445a9ba2a3553b413d8671446f1030830916112e96112e06100d2565b9283928361125b565b0390a1565b6112f79061113e565b565b906113039061025d565b810190811067ffffffffffffffff82111761131d57604052565b610967565b9061133561132e6100d2565b92836112f9565b565b61134160c0611322565b90565b61134e6040611322565b90565b606090565b5f90565b611362611344565b906020808361136f611351565b81520161137a611356565b81525050565b61138861135a565b90565b6113956040611322565b90565b5f90565b5f90565b6113a861138b565b90602080836113b5611398565b8152016113c061139c565b81525050565b6113ce6113a0565b90565b6113db6020611322565b90565b5f90565b6113ea6113d1565b906020826113f66113de565b81525050565b6114046113e2565b90565b5f90565b611413611337565b906020808080808087611424611380565b81520161142f6113c6565b81520161143a611380565b8152016114456113fc565b815201611450611398565b81520161145b611407565b81525050565b61146961140b565b90565b5f90565b67ffffffffffffffff1690565b61148961148e916106fb565b611470565b90565b61149b905461147d565b90565b90565b6114b56114b06114ba9261149e565b6107c4565b610380565b90565b634e487b7160e01b5f52601260045260245ffd5b6114dd6114e391610380565b91610380565b9081156114ee570690565b6114bd565b61150761150261150c92610380565b6107c4565b61039a565b90565b9061151990610380565b9052565b90565b61152c611531916106fb565b61151d565b90565b61153e9054611520565b90565b9061154b9061039a565b9052565b90565b61156661156161156b9261154f565b6107c4565b610380565b90565b61157a61158091610380565b91610380565b90039067ffffffffffffffff821161159457565b610bc3565b634e487b7160e01b5f52603260045260245ffd5b50600290565b90565b6115bf816115ad565b8210156115da576115d2610103916115b3565b910201905f90565b611599565b6115f36115ee6115f89261154f565b6107c4565b61039a565b90565b61160a6116109193929361039a565b9261039a565b820180921161161b57565b610bc3565b67ffffffffffffffff81116116385760208091020190565b610967565b9061164f61164a83611620565b611322565b918252565b61165e6040611322565b90565b606090565b61166e611654565b906020808361167b6113de565b815201611686611661565b81525050565b611694611666565b90565b5f5b8281106116a557505050565b6020906116b061168c565b8184015201611699565b906116df6116c78361163d565b926020806116d58693611620565b9201910390611697565b565b60ff1690565b6116f36116f8916106fb565b6116e1565b90565b61170590546116e7565b90565b9061171290610340565b9052565b61171f9061039a565b5f19811461172d5760010190565b610bc3565b61174661174161174b9261039a565b6107c4565b610340565b90565b5061010090565b90565b6117618161174e565b82101561177b57611773600191611755565b910201905f90565b611599565b6117909060086117959302610a86565b610700565b90565b906117a39154611780565b90565b906117b08261020e565b8110156117c1576020809102010190565b611599565b906117d09061022c565b9052565b905f92918054906117ee6117e783610825565b8094610249565b916001811690815f146118455750600114611809575b505050565b611816919293945061097b565b915f925b81841061182d57505001905f8080611804565b6001816020929593955484860152019101929061181a565b92949550505060ff19168252151560200201905f8080611804565b9061186a916117d4565b90565b9061188d6118869261187d6100d2565b93848092611860565b03836112f9565b565b6118989061186d565b90565b906118a5906103e1565b9052565b6118b1611461565b506118ba611461565b6118c26109f8565b506118cb61146c565b506118d46109f8565b506118dd613117565b5f14611ccb576118ff6118f35f61020a01611491565b5f60208401510161150f565b61191c611910600161020a01611534565b60208084015101611541565b611955611950611940611930610208611491565b61193a6001611552565b9061156e565b61194a60026114a1565b906114d1565b6114f3565b9061197c611977611967610208611491565b61197160026114a1565b906114d1565b6114f3565b9161199e611999610101611992600287906115b6565b5001611534565b613145565b926119bb6119b6856119b060016115df565b906115fb565b6116ba565b5f604085015101526119ec6119df6101026119d8600285906115b6565b50016116fb565b6020604086015101611708565b6119f55f61085f565b5b80611a09611a038761039a565b9161039a565b11611b3957611ac090611a3d611a2e610101611a27600287906115b6565b5001611534565b611a3783611732565b9061319d565b611b3457611a64611a5e6001611a55600287906115b6565b50018390611758565b90611798565b611a82815f611a7b8160408b0151015186906117a6565b51016117c6565b611aad611a9e610101611a97600289906115b6565b5001611534565b611aa784611732565b9061319d565b8015611af7575b611ac5575b505b611716565b6119f6565b611ad09060016107fb565b611aef6020611ae75f60408a0151015185906117a6565b51019161188f565b90525f611ab9565b50611b1b611b156001611b0c600289906115b6565b50018490611758565b90611798565b611b2d611b278361022c565b9161022c565b1415611ab4565b611abb565b505091505b611b5f611b5a610101611b53600286906115b6565b5001611534565b613145565b91611b7c611b7784611b7160016115df565b906115fb565b6116ba565b5f808401510152611bab611b9f610102611b98600285906115b6565b50016116fb565b60205f85015101611708565b611bb45f61085f565b5b80611bc8611bc28661039a565b9161039a565b11611c7a57611c7090611bfc611bed610101611be6600287906115b6565b5001611534565b611bf683611732565b9061319d565b611c7557611c4a611c26611c206001611c17600288906115b6565b50018490611758565b90611798565b611c43815f611c3c81808b0151015187906117a6565b51016117c6565b60016107fb565b611c686020611c605f80890151015185906117a6565b51019161188f565b90525b611716565b611bb5565b611c6b565b50509050611c95611c8c610208611491565b6080830161150f565b611cb1611ca55f61020c0161071f565b5f6060840151016117c6565b611cc8611cbf61020d610bb6565b60a0830161189b565b90565b611cf1611cec611cdc610208611491565b611ce660026114a1565b906114d1565b6114f3565b90611b3e565b5f7f6e6f206d6967726174696f6e0000000000000000000000000000000000000000910152565b611d2b600c602092610739565b611d3481611cf7565b0190565b611d4d9060208101905f818303910152611d1e565b90565b15611d5757565b611d5f6100d2565b62461bcd60e51b815280611d7560048201611d38565b0390fd5b611d9290611d8d611d88613117565b611d50565b611fef565b565b5f7f77726f6e67206d6967726174696f6e2069640000000000000000000000000000910152565b611dc86012602092610739565b611dd181611d94565b0190565b611dea9060208101905f818303910152611dbb565b90565b15611df457565b611dfc6100d2565b62461bcd60e51b815280611e1260048201611dd5565b0390fd5b90611e20906107ef565b5f5260205260405f2090565b60ff1690565b611e3e611e43916106fb565b611e2c565b90565b611e509054611e32565b90565b151590565b90611e6290611e53565b9052565b60081c90565b611e78611e7d91611e66565b6116e1565b90565b611e8a9054611e6c565b90565b611e976040611322565b90565b90611ed0611ec75f611eaa611e8d565b94611ec1611eb9838301611e46565b838801611e58565b01611e80565b60208401611708565b565b611edb90611e9a565b90565b611ee89051611e53565b90565b611ef59051610340565b90565b5f7f6e6f742070756c6c696e67000000000000000000000000000000000000000000910152565b611f2c600b602092610739565b611f3581611ef8565b0190565b611f4e9060208101905f818303910152611f1f565b90565b15611f5857565b611f606100d2565b62461bcd60e51b815280611f7660048201611f39565b0390fd5b90611f865f1991610c02565b9181191691161790565b90611fa5611fa0611fac926109b7565b6109d3565b8254611f7a565b9055565b611fb990610380565b9052565b604090611fe6611fed9496959396611fdc60608401985f850190611fb0565b6020830190610fb0565b0190610d3c565b565b6120179061201161200b6120065f61020a01611491565b610380565b91610380565b14611ded565b6120c46120b961205b6120565f61204d6002612047612037610208611491565b61204160026114a1565b906114d1565b906115b6565b50013390611e16565b611ed2565b61206e6120695f8301611ede565b6108d4565b612099612094612082600161020a01611534565b61208e60208501611eeb565b906131db565b611f51565b6120b360206120ac600161020a01611534565b9201611eeb565b9061321a565b600161020a01611f90565b6120e26120da6120d561020d610bb6565b610bd7565b61020d610c4b565b6120f0600161020a01611534565b6121026120fc5f61085f565b9161039a565b145f1461215f576121165f61020a01611491565b3361212261020d610bb6565b916121597f01269879535f40ee8957e15e160bf1866c5e2728ff0cbc583d848821e2639b4e936121506100d2565b93849384611fbd565b0390a15b565b61216c5f61020a01611491565b3361217861020d610bb6565b916121af7faf5e90e72015f43138f66b4cd08bd1dfa2839030104f22a00af843fe847c6d19936121a66100d2565b93849384611fbd565b0390a161215d565b6121c090611d79565b565b6121ef906121ea336121e46121de6121d95f61071f565b61022c565b9161022c565b14611115565b612273565b565b5f7f6f70657261746f7220616c726561647920657869737473000000000000000000910152565b6122256017602092610739565b61222e816121f1565b0190565b6122479060208101905f818303910152612218565b90565b1561225157565b6122596100d2565b62461bcd60e51b81528061226f60048201612232565b0390fd5b6122ac61229461228f60016122895f860161072c565b906107fb565b61084f565b6122a66122a05f61085f565b9161039a565b1461224a565b6122cb6122c66122c0836020810190610909565b90610950565b613097565b6122f86122dc826020810190610909565b906122f360016122ed5f870161072c565b906107fb565b610b80565b61231661230e61230961020d610bb6565b610bd7565b61020d610c4b565b61232161020d610bb6565b7febdc606e899772e1d31d9535a98eea5ddb0d41e47128c921e64919c73f3edfa69161235761234e6100d2565b92839283610d49565b0390a1565b612365906121c2565b565b61238b3361238561237f61237a5f61071f565b61022c565b9161022c565b14611115565b612393612395565b565b6123a56123a0613117565b611d50565b6123ad61244a565b565b6123b890610380565b5f81146123c6576001900390565b610bc3565b906123de67ffffffffffffffff91610c02565b9181191691161790565b6123fc6123f761240192610380565b6107c4565b610380565b90565b90565b9061241c612417612423926123e8565b612404565b82546123cb565b9055565b91602061244892949361244160408201965f830190611fb0565b0190610d3c565b565b61246861246061245b610208611491565b6123af565b610208612407565b61247f6124745f61085f565b600161020a01611f90565b61249d61249561249061020d610bb6565b610bd7565b61020d610c4b565b6124aa5f61020a01611491565b6124b561020d610bb6565b7ff73240422246f63ed633ef3ce0726b8ab8fb69d46c8a4e5ecb0b2922668674a1916124eb6124e26100d2565b92839283612427565b0390a1565b6124f8612367565b565b612527906125223361251c6125166125115f61071f565b61022c565b9161022c565b14611115565b6125ab565b565b5f7f6d6967726174696f6e20696e2070726f67726573730000000000000000000000910152565b61255d6015602092610739565b61256681612529565b0190565b61257f9060208101905f818303910152612550565b90565b1561258957565b6125916100d2565b62461bcd60e51b8152806125a76004820161256a565b0390fd5b6125cd906125c86125c36125bd613117565b15611e53565b612582565b612651565b565b5f7f6d61696e74656e616e636520696e2070726f6772657373000000000000000000910152565b6126036017602092610739565b61260c816125cf565b0190565b6126259060208101905f8183039101526125f6565b90565b1561262f57565b6126376100d2565b62461bcd60e51b81528061264d60048201612610565b0390fd5b6126739061266e6126696126636130e2565b15611e53565b612628565b61283a565b565b61267e90610380565b67ffffffffffffffff81146126935760010190565b610bc3565b90565b90356001602003823603038112156126dc57016020813591019167ffffffffffffffff82116126d75760408202360383136126d257565b610c81565b610c7d565b610c85565b60209181520190565b90565b6126f681610340565b036126fd57565b5f80fd5b9050359061270e826126ed565b565b5061271f906020810190612701565b90565b90602061274d6127559361274461273b5f830183612710565b5f860190610346565b82810190610c6b565b910190610238565b565b9061276481604093612722565b0190565b5090565b60400190565b9161278082612786926126e1565b926126ea565b90815f905b828210612799575050505090565b909192936127bb6127b56001926127b08886612768565b612757565b9561276c565b92019092919261278b565b906128029060206127fa6127f0604084016127e35f88018861269b565b908683035f880152612772565b9482810190612710565b910190610346565b90565b9392906128306040916128389461282360608901925f8a0190611fb0565b87820360208901526127c6565b940190610d3c565b565b6128595f61020a0161285361284e82611491565b612675565b90612407565b61290b61290061010161289461288e6002612888612878610208611491565b61288260026114a1565b906114d1565b906115b6565b50612698565b6128b26128aa6128a5610208611491565b612675565b610208612407565b6128ef6128e76128e160026128db6128cb610208611491565b6128d560026114a1565b906114d1565b906115b6565b50612698565b9182906133c4565b6128fa818690613702565b01611534565b600161020a01611f90565b61292961292161291c61020d610bb6565b610bd7565b61020d610c4b565b6129365f61020a01611491565b9061294261020d610bb6565b916129797f78dad2bc0b47c688ed84f3fee79abc18e6c9822db05a79ca19dff54533c7470d936129706100d2565b93849384612805565b0390a1565b612987906124fa565b565b6129b6906129b1336129ab6129a56129a05f61071f565b61022c565b9161022c565b14611115565b612beb565b565b5f7f696e206b65797370616365000000000000000000000000000000000000000000910152565b6129ec600b602092610739565b6129f5816129b8565b0190565b612a0e9060208101905f8183039101526129df565b90565b15612a1857565b612a206100d2565b62461bcd60e51b815280612a36600482016129f9565b0390fd5b90612a4d905f1990602003600802610a86565b8154169055565b905f91612a6b612a638261097b565b928354610a9f565b905555565b919290602082105f14612ac957601f8411600114612a9957612a93929350610a9f565b90555b5b565b5090612abf612ac4936001612ab6612ab08561097b565b92610984565b82019101610a10565b612a54565b612a96565b50612b008293612ada60019461097b565b612af9612ae685610984565b820192601f861680612b0b575b50610984565b0190610a10565b600202179055612a97565b612b1790888603612a3a565b5f612af3565b929091680100000000000000008211612b7d576020115f14612b6e57602081105f14612b5257612b4c91610a9f565b90555b5b565b60019160ff1916612b628461097b565b55600202019055612b4f565b60019150600202019055612b50565b610967565b908154612b8e81610825565b90818311612bb7575b818310612ba5575b50505050565b612bae93612a70565b5f808080612b9f565b612bc383838387612b1d565b612b97565b5f612bd291612b82565b565b905f03612be657612be490612bc8565b565b610954565b612c1b612c02612bfd600184906107fb565b61084f565b612c14612c0e5f61085f565b9161039a565b14156108d4565b612c23613117565b5f14612d0c57612c5d612c58612c525f612c4c81612c43600282906115b6565b50018690611e16565b01611e46565b15611e53565b612a11565b612c92612c8d612c875f612c8181612c7860026001906115b6565b50018690611e16565b01611e46565b15611e53565b612a11565b5b612ca85f612ca3600184906107fb565b612bd4565b612cc6612cbe612cb961020d610bb6565b610bd7565b61020d610c4b565b612cd161020d610bb6565b7f9df3075e519fdff3ab71e9fc679060e9d2dd37c49ccc1c1fc1996d517752220a91612d07612cfe6100d2565b92839283610fbd565b0390a1565b612d5d612d58612d525f612d4c81612d436002612d3d612d2d610208611491565b612d3760026114a1565b906114d1565b906115b6565b50018690611e16565b01611e46565b15611e53565b612a11565b612c93565b612d6b90612989565b565b612d9a90612d9533612d8f612d89612d845f61071f565b61022c565b9161022c565b14611115565b612d9c565b565b612da6815f610f90565b612dc4612dbc612db761020d610bb6565b610bd7565b61020d610c4b565b612dcf61020d610bb6565b7f476610ebc6647c15376100955efbf22ef2a0c3b923fc00b380b660c873ef20ac91612e05612dfc6100d2565b92839283610fbd565b0390a1565b612e1390612d6d565b565b612e2e612e29612e23613117565b15611e53565b612582565b612e36612e38565b565b612e51612e4c612e466130e2565b15611e53565b612628565b612e59612e5b565b565b612e9b5f612e9581612e8c6002612e86612e76610208611491565b612e8060026114a1565b906114d1565b906115b6565b50013390611e16565b01611e46565b8015612f1e575b612eab9061079b565b612eb9335f61020c01610f90565b612ed7612ecf612eca61020d610bb6565b610bd7565b61020d610c4b565b33612ee361020d610bb6565b7fbc2748cf02f7a1291525e866efc76ab3b96d32d7afcbb26c53daec617b38b47991612f19612f106100d2565b92839283610fbd565b0390a1565b50612eab33612f3d612f37612f325f61071f565b61022c565b9161022c565b149050612ea2565b612f4d612e15565b565b5f7f656d707479206f70657261746f72206461746100000000000000000000000000910152565b612f836013602092610739565b612f8c81612f4f565b0190565b612fa59060208101905f818303910152612f76565b90565b15612faf57565b612fb76100d2565b62461bcd60e51b815280612fcd60048201612f90565b0390fd5b61ffff1690565b612fe4612fe9916106fb565b612fd1565b90565b612ff69054612fd8565b90565b61300d6130086130129261116d565b6107c4565b61039a565b90565b5f7f6f70657261746f72206461746120746f6f206c61726765000000000000000000910152565b6130496017602092610739565b61305281613015565b0190565b61306b9060208101905f81830391015261303c565b90565b1561307557565b61307d6100d2565b62461bcd60e51b81528061309360048201613056565b0390fd5b6130dc906130b7816130b16130ab5f61085f565b9161039a565b11612fa8565b6130d56130cf6130ca5f61020901612fec565b612ff9565b9161039a565b111561306e565b565b5f90565b6130ea6130de565b506130f85f61020c0161071f565b61311261310c6131075f610f66565b61022c565b9161022c565b141590565b61311f6130de565b5061312e600161020a01611534565b61314061313a5f61085f565b9161039a565b141590565b613157906131516109f8565b50613af8565b90565b61316e61316961317392610340565b6107c4565b61039a565b90565b6131959061318f61318961319a9461039a565b9161039a565b9061098e565b61039a565b90565b6131c4906131a96130de565b50916131bf6131b960019261315a565b916115df565b613176565b166131d76131d15f61085f565b9161039a565b1490565b613202906131e76130de565b50916131fd6131f760019261315a565b916115df565b613176565b1661321561320f5f61085f565b9161039a565b141590565b61324461324a916132296109f8565b509261323f61323960019261315a565b916115df565b613176565b1961039a565b1690565b5f80910155565b905f03613267576132659061324e565b565b610954565b6132766040611322565b90565b9061328560ff91610c02565b9181191691161790565b61329890611e53565b90565b90565b906132b36132ae6132ba9261328f565b61329b565b8254613279565b9055565b60081b90565b906132d161ff00916132be565b9181191691161790565b6132ef6132ea6132f492610340565b6107c4565b610340565b90565b90565b9061330f61330a613316926132db565b6132f7565b82546132c4565b9055565b9061334460205f61334a9461333c828201613336848801611ede565b9061329e565b019201611eeb565b906132fa565b565b906133569161331a565b565b9190600861337891029161337260018060a01b038461098e565b9261098e565b9181191691161790565b91906133986133936133a0936107ef565b610f8d565b908354613358565b9055565b906133b96133b46133c0926132db565b6132f7565b8254613279565b9055565b91906133f96133de6133d96101018601611534565b613145565b6133f36133ee6101018501611534565b613145565b90613c8d565b9161340261146c565b5061340b61146c565b506134155f61085f565b5b806134296134238661039a565b9161039a565b11613546576134da90613449613443600188018390611758565b90611798565b61346061345a600187018490611758565b90611798565b908061347461346e8461022c565b9161022c565b1461353f57816134d49261349861349261348d5f610f66565b61022c565b9161022c565b03613524575b50806134ba6134b46134af5f610f66565b61022c565b9161022c565b036134df575b6134ce600187018490611758565b90613382565b5b611716565b613416565b61351f600161350d6134f086611732565b6135046134fb61326c565b935f8501611e58565b60208301611708565b61351a5f89018490611e16565b61334c565b6134c0565b5f61353461353992828a01611e16565b613255565b5f61349e565b50506134d5565b509261357c9250613575610101809261356f61356561010283016116fb565b61010287016133a4565b01611534565b9101611f90565b565b5f90565b600161358e910161039a565b90565b9035906001602003813603038212156135d3570180359067ffffffffffffffff82116135ce576020019160408202360383136135c957565b610905565b610901565b6108fd565b5090565b91908110156135ec576040020190565b611599565b356135fb816126ed565b90565b5f7f756e6368616e67656420736c6f74000000000000000000000000000000000000910152565b613632600e602092610739565b61363b816135fe565b0190565b6136549060208101905f818303910152613625565b90565b1561365e57565b6136666100d2565b62461bcd60e51b81528061367c6004820161363f565b0390fd5b5f7f6f70657261746f72206475706c69636174650000000000000000000000000000910152565b6136b46012602092610739565b6136bd81613680565b0190565b6136d69060208101905f8183039101526136a7565b90565b156136e057565b6136e86100d2565b62461bcd60e51b8152806136fe600482016136c1565b0390fd5b61370f6101018201611534565b9061371861357e565b5061372161146c565b5061372a61146c565b506137345f61085f565b5b8061375d61375761375261374c885f810190613591565b906135d8565b61039a565b9161039a565b101561390e576138879061388261378b5f61378561377e8983810190613591565b86916135dc565b016135f1565b61387d6137b060206137aa6137a38b5f810190613591565b88916135dc565b0161072c565b80976137c96137c360018a018690611758565b90611798565b6137e6816137df6137d98661022c565b9161022c565b1415613657565b806138016137fb6137f65f610f66565b61022c565b9161022c565b036138f3575b50878261382461381e6138195f610f66565b61022c565b9161022c565b145f1461388c57506138389150839061321a565b965b6138528161384c60018a018690611758565b90613382565b61387560019361386c61386361326c565b955f8701611e58565b60208501611708565b5f8701611e16565b61334c565b613582565b613735565b6138e16138db5f6138d56138ed96826138e6966138cf6138b66138b1600186906107fb565b61084f565b6138c86138c28561085f565b9161039a565b14156108d4565b01611e16565b01611e46565b15611e53565b6136d9565b8390613cb9565b9661383a565b5f61390361390892828c01611e16565b613255565b5f613807565b509061393060206139379461392a610102946101018701611f90565b016135f1565b91016133a4565b565b90565b61395061394b61395592613939565b6107c4565b61039a565b90565b90565b61396f61396a61397492613958565b6107c4565b610340565b90565b6139969061399061398a61399b94610340565b9161039a565b9061098e565b61039a565b90565b6139bd906139b76139b16139c29461039a565b9161039a565b90610a86565b61039a565b90565b90565b6139dc6139d76139e1926139c5565b6107c4565b61039a565b90565b90565b6139fb6139f6613a00926139e4565b6107c4565b610340565b90565b90565b613a1a613a15613a1f92613a03565b6107c4565b61039a565b90565b90565b613a39613a34613a3e92613a22565b6107c4565b610340565b90565b90565b613a58613a53613a5d92613a41565b6107c4565b61039a565b90565b90565b613a77613a72613a7c92613a60565b6107c4565b610340565b90565b90565b613a96613a91613a9b92613a7f565b6107c4565b61039a565b90565b90565b613ab5613ab0613aba92613a9e565b6107c4565b610340565b90565b90565b613ad4613acf613ad992613abd565b6107c4565b61039a565b90565b613af0613aeb613af59261149e565b6107c4565b610340565b90565b613b006109f8565b50613b40613b3082613b2a613b246fffffffffffffffffffffffffffffffff61393c565b9161039a565b11613ce4565b613b3a600761395b565b90613977565b613b81613b71613b5184849061399e565b613b6b613b6567ffffffffffffffff6139c8565b9161039a565b11613ce4565b613b7b60066139e7565b90613977565b17613bbf613baf613b9384849061399e565b613ba9613ba363ffffffff613a06565b9161039a565b11613ce4565b613bb96005613a25565b90613977565b17613bfb613beb613bd184849061399e565b613be5613bdf61ffff613a44565b9161039a565b11613ce4565b613bf56004613a63565b90613977565b17613c36613c26613c0d84849061399e565b613c20613c1a60ff613a82565b9161039a565b11613ce4565b613c306003613aa1565b90613977565b17613c71613c61613c4884849061399e565b613c5b613c55600f613ac0565b9161039a565b11613ce4565b613c6b6002613adc565b90613977565b17906d010102020202030303030303030360801b90821c1a1790565b613cb691613c996109f8565b5081613cad613ca78361039a565b9161039a565b11919091613d00565b90565b613ce090613cc56109f8565b5091613cdb613cd560019261315a565b916115df565b613176565b1790565b613cec6109f8565b50151590565b90613cfd910261039a565b90565b613d1a613d209293613d106109f8565b5080941891613ce4565b90613cf2565b189056fea26469706673582212208b10234b08244c919ee8fc151ed15483fad0d05bc89d37a4de3b8fc6879959b364736f6c634300081c0033","linkReferences":{}},"methodIdentifiers":{"abortMigration()":"c130809a","completeMigration(uint64)":"9d44e717","createNodeOperator((address,bytes))":"b55a4142","deleteNodeOperator(address)":"db1b0fd7","finishMaintenance()":"53bfb584","getView()":"75418b9d","startMaintenance()":"f5f2d9f1","startMigration(((uint8,address)[],uint8))":"cdbfc62d","transferOwnership(address)":"f2fde38b","updateNodeOperator((address,bytes))":"26322217","updateSettings((uint16))":"65706f9c"},"id":22}