{"abi":[{"type":"constructor","inputs":[],"stateMutability":"nonpayable"},{"type":"function","name":"MAX_OPERATORS","inputs":[],"outputs":[{"name":"","type":"uint16","internalType":"uint16"}],"stateMutability":"view"},{"type":"function","name":"UPGRADE_INTERFACE_VERSION","inputs":[],"outputs":[{"name":"","type":"string","internalType":"string"}],"stateMutability":"view"},{"type":"function","name":"abortMigration","inputs":[{"name":"id","type":"uint64","internalType":"uint64"}],"outputs":[],"stateMutability":"nonpayable"},{"type":"function","name":"acceptOwnership","inputs":[],"outputs":[],"stateMutability":"nonpayable"},{"type":"function","name":"addNodeOperator","inputs":[{"name":"operator","type":"tuple","internalType":"struct NodeOperator","components":[{"name":"addr","type":"address","internalType":"address"},{"name":"data","type":"bytes","internalType":"bytes"}]}],"outputs":[],"stateMutability":"nonpayable"},{"type":"function","name":"completeMigration","inputs":[{"name":"id","type":"uint64","internalType":"uint64"}],"outputs":[],"stateMutability":"nonpayable"},{"type":"function","name":"getAllOperators","inputs":[],"outputs":[{"name":"","type":"address[]","internalType":"address[]"}],"stateMutability":"view"},{"type":"function","name":"getCurrentKeyspace","inputs":[],"outputs":[{"name":"","type":"uint8[]","internalType":"uint8[]"},{"name":"","type":"uint8","internalType":"uint8"}],"stateMutability":"view"},{"type":"function","name":"getMigrationStatus","inputs":[],"outputs":[{"name":"id","type":"uint64","internalType":"uint64"},{"name":"remaining","type":"uint16","internalType":"uint16"},{"name":"inProgress","type":"bool","internalType":"bool"}],"stateMutability":"view"},{"type":"function","name":"getOperatorAt","inputs":[{"name":"slotIdx","type":"uint8","internalType":"uint8"}],"outputs":[{"name":"","type":"address","internalType":"address"}],"stateMutability":"view"},{"type":"function","name":"getOperatorCount","inputs":[],"outputs":[{"name":"","type":"uint16","internalType":"uint16"}],"stateMutability":"view"},{"type":"function","name":"getPullingOperators","inputs":[],"outputs":[{"name":"","type":"uint8[]","internalType":"uint8[]"}],"stateMutability":"view"},{"type":"function","name":"getView","inputs":[],"outputs":[{"name":"","type":"tuple","internalType":"struct ClusterView","components":[{"name":"owner","type":"address","internalType":"address"},{"name":"settings","type":"tuple","internalType":"struct Settings","components":[{"name":"maxOperatorDataBytes","type":"uint16","internalType":"uint16"},{"name":"minOperators","type":"uint8","internalType":"uint8"},{"name":"extra","type":"bytes","internalType":"bytes"}]},{"name":"version","type":"uint128","internalType":"uint128"},{"name":"keyspaceVersion","type":"uint64","internalType":"uint64"},{"name":"operatorSlots","type":"tuple[]","internalType":"struct NodeOperator[]","components":[{"name":"addr","type":"address","internalType":"address"},{"name":"data","type":"bytes","internalType":"bytes"}]},{"name":"keyspaces","type":"tuple[2]","internalType":"struct Keyspace[2]","components":[{"name":"operatorBitmask","type":"uint256","internalType":"uint256"},{"name":"replicationStrategy","type":"uint8","internalType":"uint8"}]},{"name":"migration","type":"tuple","internalType":"struct Migration","components":[{"name":"id","type":"uint64","internalType":"uint64"},{"name":"startedAt","type":"uint64","internalType":"uint64"},{"name":"abortedAt","type":"uint64","internalType":"uint64"},{"name":"pullingOperatorBitmask","type":"uint256","internalType":"uint256"}]},{"name":"maintenanceSlot","type":"address","internalType":"address"}]}],"stateMutability":"view"},{"type":"function","name":"initialize","inputs":[{"name":"initialSettings","type":"tuple","internalType":"struct Settings","components":[{"name":"maxOperatorDataBytes","type":"uint16","internalType":"uint16"},{"name":"minOperators","type":"uint8","internalType":"uint8"},{"name":"extra","type":"bytes","internalType":"bytes"}]},{"name":"initialOperators","type":"tuple[]","internalType":"struct NodeOperator[]","components":[{"name":"addr","type":"address","internalType":"address"},{"name":"data","type":"bytes","internalType":"bytes"}]}],"outputs":[],"stateMutability":"nonpayable"},{"type":"function","name":"isOperator","inputs":[{"name":"addr","type":"address","internalType":"address"}],"outputs":[{"name":"","type":"bool","internalType":"bool"}],"stateMutability":"view"},{"type":"function","name":"keyspaceVersion","inputs":[],"outputs":[{"name":"","type":"uint64","internalType":"uint64"}],"stateMutability":"view"},{"type":"function","name":"keyspaces","inputs":[{"name":"","type":"uint256","internalType":"uint256"}],"outputs":[{"name":"operatorBitmask","type":"uint256","internalType":"uint256"},{"name":"replicationStrategy","type":"uint8","internalType":"uint8"}],"stateMutability":"view"},{"type":"function","name":"maintenanceSlot","inputs":[],"outputs":[{"name":"","type":"address","internalType":"address"}],"stateMutability":"view"},{"type":"function","name":"migration","inputs":[],"outputs":[{"name":"id","type":"uint64","internalType":"uint64"},{"name":"startedAt","type":"uint64","internalType":"uint64"},{"name":"abortedAt","type":"uint64","internalType":"uint64"},{"name":"pullingOperatorBitmask","type":"uint256","internalType":"uint256"}],"stateMutability":"view"},{"type":"function","name":"operatorBitmask","inputs":[],"outputs":[{"name":"","type":"uint256","internalType":"uint256"}],"stateMutability":"view"},{"type":"function","name":"operatorSlotIndexes","inputs":[{"name":"","type":"address","internalType":"address"}],"outputs":[{"name":"","type":"uint8","internalType":"uint8"}],"stateMutability":"view"},{"type":"function","name":"operatorSlots","inputs":[{"name":"","type":"uint256","internalType":"uint256"}],"outputs":[{"name":"addr","type":"address","internalType":"address"},{"name":"data","type":"bytes","internalType":"bytes"}],"stateMutability":"view"},{"type":"function","name":"owner","inputs":[],"outputs":[{"name":"","type":"address","internalType":"address"}],"stateMutability":"view"},{"type":"function","name":"pendingOwner","inputs":[],"outputs":[{"name":"","type":"address","internalType":"address"}],"stateMutability":"view"},{"type":"function","name":"proxiableUUID","inputs":[],"outputs":[{"name":"","type":"bytes32","internalType":"bytes32"}],"stateMutability":"view"},{"type":"function","name":"removeNodeOperator","inputs":[{"name":"operatorAddr","type":"address","internalType":"address"}],"outputs":[],"stateMutability":"nonpayable"},{"type":"function","name":"renounceOwnership","inputs":[],"outputs":[],"stateMutability":"nonpayable"},{"type":"function","name":"setMaintenance","inputs":[{"name":"active","type":"bool","internalType":"bool"}],"outputs":[],"stateMutability":"nonpayable"},{"type":"function","name":"settings","inputs":[],"outputs":[{"name":"maxOperatorDataBytes","type":"uint16","internalType":"uint16"},{"name":"minOperators","type":"uint8","internalType":"uint8"},{"name":"extra","type":"bytes","internalType":"bytes"}],"stateMutability":"view"},{"type":"function","name":"startMigration","inputs":[{"name":"newKeyspace","type":"tuple","internalType":"struct Keyspace","components":[{"name":"operatorBitmask","type":"uint256","internalType":"uint256"},{"name":"replicationStrategy","type":"uint8","internalType":"uint8"}]}],"outputs":[],"stateMutability":"nonpayable"},{"type":"function","name":"transferOwnership","inputs":[{"name":"newOwner","type":"address","internalType":"address"}],"outputs":[],"stateMutability":"nonpayable"},{"type":"function","name":"updateNodeOperatorData","inputs":[{"name":"operatorAddress","type":"address","internalType":"address"},{"name":"newData","type":"bytes","internalType":"bytes"}],"outputs":[],"stateMutability":"nonpayable"},{"type":"function","name":"updateSettings","inputs":[{"name":"newSettings","type":"tuple","internalType":"struct Settings","components":[{"name":"maxOperatorDataBytes","type":"uint16","internalType":"uint16"},{"name":"minOperators","type":"uint8","internalType":"uint8"},{"name":"extra","type":"bytes","internalType":"bytes"}]}],"outputs":[],"stateMutability":"nonpayable"},{"type":"function","name":"upgradeToAndCall","inputs":[{"name":"newImplementation","type":"address","internalType":"address"},{"name":"data","type":"bytes","internalType":"bytes"}],"outputs":[],"stateMutability":"payable"},{"type":"function","name":"version","inputs":[],"outputs":[{"name":"","type":"uint128","internalType":"uint128"}],"stateMutability":"view"},{"type":"event","name":"ClusterInitialized","inputs":[{"name":"operators","type":"tuple[]","indexed":false,"internalType":"struct NodeOperator[]","components":[{"name":"addr","type":"address","internalType":"address"},{"name":"data","type":"bytes","internalType":"bytes"}]},{"name":"settings","type":"tuple","indexed":false,"internalType":"struct Settings","components":[{"name":"maxOperatorDataBytes","type":"uint16","internalType":"uint16"},{"name":"minOperators","type":"uint8","internalType":"uint8"},{"name":"extra","type":"bytes","internalType":"bytes"}]},{"name":"version","type":"uint128","indexed":false,"internalType":"uint128"}],"anonymous":false},{"type":"event","name":"Initialized","inputs":[{"name":"version","type":"uint64","indexed":false,"internalType":"uint64"}],"anonymous":false},{"type":"event","name":"MaintenanceToggled","inputs":[{"name":"operator","type":"address","indexed":true,"internalType":"address"},{"name":"active","type":"bool","indexed":false,"internalType":"bool"},{"name":"version","type":"uint128","indexed":false,"internalType":"uint128"}],"anonymous":false},{"type":"event","name":"MigrationAborted","inputs":[{"name":"id","type":"uint64","indexed":true,"internalType":"uint64"},{"name":"version","type":"uint128","indexed":false,"internalType":"uint128"}],"anonymous":false},{"type":"event","name":"MigrationCompleted","inputs":[{"name":"id","type":"uint64","indexed":true,"internalType":"uint64"},{"name":"operator","type":"address","indexed":true,"internalType":"address"},{"name":"version","type":"uint128","indexed":false,"internalType":"uint128"}],"anonymous":false},{"type":"event","name":"MigrationDataPullCompleted","inputs":[{"name":"id","type":"uint64","indexed":true,"internalType":"uint64"},{"name":"operator","type":"address","indexed":true,"internalType":"address"},{"name":"version","type":"uint128","indexed":false,"internalType":"uint128"}],"anonymous":false},{"type":"event","name":"MigrationStarted","inputs":[{"name":"id","type":"uint64","indexed":true,"internalType":"uint64"},{"name":"newKeyspace","type":"tuple","indexed":false,"internalType":"struct Keyspace","components":[{"name":"operatorBitmask","type":"uint256","internalType":"uint256"},{"name":"replicationStrategy","type":"uint8","internalType":"uint8"}]},{"name":"keyspaceVersion","type":"uint64","indexed":false,"internalType":"uint64"},{"name":"version","type":"uint128","indexed":false,"internalType":"uint128"}],"anonymous":false},{"type":"event","name":"NodeOperatorAdded","inputs":[{"name":"operator","type":"address","indexed":true,"internalType":"address"},{"name":"slot","type":"uint8","indexed":true,"internalType":"uint8"},{"name":"operatorData","type":"bytes","indexed":false,"internalType":"bytes"},{"name":"version","type":"uint128","indexed":false,"internalType":"uint128"}],"anonymous":false},{"type":"event","name":"NodeOperatorRemoved","inputs":[{"name":"operator","type":"address","indexed":true,"internalType":"address"},{"name":"slot","type":"uint8","indexed":true,"internalType":"uint8"},{"name":"version","type":"uint128","indexed":false,"internalType":"uint128"}],"anonymous":false},{"type":"event","name":"NodeOperatorUpdated","inputs":[{"name":"operator","type":"address","indexed":true,"internalType":"address"},{"name":"slot","type":"uint8","indexed":true,"internalType":"uint8"},{"name":"operatorData","type":"bytes","indexed":false,"internalType":"bytes"},{"name":"version","type":"uint128","indexed":false,"internalType":"uint128"}],"anonymous":false},{"type":"event","name":"OwnershipTransferStarted","inputs":[{"name":"previousOwner","type":"address","indexed":true,"internalType":"address"},{"name":"newOwner","type":"address","indexed":true,"internalType":"address"}],"anonymous":false},{"type":"event","name":"OwnershipTransferred","inputs":[{"name":"previousOwner","type":"address","indexed":true,"internalType":"address"},{"name":"newOwner","type":"address","indexed":true,"internalType":"address"}],"anonymous":false},{"type":"event","name":"SettingsUpdated","inputs":[{"name":"newSettings","type":"tuple","indexed":false,"internalType":"struct Settings","components":[{"name":"maxOperatorDataBytes","type":"uint16","internalType":"uint16"},{"name":"minOperators","type":"uint8","internalType":"uint8"},{"name":"extra","type":"bytes","internalType":"bytes"}]},{"name":"updatedBy","type":"address","indexed":true,"internalType":"address"},{"name":"version","type":"uint128","indexed":false,"internalType":"uint128"}],"anonymous":false},{"type":"event","name":"Upgraded","inputs":[{"name":"implementation","type":"address","indexed":true,"internalType":"address"}],"anonymous":false},{"type":"error","name":"AddressEmptyCode","inputs":[{"name":"target","type":"address","internalType":"address"}]},{"type":"error","name":"CallerNotOperator","inputs":[]},{"type":"error","name":"ERC1967InvalidImplementation","inputs":[{"name":"implementation","type":"address","internalType":"address"}]},{"type":"error","name":"ERC1967NonPayable","inputs":[]},{"type":"error","name":"FailedCall","inputs":[]},{"type":"error","name":"InsufficientOperators","inputs":[]},{"type":"error","name":"InvalidInitialization","inputs":[]},{"type":"error","name":"InvalidOperator","inputs":[]},{"type":"error","name":"InvalidOperatorData","inputs":[]},{"type":"error","name":"MaintenanceInProgress","inputs":[]},{"type":"error","name":"MigrationInProgress","inputs":[]},{"type":"error","name":"NoMigrationInProgress","inputs":[]},{"type":"error","name":"NotInitializing","inputs":[]},{"type":"error","name":"OperatorExists","inputs":[]},{"type":"error","name":"OperatorInKeyspace","inputs":[]},{"type":"error","name":"OperatorNotFound","inputs":[]},{"type":"error","name":"OperatorNotPulling","inputs":[]},{"type":"error","name":"OwnableInvalidOwner","inputs":[{"name":"owner","type":"address","internalType":"address"}]},{"type":"error","name":"OwnableUnauthorizedAccount","inputs":[{"name":"account","type":"address","internalType":"address"}]},{"type":"error","name":"SameKeyspace","inputs":[]},{"type":"error","name":"TooManyOperators","inputs":[]},{"type":"error","name":"UUPSUnauthorizedCallContext","inputs":[]},{"type":"error","name":"UUPSUnsupportedProxiableUUID","inputs":[{"name":"slot","type":"bytes32","internalType":"bytes32"}]},{"type":"error","name":"Unauthorized","inputs":[]},{"type":"error","name":"WrongMigrationId","inputs":[]}],"bytecode":{"object":"0x60a080604052346100e857306080527ff0c57e16840df040f15088dc2f81fe391c3923bec73e23a9662efc9c229c6a005460ff8160401c166100d9576002600160401b03196001600160401b03821601610073575b604051612fbc90816100ed823960805181818161152801526115b90152f35b6001600160401b0319166001600160401b039081177ff0c57e16840df040f15088dc2f81fe391c3923bec73e23a9662efc9c229c6a005581527fc7f505b2f371ae2175ee4913f4499e1f2633a7b5936321eed1cdaeb6115181d290602090a15f80610054565b63f92ee8a960e01b5f5260045ffd5b5f80fdfe60806040526004361015610011575f80fd5b5f3560e01c80630df4f784146123975780630e89d8da1461233857806311fcaded146122e65780631705a3bd146122a15780631a4a7c611461227757806320ee38db1461223b57806328b5041c14611fe55780632907779814611fbc5780632b78c9f714611fa057806332ccfe5e1461196e57806347011c5c146117705780634f1ef2861461157c57806352d1902d1461151657806354fd4d50146114f0578063558a22be14611166578063612f2f37146110015780636d70f7ae14610fa3578063715018a614610f2657806375418b9d14610b1c57806378d83a5514610ab457806379ba509714610a665780638a3d449514610a3f5780638da5cb5b14610a0b57806392265b65146109cd5780639d44e7171461086f578063a415c02c1461082b578063ad3cb1cc146107e4578063c05665dd14610600578063d17b27d3146105cd578063d187395b146105af578063d911c632146103d8578063e06174e41461037f578063e30c39781461034b578063e88e9749146102225763f2fde38b1461019a575f80fd5b3461021e57602036600319011261021e576101b36125b1565b6101bb612b7d565b5f80516020612f6783398151915280546001600160a01b0319166001600160a01b039283169081179091555f80516020612f07833981519152549091167f38d16b8cac22d99fc7c124b9cd0de2d3fa1faef420bfe791d8c362d765e227005f80a3005b5f80fd5b3461021e57602036600319011261021e576004356001600160401b03811680910361021e5761024f612b7d565b61020b541561033c5761020a546001600160401b038116820361032d5767ffffffffffffffff60801b19164260801b67ffffffffffffffff60801b161761020a555f61020b55610209546001600160401b0381168015610319576001600160401b03905f190116906001600160401b03191617610209557ff73240422246f63ed633ef3ce0726b8ab8fb69d46c8a4e5ecb0b2922668674a160206002546001600160801b036102ff8183166129ad565b1680916001600160801b03191617600255604051908152a2005b634e487b7160e01b5f52601160045260245ffd5b631a0fd8c760e21b5f5260045ffd5b631821b37560e31b5f5260045ffd5b3461021e575f36600319011261021e575f80516020612f67833981519152546040516001600160a01b039091168152602090f35b3461021e575f36600319011261021e5760ff5f546103d46040516103ad816103a6816127fa565b0382612678565b604051938361ffff869516855260101c16602084015260606040840152606083019061272e565b0390f35b3461021e575f36600319011261021e576102045461ffff6103f882612c08565b1661040281612717565b906104106040519283612678565b80825261041c81612717565b602083019390601f19013685375f915f5b60ff81166101008110806105a6575b1561049f576001901b8316610457575b60010160ff1661042d565b9261010084101561048b5760018060ff9286821b60030154828060a01b0316610480828a612a62565b52019491505061044c565b634e487b7160e01b5f52603260045260245ffd5b85878151600281108160051b84019015610502575b505090604051918291602083019060208452518091526040830191905f5b8181106104e0575050500390f35b82516001600160a01b03168452859450602093840193909201916001016104d2565b919092818392845b80519080601f190191825111610520575061050a565b83959793915095919395111561059b575b80519080601f1901918251106105475750610531565b8495969293949150111561056e5761056591925f8652601f19612d5f565b825282806104b4565b602091505b8251815184528152910190601f19018082101561059257602090610573565b505082806104b4565b5050819293506104b4565b5082851061043c565b3461021e575f36600319011261021e57602061020454604051908152f35b3461021e575f36600319011261021e576103d46105ec61020b54612ade565b6040519182916020835260208301906125c7565b3461021e57602036600319011261021e576106196125b1565b610621612b7d565b6001600160a01b03165f818152610203602052604090205460ff8116919061010083101561048b576101fe9060011b1680600301908260018060a01b03835416036107d55761ffff61067561020454612c08565b1660ff5f5460101c1610156107c65761020b541561079857610205546001851b8091161590811591610789575b5061077a575f6004925b55016106b881546127c2565b9081610737575b5050805f5261020360205260405f2060ff198154169055610204546001831b1916610204557f09f530ee5721466a79a706ccbc5875d7f2fec6ff088f543aa3e838ac941aa95160206002546001600160801b0361071d8183166129ad565b1680916001600160801b03191617600255604051908152a3005b81601f5f931160011461074e5750555b82806106bf565b8183526020832061076a91601f0160051c81019060010161291a565b8082528160208120915555610747565b63997ac2d360e01b5f5260045ffd5b905061020754161515856106a2565b61020954600260018216101561048b5760029060011b1661020501546001851b1661077a575f6004926106ac565b6330e40a8160e11b5f5260045ffd5b63ae4207eb60e01b5f5260045ffd5b3461021e575f36600319011261021e576103d4604051610805604082612678565b60058152640352e302e360dc1b602082015260405191829160208352602083019061272e565b3461021e575f36600319011261021e5760606001600160401b0361020a541661020b5461ffff61085a82612c08565b16604051928352602083015215156040820152f35b3461021e57602036600319011261021e576004356001600160401b03811680910361021e5761020b54801561033c576001600160401b0361020a5416820361032d57335f5261020360205260405f205460ff81169061010082101561048b5733906101fe60018060a01b039160011b166003015416036109be576001901b808216156109af5719168061020b55155f1461095957600254906001600160801b0361091a8184166129ad565b1680926001600160801b031916176002556040519182527f01269879535f40ee8957e15e160bf1866c5e2728ff0cbc583d848821e2639b4e60203393a3005b600254906001600160801b036109708184166129ad565b1680926001600160801b031916176002556040519182527faf5e90e72015f43138f66b4cd08bd1dfa2839030104f22a00af843fe847c6d1960203393a3005b6313a9a39160e31b5f5260045ffd5b63a5523ee560e01b5f5260045ffd5b3461021e57602036600319011261021e57600435600281101561021e5760409060011b60ff6102068261020501549201541682519182526020820152f35b3461021e575f36600319011261021e575f80516020612f07833981519152546040516001600160a01b039091168152602090f35b3461021e575f36600319011261021e5760206001600160401b036102095416604051908152f35b3461021e575f36600319011261021e575f80516020612f6783398151915254336001600160a01b0390911603610aa157610a9f33612b9d565b005b63118cdaa760e01b5f523360045260245ffd5b3461021e57602036600319011261021e5760043561010081101561021e5760049060011b610b0060018060a01b0382600301541691610af96040518095819301612899565b0383612678565b6103d4604051928392835260406020840152604083019061272e565b3461021e575f36600319011261021e57604051610b3881612641565b5f8152604051610b478161260b565b5f81525f60208201526060604082015260208201525f60408201525f6060820152606060808201526040908151610b7e8382612678565b5f5b838110610f0657508160e09160a05f9401528351610b9d8161265d565b838152836020820152838582015283606082015260c082015201526102045460ff610bc782612cdc565b16916001830161ffff81116103195761ffff1692610be484612717565b93610bf183519586612678565b808552610c00601f1991612717565b015f5b818110610ee35750505f5b61ffff811690828211610ca15760ff81166001811b8616610c3a575b50610c359150612aa7565b610c0e565b610100111561048b57610c9a610c35926101fe8360011b166004610c84885192610c6384612626565b60038101546001600160a01b0316845289519283916103a691839101612899565b6020820152610c93828a612a62565b5287612a62565b5086610c2a565b858460018060a01b035f80516020612f0783398151915254166001600160801b0360025416926001600160401b0361020954169260018060a01b0361020c541691815193610cee85612641565b8452815194610cfc8661260b565b60ff5f5461ffff8116885260101c1660208701528251610d1f816103a6816127fa565b83870152602085019586528285019687526060850190815260808501918252825194610d4a86612626565b6102055f875b60028210610eb457505050916001600160401b03610d8998926001600160801b03610e0f878760a0610e3099019b8c5281519d8e61265d565b8d828761020a5481811684528181841c16602085015260801c169101528d606061020b5491015260c081019d8e5260e081019a8b526101c08280519e8f936020855260018060a01b039051166020850152519201528c6101e061ffff8351169101528c61020060ff602084015116910152015160606102208d01526102408c019061272e565b94511660608a01525116608088015251868203601f190160a0880152612752565b92515f60c086015b60028210610e92575050945180516001600160401b039081166101408701526020820151811661016087015291810151909116610180850152606001516101a0840152516001600160a01b03166101c08301528190039150f35b60208460019260ff838751805184520151168382015201930191019091610e38565b600260206001928951610ec681612626565b8654815260ff858801541683820152815201930191019091610d50565b6020908451610ef181612626565b5f815260608382015282828901015201610c03565b6020908451610f1481612626565b5f81525f838201528184015201610b80565b3461021e575f36600319011261021e57610f3e612b7d565b5f80516020612f6783398151915280546001600160a01b03199081169091555f80516020612f07833981519152805491821690555f906001600160a01b03167f8be0079c531659141344cd1fd0a4f28419497f9722a3daafe3b4186f6b6457e08280a3005b3461021e57602036600319011261021e576001600160a01b03610fc46125b1565b16805f5261020360205260405f20549061010060ff8316101561048b576020916101fe60018060a01b039160011b16600301541614604051908152f35b3461021e57602036600319011261021e576004358015159081810361021e57156111175761020c546001600160a01b038116611108576001600160a01b031916331761020c555b5f80516020612f07833981519152546001600160a01b031633036110c1575b6002546001600160801b0361107d8183166129ad565b1680916001600160801b0319161760025560405191825260208201527f1c1d5017b8b1542dedc14e2b0d29098feed77a27d5a6c2c18e71a432b67b262060403392a2005b335f5261020360205260405f205461010060ff8216101561048b57600360019190911b6101fe1601546001600160a01b03163314611067575b6282b42960e81b5f5260045ffd5b631ddb00d960e21b5f5260045ffd5b61020c546001600160a01b03811633141580611145575b6110fa576001600160a01b03191661020c55611048565b505f80516020612f07833981519152546001600160a01b031633141561112e565b3461021e57602036600319011261021e576004356001600160401b03811161021e57806004016040600319833603011261021e576111a2612b7d565b61020454915f1983146114e1576001600160a01b036111c083612a93565b16156114d2576001600160a01b036111d783612a93565b165f5261020360205260ff60405f205416158015906114b2575b6114a357602401916112156112106112098585612a30565b36916126c3565b612aba565b6001810190191660e07e1f0d1e100c1d070f090b19131c1706010e11080a1a141802121b1503160405601f7f804040554300526644320000502061067405302602000010750620017611707760fc7fb6db6db6ddddddddd34d34d349249249210842108c6318c639ce739cffffffff860260f81c161b60f71c936101e085161c63d76453e004161a9116179161010083101561048b5760048360011b6112ba84612a93565b6003820180546001600160a01b0319166001600160a01b03909216919091179055016112e68284612a30565b906001600160401b03821161148f576113098261130385546127c2565b85612975565b5f90601f831160011461140557827f170bf5a9733d1e9d97b286096f8b6366155678e76d5c4e4197c0e846a9b8278495936113a8959361135e935f926113fa575b50508160011b915f199060031b1c19161790565b90555b6001600160a01b0361137285612a93565b165f5261020360205260405f2060ff861660ff19825416179055610204546001861b17610204556113a284612a93565b93612a30565b90926113f56002546113c26001600160801b0382166129ad565b6001600160801b03199091166001600160801b038216176002556040516001600160a01b039093169592938493846129ea565b0390a3005b01359050898061134a565b601f19831691845f5260205f20925f5b81811061147757509260019285927f170bf5a9733d1e9d97b286096f8b6366155678e76d5c4e4197c0e846a9b8278498966113a898961061145e575b505050811b019055611361565b01355f19600384901b60f8161c19169055888080611451565b91936020600181928787013581550195019201611415565b634e487b7160e01b5f52604160045260245ffd5b632a322e2b60e01b5f5260045ffd5b506003546001600160a01b03908116906114cb84612a93565b16146111f1565b63ccea9e6f60e01b5f5260045ffd5b636055dca160e01b5f5260045ffd5b3461021e575f36600319011261021e5760206001600160801b0360025416604051908152f35b3461021e575f36600319011261021e577f00000000000000000000000000000000000000000000000000000000000000006001600160a01b0316300361156d5760206040515f80516020612f278339815191528152f35b63703e46dd60e11b5f5260045ffd5b604036600319011261021e576115906125b1565b6024356001600160401b03811161021e576115af9036906004016126f9565b6001600160a01b037f00000000000000000000000000000000000000000000000000000000000000001630811490811561174e575b5061156d576115f1612b7d565b6040516352d1902d60e01b81526001600160a01b0383169290602081600481875afa5f918161171a575b506116335783634c9c8ce360e01b5f5260045260245ffd5b805f80516020612f278339815191528592036117085750813b156116f6575f80516020612f2783398151915280546001600160a01b031916821790557fbc7cd75a20ee27fd9adebab32041f755214dbc6bffa90cc0225b39da2e5c2d3b5f80a28151156116de575f80836020610a9f95519101845af43d156116d6573d916116ba836126a8565b926116c86040519485612678565b83523d5f602085013e612ea8565b606091612ea8565b5050346116e757005b63b398979f60e01b5f5260045ffd5b634c9c8ce360e01b5f5260045260245ffd5b632a87526960e21b5f5260045260245ffd5b9091506020813d602011611746575b8161173660209383612678565b8101031261021e5751908561161b565b3d9150611729565b5f80516020612f27833981519152546001600160a01b031614159050836115e4565b3461021e57604036600319011261021e57611789612b7d565b61020c546001600160a01b03166111085761020b5461195f5760043561ffff6117b182612c08565b1661010081116114e15760ff5f5460101c16116107c657610204541981166107d55761020954600260018216101561048b5760028160011b1682816102050154149081611943575b506119345761020a546001600160401b03611815818316612a76565b166fffffffffffffffff00000000000000004260401b16916001600160801b031916171761020a558161020b556118546001600160401b038216612a76565b67ffffffffffffffff199091166001600160401b0382161761020955600260018216101561048b5760029060011b168181610205015560ff610206611897612a12565b9201911660ff198254161790556001600160401b0361020a5416906001600160401b03610209541690600254906001600160801b036118d78184166129ad565b1680926001600160801b031916176002556040519081526024359160ff831680930361021e577f8b6495d1a64e57453f038b5fe923459a17fc3f4d5420af6c58007bdc78aa868493608093602084015260408301526060820152a2005b63d990d65560e01b5f5260045ffd5b60ff915061020601541660ff611957612a12565b1614836117f9565b6378a4646d60e11b5f5260045ffd5b3461021e57604036600319011261021e576004356001600160401b03811161021e576060600319823603011261021e576040516119aa8161260b565b6119b682600401612699565b81526119c4602483016125fd565b91602082019283526044810135906001600160401b03821161021e5760046119ef92369201016126f9565b60408201908152602435926001600160401b03841161021e573660238501121561021e578360040135611a2181612717565b94611a2f6040519687612678565b8186526024602087019260051b8201019036821161021e5760248101925b828410611f2557505050505f80516020612f4783398151915254926001600160401b0360ff8560401c1615941680159081611f1d575b6001149081611f13575b159081611f0a575b50611efb578360016001600160401b03195f80516020612f478339815191525416175f80516020612f4783398151915255611ec6575b6101008551116114e157845160ff835116116107c657611ae9612cb1565b611af1612cb1565b611af9612cb1565b3315611eb357611b399161ffff8060ff93611b1333612b9d565b51161661ffff195f5416175f55511662ff00005f549160101b169062ff00001916175f55565b519182516001600160401b03811161148f57611b5f81611b5a6001546127c2565b612930565b6020601f8211600114611e4f578190611b8e9394955f92611e445750508160011b915f199060031b1c19161790565b600155905b5f915b8051831015611d0b57611ba98382612a62565b51926020840193611bba8551612aba565b60ff821661020454916001821b8093166114a35761010082101561048b5780516003600186901b6101fe1690810180546001600160a01b0319166001600160a01b039390931692909217909155965180519097600401906001600160401b03811161148f57611c3381611c2d84546127c2565b84612975565b6020601f8211600114611ca6579080611c65926001999a9b5f92611c9b5750508160011b915f199060031b1c19161790565b90555b848060a01b039051165f5261020360205260ff60405f20911660ff19825416179055610204541761020455019190611b96565b015190508b8061134a565b601f19821699835f52815f209a5f5b818110611cf35750916001999a9b91848b959410611cdb575b505050811b019055611c68565b01515f1960f88460031b161c191690558a8080611cce565b929b6020600181928f8601518155019d019301611cb5565b80516101008103611e0a5750611d817f346271ed9f7ea1fb272e6177bacb48708be13f082db7d8a6757553f65496929b915f195b610205556002546001600160801b03611d598183166129ad565b1680916001600160801b03191617600255611da9606060405194859482865282860190612752565b848103602086015260ff5f5461ffff8116835260101c166020820152816040820152016127fa565b9060408301520390a1611db857005b60ff60401b195f80516020612f4783398151915254165f80516020612f47833981519152557fc7f505b2f371ae2175ee4913f4499e1f2633a7b5936321eed1cdaeb6115181d2602060405160018152a1005b6001901b5f198101908111610319577f346271ed9f7ea1fb272e6177bacb48708be13f082db7d8a6757553f65496929b91611d8191611d3f565b01519050858061134a565b601f1982169060015f52805f20915f5b818110611e9b57509583600195969710611e83575b505050811b0160015590611b93565b01515f1960f88460031b161c19169055848080611e74565b9192602060018192868b015181550194019201611e5f565b631e4fbdf760e01b5f525f60045260245ffd5b6801000000000000000060ff60401b195f80516020612f478339815191525416175f80516020612f4783398151915255611acb565b63f92ee8a960e01b5f5260045ffd5b90501586611a95565b303b159150611a8d565b859150611a83565b83356001600160401b03811161021e5782016040602319823603011261021e5760405191611f5283612626565b60248201356001600160a01b038116810361021e5783526044820135926001600160401b03841161021e57611f916020949360248695369201016126f9565b83820152815201930192611a4d565b3461021e575f36600319011261021e5760206040516101008152f35b3461021e575f36600319011261021e5761020c546040516001600160a01b039091168152602090f35b3461021e57602036600319011261021e576004356001600160401b03811161021e578060040181360391606060031984011261021e57612023612b7d565b61ffff61203261020454612c08565b1692602482019360ff61204486612a22565b16116107c657823561ffff8116810361021e5761ffff1661ffff195f5416175f5561208861207185612a22565b62ff00005f549160101b169062ff00001916175f55565b604482016120968185612a30565b906001600160401b03821161148f576120b482611b5a6001546127c2565b5f90601f83116001146121b6576120e192915f91836121ab5750508160011b915f199060031b1c19161790565b6001555b60ff612130600254966001600160801b03612101818a166129ad565b1680986001600160801b0319161760025561ffff6121256040519860408a52612699565b1660408801526125fd565b16606085015235906022190181121561021e570190602460048301359201916001600160401b03811161021e57803603831361021e577f5b42ef8e6053d8afa3d2c72c1413f14d8814176addc01f1128206ae5f0ed44a89261219d916060608085015260a08401916129ca565b9260208201528033930390a2005b01359050888061134a565b60015f9081527fb10e2d527612073b26eecdfd717e6a320cf44b4afac2b0732d9fcbe2b7fa0cf69290601f198516905b818110612223575090846001959493921061220a575b505050811b016001556120e5565b01355f19600384901b60f8161c191690558780806121fc565b919360206001819287870135815501950192016121e6565b3461021e57602036600319011261021e576001600160a01b0361225c6125b1565b165f52610203602052602060ff60405f205416604051908152f35b3461021e575f36600319011261021e57602061ffff61229861020454612c08565b16604051908152f35b3461021e575f36600319011261021e57608061020a5461020b546001600160401b03604051928181168452818160401c166020850152841c1660408301526060820152f35b3461021e57602036600319011261021e5760043560ff811680820361021e57600161020454911b16156107d55761010081101561048b5760209060018060a01b039060011b6003015416604051908152f35b3461021e575f36600319011261021e5761020954600260018216101561048b57600261238d9160011b1660ff610206612375836102050154612ade565b920154166040519283926040845260408401906125c7565b9060208301520390f35b3461021e57604036600319011261021e576123b06125b1565b602435906001600160401b03821161021e573660238301121561021e5781600401356001600160401b03811161021e576024830191366024838601011161021e576001600160a01b0316903382141580612590575b6110fa576124176112103683866126c3565b815f5261020360205260405f20549260ff84169361010085101561048b576101fe9060011b168360018060a01b03826003015416036107d5576004016124678361246183546127c2565b83612975565b5f601f84116001146125065783806124b7927fe69bedb27cdb1709feb6a744e2030bc5ca0e315bb1fb40df07e09e05a86969a79798995f926124f85750508160011b915f199060031b1c19161790565b90555b6113f56002546124d26001600160801b0382166129ad565b6001600160801b03199091166001600160801b03821617600255604051938493846129ea565b60249250010135898061134a565b601f19841696825f5260205f20915f5b8981106125755750857fe69bedb27cdb1709feb6a744e2030bc5ca0e315bb1fb40df07e09e05a86969a797989910612559575b505050600183811b0190556124ba565b01602401355f19600386901b60f8161c19169055868080612549565b90926020600181926024878701013581550194019101612516565b505f80516020612f07833981519152546001600160a01b0316331415612405565b600435906001600160a01b038216820361021e57565b90602080835192838152019201905f5b8181106125e45750505090565b825160ff168452602093840193909201916001016125d7565b359060ff8216820361021e57565b606081019081106001600160401b0382111761148f57604052565b604081019081106001600160401b0382111761148f57604052565b61010081019081106001600160401b0382111761148f57604052565b608081019081106001600160401b0382111761148f57604052565b90601f801991011681019081106001600160401b0382111761148f57604052565b359061ffff8216820361021e57565b6001600160401b03811161148f57601f01601f191660200190565b9291926126cf826126a8565b916126dd6040519384612678565b82948184528183011161021e578281602093845f960137010152565b9080601f8301121561021e57816020612714933591016126c3565b90565b6001600160401b03811161148f5760051b60200190565b805180835260209291819084018484015e5f828201840152601f01601f1916010190565b9080602083519182815201916020808360051b8301019401925f915b83831061277d57505050505090565b90919293946020806127b3600193601f198682030187526040838b51878060a01b0381511684520151918185820152019061272e565b9701930193019193929061276e565b90600182811c921680156127f0575b60208310146127dc57565b634e487b7160e01b5f52602260045260245ffd5b91607f16916127d1565b6001545f9291612809826127c2565b808252916001811690811561287d5750600114612824575050565b60015f9081529293509091907fb10e2d527612073b26eecdfd717e6a320cf44b4afac2b0732d9fcbe2b7fa0cf65b838310612863575060209250010190565b600181602092949394548385870101520191019190612852565b9050602093945060ff929192191683830152151560051b010190565b5f92918154916128a8836127c2565b80835292600181169081156128fd57506001146128c457505050565b5f9081526020812093945091925b8383106128e3575060209250010190565b6001816020929493945483858701015201910191906128d2565b915050602093945060ff929192191683830152151560051b010190565b818110612925575050565b5f815560010161291a565b90601f821161293d575050565b6129699160015f5260205f20906020601f840160051c8301931061296b575b601f0160051c019061291a565b565b909150819061295c565b9190601f811161298457505050565b612969925f5260205f20906020601f840160051c8301931061296b57601f0160051c019061291a565b6001600160801b03166001600160801b0381146103195760010190565b908060209392818452848401375f828201840152601f01601f1916010190565b91612a0b6020926001600160801b03929695966040865260408601916129ca565b9416910152565b60243560ff8116810361021e5790565b3560ff8116810361021e5790565b903590601e198136030182121561021e57018035906001600160401b03821161021e5760200191813603831361021e57565b805182101561048b5760209160051b010190565b6001600160401b03166001600160401b0381146103195760010190565b356001600160a01b038116810361021e5790565b61ffff1661ffff81146103195760010190565b805115612acf575161ffff5f541610612acf57565b635e9b2d5360e01b5f5260045ffd5b9061ffff612aeb83612c08565b1691612af683612717565b92612b046040519485612678565b808452612b13601f1991612717565b013660208501375f805b60ff612b2884612cdc565b1661ffff831611612b785760ff8216916001831b8416612b54575b612b4e919250612aa7565b90612b1d565b81925f19831461031957612b6f6001612b4e94019488612a62565b52829150612b43565b505050565b5f80516020612f07833981519152546001600160a01b03163303610aa157565b5f80516020612f6783398151915280546001600160a01b03199081169091555f80516020612f0783398151915280549182166001600160a01b0393841690811790915591167f8be0079c531659141344cd1fd0a4f28419497f9722a3daafe3b4186f6b6457e05f80a3565b7f01010101010101010101010101010101010101010101010101010101010101017f0f0f0f0f0f0f0f0f0f0f0f0f0f0f0f0f0f0f0f0f0f0f0f0f0f0f0f0f0f0f0f0f7f55555555555555555555555555555555555555555555555555555555555555558360011c1683037f3333333333333333333333333333333333333333333333333333333333333333808260021c169116018060041c01160260f81c905f191460081b1790565b60ff5f80516020612f478339815191525460401c1615612ccd57565b631afcd79f60e31b5f5260045ffd5b7f07060605060205040602030205040301060502050303040105050304000000006f8421084210842108cc6318c6db6d54be826001600160801b031060071b831560081b1783811c6001600160401b031060061b1783811c63ffffffff1060051b1783811c61ffff1060041b1783811c60ff1060031b1792831c1c601f161a1790565b6101808284031115612e2f57815183830160011c6020600160ff1b0316601f84160180519091908181811015612e26575b5085518081831015612e13575b5086528252835251928092805b5b60200180518611612dab57935b830180518610612db857938480821015612dd9578151815183529052612daa565b50509193506020830190808203612e02575b5050808203612df957505050565b61296992612d5f565b612e0c9185612d5f565b5f80612deb565b909190808410612d9d579291505f612d9d565b9150905f612d90565b9190926020840193845181511015612e9a575b505b60208401828111612e93576020848251960101805186811115612e8a579085915b602082015201805186811115612e7d57908591612e65565b5060200194909452612e44565b50509350612e44565b5092505050565b84518151865290525f612e42565b90612ecc5750805115612ebd57805190602001fd5b63d6bda27560e01b5f5260045ffd5b81511580612efd575b612edd575090565b639996b31560e01b5f9081526001600160a01b0391909116600452602490fd5b50803b15612ed556fe9016d09d72d40fdae2fd8ceac6b6234c7706214fd39c1cd1e609a0528c199300360894a13ba1a3210667c828492db98dca3e2076cc3735a920a3ca505d382bbcf0c57e16840df040f15088dc2f81fe391c3923bec73e23a9662efc9c229c6a00237e158222e3e6968b72b9db0d8043aacf074ad9f650f0d1606b4d82ee432c00a264697066735822122079596950af7dabde6eec294edb4cfcc4e9103e88f65f18d06bb2948a89508c2164736f6c634300081a0033","linkReferences":{}},"methodIdentifiers":{"MAX_OPERATORS()":"2b78c9f7","UPGRADE_INTERFACE_VERSION()":"ad3cb1cc","abortMigration(uint64)":"e88e9749","acceptOwnership()":"79ba5097","addNodeOperator((address,bytes))":"558a22be","completeMigration(uint64)":"9d44e717","getAllOperators()":"d911c632","getCurrentKeyspace()":"0e89d8da","getMigrationStatus()":"a415c02c","getOperatorAt(uint8)":"11fcaded","getOperatorCount()":"1a4a7c61","getPullingOperators()":"d17b27d3","getView()":"75418b9d","initialize((uint16,uint8,bytes),(address,bytes)[])":"32ccfe5e","isOperator(address)":"6d70f7ae","keyspaceVersion()":"8a3d4495","keyspaces(uint256)":"92265b65","maintenanceSlot()":"29077798","migration()":"1705a3bd","operatorBitmask()":"d187395b","operatorSlotIndexes(address)":"20ee38db","operatorSlots(uint256)":"78d83a55","owner()":"8da5cb5b","pendingOwner()":"e30c3978","proxiableUUID()":"52d1902d","removeNodeOperator(address)":"c05665dd","renounceOwnership()":"715018a6","setMaintenance(bool)":"612f2f37","settings()":"e06174e4","startMigration((uint256,uint8))":"47011c5c","transferOwnership(address)":"f2fde38b","updateNodeOperatorData(address,bytes)":"0df4f784","updateSettings((uint16,uint8,bytes))":"28b5041c","upgradeToAndCall(address,bytes)":"4f1ef286","version()":"54fd4d50"},"id":57}