{"abi":[{"type":"constructor","inputs":[],"stateMutability":"nonpayable"},{"type":"function","name":"UPGRADE_INTERFACE_VERSION","inputs":[],"outputs":[{"name":"","type":"string","internalType":"string"}],"stateMutability":"view"},{"type":"function","name":"abortMigration","inputs":[{"name":"id","type":"uint64","internalType":"uint64"}],"outputs":[],"stateMutability":"nonpayable"},{"type":"function","name":"acceptOwnership","inputs":[],"outputs":[],"stateMutability":"nonpayable"},{"type":"function","name":"addNodeOperator","inputs":[{"name":"operator","type":"tuple","internalType":"struct NodeOperator","components":[{"name":"addr","type":"address","internalType":"address"},{"name":"data","type":"bytes","internalType":"bytes"},{"name":"maintenance","type":"bool","internalType":"bool"}]}],"outputs":[],"stateMutability":"nonpayable"},{"type":"function","name":"completeMigration","inputs":[{"name":"id","type":"uint64","internalType":"uint64"}],"outputs":[],"stateMutability":"nonpayable"},{"type":"function","name":"getAllOperators","inputs":[],"outputs":[{"name":"","type":"address[]","internalType":"address[]"}],"stateMutability":"view"},{"type":"function","name":"getCurrentKeyspace","inputs":[],"outputs":[{"name":"","type":"uint8[]","internalType":"uint8[]"},{"name":"","type":"uint8","internalType":"uint8"}],"stateMutability":"view"},{"type":"function","name":"getMigrationStatus","inputs":[],"outputs":[{"name":"id","type":"uint64","internalType":"uint64"},{"name":"remaining","type":"uint16","internalType":"uint16"},{"name":"inProgress","type":"bool","internalType":"bool"}],"stateMutability":"view"},{"type":"function","name":"getOperatorAt","inputs":[{"name":"slot","type":"uint8","internalType":"uint8"}],"outputs":[{"name":"","type":"address","internalType":"address"}],"stateMutability":"view"},{"type":"function","name":"getOperatorCount","inputs":[],"outputs":[{"name":"","type":"uint8","internalType":"uint8"}],"stateMutability":"view"},{"type":"function","name":"getPullingOperators","inputs":[],"outputs":[{"name":"","type":"uint8[]","internalType":"uint8[]"}],"stateMutability":"view"},{"type":"function","name":"getView","inputs":[],"outputs":[{"name":"","type":"tuple","internalType":"struct ClusterView","components":[{"name":"settings","type":"tuple","internalType":"struct Settings","components":[{"name":"maxOperatorDataBytes","type":"uint16","internalType":"uint16"},{"name":"minOperators","type":"uint8","internalType":"uint8"}]},{"name":"version","type":"uint128","internalType":"uint128"},{"name":"keyspaceVersion","type":"uint64","internalType":"uint64"},{"name":"operatorCount","type":"uint8","internalType":"uint8"},{"name":"operators","type":"address[]","internalType":"address[]"},{"name":"operatorData","type":"tuple[]","internalType":"struct NodeOperatorData[]","components":[{"name":"data","type":"bytes","internalType":"bytes"},{"name":"maintenance","type":"bool","internalType":"bool"}]},{"name":"currentKeyspace","type":"tuple","internalType":"struct Keyspace","components":[{"name":"members","type":"uint8[]","internalType":"uint8[]"},{"name":"replicationStrategy","type":"uint8","internalType":"uint8"}]},{"name":"migrationId","type":"uint64","internalType":"uint64"},{"name":"pullingOperators","type":"uint8[]","internalType":"uint8[]"},{"name":"maintenance","type":"tuple","internalType":"struct MaintenanceState","components":[{"name":"slot","type":"address","internalType":"address"},{"name":"isOwnerMaintenance","type":"bool","internalType":"bool"}]}]}],"stateMutability":"view"},{"type":"function","name":"initialize","inputs":[{"name":"initialSettings","type":"tuple","internalType":"struct Settings","components":[{"name":"maxOperatorDataBytes","type":"uint16","internalType":"uint16"},{"name":"minOperators","type":"uint8","internalType":"uint8"}]},{"name":"initialOperators","type":"tuple[]","internalType":"struct NodeOperator[]","components":[{"name":"addr","type":"address","internalType":"address"},{"name":"data","type":"bytes","internalType":"bytes"},{"name":"maintenance","type":"bool","internalType":"bool"}]}],"outputs":[],"stateMutability":"nonpayable"},{"type":"function","name":"isInitialized","inputs":[],"outputs":[{"name":"","type":"bool","internalType":"bool"}],"stateMutability":"view"},{"type":"function","name":"isOperator","inputs":[{"name":"addr","type":"address","internalType":"address"}],"outputs":[{"name":"","type":"bool","internalType":"bool"}],"stateMutability":"view"},{"type":"function","name":"keyspaceVersion","inputs":[],"outputs":[{"name":"","type":"uint64","internalType":"uint64"}],"stateMutability":"view"},{"type":"function","name":"keyspaces","inputs":[{"name":"","type":"uint256","internalType":"uint256"}],"outputs":[{"name":"replicationStrategy","type":"uint8","internalType":"uint8"}],"stateMutability":"view"},{"type":"function","name":"maintenance","inputs":[],"outputs":[{"name":"slot","type":"address","internalType":"address"},{"name":"isOwnerMaintenance","type":"bool","internalType":"bool"}],"stateMutability":"view"},{"type":"function","name":"migrationId","inputs":[],"outputs":[{"name":"","type":"uint64","internalType":"uint64"}],"stateMutability":"view"},{"type":"function","name":"nextFreeSlot","inputs":[],"outputs":[{"name":"","type":"uint8","internalType":"uint8"}],"stateMutability":"view"},{"type":"function","name":"operatorCount","inputs":[],"outputs":[{"name":"","type":"uint8","internalType":"uint8"}],"stateMutability":"view"},{"type":"function","name":"operatorInfo","inputs":[{"name":"","type":"address","internalType":"address"}],"outputs":[{"name":"data","type":"bytes","internalType":"bytes"},{"name":"maintenance","type":"bool","internalType":"bool"}],"stateMutability":"view"},{"type":"function","name":"operatorSlots","inputs":[{"name":"","type":"uint8","internalType":"uint8"}],"outputs":[{"name":"","type":"address","internalType":"address"}],"stateMutability":"view"},{"type":"function","name":"operatorToSlot","inputs":[{"name":"","type":"address","internalType":"address"}],"outputs":[{"name":"","type":"uint8","internalType":"uint8"}],"stateMutability":"view"},{"type":"function","name":"owner","inputs":[],"outputs":[{"name":"","type":"address","internalType":"address"}],"stateMutability":"view"},{"type":"function","name":"pendingOwner","inputs":[],"outputs":[{"name":"","type":"address","internalType":"address"}],"stateMutability":"view"},{"type":"function","name":"proxiableUUID","inputs":[],"outputs":[{"name":"","type":"bytes32","internalType":"bytes32"}],"stateMutability":"view"},{"type":"function","name":"pullingCount","inputs":[],"outputs":[{"name":"","type":"uint16","internalType":"uint16"}],"stateMutability":"view"},{"type":"function","name":"removeNodeOperator","inputs":[{"name":"operatorAddr","type":"address","internalType":"address"}],"outputs":[],"stateMutability":"nonpayable"},{"type":"function","name":"renounceOwnership","inputs":[],"outputs":[],"stateMutability":"nonpayable"},{"type":"function","name":"setMaintenance","inputs":[{"name":"active","type":"bool","internalType":"bool"}],"outputs":[],"stateMutability":"nonpayable"},{"type":"function","name":"settings","inputs":[],"outputs":[{"name":"maxOperatorDataBytes","type":"uint16","internalType":"uint16"},{"name":"minOperators","type":"uint8","internalType":"uint8"}],"stateMutability":"view"},{"type":"function","name":"slotOccupied","inputs":[{"name":"","type":"uint8","internalType":"uint8"}],"outputs":[{"name":"","type":"bool","internalType":"bool"}],"stateMutability":"view"},{"type":"function","name":"slotPulling","inputs":[{"name":"","type":"uint8","internalType":"uint8"}],"outputs":[{"name":"","type":"bool","internalType":"bool"}],"stateMutability":"view"},{"type":"function","name":"startMigration","inputs":[{"name":"newOperatorSlots","type":"uint8[]","internalType":"uint8[]"},{"name":"replicationStrategy","type":"uint8","internalType":"uint8"}],"outputs":[],"stateMutability":"nonpayable"},{"type":"function","name":"transferOwnership","inputs":[{"name":"newOwner","type":"address","internalType":"address"}],"outputs":[],"stateMutability":"nonpayable"},{"type":"function","name":"updateNodeOperator","inputs":[{"name":"operator","type":"tuple","internalType":"struct NodeOperator","components":[{"name":"addr","type":"address","internalType":"address"},{"name":"data","type":"bytes","internalType":"bytes"},{"name":"maintenance","type":"bool","internalType":"bool"}]}],"outputs":[],"stateMutability":"nonpayable"},{"type":"function","name":"updateSettings","inputs":[{"name":"newSettings","type":"tuple","internalType":"struct Settings","components":[{"name":"maxOperatorDataBytes","type":"uint16","internalType":"uint16"},{"name":"minOperators","type":"uint8","internalType":"uint8"}]}],"outputs":[],"stateMutability":"nonpayable"},{"type":"function","name":"upgradeToAndCall","inputs":[{"name":"newImplementation","type":"address","internalType":"address"},{"name":"data","type":"bytes","internalType":"bytes"}],"outputs":[],"stateMutability":"payable"},{"type":"function","name":"version","inputs":[],"outputs":[{"name":"","type":"uint128","internalType":"uint128"}],"stateMutability":"view"},{"type":"event","name":"ClusterInitialized","inputs":[{"name":"operators","type":"tuple[]","indexed":false,"internalType":"struct NodeOperator[]","components":[{"name":"addr","type":"address","internalType":"address"},{"name":"data","type":"bytes","internalType":"bytes"},{"name":"maintenance","type":"bool","internalType":"bool"}]},{"name":"settings","type":"tuple","indexed":false,"internalType":"struct Settings","components":[{"name":"maxOperatorDataBytes","type":"uint16","internalType":"uint16"},{"name":"minOperators","type":"uint8","internalType":"uint8"}]},{"name":"version","type":"uint128","indexed":false,"internalType":"uint128"}],"anonymous":false},{"type":"event","name":"Initialized","inputs":[{"name":"version","type":"uint64","indexed":false,"internalType":"uint64"}],"anonymous":false},{"type":"event","name":"MaintenanceToggled","inputs":[{"name":"operator","type":"address","indexed":true,"internalType":"address"},{"name":"active","type":"bool","indexed":false,"internalType":"bool"},{"name":"version","type":"uint128","indexed":false,"internalType":"uint128"}],"anonymous":false},{"type":"event","name":"MigrationAborted","inputs":[{"name":"id","type":"uint64","indexed":true,"internalType":"uint64"},{"name":"version","type":"uint128","indexed":false,"internalType":"uint128"}],"anonymous":false},{"type":"event","name":"MigrationCompleted","inputs":[{"name":"id","type":"uint64","indexed":true,"internalType":"uint64"},{"name":"operator","type":"address","indexed":true,"internalType":"address"},{"name":"version","type":"uint128","indexed":false,"internalType":"uint128"}],"anonymous":false},{"type":"event","name":"MigrationDataPullCompleted","inputs":[{"name":"id","type":"uint64","indexed":true,"internalType":"uint64"},{"name":"operator","type":"address","indexed":true,"internalType":"address"},{"name":"version","type":"uint128","indexed":false,"internalType":"uint128"}],"anonymous":false},{"type":"event","name":"MigrationStarted","inputs":[{"name":"id","type":"uint64","indexed":true,"internalType":"uint64"},{"name":"operators","type":"uint8[]","indexed":false,"internalType":"uint8[]"},{"name":"replicationStrategy","type":"uint8","indexed":false,"internalType":"uint8"},{"name":"keyspaceVersion","type":"uint64","indexed":false,"internalType":"uint64"},{"name":"version","type":"uint128","indexed":false,"internalType":"uint128"}],"anonymous":false},{"type":"event","name":"NodeOperatorAdded","inputs":[{"name":"operator","type":"address","indexed":true,"internalType":"address"},{"name":"slot","type":"uint8","indexed":true,"internalType":"uint8"},{"name":"operatorData","type":"tuple","indexed":false,"internalType":"struct NodeOperatorData","components":[{"name":"data","type":"bytes","internalType":"bytes"},{"name":"maintenance","type":"bool","internalType":"bool"}]},{"name":"version","type":"uint128","indexed":false,"internalType":"uint128"}],"anonymous":false},{"type":"event","name":"NodeOperatorRemoved","inputs":[{"name":"operator","type":"address","indexed":true,"internalType":"address"},{"name":"slot","type":"uint8","indexed":true,"internalType":"uint8"},{"name":"version","type":"uint128","indexed":false,"internalType":"uint128"}],"anonymous":false},{"type":"event","name":"NodeOperatorUpdated","inputs":[{"name":"operator","type":"address","indexed":true,"internalType":"address"},{"name":"slot","type":"uint8","indexed":true,"internalType":"uint8"},{"name":"operatorData","type":"tuple","indexed":false,"internalType":"struct NodeOperatorData","components":[{"name":"data","type":"bytes","internalType":"bytes"},{"name":"maintenance","type":"bool","internalType":"bool"}]},{"name":"version","type":"uint128","indexed":false,"internalType":"uint128"}],"anonymous":false},{"type":"event","name":"OwnershipTransferStarted","inputs":[{"name":"previousOwner","type":"address","indexed":true,"internalType":"address"},{"name":"newOwner","type":"address","indexed":true,"internalType":"address"}],"anonymous":false},{"type":"event","name":"OwnershipTransferred","inputs":[{"name":"previousOwner","type":"address","indexed":true,"internalType":"address"},{"name":"newOwner","type":"address","indexed":true,"internalType":"address"}],"anonymous":false},{"type":"event","name":"SettingsUpdated","inputs":[{"name":"newSettings","type":"tuple","indexed":false,"internalType":"struct Settings","components":[{"name":"maxOperatorDataBytes","type":"uint16","internalType":"uint16"},{"name":"minOperators","type":"uint8","internalType":"uint8"}]},{"name":"updatedBy","type":"address","indexed":true,"internalType":"address"},{"name":"version","type":"uint128","indexed":false,"internalType":"uint128"}],"anonymous":false},{"type":"event","name":"Upgraded","inputs":[{"name":"implementation","type":"address","indexed":true,"internalType":"address"}],"anonymous":false},{"type":"error","name":"AddressEmptyCode","inputs":[{"name":"target","type":"address","internalType":"address"}]},{"type":"error","name":"CallerNotOperator","inputs":[]},{"type":"error","name":"ERC1967InvalidImplementation","inputs":[{"name":"implementation","type":"address","internalType":"address"}]},{"type":"error","name":"ERC1967NonPayable","inputs":[]},{"type":"error","name":"FailedCall","inputs":[]},{"type":"error","name":"InsufficientOperators","inputs":[]},{"type":"error","name":"InvalidInitialization","inputs":[]},{"type":"error","name":"InvalidOperator","inputs":[]},{"type":"error","name":"InvalidOperatorData","inputs":[]},{"type":"error","name":"MaintenanceInProgress","inputs":[]},{"type":"error","name":"MigrationInProgress","inputs":[]},{"type":"error","name":"NoMigrationInProgress","inputs":[]},{"type":"error","name":"NotInitialized","inputs":[]},{"type":"error","name":"NotInitializing","inputs":[]},{"type":"error","name":"OperatorExists","inputs":[]},{"type":"error","name":"OperatorInKeyspace","inputs":[]},{"type":"error","name":"OperatorNotFound","inputs":[]},{"type":"error","name":"OperatorNotPulling","inputs":[]},{"type":"error","name":"OwnableInvalidOwner","inputs":[{"name":"owner","type":"address","internalType":"address"}]},{"type":"error","name":"OwnableUnauthorizedAccount","inputs":[{"name":"account","type":"address","internalType":"address"}]},{"type":"error","name":"SameKeyspace","inputs":[]},{"type":"error","name":"TooManyOperators","inputs":[]},{"type":"error","name":"UUPSUnauthorizedCallContext","inputs":[]},{"type":"error","name":"UUPSUnsupportedProxiableUUID","inputs":[{"name":"slot","type":"bytes32","internalType":"bytes32"}]},{"type":"error","name":"Unauthorized","inputs":[]},{"type":"error","name":"WrongMigrationId","inputs":[]}],"bytecode":{"object":"0x60a080604052346100e857306080527ff0c57e16840df040f15088dc2f81fe391c3923bec73e23a9662efc9c229c6a005460ff8160401c166100d9576002600160401b03196001600160401b03821601610073575b604051613e6e90816100ed82396080518181816106960152610b580152f35b6001600160401b0319166001600160401b039081177ff0c57e16840df040f15088dc2f81fe391c3923bec73e23a9662efc9c229c6a005581527fc7f505b2f371ae2175ee4913f4499e1f2633a7b5936321eed1cdaeb6115181d290602090a15f80610054565b63f92ee8a960e01b5f5260045ffd5b5f80fdfe60806040526004361015610011575f80fd5b5f3560e01c80630e89d8da1461028f57806311fcaded1461028a5780631a4a7c61146102265780632be5079e14610285578063389be1c014610280578063392e53cd1461027b57806344160458146102765780634e4d0f74146102715780634f1ef2861461026c578063506476441461026757806350c246d61461026257806352d1902d1461025d57806354fd4d501461025857806356f4de3b146102535780635f7e7b831461024e578063612f2f371461024957806366d1b187146102445780636c376cc51461023f5780636d70f7ae1461023a578063715018a61461023557806375418b9d1461023057806379ba50971461022b5780637c6f315814610226578063838b7dc8146102215780638a3d44951461021c5780638da5cb5b1461021757806392265b65146102125780639d44e7171461020d578063a415c02c14610208578063ad3cb1cc14610203578063bf31b06d146101fe578063c05665dd146101f9578063c187ba3d146101f4578063cc4bc503146101ef578063d17b27d3146101ea578063d911c632146101e5578063e06174e4146101e0578063e30c3978146101db578063e88e9749146101d65763f2fde38b146101d1575f80fd5b612068565b611f00565b611ecc565b611ea1565b611dd6565b611d96565b611b65565b611b2a565b6118e5565b6118aa565b611863565b611826565b6115d1565b61157b565b61151f565b6114f9565b611491565b6103a3565b611445565b611250565b611005565b610fb1565b610f7b565b610f52565b610d61565b610d23565b610bf0565b610b9d565b610b46565b610ade565b6107e1565b610654565b610516565b6104e4565b6104c2565b6104a2565b6103c3565b610337565b6102ca565b90602080835192838152019201905f5b8181106102b15750505090565b825160ff168452602093840193909201916001016102a4565b34610328575f36600319011261032857600b546001166002811015610323576102fb6103199160011b6007016126ec565b60ff6020825192015116604051928392604084526040840190610294565b9060208301520390f35b611553565b5f80fd5b60ff81160361032857565b346103285760203660031901126103285760ff6004356103568161032c565b16805f52600360205260ff60405f20541615610394575f908152600260209081526040918290205491516001600160a01b03909216825290f35b0390f35b63ae4207eb60e01b5f5260045ffd5b34610328575f36600319011261032857602060ff60065416604051908152f35b34610328576040366003190112610328576103dc613718565b60ff60065416602435906103ef8261032c565b60ff8216116104935761043b9061041b60043561040b81610bc3565b61ffff1661ffff195f5416175f55565b6104248161032c565b62ff00005f549160101b169062ff00001916175f55565b6104556104506001546001600160801b031690565b612732565b61045e81612754565b7fc4537136927baa4e0a3e9e5518a9fce0fde1cf0b4a4ddb07effde98d41d3b1056040518061048e339482612770565b0390a2005b6330e40a8160e11b5f5260045ffd5b34610328575f36600319011261032857602060ff600f5416604051908152f35b34610328575f36600319011261032857602060ff600654161515604051908152f35b34610328575f36600319011261032857602061ffff600d5416604051908152f35b6001600160a01b0381160361032857565b346103285760203660031901126103285760043561053381610505565b60018060a01b03165f526004602052602060ff60405f205416604051908152f35b634e487b7160e01b5f52604160045260245ffd5b604081019081106001600160401b0382111761058357604052565b610554565b606081019081106001600160401b0382111761058357604052565b90601f801991011681019081106001600160401b0382111761058357604052565b604051906105d36040836105a3565b565b604051906105d3610140836105a3565b6001600160401b03811161058357601f01601f191660200190565b92919261060c826105e5565b9161061a60405193846105a3565b829481845281830111610328578281602093845f960137010152565b9080601f830112156103285781602061065193359101610600565b90565b60403660031901126103285760043561066c81610505565b6024356001600160401b0381116103285761068b903690600401610636565b906001600160a01b037f00000000000000000000000000000000000000000000000000000000000000001630811490811561078c575b5061077d576106ce613718565b6040516352d1902d60e01b8152916020836004816001600160a01b0386165afa5f938161074c575b5061071757634c9c8ce360e01b5f526001600160a01b03821660045260245ffd5b905f80516020613dd98339815191528303610738576107369250613a50565b005b632a87526960e21b5f52600483905260245ffd5b61076f91945060203d602011610776575b61076781836105a3565b810190613738565b925f6106f6565b503d61075d565b63703e46dd60e11b5f5260045ffd5b5f80516020613dd9833981519152546001600160a01b0316141590505f6106c1565b602060031982011261032857600435906001600160401b0382116103285760609082900360031901126103285760040190565b34610328576107ef366107ae565b60ff60065416156109d557610803816127ae565b6001600160a01b0381169033821415806109ab575b61099d57602083019061083d61083861083184876127b8565b3691610600565b613747565b6001600160a01b0381165f908152600460205260409020610860905b5460ff1690565b9261089561088961087c8660ff165f52600260205260405f2090565b546001600160a01b031690565b6001600160a01b031690565b0361039457610944926109608561095561093c8661092d604061092860ff9961090f6108e27fce0bbd257524157b555e3bcd8abfbce5ab8be730f18833ce74d50d6c57a8d2069d8a6127b8565b94909901986109046108f38b6127ea565b916108fc6105c4565b963691610600565b855215156020850152565b6001600160a01b03165f90815260056020526040902090565b61284d565b6109368a6127ae565b996127b8565b9790926127ea565b9161094d6105c4565b973691610600565b865215156020860152565b6109986109786104506001546001600160801b031690565b61098181612754565b604051938493169660018060a01b0316958361294e565b0390a3005b6282b42960e81b5f5260045ffd5b505f80516020613db9833981519152546109cd906001600160a01b0316610889565b331415610818565b6321c4e35760e21b5f5260045ffd5b90600182811c92168015610a12575b60208310146109fe57565b634e487b7160e01b5f52602260045260245ffd5b91607f16916109f3565b9060405191825f825492610a2f846109e4565b8084529360018116908115610a985750600114610a54575b506105d3925003836105a3565b90505f9291925260205f20905f915b818310610a7c5750509060206105d3928201015f610a47565b6020919350806001915483858901015201910190918492610a63565b9050602092506105d394915060ff191682840152151560051b8201015f610a47565b805180835260209291819084018484015e5f828201840152601f01601f1916010190565b3461032857602036600319011261032857600435610afb81610505565b6001600160a01b03165f908152600560205260409020610b3a9060ff6001610b2283610a1c565b92015416604051928392604084526040840190610aba565b90151560208301520390f35b34610328575f366003190112610328577f00000000000000000000000000000000000000000000000000000000000000006001600160a01b0316300361077d5760206040515f80516020613dd98339815191528152f35b34610328575f3660031901126103285760206001600160801b0360015416604051908152f35b61ffff81160361032857565b6001600160401b0381116105835760051b60200190565b8015150361032857565b34610328573660031901606081126103285760401361032857604051610c1581610568565b600435610c2181610bc3565b8152602435610c2f8161032c565b60208201526044356001600160401b038111610328573660238201121561032857806004013591610c5f83610bcf565b91610c6d60405193846105a3565b8383526024602084019460051b820101903682116103285760248101945b828610610c9c576107368585612975565b85356001600160401b038111610328578201606060231982360301126103285760405191610cc983610588565b6024820135610cd781610505565b83526044820135926001600160401b03841161032857606460209493610d04869560243691840101610636565b858401520135610d1381610be6565b6040820152815201950194610c8b565b346103285760203660031901126103285760ff600435610d428161032c565b165f526002602052602060018060a01b0360405f205416604051908152f35b3461032857602036600319011261032857600435610d7e81610be6565b60ff60065416156109d5578015610ef157600e546001600160a01b0316610ee257600e80546001600160a01b031916331790555f80516020613db983398151915254610df790610dd6906001600160a01b0316610889565b600e805460ff60a01b1916339290921460a01b60ff60a01b16919091179055565b5f80516020613db983398151915254610e18906001600160a01b0316610889565b3303610e84575b7f1c1d5017b8b1542dedc14e2b0d29098feed77a27d5a6c2c18e71a432b67b262061048e610e586104506001546001600160801b031690565b610e6181612754565b6040805194151585526001600160801b0390911660208501523393918291820190565b335f818152600460205260409020610eb8906108899061087c90610ea790610859565b60ff165f52600260205260405f2090565b0361099d57335f908152600560205260409020600101805460ff191660ff83151516179055610e1f565b631ddb00d960e21b5f5260045ffd5b600e546001600160a01b03166001600160a01b031633141580610f28575b61099d57600e80546001600160a81b0319169055610df7565b505f80516020613db983398151915254610f4a906001600160a01b0316610889565b331415610f0f565b34610328575f3660031901126103285760206001600160401b03600b5460401c16604051908152f35b34610328575f36600319011261032857600e54604080516001600160a01b038316815260a09290921c60ff161515602083015290f35b3461032857602036600319011261032857600435610fce81610505565b6001600160a01b039081165f8181526004602090815260408083205460ff1683526002825291829020549151919093169091148152f35b34610328575f3660031901126103285761101d613718565b5f80516020613e1983398151915280546001600160a01b03199081169091555f80516020613db9833981519152805491821690555f906001600160a01b03167f8be0079c531659141344cd1fd0a4f28419497f9722a3daafe3b4186f6b6457e08280a3005b90602080835192838152019201905f5b81811061109f5750505090565b82516001600160a01b0316845260209384019390920191600101611092565b906020806110d58451604085526040850190610aba565b930151151591015290565b9080602083519182815201916020808360051b8301019401925f915b83831061110b57505050505090565b9091929394602080611129600193601f1986820301875289516110be565b970193019301919392906110fc565b90602060ff816111518551604086526040860190610294565b9401511691015290565b60208082528251805161ffff1682840152015160ff1660408201526106519060208301516001600160801b0316606082015260408301516001600160401b03166080820152606083015160ff1660a082015261016061012061122e6112046111ed6111d7608089015161018060c08901526101a0880190611082565b60a0890151878203601f190160e08901526110e0565b60c0880151868203601f1901610100880152611138565b60e08701516001600160401b031685840152610100870151858203601f1901610140870152610294565b94015180516001600160a01b0316919092019081526020918201511515910152565b34610328575f36600319011261032857611268612f4f565b50604051636c88e31960e11b81525f81600481305afa90811561141e575f91611423575b506112978151613051565b905f5b81518110156112e757806112cb6112c661090f6112b960019587612ac9565b516001600160a01b031690565b6130a0565b6112d58286612ac9565b526112e08185612ac9565b500161129a565b50600b54906001600160401b0382169261131161130b60018616611567565b611567565b506126ec565b60405163d17b27d360e01b815294905f86600481305afa92831561141e57610390965f946113f8575b506113d893946113b96113556001546001600160801b031690565b976113af61137861136860065460ff1690565b9260401c6001600160401b031690565b9661139f6113846105d5565b9b61138d61314d565b8d526001600160801b031660208d0152565b6001600160401b031660408b0152565b60ff166060890152565b608087015260a086015260c08501526001600160401b031660e0840152565b6101008201526113e6613170565b6101208201526040519182918261115b565b6113d89450611418903d805f833e61141081836105a3565b8101906130ca565b9361133a565b613046565b61143f91503d805f833e61143781836105a3565b810190612fc3565b5f61128c565b34610328575f366003190112610328575f80516020613e1983398151915254336001600160a01b039091160361147e57610736336137a6565b63118cdaa760e01b5f523360045260245ffd5b34610328576040366003190112610328576004356001600160401b0381116103285736602382011215610328578060040135906001600160401b038211610328573660248360051b83010111610328576107369160248035926114f38461032c565b0161319b565b34610328575f3660031901126103285760206001600160401b03600b5416604051908152f35b34610328575f366003190112610328575f80516020613db9833981519152546040516001600160a01b039091168152602090f35b634e487b7160e01b5f52603260045260245ffd5b60028110156103235760011b600701905f90565b346103285760203660031901126103285760043560028110156103285760011b6008015460405160ff919091168152602090f35b6020906003190112610328576004356001600160401b03811681036103285790565b34610328576115df366115af565b60ff60065416156109d55761ffff6115fa600d5461ffff1690565b1615611817576001600160401b0361162d611621600b546001600160401b039060401c1690565b6001600160401b031690565b91160361180857335f90815260046020526040902061164b90610859565b3360018060a01b0361166b61087c8460ff165f52600260205260405f2090565b16036117f95761169061168c6108598360ff165f52600c60205260405f2090565b1590565b6117ea576116ac6116b69160ff165f52600c60205260405f2090565b805460ff19169055565b6116e56116d36116c9600d5461ffff1690565b5f190161ffff1690565b61ffff1661ffff19600d541617600d55565b6116fc6116f5600d5461ffff1690565b61ffff1690565b61177557600b5460401c6001600160401b03166117246104506001546001600160801b031690565b61172d81612754565b6040516001600160801b03909116815233916001600160401b0316907f01269879535f40ee8957e15e160bf1866c5e2728ff0cbc583d848821e2639b4e908060208101610998565b600b5460401c6001600160401b03166117996104506001546001600160801b031690565b6117a281612754565b6040516001600160801b03909116815233916001600160401b0316907faf5e90e72015f43138f66b4cd08bd1dfa2839030104f22a00af843fe847c6d19908060208101610998565b6313a9a39160e31b5f5260045ffd5b63a5523ee560e01b5f5260045ffd5b631a0fd8c760e21b5f5260045ffd5b631821b37560e31b5f5260045ffd5b34610328575f3660031901126103285760606001600160401b03600b5460401c1661ffff600d541660405191825280602083015215156040820152f35b34610328575f366003190112610328576103906040516118846040826105a3565b60058152640352e302e360dc1b6020820152604051918291602083526020830190610aba565b346103285760203660031901126103285760ff6004356118c98161032c565b165f52600c602052602060ff60405f2054166040519015158152f35b346103285760203660031901126103285760043561190281610505565b61190a613718565b6001600160a01b0381165f90815260046020526040902061192a90610859565b9061194361087c8360ff165f52600260205260405f2090565b6001600160a01b038083169291168290036103945760065460ff1660ff6119786119725f5460ff9060101c1690565b60ff1690565b911611156104935761ffff611990600d5461ffff1690565b1615611af35761199f83613811565b8015611ae4575b611ad557611a16611a1b915b6119da6119ca8660ff165f52600260205260405f2090565b80546001600160a01b0319169055565b6119f26116ac8660ff165f52600360205260405f2090565b6001600160a01b0381165f908152600460205260409020805460ff1916905561090f565b6135d7565b611a42611a32611a2d60065460ff1690565b61363b565b60ff1660ff196006541617600655565b611a51611972600f5460ff1690565b9160ff8116928310611abb575b507f09f530ee5721466a79a706ccbc5875d7f2fec6ff088f543aa3e838ac941aa951610998611a986104506001546001600160801b031690565b611aa181612754565b6040516001600160801b0390911681529081906020820190565b611acf9060ff1660ff19600f541617600f55565b5f611a5e565b63997ac2d360e01b5f5260045ffd5b50611aee83613855565b6119a6565b611b1a611b14611972611b0e600b546001600160401b031690565b60011690565b8461388a565b611ad557611a16611a1b916119b2565b346103285760203660031901126103285760ff600435611b498161032c565b165f526003602052602060ff60405f2054166040519015158152f35b3461032857611b73366107ae565b611b7b613718565b60ff80611b8a60065460ff1690565b161015611d87576001600160a01b03611ba2826127ae565b1615611d785760ff611bd2610859611bb9846127ae565b6001600160a01b03165f90815260046020526040902090565b1615801590611d29575b611d1a576109447fa1a8572b1f23d9ca7b47bfeebb78a9f3d78239f4ff88435c15521dba7f2efc7b60ff60208401611c1a61083861083183886127b8565b610960611cfb61095561093c611c2e6138ce565b94611c6f611c3b8b6127ae565b611c508860ff165f52600260205260405f2090565b80546001600160a01b0319166001600160a01b03909216919091179055565b611c94611c878760ff165f52600360205260405f2090565b805460ff19166001179055565b611cb386611ca4611bb98d6127ae565b9060ff1660ff19825416179055565b611cbd818b6127b8565b60408c019591611cef90611ce4611cd3896127ea565b91611cdc6105c4565b943691610600565b835215156020830152565b61092861090f8d6127ae565b611d12611a32611d0d60065460ff1690565b61364a565b61092d61399d565b632a322e2b60e01b5f5260045ffd5b505f80526002602052611d5b7fac33ff75c19e70fe83507db0d683fd3465c996598dc972688b7ace676c89077b61087c565b611d67610889836127ae565b6001600160a01b0390911614611bdc565b63ccea9e6f60e01b5f5260045ffd5b636055dca160e01b5f5260045ffd5b34610328575f36600319011261032857610390611db1613669565b604051918291602083526020830190610294565b906020610651928181520190611082565b34610328575f36600319011261032857611df561197260065460ff1690565b611dfe81612af8565b5f805b60ff8082161080611e98575b15611e7f57611e2a6108598260ff165f52600360205260405f2090565b611e3a575b60010160ff16611e01565b9060018060ff92611e75611e5c61087c8760ff165f52600260205260405f2090565b611e668389612ac9565b6001600160a01b039091169052565b0192915050611e2f565b61039083611e8c81613c66565b60405191829182611dc5565b50838210611e0d565b34610328575f3660031901126103285760405f5460ff82519161ffff8116835260101c166020820152f35b34610328575f366003190112610328575f80516020613e19833981519152546040516001600160a01b039091168152602090f35b3461032857611f0e366115af565b611f16613718565b61ffff611f26600d5461ffff1690565b161561181757600b54906001600160401b03611f47604084901c8216611621565b91160361180857611f67611306611b0e611f6d936001600160401b031690565b506120f0565b5f5b8151811015611fac5780611fa66116ac611f95611f8e60019587612ac9565b5160ff1690565b60ff165f52600c60205260405f2090565b01611f6f565b611fbc61ffff19600d5416600d55565b611ff5611fd9611fd4600b546001600160401b031690565b613703565b6001600160401b03166001600160401b0319600b541617600b55565b600b5460401c6001600160401b03167ff73240422246f63ed633ef3ce0726b8ab8fb69d46c8a4e5ecb0b2922668674a16001600160401b036120426104506001546001600160801b031690565b9261204c84612754565b6040516001600160801b0390941684521691806020810161048e565b346103285760203660031901126103285760043561208581610505565b61208d613718565b5f80516020613e1983398151915280546001600160a01b0319166001600160a01b039283169081179091555f80516020613db9833981519152549091167f38d16b8cac22d99fc7c124b9cd0de2d3fa1faef420bfe791d8c362d765e227005f80a3005b6040518154808252909291839061210e60208301915f5260205f2090565b925f905b80601f830110612519576105d3945491818110612505575b8181106124ed575b8181106124d5575b8181106124bd575b8181106124a6575b81811061248e575b818110612476575b81811061245e575b818110612446575b81811061242e575b818110612416575b8181106123fe575b8181106123e6575b8181106123ce575b8181106123b6575b81811061239e575b818110612386575b81811061236e575b818110612356575b81811061233e575b818110612326575b81811061230e575b8181106122f6575b8181106122de575b8181106122c6575b8181106122ae575b818110612296575b81811061227e575b818110612266575b81811061224e575b818110612236575b10612228575b5003836105a3565b60f81c81526020015f612220565b60f083901c60ff16845292600190602001930161221a565b60e883901c60ff168452926001906020019301612212565b60e083901c60ff16845292600190602001930161220a565b60d883901c60ff168452926001906020019301612202565b60d083901c60ff1684529260019060200193016121fa565b60c883901c60ff1684529260019060200193016121f2565b60c083901c60ff1684529260019060200193016121ea565b60b883901c60ff1684529260019060200193016121e2565b60b083901c60ff1684529260019060200193016121da565b60a883901c60ff1684529260019060200193016121d2565b60a083901c60ff1684529260019060200193016121ca565b609883901c60ff1684529260019060200193016121c2565b609083901c60ff1684529260019060200193016121ba565b608883901c60ff1684529260019060200193016121b2565b608083901c60ff1684529260019060200193016121aa565b607883901c60ff1684529260019060200193016121a2565b607083901c60ff16845292600190602001930161219a565b606883901c60ff168452926001906020019301612192565b606083901c60ff16845292600190602001930161218a565b605883901c60ff168452926001906020019301612182565b605083901c60ff16845292600190602001930161217a565b604883901c60ff168452926001906020019301612172565b604083901c60ff16845292600190602001930161216a565b603883901c60ff168452926001906020019301612162565b603083901c60ff16845292600190602001930161215a565b602883901c60ff168452926001906020019301612152565b602083811c60ff168552909360019101930161214a565b601883901c60ff168452926001906020019301612142565b601083901c60ff16845292600190602001930161213a565b600883901c60ff168452926001906020019301612132565b60ff8316845292600190602001930161212a565b9160209193506104006001916126de87546125398360ff831660ff169052565b600881901c60ff1683870152601081901c60ff166040840152601881901c60ff16606084015280861c60ff166080840152602881901c60ff1660a0840152603081901c60ff1660c0840152603881901c60ff1660e0840152604081901c60ff16610100840152604881901c60ff16610120840152605081901c60ff16610140840152605881901c60ff16610160840152606081901c60ff16610180840152606881901c60ff166101a0840152607081901c60ff166101c0840152607881901c60ff166101e0840152608081901c60ff16610200840152608881901c60ff16610220840152609081901c60ff16610240840152609881901c60ff1661026084015260a081901c60ff1661028084015260a881901c60ff166102a084015260b081901c60ff166102c084015260b881901c60ff166102e084015260c081901c60ff1661030084015260c881901c60ff1661032084015260d081901c60ff1661034084015260d881901c60ff1661036084015260e081901c60ff1661038084015260e881901c60ff166103a084015260f081901c60ff166103c084015260f81c6103e0830152565b019401920185929391612112565b906040516126f981610568565b602060ff6001839561270a816120f0565b8552015416910152565b356106518161032c565b634e487b7160e01b5f52601160045260245ffd5b6001600160801b03166001600160801b03811461274f5760010190565b61271e565b6001600160801b03166001600160801b03196001541617600155565b91909160406001600160801b03606083019461ffff60043561279181610bc3565b16845260ff6024356127a28161032c565b16602085015216910152565b3561065181610505565b903590601e198136030182121561032857018035906001600160401b0382116103285760200191813603831361032857565b3561065181610be6565b8181106127ff575050565b5f81556001016127f4565b9190601f811161281957505050565b6105d3925f5260205f20906020601f840160051c83019310612843575b601f0160051c01906127f4565b9091508190612836565b91909182519283516001600160401b038111610583576128778161287185546109e4565b8561280a565b6020601f82116001146128da576001926128b2836128bc946020946105d3999a5f926128cf575b50508160011b915f199060031b1c19161790565b85555b0151151590565b91019060ff801983541691151516179055565b015190505f8061289e565b601f198216956128ed855f5260205f2090565b965f5b8181106129365750836105d39798602094600197946128bc9789951061291e575b505050811b0185556128b5565b01515f1960f88460031b161c191690555f8080612911565b838301518955600190980197602093840193016128f0565b906001600160801b0361296e6020929594956040855260408501906110be565b9416910152565b5f80516020613df983398151915254916001600160401b036129a7604085901c60ff16155b946001600160401b031690565b1680159081612ac1575b6001149081612ab7575b159081612aae575b50612a9f57612a0691836129fd60016001600160401b03195f80516020613df98339815191525416175f80516020613df983398151915255565b612a6a57612d19565b612a0c57565b612a3660ff60401b195f80516020613df983398151915254165f80516020613df983398151915255565b604051600181527fc7f505b2f371ae2175ee4913f4499e1f2633a7b5936321eed1cdaeb6115181d29080602081015b0390a1565b612a9a600160401b60ff60401b195f80516020613df98339815191525416175f80516020613df983398151915255565b612d19565b63f92ee8a960e01b5f5260045ffd5b9050155f6129c3565b303b1591506129bb565b8491506129b1565b80518210156103235760209160051b010190565b60405190612aec6020836105a3565b5f808352366020840137565b90612b0282610bcf565b612b0f60405191826105a3565b8281528092612b20601f1991610bcf565b0190602036910137565b90600160401b8111610583578154818355808210612b4757505050565b6105d3925f52601f60205f20918180850160051c8401941680612b71575b500160051c01906127f4565b5f198501908154905f199060200360031b1c1690555f612b65565b908051906001600160401b038211610583576020612bb991612bae8486612b2a565b01925f5260205f2090565b8160051c915f5b838110612c2b5750601f198116900380612bdb575b50505050565b925f935f5b818110612bf55750505001555f808080612bd5565b9091946020612c2160019284612c0c8a5160ff1690565b919060ff809160031b9316831b921b19161790565b9601929101612be0565b5f805b60208110612c43575083820155600101612bc0565b95906020612c5960019289612c0c865160ff1690565b92019601612c2e565b9291906080840160808552815180915260a0850190602060a08260051b8801019301915f905b828210612cc857505050509060606105d39294612cb9602082015f60ff6020915461ffff8116845260101c16910152565b01906001600160801b03169052565b90919293602080600192609f198b8203018552875190848060a01b038251168152604080612d03858501516060878601526060850190610aba565b9301511515910152960192019201909291612c88565b60ff825111611d87578151612d35611972602084015160ff1690565b1161049357612d7d90612d46613af2565b612d4f3361376b565b60209061ffff81511661ffff195f5416175f55015162ff0000805f549260101b16169062ff00001916175f55565b5f5b8151811015612e5757612d928183612ac9565b51906020820191612da38351613747565b60ff821690612dc361088961087c8460ff165f52600260205260405f2090565b611d1a5761092861090f600195612e2b612e5195612dff612dea875160018060a01b031690565b611c508360ff165f52600260205260405f2090565b612e17611c878260ff165f52600360205260405f2090565b8551611ca4906001600160a01b0316611bb9565b51926112b9612e3d6040830151151590565b612e456105c4565b95865215156020860152565b01612d7f565b5090612e948251612e8f612e6b8260ff1690565b612e7f8160ff1660ff196006541617600655565b60ff1660ff19600f541617600f55565b612af8565b905f5b8351811015612ec25780612ebc60ff60019316612eb48387612ac9565b9060ff169052565b01612e97565b5091612ef07f1e7e8725c792f19ec6549d85782fc5ced586526af5a6e9f82c9414ee881bf877926007612b8c565b612f056104506001546001600160801b031690565b90612f0f82612754565b612a6560405192839283612c62565b60405190612f2b82610568565b5f6020838281520152565b60405190612f4382610568565b5f602083606081520152565b6040519061014082018281106001600160401b038211176105835760405281612f76612f1e565b81525f60208201525f60408201525f606082015260606080820152606060a0820152612fa0612f36565b60c08201525f60e08201526060610100820152610120612fbe612f1e565b910152565b602081830312610328578051906001600160401b03821161032857019080601f83011215610328578151612ff681610bcf565b9261300460405194856105a3565b81845260208085019260051b82010192831161032857602001905b82821061302c5750505090565b60208091835161303b81610505565b81520191019061301f565b6040513d5f823e3d90fd5b9061305b82610bcf565b61306860405191826105a3565b8281528092613079601f1991610bcf565b01905f5b82811061308957505050565b602090613094612f36565b8282850101520161307d565b906040516130ad81610568565b602060ff600183956130be81610a1c565b85520154161515910152565b602081830312610328578051906001600160401b03821161032857019080601f830112156103285781516130fd81610bcf565b9261310b60405194856105a3565b81845260208085019260051b82010192831161032857602001905b8282106131335750505090565b6020809183516131428161032c565b815201910190613126565b6040519061315a82610568565b5f5461ffff8116835260101c60ff166020830152565b6040519061317d82610568565b600e546001600160a01b038116835260a01c60ff1615156020830152565b90916131a5613718565b60ff60065416156109d557600e546001600160a01b0316610ee25761ffff6131d0600d5461ffff1690565b166134665760ff8311611d87576001831161341d575b5f5b8381106133cf5750600d805461ffff191661ffff8516179055600b549261321d61130b6113066001600160401b038716611b0e565b602081015160ff848116911614806133c4575b61334c575b50906133476001600160401b03926132ad61328461327f7fb95d8605e761f395e78cb1b5a269af6a9011d872bcb01715568de824b136435d97986001600160401b039060401c1690565b613493565b67ffffffffffffffff60401b600b549160401b169067ffffffffffffffff60401b191617600b55565b6132c5611fd961327f600b546001600160401b031690565b6132ff8360016132e3611306611b0e600b546001600160401b031690565b506132ef858b836134b0565b019060ff1660ff19825416179055565b600b5492613319604085901c6001600160401b031661299a565b9061332f6104506001546001600160801b031690565b9261333984612754565b604051968796169886613567565b0390a2565b939160015f5b865180518210156133b757611f8e8261336a92612ac9565b60ff61338261197261337d85898c613475565b612714565b91160361339157600101613352565b505090919293505f5b6133a857905f939293613235565b63d990d65560e01b5f5260045ffd5b505090919293945061339a565b508181515114613230565b6133dd61337d828686613475565b906133f961168c6108598460ff165f52600360205260405f2090565b61039457613417611c8760019360ff165f52600c60205260405f2090565b016131e8565b60015b83811061342d57506131e6565b61343b61337d828686613475565b60ff61345661197261337d61344f86613485565b8989613475565b91161115611d7857600101613420565b6378a4646d60e11b5f5260045ffd5b91908110156103235760051b0190565b5f1981019190821161274f57565b6001600160401b03166001600160401b03811461274f5760010190565b91906001600160401b038211610583576134d8906134ce8385612b2a565b925f5260205f2090565b8160051c915f5b8381106135325750601f1981169003806134f95750505050565b925f935f5b8181106135135750505001555f808080612bd5565b909194602061352860019284612c0c8a612714565b96019291016134fe565b5f805b6020811061354a5750838201556001016134df565b9590602061355e60019289612c0c86612714565b92019601613535565b9391959492958060808601608087525260a0850191905f5b8181106135b357505050916001600160401b036001600160801b039260ff6060959816602087015216604085015216910152565b90919260208060019260ff87356135c98161032c565b16815201940192910161357f565b60015f916135e581546109e4565b806135ef57500155565b601f8111831461360157508281550155565b8184526020842061361c91601f0160051c81019084016127f4565b8083528260208120805482851b9083198460031b1c1916178355550155565b60ff16801561274f575f190190565b60ff1660ff811461274f5760010190565b5f19811461274f5760010190565b600d5461ffff1680156136fa576136839061ffff16612af8565b9061369f611f67611306611b0e600b546001600160401b031690565b5f805b82518110156136f457806136c1610859611f95611f8e60019588612ac9565b6136cc575b016136a2565b6136ef6136dc611f8e8387612ac9565b612eb46136e88661365b565b9589612ac9565b6136c6565b50835250565b50610651612add565b6001600160401b0316801561274f575f190190565b5f80516020613db9833981519152546001600160a01b0316330361147e57565b90816020910312610328575190565b80511561375c575161ffff5f54161061375c57565b635e9b2d5360e01b5f5260045ffd5b613773613af2565b61377b613af2565b6001600160a01b03811615613793576105d3906137a6565b631e4fbdf760e01b5f525f60045260245ffd5b5f80516020613e1983398151915280546001600160a01b03199081169091555f80516020613db983398151915280549182166001600160a01b0393841690811790915591167f8be0079c531659141344cd1fd0a4f28419497f9722a3daafe3b4186f6b6457e05f80a3565b61381b60076120f0565b905f5b825181101561384e5760ff6138338285612ac9565b511660ff8316146138465760010161381e565b505050600190565b5050505f90565b61385f60096120f0565b905f5b825181101561384e5760ff6138778285612ac9565b511660ff83161461384657600101613862565b906002811015610323576138a39060011b6007016120f0565b905f5b825181101561384e5760ff6138bb8285612ac9565b511660ff831614613846576001016138a6565b600f5460ff169060ff808316108061396a575b6105d357815b60ff8082161061394057505f9160ff16915b8260ff82161061391257636055dca160e01b5f5260045ffd5b61392d61168c6108598360ff165f52600360205260405f2090565b61393c5760010160ff166138f9565b9150565b61395b61168c6108598360ff165f52600360205260405f2090565b61393c5760010160ff166138e7565b5061398661168c6108598460ff165f52600360205260405f2090565b6138e1565b60ff60019116019060ff821161274f57565b6139b16139ac600f5460ff1690565b61398b565b60ff80821610613a2657505f5b6139cd611972600f5460ff1690565b60ff821611613a14576139f161168c6108598360ff165f52600360205260405f2090565b613a005760010160ff166139be565b6105d39060ff1660ff19600f541617600f55565b506105d360ff8019600f541617600f55565b613a4161168c6108598360ff165f52600360205260405f2090565b613a005760010160ff166139b1565b90813b15613ad1575f80516020613dd983398151915280546001600160a01b0319166001600160a01b0384169081179091557fbc7cd75a20ee27fd9adebab32041f755214dbc6bffa90cc0225b39da2e5c2d3b5f80a2805115613ab957613ab691613d1a565b50565b505034613ac257565b63b398979f60e01b5f5260045ffd5b50634c9c8ce360e01b5f9081526001600160a01b0391909116600452602490fd5b60ff5f80516020613df98339815191525460401c1615613b0e57565b631afcd79f60e31b5f5260045ffd5b6101808284031115613bed57815183830160011c6020600160ff1b0316601f84160180519091908181811015613be4575b5085518081831015613bd1575b5086528252835251928092805b5b60200180518611613b6957935b830180518610613b7657938480821015613b97578151815183529052613b68565b50509193506020830190808203613bc0575b5050808203613bb757505050565b6105d392613b1d565b613bca9185613b1d565b5f80613ba9565b909190808410613b5b579291505f613b5b565b9150905f613b4e565b9190926020840193845181511015613c58575b505b60208401828111613c51576020848251960101805186811115613c48579085915b602082015201805186811115613c3b57908591613c23565b5060200194909452613c02565b50509350613c02565b5092505050565b84518151865290525f613c00565b80519060028210918060051b9215613c7d57505050565b60208201939282019291835b8581519180601f190192835111613ca1575050613c89565b90915094919293941115613d1257805b80519080601f190191825110613cc75750613cb1565b86929394959691501115613ce8575f8352613ce59190601f19613b1d565b52565b9250602091505b8251815184528152910190601f190180821015613d0e57602090613cef565b5050565b509192505050565b5f8061065193602081519101845af43d15613d56573d91613d3a836105e5565b92613d4860405194856105a3565b83523d5f602085013e613d5a565b6060915b90613d7e5750805115613d6f57805190602001fd5b63d6bda27560e01b5f5260045ffd5b81511580613daf575b613d8f575090565b639996b31560e01b5f9081526001600160a01b0391909116600452602490fd5b50803b15613d8756fe9016d09d72d40fdae2fd8ceac6b6234c7706214fd39c1cd1e609a0528c199300360894a13ba1a3210667c828492db98dca3e2076cc3735a920a3ca505d382bbcf0c57e16840df040f15088dc2f81fe391c3923bec73e23a9662efc9c229c6a00237e158222e3e6968b72b9db0d8043aacf074ad9f650f0d1606b4d82ee432c00a264697066735822122062b6377620a9d35cc18982f2b431b3ccf194a8f05cfd653a8e2fefd4b4c0c8eb64736f6c634300081a0033","linkReferences":{}},"methodIdentifiers":{"UPGRADE_INTERFACE_VERSION()":"ad3cb1cc","abortMigration(uint64)":"e88e9749","acceptOwnership()":"79ba5097","addNodeOperator((address,bytes,bool))":"cc4bc503","completeMigration(uint64)":"9d44e717","getAllOperators()":"d911c632","getCurrentKeyspace()":"0e89d8da","getMigrationStatus()":"a415c02c","getOperatorAt(uint8)":"11fcaded","getOperatorCount()":"1a4a7c61","getPullingOperators()":"d17b27d3","getView()":"75418b9d","initialize((uint16,uint8),(address,bytes,bool)[])":"56f4de3b","isInitialized()":"392e53cd","isOperator(address)":"6d70f7ae","keyspaceVersion()":"8a3d4495","keyspaces(uint256)":"92265b65","maintenance()":"6c376cc5","migrationId()":"66d1b187","nextFreeSlot()":"389be1c0","operatorCount()":"7c6f3158","operatorInfo(address)":"50c246d6","operatorSlots(uint8)":"5f7e7b83","operatorToSlot(address)":"4e4d0f74","owner()":"8da5cb5b","pendingOwner()":"e30c3978","proxiableUUID()":"52d1902d","pullingCount()":"44160458","removeNodeOperator(address)":"c05665dd","renounceOwnership()":"715018a6","setMaintenance(bool)":"612f2f37","settings()":"e06174e4","slotOccupied(uint8)":"c187ba3d","slotPulling(uint8)":"bf31b06d","startMigration(uint8[],uint8)":"838b7dc8","transferOwnership(address)":"f2fde38b","updateNodeOperator((address,bytes,bool))":"50647644","updateSettings((uint16,uint8))":"2be5079e","upgradeToAndCall(address,bytes)":"4f1ef286","version()":"54fd4d50"},"id":56}