{"abi":[{"type":"constructor","inputs":[{"name":"initialSettings","type":"tuple","internalType":"struct Settings","components":[{"name":"maxOperatorDataBytes","type":"uint16","internalType":"uint16"}]},{"name":"initialOperators","type":"tuple[]","internalType":"struct NodeOperator[]","components":[{"name":"addr","type":"address","internalType":"address"},{"name":"data","type":"bytes","internalType":"bytes"},{"name":"maintenance","type":"bool","internalType":"bool"}]}],"stateMutability":"nonpayable"},{"type":"function","name":"abortMigration","inputs":[{"name":"id","type":"uint64","internalType":"uint64"}],"outputs":[],"stateMutability":"nonpayable"},{"type":"function","name":"acceptOwnership","inputs":[],"outputs":[],"stateMutability":"nonpayable"},{"type":"function","name":"addNodeOperator","inputs":[{"name":"operator","type":"tuple","internalType":"struct NodeOperator","components":[{"name":"addr","type":"address","internalType":"address"},{"name":"data","type":"bytes","internalType":"bytes"},{"name":"maintenance","type":"bool","internalType":"bool"}]}],"outputs":[],"stateMutability":"nonpayable"},{"type":"function","name":"completeMigration","inputs":[{"name":"id","type":"uint64","internalType":"uint64"}],"outputs":[],"stateMutability":"nonpayable"},{"type":"function","name":"getAllOperators","inputs":[],"outputs":[{"name":"","type":"address[]","internalType":"address[]"}],"stateMutability":"view"},{"type":"function","name":"getCurrentKeyspace","inputs":[],"outputs":[{"name":"","type":"address[]","internalType":"address[]"},{"name":"","type":"uint8","internalType":"uint8"}],"stateMutability":"view"},{"type":"function","name":"getMaintenanceOperators","inputs":[],"outputs":[{"name":"","type":"address[]","internalType":"address[]"}],"stateMutability":"view"},{"type":"function","name":"getMigrationStatus","inputs":[],"outputs":[{"name":"id","type":"uint64","internalType":"uint64"},{"name":"remaining","type":"uint16","internalType":"uint16"},{"name":"inProgress","type":"bool","internalType":"bool"}],"stateMutability":"view"},{"type":"function","name":"getOperatorAt","inputs":[{"name":"index","type":"uint256","internalType":"uint256"}],"outputs":[{"name":"","type":"address","internalType":"address"}],"stateMutability":"view"},{"type":"function","name":"getOperatorCount","inputs":[],"outputs":[{"name":"","type":"uint256","internalType":"uint256"}],"stateMutability":"view"},{"type":"function","name":"getPullingOperators","inputs":[],"outputs":[{"name":"","type":"address[]","internalType":"address[]"}],"stateMutability":"view"},{"type":"function","name":"info","inputs":[{"name":"","type":"address","internalType":"address"}],"outputs":[{"name":"addr","type":"address","internalType":"address"},{"name":"data","type":"bytes","internalType":"bytes"},{"name":"maintenance","type":"bool","internalType":"bool"}],"stateMutability":"view"},{"type":"function","name":"isInitialized","inputs":[],"outputs":[{"name":"","type":"bool","internalType":"bool"}],"stateMutability":"view"},{"type":"function","name":"isOperator","inputs":[{"name":"addr","type":"address","internalType":"address"}],"outputs":[{"name":"","type":"bool","internalType":"bool"}],"stateMutability":"view"},{"type":"function","name":"isPulling","inputs":[{"name":"","type":"address","internalType":"address"}],"outputs":[{"name":"","type":"bool","internalType":"bool"}],"stateMutability":"view"},{"type":"function","name":"keyspaceVersion","inputs":[],"outputs":[{"name":"","type":"uint64","internalType":"uint64"}],"stateMutability":"view"},{"type":"function","name":"keyspaces","inputs":[{"name":"","type":"uint256","internalType":"uint256"}],"outputs":[{"name":"replicationStrategy","type":"uint8","internalType":"uint8"}],"stateMutability":"view"},{"type":"function","name":"migrationId","inputs":[],"outputs":[{"name":"","type":"uint64","internalType":"uint64"}],"stateMutability":"view"},{"type":"function","name":"owner","inputs":[],"outputs":[{"name":"","type":"address","internalType":"address"}],"stateMutability":"view"},{"type":"function","name":"pendingOwner","inputs":[],"outputs":[{"name":"","type":"address","internalType":"address"}],"stateMutability":"view"},{"type":"function","name":"pullingCount","inputs":[],"outputs":[{"name":"","type":"uint16","internalType":"uint16"}],"stateMutability":"view"},{"type":"function","name":"removeNodeOperator","inputs":[{"name":"operatorAddr","type":"address","internalType":"address"}],"outputs":[],"stateMutability":"nonpayable"},{"type":"function","name":"renounceOwnership","inputs":[],"outputs":[],"stateMutability":"nonpayable"},{"type":"function","name":"setMaintenance","inputs":[{"name":"active","type":"bool","internalType":"bool"}],"outputs":[],"stateMutability":"nonpayable"},{"type":"function","name":"settings","inputs":[],"outputs":[{"name":"maxOperatorDataBytes","type":"uint16","internalType":"uint16"}],"stateMutability":"view"},{"type":"function","name":"startMigration","inputs":[{"name":"newOperators","type":"address[]","internalType":"address[]"},{"name":"replicationStrategy","type":"uint8","internalType":"uint8"}],"outputs":[],"stateMutability":"nonpayable"},{"type":"function","name":"transferOwnership","inputs":[{"name":"newOwner","type":"address","internalType":"address"}],"outputs":[],"stateMutability":"nonpayable"},{"type":"function","name":"updateNodeOperator","inputs":[{"name":"operator","type":"tuple","internalType":"struct NodeOperator","components":[{"name":"addr","type":"address","internalType":"address"},{"name":"data","type":"bytes","internalType":"bytes"},{"name":"maintenance","type":"bool","internalType":"bool"}]}],"outputs":[],"stateMutability":"nonpayable"},{"type":"function","name":"updateSettings","inputs":[{"name":"newSettings","type":"tuple","internalType":"struct Settings","components":[{"name":"maxOperatorDataBytes","type":"uint16","internalType":"uint16"}]}],"outputs":[],"stateMutability":"nonpayable"},{"type":"function","name":"version","inputs":[],"outputs":[{"name":"","type":"uint128","internalType":"uint128"}],"stateMutability":"view"},{"type":"event","name":"ClusterInitialized","inputs":[{"name":"operatorCount","type":"uint256","indexed":false,"internalType":"uint256"}],"anonymous":false},{"type":"event","name":"MaintenanceToggled","inputs":[{"name":"operator","type":"address","indexed":true,"internalType":"address"},{"name":"active","type":"bool","indexed":false,"internalType":"bool"},{"name":"version","type":"uint128","indexed":false,"internalType":"uint128"}],"anonymous":false},{"type":"event","name":"MigrationAborted","inputs":[{"name":"id","type":"uint64","indexed":true,"internalType":"uint64"},{"name":"version","type":"uint128","indexed":false,"internalType":"uint128"}],"anonymous":false},{"type":"event","name":"MigrationCompleted","inputs":[{"name":"id","type":"uint64","indexed":true,"internalType":"uint64"},{"name":"operator","type":"address","indexed":true,"internalType":"address"},{"name":"version","type":"uint128","indexed":false,"internalType":"uint128"}],"anonymous":false},{"type":"event","name":"MigrationDataPullCompleted","inputs":[{"name":"id","type":"uint64","indexed":true,"internalType":"uint64"},{"name":"operator","type":"address","indexed":true,"internalType":"address"},{"name":"version","type":"uint128","indexed":false,"internalType":"uint128"}],"anonymous":false},{"type":"event","name":"MigrationStarted","inputs":[{"name":"id","type":"uint64","indexed":true,"internalType":"uint64"},{"name":"operators","type":"address[]","indexed":false,"internalType":"address[]"},{"name":"replicationStrategy","type":"uint8","indexed":false,"internalType":"uint8"},{"name":"keyspaceVersion","type":"uint64","indexed":false,"internalType":"uint64"},{"name":"version","type":"uint128","indexed":false,"internalType":"uint128"}],"anonymous":false},{"type":"event","name":"NodeOperatorAdded","inputs":[{"name":"operator","type":"address","indexed":true,"internalType":"address"},{"name":"version","type":"uint128","indexed":false,"internalType":"uint128"}],"anonymous":false},{"type":"event","name":"NodeOperatorRemoved","inputs":[{"name":"operator","type":"address","indexed":true,"internalType":"address"},{"name":"version","type":"uint128","indexed":false,"internalType":"uint128"}],"anonymous":false},{"type":"event","name":"NodeOperatorUpdated","inputs":[{"name":"operator","type":"address","indexed":true,"internalType":"address"},{"name":"version","type":"uint128","indexed":false,"internalType":"uint128"}],"anonymous":false},{"type":"event","name":"OwnershipTransferStarted","inputs":[{"name":"previousOwner","type":"address","indexed":true,"internalType":"address"},{"name":"newOwner","type":"address","indexed":true,"internalType":"address"}],"anonymous":false},{"type":"event","name":"OwnershipTransferred","inputs":[{"name":"previousOwner","type":"address","indexed":true,"internalType":"address"},{"name":"newOwner","type":"address","indexed":true,"internalType":"address"}],"anonymous":false},{"type":"event","name":"SettingsUpdated","inputs":[{"name":"newSettings","type":"tuple","indexed":false,"internalType":"struct Settings","components":[{"name":"maxOperatorDataBytes","type":"uint16","internalType":"uint16"}]},{"name":"updatedBy","type":"address","indexed":true,"internalType":"address"},{"name":"version","type":"uint128","indexed":false,"internalType":"uint128"}],"anonymous":false},{"type":"error","name":"CallerNotOperator","inputs":[]},{"type":"error","name":"InvalidOperator","inputs":[]},{"type":"error","name":"InvalidOperatorData","inputs":[]},{"type":"error","name":"MigrationInProgress","inputs":[]},{"type":"error","name":"NoMigrationInProgress","inputs":[]},{"type":"error","name":"NotInitialized","inputs":[]},{"type":"error","name":"OperatorExists","inputs":[]},{"type":"error","name":"OperatorInKeyspace","inputs":[]},{"type":"error","name":"OperatorNotFound","inputs":[]},{"type":"error","name":"OperatorNotPulling","inputs":[]},{"type":"error","name":"OwnableInvalidOwner","inputs":[{"name":"owner","type":"address","internalType":"address"}]},{"type":"error","name":"OwnableUnauthorizedAccount","inputs":[{"name":"account","type":"address","internalType":"address"}]},{"type":"error","name":"SameKeyspace","inputs":[]},{"type":"error","name":"TooManyOperators","inputs":[]},{"type":"error","name":"Unauthorized","inputs":[]},{"type":"error","name":"WrongMigrationId","inputs":[]}],"bytecode":{"object":"0x6080604052346100305761001a61001461034a565b906109e1565b610022610035565b614019611362823961401990f35b61003b565b60405190565b5f80fd5b601f801991011690565b634e487b7160e01b5f52604160045260245ffd5b906100679061003f565b810190811060018060401b0382111761007f57604052565b610049565b90610097610090610035565b928361005d565b565b5f80fd5b5f80fd5b5f80fd5b5f80fd5b61ffff1690565b6100b9816100a9565b036100c057565b5f80fd5b905051906100d1826100b0565b565b91906020838203126100fb576100f5906100ed6020610084565b935f016100c4565b5f830152565b6100a1565b5f80fd5b60018060401b03811161011a5760208091020190565b610049565b5f80fd5b60018060a01b031690565b61013790610123565b90565b6101438161012e565b0361014a57565b5f80fd5b9050519061015b8261013a565b565b5f80fd5b60018060401b03811161017d5761017960209161003f565b0190565b610049565b90825f9392825e0152565b909291926101a261019d82610161565b610084565b938185526020850190828401116101be576101bc92610182565b565b61015d565b9080601f830112156101e1578160206101de9351910161018d565b90565b610100565b151590565b6101f4816101e6565b036101fb57565b5f80fd5b9050519061020c826101eb565b565b919091606081840312610271576102256060610084565b92610232815f840161014e565b5f85015260208201519160018060401b03831161026c57610258826102659483016101c3565b60208601526040016101ff565b6040830152565b6100a5565b6100a1565b92919061028a61028582610104565b610084565b93818552602080860192028101918383116102df5781905b8382106102b0575050505050565b815160018060401b0381116102da576020916102cf878493870161020e565b8152019101906102a2565b610100565b61011f565b9080601f83011215610302578160206102ff93519101610276565b90565b610100565b91909160408184031261034557610320835f83016100d3565b92602082015160018060401b0381116103405761033d92016102e4565b90565b61009d565b610099565b61036861537b8038038061035d81610084565b928339810190610307565b9091565b5190565b90565b90565b90565b61038d61038861039292610370565b610376565b610373565b90565b6103a0610100610379565b90565b5f0190565b6103b290516100a9565b90565b5f1b90565b906103c761ffff916103b5565b9181191691161790565b6103e56103e06103ea926100a9565b610376565b6100a9565b90565b90565b9061040561040061040c926103d1565b6103ed565b82546103ba565b9055565b906104225f80610428940192016103a8565b906103f0565b565b9061043491610410565b565b90565b61044d61044861045292610436565b610376565b610373565b90565b634e487b7160e01b5f52603260045260245ffd5b906104738261036c565b811015610484576020809102010190565b610455565b90565b610496905161012e565b90565b6104ad6104a86104b292610123565b610376565b610123565b90565b6104be90610499565b90565b6104ca906104b5565b90565b906104d7906104c1565b5f5260205260405f2090565b906104f460018060a01b03916103b5565b9181191691161790565b90565b9061051661051161051d926104c1565b6104fe565b82546104e3565b9055565b5190565b5190565b634e487b7160e01b5f52602260045260245ffd5b906001600283049216801561055d575b602083101461055857565b610529565b91607f169161054d565b5f5260205f2090565b601f602091010490565b1b90565b919060086105999102916105935f198461057a565b9261057a565b9181191691161790565b6105b76105b26105bc92610373565b610376565b610373565b90565b90565b91906105d86105d36105e0936105a3565b6105bf565b90835461057e565b9055565b5f90565b6105fa916105f46105e4565b916105c2565b565b5b818110610608575050565b806106155f6001936105e8565b016105fd565b9190601f811161062b575b505050565b61063761065c93610567565b90602061064384610570565b83019310610664575b61065590610570565b01906105fc565b5f8080610626565b91506106558192905061064c565b1c90565b90610686905f1990600802610672565b191690565b8161069591610676565b906002021790565b906106a781610525565b9060018060401b038211610765576106c9826106c3855461053d565b8561061b565b602090601f83116001146106fd579180916106ec935f926106f1575b505061068b565b90555b565b90915001515f806106e5565b601f1983169161070c85610567565b925f5b81811061074d57509160029391856001969410610733575b505050020190556106ef565b610743910151601f841690610676565b90555f8080610727565b9193602060018192878701518155019501920161070f565b610049565b906107749161069d565b565b61078090516101e6565b90565b9061078f60ff916103b5565b9181191691161790565b6107a2906101e6565b90565b90565b906107bd6107b86107c492610799565b6107a5565b8254610783565b9055565b9061080c60406002610812946107eb5f82016107e55f880161048c565b90610501565b610804600182016107fe60208801610521565b9061076a565b019201610776565b906107a8565b565b9061081e916107c8565b565b600161082c9101610373565b90565b50600290565b90565b6108418161082f565b82101561085b57610853600291610835565b910201905f90565b610455565b5490565b600190818003010490565b5f5260205f2090565b5b818110610884575050565b806108915f6001936105e8565b01610879565b90918281106108a6575b505050565b6108c46108be6108b86108cf95610864565b92610864565b9261086f565b918201910190610878565b5f80806108a1565b9068010000000000000000811161090057816108f56108fe93610860565b90828155610897565b565b610049565b5190565b60200190565b60018060a01b031690565b9190600861093a91029161093460018060a01b038461057a565b9261057a565b9181191691161790565b61094d82610905565b9160018060401b0383116109ae5761097961097360019261096e86866108d7565b610909565b9261086f565b9204915f5b83811061098b5750505050565b60019060206109a161099c8661048c565b6104fe565b940193818401550161097e565b610049565b906109bd91610944565b565b6109c890610373565b9052565b91906109df905f602085019401906109bf565b565b6109ea33610b69565b6109f38261036c565b610a0c610a06610a01610395565b610373565b91610373565b11610b4d57610a1c90600261042a565b610a255f610439565b5b80610a41610a3b610a368561036c565b610373565b91610373565b1015610ad657610a52828290610469565b5190610a616020830151610c59565b610a88610a82610a716004610489565b610a7c5f860161048c565b90610d2c565b156101e6565b610aba57610ab082610aab610ab59491610aa55f6006920161048c565b906104cd565b610814565b610820565b610a26565b5f632a322e2b60e01b815280610ad2600482016103a3565b0390fd5b50610b1290610b0d610af0610aeb6004610489565b610d6b565b610af981610d93565b5f610b0660078290610838565b50016109b3565b61036c565b610b487f0cb39eef24ff68526687cb5a4c2296150f6034d5eaff4d077998a714a541e6bd91610b3f610035565b918291826109cc565b0390a1565b5f636055dca160e01b815280610b65600482016103a3565b0390fd5b610b7290610bbe565b565b610b88610b83610b8d92610436565b610376565b610123565b90565b610b9990610b74565b90565b610ba59061012e565b9052565b9190610bbc905f60208501940190610b9c565b565b80610bd9610bd3610bce5f610b90565b61012e565b9161012e565b14610be957610be790610de0565b565b610c0c610bf55f610b90565b5f918291631e4fbdf760e01b835260048301610ba9565b0390fd5b5f1c90565b61ffff1690565b610c28610c2d91610c10565b610c15565b90565b610c3a9054610c1c565b90565b610c51610c4c610c56926100a9565b610376565b610373565b90565b610c6281610525565b610c74610c6e5f610439565b91610373565b14610cc257610c8290610525565b610c9f610c99610c945f600201610c30565b610c3d565b91610373565b11610ca657565b5f635e9b2d5360e01b815280610cbe600482016103a3565b0390fd5b5f635e9b2d5360e01b815280610cda600482016103a3565b0390fd5b5f90565b610ceb90610499565b90565b610d02610cfd610d0792610123565b610376565b610373565b90565b90565b610d21610d1c610d2692610373565b6103b5565b610d0a565b90565b90565b90610d5e610d58610d53610d4e5f610d6396610d46610cde565b500194610ce2565b610cee565b610d0d565b91610d29565b610eed565b90565b606090565b610d825f610d8792610d7b610d66565b5001610d29565b611041565b610d8f610d66565b5090565b610d9f610da49161105d565b6111dc565b565b9190610dbc610db7610dc4936104c1565b6104fe565b90835461091a565b9055565b5f90565b610dde91610dd8610dc8565b91610da6565b565b610df490610def5f6001610dcc565b6112a9565b565b90565b5f5260205f2090565b5490565b610e0f81610e02565b821015610e2957610e21600191610df9565b910201905f90565b610455565b610e3790610d0a565b90565b610e4390610c10565b90565b9190610e5c610e57610e6493610e2e565b610e3a565b90835461057e565b9055565b9081549168010000000000000000831015610e985782610e90916001610e9695018155610e06565b90610e46565b565b610049565b5490565b90610eab90610e2e565b5f5260205260405f2090565b90610ec35f19916103b5565b9181191691161790565b90610ee2610edd610ee9926105a3565b6105bf565b8254610eb7565b9055565b610ef5610cde565b50610f0a610f0482849061132c565b156101e6565b5f14610f4a57610f40610f4592610f2c610f255f8501610df6565b8290610e68565b6001610f395f8501610e9d565b9301610ea1565b610ecd565b600190565b50505f90565b606090565b60209181520190565b5f5260205f2090565b610f7090610d0a565b9052565b90610f8181602093610f67565b0190565b90565b610f94610f9991610c10565b610f85565b90565b610fa69054610f88565b90565b60010190565b90610fcc610fc6610fbf84610e9d565b8093610f55565b92610f5e565b905f5b818110610fdc5750505090565b909192610ffc610ff6600192610ff187610f9c565b610f74565b94610fa9565b9101919091610fcf565b9061101091610faf565b90565b9061103361102c92611023610035565b93848092611006565b038361005d565b565b61103e90611013565b90565b5f6110559161104e610f50565b5001611035565b90565b606090565b611065611058565b5090565b9091565b908151918151905252565b610180828403111561115f5781601f1683830160061c60051b018251815180821015611151575b855180821015611128575b86528252835251918392815b5b602001805182116110b757935b8301805182106110c45793848110156110e6576110e1858261106d565b6110b6565b50509092806020840103611114575b50808203611103575b505050565b61110c92611078565b5f80806110fe565b611122906020840185611078565b5f6110f5565b61113191611069565b8183101561113f575b6110aa565b919061114a91611069565b909161113a565b61115a91611069565b61109f565b919290806020809201908151815110156111cc575b505b018381116111c6578051938382018051868111156111ba579085915b6020820152018051868111156111aa57908591611192565b509460208093929601525b611176565b505093506020906111b5565b50915050565b6111d6908261106d565b5f611174565b80519060028210156111ed575b5050565b601f19602082018360051b83019181835b805181840151111561127d5711156112755781835b805181840151101561126a57111561123b579061123392915f8552611078565b525f806111e9565b925092506020905b835181518552815282019201918083101561126057602090611243565b5050505f806111e9565b905081018290611213565b5050506111e9565b9050810182906111fe565b61129461129991610c10565b61090f565b90565b6112a69054611288565b90565b6112b25f61129c565b6112bc825f610501565b906112f06112ea7f8be0079c531659141344cd1fd0a4f28419497f9722a3daafe3b4186f6b6457e0936104c1565b916104c1565b916112f9610035565b80611303816103a3565b0390a3565b90565b61131761131c91610c10565b611308565b90565b611329905461130b565b90565b61134a9160016113459261133e610cde565b5001610ea1565b61131f565b61135c6113565f610439565b91610373565b14159056fe60806040526004361015610013575b61115b565b61001d5f356101fc565b80630aae7a6b146101f75780630e89d8da146101f25780631a4a7c61146101ed578063392e53cd146101e857806344160458146101e35780634cc51e60146101de57806350647644146101d957806354fd4d50146101d45780635b59fd9b146101cf578063612f2f37146101ca57806365706f9c146101c557806366d1b187146101c05780636d70f7ae146101bb578063715018a6146101b657806373a18739146101b157806379ba5097146101ac5780638a3d4495146101a75780638da5cb5b146101a257806392265b651461019d5780639d44e71714610198578063a415c02c14610193578063c05665dd1461018e578063cc4bc50314610189578063d17b27d314610184578063d911c6321461017f578063e06174e41461017a578063e30c397814610175578063e88e974914610170578063f2fde38b1461016b5763f8c328d20361000e57611126565b6110f3565b6110c0565b61108b565b611056565b610ff1565b610fbc565b610f89565b610f56565b610f1e565b610eb9565b610e43565b610d1c565b610cd2565b610c90565b610c5b565b610bd3565b610b9e565b610b69565b610ac4565b610a60565b6109ea565b61099d565b6108e9565b610869565b61077c565b6106de565b610694565b610639565b610532565b60e01c90565b60405190565b5f80fd5b5f80fd5b5f80fd5b60018060a01b031690565b61022890610214565b90565b6102348161021f565b0361023b57565b5f80fd5b9050359061024c8261022b565b565b9060208282031261026757610264915f0161023f565b90565b61020c565b90565b61028361027e61028892610214565b61026c565b610214565b90565b6102949061026f565b90565b6102a09061028b565b90565b906102ad90610297565b5f5260205260405f2090565b5f1c90565b60018060a01b031690565b6102d56102da916102b9565b6102be565b90565b6102e790546102c9565b90565b634e487b7160e01b5f52602260045260245ffd5b906001600283049216801561031e575b602083101461031957565b6102ea565b91607f169161030e565b60209181520190565b5f5260205f2090565b905f929180549061035461034d836102fe565b8094610328565b916001811690815f146103ab575060011461036f575b505050565b61037c9192939450610331565b915f925b81841061039357505001905f808061036a565b60018160209295939554848601520191019290610380565b92949550505060ff19168252151560200201905f808061036a565b906103d09161033a565b90565b601f801991011690565b634e487b7160e01b5f52604160045260245ffd5b906103fb906103d3565b810190811067ffffffffffffffff82111761041557604052565b6103dd565b9061043a6104339261042a610202565b938480926103c6565b03836103f1565b565b60ff1690565b61044e610453916102b9565b61043c565b90565b6104609054610442565b90565b61046e9060066102a3565b6104795f82016102dd565b91610492600261048b6001850161041a565b9301610456565b90565b61049e9061021f565b9052565b5190565b60209181520190565b90825f9392825e0152565b6104d96104e26020936104e7936104d0816104a2565b938480936104a6565b958691016104af565b6103d3565b0190565b151590565b6104f9906104eb565b9052565b9392906105286040916105309461051b60608901925f8a0190610495565b87820360208901526104ba565b9401906104f0565b565b346105655761056161054d61054836600461024e565b610463565b610558939193610202565b938493846104fd565b0390f35b610208565b5f91031261057457565b61020c565b5190565b60209181520190565b60200190565b6105959061021f565b9052565b906105a68160209361058c565b0190565b60200190565b906105cd6105c76105c084610579565b809361057d565b92610586565b905f5b8181106105dd5750505090565b9091926105f66105f06001928651610599565b946105aa565b91019190916105d0565b60ff1690565b61060f90610600565b9052565b9291602061062f6106379360408701908782035f8901526105b0565b940190610606565b565b3461066a5761064936600461056a565b610651611312565b9061066661065d610202565b92839283610613565b0390f35b610208565b90565b61067b9061066f565b9052565b9190610692905f60208501940190610672565b565b346106c4576106a436600461056a565b6106c06106af611370565b6106b7610202565b9182918261067f565b0390f35b610208565b91906106dc905f602085019401906104f0565b565b3461070e576106ee36600461056a565b61070a6106f96113b1565b610701610202565b918291826106c9565b0390f35b610208565b1c90565b61ffff1690565b61072e9060086107339302610713565b610717565b90565b90610741915461071e565b90565b610750600d5f90610736565b90565b61ffff1690565b61076390610753565b9052565b919061077a905f6020850194019061075a565b565b346107ac5761078c36600461056a565b6107a8610797610744565b61079f610202565b91829182610767565b0390f35b610208565b5f80fd5b5f80fd5b5f80fd5b909182601f830112156107f75781359167ffffffffffffffff83116107f25760200192602083028401116107ed57565b6107b9565b6107b5565b6107b1565b61080581610600565b0361080c57565b5f80fd5b9050359061081d826107fc565b565b9160408383031261085f575f83013567ffffffffffffffff811161085a5761084c836108579286016107bd565b939094602001610810565b90565b610210565b61020c565b5f0190565b346108985761088261087c36600461081f565b91611edd565b61088a610202565b8061089481610864565b0390f35b610208565b5f80fd5b908160609103126108af5790565b61089d565b906020828203126108e4575f82013567ffffffffffffffff81116108df576108dc92016108a1565b90565b610210565b61020c565b34610917576109016108fc3660046108b4565b61238f565b610909610202565b8061091381610864565b0390f35b610208565b6fffffffffffffffffffffffffffffffff1690565b6109419060086109469302610713565b61091c565b90565b906109549154610931565b90565b61096360035f90610949565b90565b6fffffffffffffffffffffffffffffffff1690565b61098490610966565b9052565b919061099b905f6020850194019061097b565b565b346109cd576109ad36600461056a565b6109c96109b8610957565b6109c0610202565b91829182610988565b0390f35b610208565b6109e79160208201915f8184039101526105b0565b90565b34610a1a576109fa36600461056a565b610a16610a056123eb565b610a0d610202565b918291826109d2565b0390f35b610208565b610a28816104eb565b03610a2f57565b5f80fd5b90503590610a4082610a1f565b565b90602082820312610a5b57610a58915f01610a33565b90565b61020c565b34610a8e57610a78610a73366004610a42565b612680565b610a80610202565b80610a8a81610864565b0390f35b610208565b90816020910312610aa15790565b61089d565b90602082820312610abf57610abc915f01610a93565b90565b61020c565b34610af257610adc610ad7366004610aa6565b6127bf565b610ae4610202565b80610aee81610864565b0390f35b610208565b67ffffffffffffffff1690565b610b14906008610b199302610713565b610af7565b90565b90610b279154610b04565b90565b610b37600b600890610b1c565b90565b67ffffffffffffffff1690565b610b5090610b3a565b9052565b9190610b67905f60208501940190610b47565b565b34610b9957610b7936600461056a565b610b95610b84610b2a565b610b8c610202565b91829182610b54565b0390f35b610208565b34610bce57610bca610bb9610bb436600461024e565b6127ca565b610bc1610202565b918291826106c9565b0390f35b610208565b34610c0157610be336600461056a565b610beb612836565b610bf3610202565b80610bfd81610864565b0390f35b610208565b90610c1090610297565b5f5260205260405f2090565b610c2c906008610c319302610713565b61043c565b90565b90610c3f9154610c1c565b90565b610c5890610c53600c915f92610c06565b610c34565b90565b34610c8b57610c87610c76610c7136600461024e565b610c42565b610c7e610202565b918291826106c9565b0390f35b610208565b34610cbe57610ca036600461056a565b610ca8612840565b610cb0610202565b80610cba81610864565b0390f35b610208565b610ccf600b5f90610b1c565b90565b34610d0257610ce236600461056a565b610cfe610ced610cc3565b610cf5610202565b91829182610b54565b0390f35b610208565b9190610d1a905f60208501940190610495565b565b34610d4c57610d2c36600461056a565b610d48610d37612895565b610d3f610202565b91829182610d07565b0390f35b610208565b610d5a8161066f565b03610d6157565b5f80fd5b90503590610d7282610d51565b565b90602082820312610d8d57610d8a915f01610d65565b90565b61020c565b634e487b7160e01b5f52603260045260245ffd5b50600290565b90565b610db881610da6565b821015610dd257610dca600291610dac565b910201905f90565b610d92565b60ff1690565b610de9610dee916102b9565b610dd7565b90565b610dfb9054610ddd565b90565b600790610e0a82610da6565b811015610e2a57610e20600191610e2793610daf565b5001610df1565b90565b5f80fd5b9190610e41905f60208501940190610606565b565b34610e7357610e6f610e5e610e59366004610d74565b610dfe565b610e66610202565b91829182610e2e565b0390f35b610208565b610e8181610b3a565b03610e8857565b5f80fd5b90503590610e9982610e78565b565b90602082820312610eb457610eb1915f01610e8c565b90565b61020c565b34610ee757610ed1610ecc366004610e9b565b612b40565b610ed9610202565b80610ee381610864565b0390f35b610208565b604090610f15610f1c9496959396610f0b60608401985f850190610b47565b602083019061075a565b01906104f0565b565b34610f5157610f2e36600461056a565b610f4d610f39612b53565b610f44939193610202565b93849384610eec565b0390f35b610208565b34610f8457610f6e610f6936600461024e565b612f39565b610f76610202565b80610f8081610864565b0390f35b610208565b34610fb757610fa1610f9c3660046108b4565b613049565b610fa9610202565b80610fb381610864565b0390f35b610208565b34610fec57610fcc36600461056a565b610fe8610fd761308c565b610fdf610202565b918291826109d2565b0390f35b610208565b346110215761100136600461056a565b61101d61100c6131c6565b611014610202565b918291826109d2565b0390f35b610208565b611032611037916102b9565b610717565b90565b6110449054611026565b90565b6110535f60020161103a565b90565b346110865761106636600461056a565b611082611071611047565b611079610202565b91829182610767565b0390f35b610208565b346110bb5761109b36600461056a565b6110b76110a66131ed565b6110ae610202565b91829182610d07565b0390f35b610208565b346110ee576110d86110d3366004610e9b565b6133dd565b6110e0610202565b806110ea81610864565b0390f35b610208565b346111215761110b61110636600461024e565b61345a565b611113610202565b8061111d81610864565b0390f35b610208565b346111565761115261114161113c366004610d74565b613465565b611149610202565b91829182610d07565b0390f35b610208565b5f80fd5b606090565b5f90565b611174611179916102b9565b610af7565b90565b6111869054611168565b90565b90565b6111a061119b6111a592611189565b61026c565b610b3a565b90565b634e487b7160e01b5f52601260045260245ffd5b6111c86111ce91610b3a565b91610b3a565b9081156111d9570690565b6111a8565b5490565b60209181520190565b5f5260205f2090565b6111fe90546102c9565b90565b60010190565b9061122461121e611217846111de565b80936111e2565b926111eb565b905f5b8181106112345750505090565b90919261125461124e600192611249876111f4565b610599565b94611201565b9101919091611227565b9061126891611207565b90565b9061128b6112849261127b610202565b9384809261125e565b03836103f1565b565b52565b9061129a90610600565b9052565b906112b16112aa610202565b92836103f1565b565b6112bd604061129e565b90565b906112f76112ee60016112d16112b3565b946112e86112e05f830161126b565b5f880161128d565b01610df1565b60208401611290565b565b611302906112c0565b90565b61130f9051610600565b90565b61131a61115f565b50611323611164565b5061135561134f6007611349611339600b61117c565b611343600261118c565b906111bc565b90610daf565b506112f9565b9061136660205f8401519301611305565b90565b5f90565b90565b611378611369565b5061138b611386600461136d565b613487565b90565b5f90565b90565b6113a96113a46113ae92611392565b61026c565b61066f565b90565b6113b961138e565b506113cc6113c7600461136d565b613487565b6113de6113d85f611395565b9161066f565b1190565b906113f592916113f06134a6565b6113f7565b565b919061140b611406600461136d565b613487565b61141d6114175f611395565b9161066f565b1461142d5761142b92611aed565b565b5f6321c4e35760e21b81528061144560048201610864565b0390fd5b61145d61145861146292611392565b61026c565b610753565b90565b5090565b90565b61148061147b61148592611469565b61026c565b61066f565b90565b61149361010061146c565b90565b90565b6114ad6114a86114b292611496565b61026c565b61066f565b90565b67ffffffffffffffff81116114cd5760208091020190565b6103dd565b909291926114e76114e2826114b5565b61129e565b938185526020808601920283019281841161152457915b83831061150b5750505050565b60208091611519848661023f565b8152019201916114fe565b6107b9565b6115349136916114d2565b90565b9190811015611547576020020190565b610d92565b356115568161022b565b90565b5f1b90565b9061156a60ff91611559565b9181191691161790565b61157d906104eb565b90565b90565b9061159861159361159f92611574565b611580565b825461155e565b9055565b60016115af910161066f565b90565b6115c66115c16115cb9261066f565b61026c565b610753565b90565b906115db61ffff91611559565b9181191691161790565b6115f96115f46115fe92610753565b61026c565b610753565b90565b90565b90611619611614611620926115e5565b611601565b82546115ce565b9055565b9061162e82610579565b81101561163f576020809102010190565b610d92565b61164e905161021f565b90565b60401c90565b61166361166891611651565b610af7565b90565b6116759054611657565b90565b634e487b7160e01b5f52601160045260245ffd5b61169590610b3a565b67ffffffffffffffff81146116aa5760010190565b611678565b60401b90565b906116d06fffffffffffffffff0000000000000000916116af565b9181191691161790565b6116ee6116e96116f392610b3a565b61026c565b610b3a565b90565b90565b9061170e611709611715926116da565b6116f6565b82546116b5565b9055565b9061172c67ffffffffffffffff91611559565b9181191691161790565b9061174b611746611752926116da565b6116f6565b8254611719565b9055565b90565b634e487b7160e01b5f525f60045260245ffd5b600190818003010490565b1b90565b919060086117969102916117905f1984611777565b92611777565b9181191691161790565b6117b46117af6117b99261066f565b61026c565b61066f565b90565b90565b91906117d56117d06117dd936117a0565b6117bc565b90835461177b565b9055565b6117f3916117ed611369565b916117bf565b565b5b818110611801575050565b8061180e5f6001936117e1565b016117f6565b90611827905f1990602003600802610713565b8154169055565b909182811061183d575b505050565b61185b61185561184f6118669561176c565b9261176c565b926111eb565b9182019101906117f5565b5f8080611838565b90680100000000000000008111611897578161188c611895936111de565b9082815561182e565b565b6103dd565b90565b919060086118bf9102916118b960018060a01b0384611777565b92611777565b9181191691161790565b90565b90916118d89083611465565b9167ffffffffffffffff831161193b576119066119006001926118fb868661186e565b61189c565b926111eb565b9204915f5b8381106119185750505050565b600190602061192e6119298661154c565b6118c9565b940193818401550161190b565b6103dd565b9061194b92916118cc565b565b61196161195c61196692610600565b61026c565b610600565b90565b90565b9061198161197c6119889261194d565b611969565b825461155e565b9055565b61199861199d916102b9565b61091c565b90565b6119aa905461198c565b90565b6119b690610966565b6fffffffffffffffffffffffffffffffff81146119d35760010190565b611678565b906119f36fffffffffffffffffffffffffffffffff91611559565b9181191691161790565b611a11611a0c611a1692610966565b61026c565b610966565b90565b90565b90611a31611a2c611a38926119fd565b611a19565b82546119d8565b9055565b50611a4b90602081019061023f565b90565b60200190565b91611a6282611a689261057d565b9261189c565b90815f905b828210611a7b575050505090565b90919293611a9d611a97600192611a928886611a3c565b610599565b95611a4e565b920190929192611a6d565b90611aeb94611ada611acf611ae4936060969a99979a60808701918783035f890152611a54565b986020850190610606565b6040830190610b47565b019061097b565b565b909192611afa600d61103a565b611b0c611b065f611449565b91610753565b11611ec157611b1c828490611465565b611b35611b2f611b2a611488565b61066f565b9161066f565b11611ea557611b45828490611465565b611b58611b526001611499565b9161066f565b1180611e83575b611e6757611b6c5f611395565b5b80611b8a611b84611b7f868890611465565b61066f565b9161066f565b1015611c0557611ba4611b9f84868491611537565b61154c565b90611bc2611bbc611bb5600461136d565b8490613558565b156104eb565b611be957611bdf611be492611bda600191600c610c06565b611583565b6115a3565b611b6d565b5f63ae4207eb60e01b815280611c0160048201610864565b0390fd5b5092611c24611c1d611c18848690611465565b6115b2565b600d611604565b611c55611c4f6007611c49611c39600b61117c565b611c43600261118c565b906111bc565b90610daf565b506112f9565b611c6160208201611305565b611c73611c6d84610600565b91610600565b1480611e38575b611d7e575b50611c9c611c95611c90600b61166b565b61168c565b600b6116f9565b611cb8611cb1611cac600b61117c565b61168c565b600b611736565b611d04611cec611ce66007611ce0611cd0600b61117c565b611cda600261118c565b906111bc565b90610daf565b50611756565b611cfa8486905f8401611940565b600183910161196c565b611d0e600b61166b565b91929092611d79611d1f600b61117c565b611d31611d2c60036119a0565b6119ad565b611d3c816003611a1c565b90611d677f43cbb710893c11b777c9f898100af4a24e9ef965790f5dc2fe01629e51b3d409966116da565b96611d70610202565b95869586611aa8565b0390a2565b929190600193611d8d5f611395565b5b80611dac611da6611da15f860151610579565b61066f565b9161066f565b1015611e2e57611dc8611dc35f8401518390611624565b611644565b611ded611de7611de2611ddd888a8791611537565b61154c565b61021f565b9161021f565b03611e0057611dfb906115a3565b611d8e565b5050909192505f5b611e12575f611c7f565b5f63d990d65560e01b815280611e2a60048201610864565b0390fd5b5050909192611e08565b50611e455f820151610579565b611e61611e5b611e56868890611465565b61066f565b9161066f565b14611c7a565b5f63ccea9e6f60e01b815280611e7f60048201610864565b0390fd5b50611ea0611e9a611e95848690611529565b6134f4565b156104eb565b611b5f565b5f636055dca160e01b815280611ebd60048201610864565b0390fd5b5f6378a4646d60e11b815280611ed960048201610864565b0390fd5b90611ee892916113e2565b565b611ef55f820161154c565b611f08611f02339261021f565b9161021f565b141580611f3a575b611f1f57611f1d90611f5c565b565b5f6282b42960e81b815280611f3660048201610864565b0390fd5b5033611f55611f4f611f4a612895565b61021f565b9161021f565b1415611f10565b611f6e611f69600461136d565b613487565b611f80611f7a5f611395565b9161066f565b14611f9057611f8e9061229d565b565b5f6321c4e35760e21b815280611fa860048201610864565b0390fd5b5f80fd5b5f80fd5b5f80fd5b903590600160200381360303821215611ffa570180359067ffffffffffffffff8211611ff557602001916001820236038313611ff057565b611fb4565b611fb0565b611fac565b5f80fd5b67ffffffffffffffff81116120215761201d6020916103d3565b0190565b6103dd565b90825f939282370152565b9092919261204661204182612003565b61129e565b938185526020850190828401116120625761206092612026565b565b611fff565b612072913691612031565b90565b9061208660018060a01b0391611559565b9181191691161790565b906120a56120a06120ac92610297565b6118c9565b8254612075565b9055565b5090565b601f602091010490565b5b8181106120ca575050565b806120d75f6001936117e1565b016120bf565b9190601f81116120ed575b505050565b6120f961211e93610331565b906020612105846120b4565b83019310612126575b612117906120b4565b01906120be565b5f80806120e8565b91506121178192905061210e565b90612144905f1990600802610713565b191690565b8161215391612134565b906002021790565b9161216690826120b0565b9067ffffffffffffffff82116122255761218a8261218485546102fe565b856120dd565b5f90601f83116001146121bd579180916121ac935f926121b1575b5050612149565b90555b565b90915001355f806121a5565b601f198316916121cc85610331565b925f5b81811061220d575091600293918560019694106121f3575b505050020190556121af565b612203910135601f841690612134565b90555f80806121e7565b919360206001819287870135815501950192016121cf565b6103dd565b90612235929161215b565b565b3561224181610a1f565b90565b906122896040600261228f946122675f82016122615f880161154c565b90612090565b6122816001820161227b6020880188611fb8565b9161222a565b019201612237565b90611583565b565b9061229b91612244565b565b6122bc6122b76122b1836020810190611fb8565b90612067565b613592565b6122e36122dd6122cc600461136d565b6122d75f850161154c565b90613558565b156104eb565b612373575f8161230b61231193612306600661230086860161154c565b906102a3565b612291565b0161154c565b61232361231e60036119a0565b6119ad565b61232e816003611a1c565b9061236e61235c7f6603d7f9bc74a3fb3cd2bd2d066c1ad366ac878a5baaaef3cb00b416a189b51292610297565b92612365610202565b91829182610988565b0390a2565b5f63ae4207eb60e01b81528061238b60048201610864565b0390fd5b61239890611eea565b565b906123ac6123a7836114b5565b61129e565b918252565b369037565b906123db6123c38361239a565b926020806123d186936114b5565b92019103906123b1565b565b906123e79061021f565b9052565b6123f361115f565b50612406612401600461136d565b613617565b61240f8161363f565b61242061241b82610579565b6123b6565b6124295f611395565b6124325f611395565b5b8061244e61244861244387610579565b61066f565b9161066f565b10156124cd5761247d6002612477600661247161246c898790611624565b611644565b906102a3565b01610456565b612490575b61248b906115a3565b612433565b906124c561248b916124c06124ae6124a9888790611624565b611644565b6124bb8791849092611624565b6123dd565b6115a3565b919050612482565b50909150815290565b6124e86124e3600461136d565b613487565b6124fa6124f45f611395565b9161066f565b1461250a5761250890612549565b565b5f6321c4e35760e21b81528061252260048201610864565b0390fd5b91602061254792949361254060408201965f8301906104f0565b019061097b565b565b3361256361255d612558612895565b61021f565b9161021f565b1461261e5761258561257f612578600461136d565b3390613558565b156104eb565b612603576125a181600261259b600633906102a3565b01611583565b336125b46125af60036119a0565b6119ad565b6125bf816003611a1c565b6125e97f1c1d5017b8b1542dedc14e2b0d29098feed77a27d5a6c2c18e71a432b67b262092610297565b926125fe6125f5610202565b92839283612526565b0390a2565b5f6282b42960e81b81528061261a60048201610864565b0390fd5b3361263161262c60036119a0565b6119ad565b61263c816003611a1c565b6126667f1c1d5017b8b1542dedc14e2b0d29098feed77a27d5a6c2c18e71a432b67b262092610297565b9261267b612672610202565b92839283612526565b0390a2565b612689906124d6565b565b61269c906126976134a6565b612752565b565b6126a781610753565b036126ae57565b5f80fd5b356126bc8161269e565b90565b906126d15f806126d7940192016126b2565b90611604565b565b906126e3916126bf565b565b905035906126f28261269e565b565b506127039060208101906126e5565b90565b61270f90610753565b9052565b905f61272561272d93828101906126f4565b910190612706565b565b91602061275092949361274960408201965f830190612713565b019061097b565b565b61275d8160026126d9565b3361277061276b60036119a0565b6119ad565b61277b816003611a1c565b6127a57f809f9d5f171b223ec3605402958c62a22d343640adea3a66fc1e38fe8ce084f892610297565b926127ba6127b1610202565b9283928361272f565b0390a2565b6127c89061268b565b565b6127e6906127d661138e565b506127e1600461136d565b613558565b90565b6127f16134a6565b6127f9612823565b565b61280f61280a61281492611392565b61026c565b610214565b90565b612820906127fb565b90565b61283461282f5f612817565b613688565b565b61283e6127e9565b565b61284861369e565b6128506131ed565b61286261285c8361021f565b9161021f565b036128725761287090613688565b565b61288d905f91829163118cdaa760e01b835260048301610d07565b0390fd5b5f90565b61289d612891565b506128a75f6102dd565b90565b6128bc6128b7600461136d565b613487565b6128ce6128c85f611395565b9161066f565b146128de576128dc90612909565b565b5f6321c4e35760e21b8152806128f660048201610864565b0390fd5b60016129069103610753565b90565b612913600d61103a565b61292561291f5f611449565b91610753565b14612b245761294561293f61293a600b61166b565b610b3a565b91610b3a565b03612b085761296761296161295a600461136d565b3390613558565b156104eb565b612aec5761298861298261297d600c3390610c06565b610456565b156104eb565b612ad0576129a15f61299c600c3390610c06565b611583565b6129bd6129b66129b1600d61103a565b6128fa565b600d611604565b6129c7600d61103a565b6129d96129d35f611449565b91610753565b145f14612a57576129ea600b61166b565b336129fd6129f860036119a0565b6119ad565b612a08816003611a1c565b91612a51612a3f612a397f01269879535f40ee8957e15e160bf1866c5e2728ff0cbc583d848821e2639b4e936116da565b93610297565b93612a48610202565b91829182610988565b0390a35b565b612a61600b61166b565b33612a74612a6f60036119a0565b6119ad565b612a7f816003611a1c565b91612ac8612ab6612ab07faf5e90e72015f43138f66b4cd08bd1dfa2839030104f22a00af843fe847c6d19936116da565b93610297565b93612abf610202565b91829182610988565b0390a3612a55565b5f6313a9a39160e31b815280612ae860048201610864565b0390fd5b5f63a5523ee560e01b815280612b0460048201610864565b0390fd5b5f631a0fd8c760e21b815280612b2060048201610864565b0390fd5b5f631821b37560e31b815280612b3c60048201610864565b0390fd5b612b49906128aa565b565b5f90565b5f90565b612b5b612b4b565b50612b64612b4f565b50612b6d61138e565b50612b78600b61166b565b612b82600d61103a565b91612b8d600d61103a565b612b9f612b995f611449565b91610753565b1191929190565b612bb790612bb26134a6565b612d8d565b565b612bc29061126b565b90565b905f91612bdc612bd482610331565b928354612149565b905555565b919290602082105f14612c3a57601f8411600114612c0a57612c04929350612149565b90555b5b565b5090612c30612c35936001612c27612c2185610331565b926120b4565b820191016120be565b612bc5565b612c07565b50612c718293612c4b600194610331565b612c6a612c57856120b4565b820192601f861680612c7c575b506120b4565b01906120be565b600202179055612c08565b612c8890888603611814565b5f612c64565b929091680100000000000000008211612cee576020115f14612cdf57602081105f14612cc357612cbd91612149565b90555b5b565b60019160ff1916612cd384610331565b55600202019055612cc0565b60019150600202019055612cc1565b6103dd565b908154612cff816102fe565b90818311612d28575b818310612d16575b50505050565b612d1f93612be1565b5f808080612d10565b612d3483838387612c8e565b612d08565b5f612d4391612cf3565b565b905f03612d5757612d5590612d39565b565b611759565b60025f918280820155612d728360018301612d45565b0155565b905f03612d8857612d8690612d5c565b565b611759565b612daa612da4612d9d600461136d565b83906136ab565b156104eb565b612f1d57612db8600d61103a565b612dca612dc45f611449565b91610753565b115f14612ebe57612df2612deb5f612de460078290610daf565b5001612bb9565b82906136e5565b50612e15612e0e5f612e076007600190610daf565b5001612bb9565b83906136e5565b508115612eb6575b50612e9a575b612e385f612e33600684906102a3565b612d76565b612e4a612e4560036119a0565b6119ad565b612e55816003611a1c565b90612e95612e837f6a1d7ddc82d57e783a3ae60737a6c1a4704fcf38d966561fea0af8564f2d895d92610297565b92612e8c610202565b91829182610988565b0390a2565b5f63997ac2d360e01b815280612eb260048201610864565b0390fd5b90505f612e1d565b612efb612ef45f612eed6007612ee7612ed7600b61117c565b612ee1600261118c565b906111bc565b90610daf565b5001612bb9565b82906136e5565b5015612e23575f63997ac2d360e01b815280612f1960048201610864565b0390fd5b5f63ae4207eb60e01b815280612f3560048201610864565b0390fd5b612f4290612ba6565b565b612f5590612f506134a6565b612f57565b565b612f76612f71612f6b836020810190611fb8565b90612067565b613592565b612f9d612f97612f86600461136d565b612f915f850161154c565b9061372a565b156104eb565b61302d575f81612fc5612fcb93612fc06006612fba86860161154c565b906102a3565b612291565b0161154c565b612fdd612fd860036119a0565b6119ad565b612fe8816003611a1c565b906130286130167fb9324f396531a0242d16f59dbad354c3434de5390a1bff3a8d3b9950fdac6fc092610297565b9261301f610202565b91829182610988565b0390a2565b5f632a322e2b60e01b81528061304560048201610864565b0390fd5b61305290612f44565b565b61306861306361306d92610753565b61026c565b61066f565b90565b6130799061066f565b5f1981146130875760010190565b611678565b61309461115f565b5061309f600d61103a565b6130b16130ab5f611449565b91610753565b146131b2576130d06130cb6130c6600d61103a565b613054565b6123b6565b6131035f6130fc60076130f66130e6600b61117c565b6130f0600261118c565b906111bc565b90610daf565b5001612bb9565b9061310d5f611395565b6131165f611395565b5b8061313261312c61312787610579565b61066f565b9161066f565b10156131a95761316c9061316261315d600c613157613152898690611624565b611644565b90610c06565b610456565b613171575b6115a3565b613117565b6131a4613187613182878490611624565b611644565b9361319f86919561319787613070565b969092611624565b6123dd565b613167565b50909150815290565b6131c36131be5f611395565b6123b6565b90565b6131ce61115f565b506131e16131dc600461136d565b613617565b6131ea8161363f565b90565b6131f5612891565b5061320060016102dd565b90565b6132149061320f6134a6565b613232565b565b61321f90610b3a565b5f811461322d576001900390565b611678565b61323c600d61103a565b61324e6132485f611449565b91610753565b146133c15761326e613268613263600b61166b565b610b3a565b91610b3a565b036133a5576132a65f61329f6007613299613289600b61117c565b613293600261118c565b906111bc565b90610daf565b5001612bb9565b906132b05f611395565b5b806132cc6132c66132c186610579565b61066f565b9161066f565b101561330757613302906132fd5f6132f8600c6132f26132ed898790611624565b611644565b90610c06565b611583565b6115a3565b6132b1565b50905061331d6133165f611449565b600d611604565b61333961333261332d600b61117c565b613216565b600b611736565b613343600b61166b565b61335561335060036119a0565b6119ad565b613360816003611a1c565b906133a061338e7ff73240422246f63ed633ef3ce0726b8ab8fb69d46c8a4e5ecb0b2922668674a1926116da565b92613397610202565b91829182610988565b0390a2565b5f631a0fd8c760e21b8152806133bd60048201610864565b0390fd5b5f631821b37560e31b8152806133d960048201610864565b0390fd5b6133e690613203565b565b6133f9906133f46134a6565b6133fb565b565b613406816001612090565b61340e612895565b9061344261343c7f38d16b8cac22d99fc7c124b9cd0de2d3fa1faef420bfe791d8c362d765e2270093610297565b91610297565b9161344b610202565b8061345581610864565b0390a3565b613463906133e8565b565b61348190613471612891565b5061347c600461136d565b613794565b90565b90565b61349e5f6134a392613497611369565b5001613484565b6137d0565b90565b6134ae612895565b6134c76134c16134bc61369e565b61021f565b9161021f565b036134ce57565b6134f06134d961369e565b5f91829163118cdaa760e01b835260048301610d07565b0390fd5b61350961350e9161350361138e565b506137ec565b6137f8565b90565b61351a9061026f565b90565b61353161352c61353692610214565b61026c565b61066f565b90565b90565b61355061354b6135559261066f565b611559565b613539565b90565b9061358a61358461357f61357a5f61358f9661357261138e565b500194613511565b61351d565b61353c565b91613484565b61388b565b90565b61359b816104a2565b6135ad6135a75f611395565b9161066f565b146135fb576135bb906104a2565b6135d86135d26135cd5f60020161103a565b613054565b9161066f565b116135df57565b5f635e9b2d5360e01b8152806135f760048201610864565b0390fd5b5f635e9b2d5360e01b81528061361360048201610864565b0390fd5b61362e5f6136339261362761115f565b5001613484565b6139b1565b61363b61115f565b5090565b61364b613650916137ec565b613b3b565b565b919061366861366361367093610297565b6118c9565b90835461189f565b9055565b61368691613680612891565b91613652565b565b61369c906136975f6001613674565b613be7565b565b6136a6612891565b503390565b906136dd6136d76136d26136cd5f6136e2966136c561138e565b500194613511565b61351d565b61353c565b91613484565b613db0565b90565b9061370d613707613726936136f861138e565b50613701611369565b506137ec565b91613511565b61372061371a5f9261351d565b91611395565b91613eb6565b9091565b9061375c61375661375161374c5f6137619661374461138e565b500194613511565b61351d565b61353c565b91613484565b613f5f565b90565b613770613775916102b9565b6117a0565b90565b61378c6137876137919261066f565b61026c565b610214565b90565b6137bf6137ba6137c9936137b55f6137c4956137ae612891565b5001613484565b613fc2565b613764565b613778565b61028b565b90565b5490565b5f6137e4916137dd611369565b50016137cc565b90565b606090565b6137f46137e7565b5090565b9061380161138e565b50600191600281511015613813575b50565b91506020825160051b83019201915b6020835193019283511181841881021561383c5750613822565b9250505f613810565b61384e90613539565b90565b9061385b90613845565b5f5260205260405f2090565b90565b61387661387b916102b9565b613867565b90565b613888905461386a565b90565b6138a99160016138a49261389d61138e565b5001613851565b61387e565b6138bb6138b55f611395565b9161066f565b141590565b606090565b60209181520190565b5f5260205f2090565b6138e090613539565b9052565b906138f1816020936138d7565b0190565b90565b613904613909916102b9565b6138f5565b90565b61391690546138f8565b90565b60010190565b9061393c61393661392f846137cc565b80936138c5565b926138ce565b905f5b81811061394c5750505090565b90919261396c6139666001926139618761390c565b6138e4565b94613919565b910191909161393f565b906139809161391f565b90565b906139a361399c92613993610202565b93848092613976565b03836103f1565b565b6139ae90613983565b90565b5f6139c5916139be6138c0565b50016139a5565b90565b9091565b908151918151905252565b6101808284031115613abe5781601f1683830160061c60051b018251815180821015613ab0575b855180821015613a87575b86528252835251918392815b5b60200180518211613a1657935b830180518210613a23579384811015613a4557613a4085826139cc565b613a15565b50509092806020840103613a73575b50808203613a62575b505050565b613a6b926139d7565b5f8080613a5d565b613a819060208401856139d7565b5f613a54565b613a90916139c8565b81831015613a9e575b613a09565b9190613aa9916139c8565b9091613a99565b613ab9916139c8565b6139fe565b91929080602080920190815181511015613b2b575b505b01838111613b2557805193838201805186811115613b19579085915b602082015201805186811115613b0957908591613af1565b509460208093929601525b613ad5565b50509350602090613b14565b50915050565b613b3590826139cc565b5f613ad3565b8051906002821015613b4c575b5050565b601f19602082018360051b83019181835b8051818401511115613bdc571115613bd45781835b8051818401511015613bc9571115613b9a5790613b9292915f85526139d7565b525f80613b48565b925092506020905b8351815185528152820192019180831015613bbf57602090613ba2565b5050505f80613b48565b905081018290613b72565b505050613b48565b905081018290613b5d565b613bf05f6102dd565b613bfa825f612090565b90613c2e613c287f8be0079c531659141344cd1fd0a4f28419497f9722a3daafe3b4186f6b6457e093610297565b91610297565b91613c37610202565b80613c4181610864565b0390a3565b613c55613c5b9193929361066f565b9261066f565b8203918211613c6657565b611678565b613c74816137cc565b821015613c8e57613c866001916138ce565b910201905f90565b610d92565b613ca3906008613ca89302610713565b6138f5565b90565b90613cb69154613c93565b90565b613cc2906102b9565b90565b9190613cdb613cd6613ce393613845565b613cb9565b90835461177b565b9055565b90613cf35f1991611559565b9181191691161790565b90613d12613d0d613d19926117a0565b6117bc565b8254613ce7565b9055565b90565b634e487b7160e01b5f52603160045260245ffd5b5490565b5f5260205f2090565b613d4a81613d34565b821015613d6457613d5c600191613d38565b910201905f90565b610d92565b5f90565b613d7f91613d79613d69565b91613cc5565b565b613d8a81613d34565b8015613dab576001900390613da8613da28383613d41565b90613d6d565b55565b613d20565b613db861138e565b50613dcf613dca600183018490613851565b61387e565b9081613de3613ddd5f611395565b9161066f565b14155f14613eaf57613e61926001613e5c9284613e0a5f96613e0485611499565b90613c46565b613e27613e188885016137cc565b613e2186611499565b90613c46565b81613e3a613e348361066f565b9161066f565b03613e66575b505050613e56613e51868301613d1d565b613d81565b01613851565b6117e1565b600190565b613ea792613e99613e85613e7f613ea2948c8901613c6b565b90613cab565b93613e9385918c8901613c6b565b90613cc5565b91858501613851565b613cfd565b5f8080613e40565b5050505f90565b91613ebf61138e565b50613ec8611369565b505f19936001918451938101925b84810160011c908160051b870151830185811487831117613f13578890861115613f07575050600101905b90613ed6565b91909295500193613f01565b939795505094505014918015159182910102911691565b9081549168010000000000000000831015613f5a5782613f52916001613f5895018155613d41565b90613cc5565b565b6103dd565b613f6761138e565b50613f7c613f7682849061388b565b156104eb565b5f14613fbc57613fb2613fb792613f9e613f975f8501613d1d565b8290613f2a565b6001613fab5f85016137cc565b9301613851565b613cfd565b600190565b50505f90565b613fe0915f613fda92613fd3613d69565b5001613c6b565b90613cab565b9056fea26469706673582212208d028448d16d97f2fd780840d433a9424fc95ac828cfe209d78fbc5cf56a89a264736f6c634300081c0033","linkReferences":{}},"methodIdentifiers":{"abortMigration(uint64)":"e88e9749","acceptOwnership()":"79ba5097","addNodeOperator((address,bytes,bool))":"cc4bc503","completeMigration(uint64)":"9d44e717","getAllOperators()":"d911c632","getCurrentKeyspace()":"0e89d8da","getMaintenanceOperators()":"5b59fd9b","getMigrationStatus()":"a415c02c","getOperatorAt(uint256)":"f8c328d2","getOperatorCount()":"1a4a7c61","getPullingOperators()":"d17b27d3","info(address)":"0aae7a6b","isInitialized()":"392e53cd","isOperator(address)":"6d70f7ae","isPulling(address)":"73a18739","keyspaceVersion()":"8a3d4495","keyspaces(uint256)":"92265b65","migrationId()":"66d1b187","owner()":"8da5cb5b","pendingOwner()":"e30c3978","pullingCount()":"44160458","removeNodeOperator(address)":"c05665dd","renounceOwnership()":"715018a6","setMaintenance(bool)":"612f2f37","settings()":"e06174e4","startMigration(address[],uint8)":"4cc51e60","transferOwnership(address)":"f2fde38b","updateNodeOperator((address,bytes,bool))":"50647644","updateSettings((uint16))":"65706f9c","version()":"54fd4d50"},"id":33}