{"abi":[{"type":"constructor","inputs":[],"stateMutability":"nonpayable"},{"type":"function","name":"MAX_OPERATORS","inputs":[],"outputs":[{"name":"","type":"uint16","internalType":"uint16"}],"stateMutability":"view"},{"type":"function","name":"UPGRADE_INTERFACE_VERSION","inputs":[],"outputs":[{"name":"","type":"string","internalType":"string"}],"stateMutability":"view"},{"type":"function","name":"abortMigration","inputs":[{"name":"id","type":"uint64","internalType":"uint64"}],"outputs":[],"stateMutability":"nonpayable"},{"type":"function","name":"acceptOwnership","inputs":[],"outputs":[],"stateMutability":"nonpayable"},{"type":"function","name":"addNodeOperator","inputs":[{"name":"operator","type":"tuple","internalType":"struct NodeOperator","components":[{"name":"addr","type":"address","internalType":"address"},{"name":"data","type":"bytes","internalType":"bytes"},{"name":"maintenance","type":"bool","internalType":"bool"}]}],"outputs":[],"stateMutability":"nonpayable"},{"type":"function","name":"completeMigration","inputs":[{"name":"id","type":"uint64","internalType":"uint64"}],"outputs":[],"stateMutability":"nonpayable"},{"type":"function","name":"getAllOperators","inputs":[],"outputs":[{"name":"","type":"address[]","internalType":"address[]"}],"stateMutability":"view"},{"type":"function","name":"getCurrentKeyspace","inputs":[],"outputs":[{"name":"","type":"uint8[]","internalType":"uint8[]"},{"name":"","type":"uint8","internalType":"uint8"}],"stateMutability":"view"},{"type":"function","name":"getMigrationStatus","inputs":[],"outputs":[{"name":"id","type":"uint64","internalType":"uint64"},{"name":"remaining","type":"uint16","internalType":"uint16"},{"name":"inProgress","type":"bool","internalType":"bool"}],"stateMutability":"view"},{"type":"function","name":"getOperatorAt","inputs":[{"name":"slot","type":"uint8","internalType":"uint8"}],"outputs":[{"name":"","type":"address","internalType":"address"}],"stateMutability":"view"},{"type":"function","name":"getOperatorCount","inputs":[],"outputs":[{"name":"","type":"uint16","internalType":"uint16"}],"stateMutability":"view"},{"type":"function","name":"getPullingOperators","inputs":[],"outputs":[{"name":"","type":"uint8[]","internalType":"uint8[]"}],"stateMutability":"view"},{"type":"function","name":"getView","inputs":[],"outputs":[{"name":"","type":"tuple","internalType":"struct ClusterView","components":[{"name":"settings","type":"tuple","internalType":"struct Settings","components":[{"name":"maxOperatorDataBytes","type":"uint16","internalType":"uint16"},{"name":"minOperators","type":"uint8","internalType":"uint8"}]},{"name":"version","type":"uint128","internalType":"uint128"},{"name":"keyspaceVersion","type":"uint64","internalType":"uint64"},{"name":"operatorCount","type":"uint16","internalType":"uint16"},{"name":"operators","type":"address[]","internalType":"address[]"},{"name":"operatorData","type":"tuple[]","internalType":"struct NodeOperatorData[]","components":[{"name":"data","type":"bytes","internalType":"bytes"},{"name":"maintenance","type":"bool","internalType":"bool"}]},{"name":"currentKeyspace","type":"tuple","internalType":"struct Keyspace","components":[{"name":"members","type":"uint8[]","internalType":"uint8[]"},{"name":"replicationStrategy","type":"uint8","internalType":"uint8"}]},{"name":"migrationId","type":"uint64","internalType":"uint64"},{"name":"pullingOperators","type":"uint8[]","internalType":"uint8[]"},{"name":"maintenance","type":"tuple","internalType":"struct MaintenanceState","components":[{"name":"slot","type":"address","internalType":"address"},{"name":"isOwnerMaintenance","type":"bool","internalType":"bool"}]}]}],"stateMutability":"view"},{"type":"function","name":"initialize","inputs":[{"name":"initialSettings","type":"tuple","internalType":"struct Settings","components":[{"name":"maxOperatorDataBytes","type":"uint16","internalType":"uint16"},{"name":"minOperators","type":"uint8","internalType":"uint8"}]},{"name":"initialOperators","type":"tuple[]","internalType":"struct NodeOperator[]","components":[{"name":"addr","type":"address","internalType":"address"},{"name":"data","type":"bytes","internalType":"bytes"},{"name":"maintenance","type":"bool","internalType":"bool"}]}],"outputs":[],"stateMutability":"nonpayable"},{"type":"function","name":"isInitialized","inputs":[],"outputs":[{"name":"","type":"bool","internalType":"bool"}],"stateMutability":"view"},{"type":"function","name":"isOperator","inputs":[{"name":"addr","type":"address","internalType":"address"}],"outputs":[{"name":"","type":"bool","internalType":"bool"}],"stateMutability":"view"},{"type":"function","name":"keyspaceVersion","inputs":[],"outputs":[{"name":"","type":"uint64","internalType":"uint64"}],"stateMutability":"view"},{"type":"function","name":"keyspaces","inputs":[{"name":"","type":"uint256","internalType":"uint256"}],"outputs":[{"name":"replicationStrategy","type":"uint8","internalType":"uint8"}],"stateMutability":"view"},{"type":"function","name":"maintenance","inputs":[],"outputs":[{"name":"slot","type":"address","internalType":"address"},{"name":"isOwnerMaintenance","type":"bool","internalType":"bool"}],"stateMutability":"view"},{"type":"function","name":"migrationId","inputs":[],"outputs":[{"name":"","type":"uint64","internalType":"uint64"}],"stateMutability":"view"},{"type":"function","name":"nextFreeSlot","inputs":[],"outputs":[{"name":"","type":"uint8","internalType":"uint8"}],"stateMutability":"view"},{"type":"function","name":"operatorCount","inputs":[],"outputs":[{"name":"","type":"uint16","internalType":"uint16"}],"stateMutability":"view"},{"type":"function","name":"operatorInfo","inputs":[{"name":"","type":"address","internalType":"address"}],"outputs":[{"name":"data","type":"bytes","internalType":"bytes"},{"name":"maintenance","type":"bool","internalType":"bool"}],"stateMutability":"view"},{"type":"function","name":"operatorSlots","inputs":[{"name":"","type":"uint8","internalType":"uint8"}],"outputs":[{"name":"","type":"address","internalType":"address"}],"stateMutability":"view"},{"type":"function","name":"operatorToSlot","inputs":[{"name":"","type":"address","internalType":"address"}],"outputs":[{"name":"","type":"uint8","internalType":"uint8"}],"stateMutability":"view"},{"type":"function","name":"owner","inputs":[],"outputs":[{"name":"","type":"address","internalType":"address"}],"stateMutability":"view"},{"type":"function","name":"pendingOwner","inputs":[],"outputs":[{"name":"","type":"address","internalType":"address"}],"stateMutability":"view"},{"type":"function","name":"proxiableUUID","inputs":[],"outputs":[{"name":"","type":"bytes32","internalType":"bytes32"}],"stateMutability":"view"},{"type":"function","name":"pullingCount","inputs":[],"outputs":[{"name":"","type":"uint16","internalType":"uint16"}],"stateMutability":"view"},{"type":"function","name":"removeNodeOperator","inputs":[{"name":"operatorAddr","type":"address","internalType":"address"}],"outputs":[],"stateMutability":"nonpayable"},{"type":"function","name":"renounceOwnership","inputs":[],"outputs":[],"stateMutability":"nonpayable"},{"type":"function","name":"setMaintenance","inputs":[{"name":"active","type":"bool","internalType":"bool"}],"outputs":[],"stateMutability":"nonpayable"},{"type":"function","name":"settings","inputs":[],"outputs":[{"name":"maxOperatorDataBytes","type":"uint16","internalType":"uint16"},{"name":"minOperators","type":"uint8","internalType":"uint8"}],"stateMutability":"view"},{"type":"function","name":"slotOccupied","inputs":[{"name":"","type":"uint8","internalType":"uint8"}],"outputs":[{"name":"","type":"bool","internalType":"bool"}],"stateMutability":"view"},{"type":"function","name":"slotPulling","inputs":[{"name":"","type":"uint8","internalType":"uint8"}],"outputs":[{"name":"","type":"bool","internalType":"bool"}],"stateMutability":"view"},{"type":"function","name":"startMigration","inputs":[{"name":"newOperatorSlots","type":"uint8[]","internalType":"uint8[]"},{"name":"replicationStrategy","type":"uint8","internalType":"uint8"}],"outputs":[],"stateMutability":"nonpayable"},{"type":"function","name":"transferOwnership","inputs":[{"name":"newOwner","type":"address","internalType":"address"}],"outputs":[],"stateMutability":"nonpayable"},{"type":"function","name":"updateNodeOperator","inputs":[{"name":"operator","type":"tuple","internalType":"struct NodeOperator","components":[{"name":"addr","type":"address","internalType":"address"},{"name":"data","type":"bytes","internalType":"bytes"},{"name":"maintenance","type":"bool","internalType":"bool"}]}],"outputs":[],"stateMutability":"nonpayable"},{"type":"function","name":"updateSettings","inputs":[{"name":"newSettings","type":"tuple","internalType":"struct Settings","components":[{"name":"maxOperatorDataBytes","type":"uint16","internalType":"uint16"},{"name":"minOperators","type":"uint8","internalType":"uint8"}]}],"outputs":[],"stateMutability":"nonpayable"},{"type":"function","name":"upgradeToAndCall","inputs":[{"name":"newImplementation","type":"address","internalType":"address"},{"name":"data","type":"bytes","internalType":"bytes"}],"outputs":[],"stateMutability":"payable"},{"type":"function","name":"version","inputs":[],"outputs":[{"name":"","type":"uint128","internalType":"uint128"}],"stateMutability":"view"},{"type":"event","name":"ClusterInitialized","inputs":[{"name":"operators","type":"tuple[]","indexed":false,"internalType":"struct NodeOperator[]","components":[{"name":"addr","type":"address","internalType":"address"},{"name":"data","type":"bytes","internalType":"bytes"},{"name":"maintenance","type":"bool","internalType":"bool"}]},{"name":"settings","type":"tuple","indexed":false,"internalType":"struct Settings","components":[{"name":"maxOperatorDataBytes","type":"uint16","internalType":"uint16"},{"name":"minOperators","type":"uint8","internalType":"uint8"}]},{"name":"version","type":"uint128","indexed":false,"internalType":"uint128"}],"anonymous":false},{"type":"event","name":"Initialized","inputs":[{"name":"version","type":"uint64","indexed":false,"internalType":"uint64"}],"anonymous":false},{"type":"event","name":"MaintenanceToggled","inputs":[{"name":"operator","type":"address","indexed":true,"internalType":"address"},{"name":"active","type":"bool","indexed":false,"internalType":"bool"},{"name":"version","type":"uint128","indexed":false,"internalType":"uint128"}],"anonymous":false},{"type":"event","name":"MigrationAborted","inputs":[{"name":"id","type":"uint64","indexed":true,"internalType":"uint64"},{"name":"version","type":"uint128","indexed":false,"internalType":"uint128"}],"anonymous":false},{"type":"event","name":"MigrationCompleted","inputs":[{"name":"id","type":"uint64","indexed":true,"internalType":"uint64"},{"name":"operator","type":"address","indexed":true,"internalType":"address"},{"name":"version","type":"uint128","indexed":false,"internalType":"uint128"}],"anonymous":false},{"type":"event","name":"MigrationDataPullCompleted","inputs":[{"name":"id","type":"uint64","indexed":true,"internalType":"uint64"},{"name":"operator","type":"address","indexed":true,"internalType":"address"},{"name":"version","type":"uint128","indexed":false,"internalType":"uint128"}],"anonymous":false},{"type":"event","name":"MigrationStarted","inputs":[{"name":"id","type":"uint64","indexed":true,"internalType":"uint64"},{"name":"operators","type":"uint8[]","indexed":false,"internalType":"uint8[]"},{"name":"replicationStrategy","type":"uint8","indexed":false,"internalType":"uint8"},{"name":"keyspaceVersion","type":"uint64","indexed":false,"internalType":"uint64"},{"name":"version","type":"uint128","indexed":false,"internalType":"uint128"}],"anonymous":false},{"type":"event","name":"NodeOperatorAdded","inputs":[{"name":"operator","type":"address","indexed":true,"internalType":"address"},{"name":"slot","type":"uint8","indexed":true,"internalType":"uint8"},{"name":"operatorData","type":"tuple","indexed":false,"internalType":"struct NodeOperatorData","components":[{"name":"data","type":"bytes","internalType":"bytes"},{"name":"maintenance","type":"bool","internalType":"bool"}]},{"name":"version","type":"uint128","indexed":false,"internalType":"uint128"}],"anonymous":false},{"type":"event","name":"NodeOperatorRemoved","inputs":[{"name":"operator","type":"address","indexed":true,"internalType":"address"},{"name":"slot","type":"uint8","indexed":true,"internalType":"uint8"},{"name":"version","type":"uint128","indexed":false,"internalType":"uint128"}],"anonymous":false},{"type":"event","name":"NodeOperatorUpdated","inputs":[{"name":"operator","type":"address","indexed":true,"internalType":"address"},{"name":"slot","type":"uint8","indexed":true,"internalType":"uint8"},{"name":"operatorData","type":"tuple","indexed":false,"internalType":"struct NodeOperatorData","components":[{"name":"data","type":"bytes","internalType":"bytes"},{"name":"maintenance","type":"bool","internalType":"bool"}]},{"name":"version","type":"uint128","indexed":false,"internalType":"uint128"}],"anonymous":false},{"type":"event","name":"OwnershipTransferStarted","inputs":[{"name":"previousOwner","type":"address","indexed":true,"internalType":"address"},{"name":"newOwner","type":"address","indexed":true,"internalType":"address"}],"anonymous":false},{"type":"event","name":"OwnershipTransferred","inputs":[{"name":"previousOwner","type":"address","indexed":true,"internalType":"address"},{"name":"newOwner","type":"address","indexed":true,"internalType":"address"}],"anonymous":false},{"type":"event","name":"SettingsUpdated","inputs":[{"name":"newSettings","type":"tuple","indexed":false,"internalType":"struct Settings","components":[{"name":"maxOperatorDataBytes","type":"uint16","internalType":"uint16"},{"name":"minOperators","type":"uint8","internalType":"uint8"}]},{"name":"updatedBy","type":"address","indexed":true,"internalType":"address"},{"name":"version","type":"uint128","indexed":false,"internalType":"uint128"}],"anonymous":false},{"type":"event","name":"Upgraded","inputs":[{"name":"implementation","type":"address","indexed":true,"internalType":"address"}],"anonymous":false},{"type":"error","name":"AddressEmptyCode","inputs":[{"name":"target","type":"address","internalType":"address"}]},{"type":"error","name":"CallerNotOperator","inputs":[]},{"type":"error","name":"ERC1967InvalidImplementation","inputs":[{"name":"implementation","type":"address","internalType":"address"}]},{"type":"error","name":"ERC1967NonPayable","inputs":[]},{"type":"error","name":"FailedCall","inputs":[]},{"type":"error","name":"InsufficientOperators","inputs":[]},{"type":"error","name":"InvalidInitialization","inputs":[]},{"type":"error","name":"InvalidOperator","inputs":[]},{"type":"error","name":"InvalidOperatorData","inputs":[]},{"type":"error","name":"MaintenanceInProgress","inputs":[]},{"type":"error","name":"MigrationInProgress","inputs":[]},{"type":"error","name":"NoMigrationInProgress","inputs":[]},{"type":"error","name":"NotInitialized","inputs":[]},{"type":"error","name":"NotInitializing","inputs":[]},{"type":"error","name":"OperatorExists","inputs":[]},{"type":"error","name":"OperatorInKeyspace","inputs":[]},{"type":"error","name":"OperatorNotFound","inputs":[]},{"type":"error","name":"OperatorNotPulling","inputs":[]},{"type":"error","name":"OwnableInvalidOwner","inputs":[{"name":"owner","type":"address","internalType":"address"}]},{"type":"error","name":"OwnableUnauthorizedAccount","inputs":[{"name":"account","type":"address","internalType":"address"}]},{"type":"error","name":"SameKeyspace","inputs":[]},{"type":"error","name":"TooManyOperators","inputs":[]},{"type":"error","name":"UUPSUnauthorizedCallContext","inputs":[]},{"type":"error","name":"UUPSUnsupportedProxiableUUID","inputs":[{"name":"slot","type":"bytes32","internalType":"bytes32"}]},{"type":"error","name":"Unauthorized","inputs":[]},{"type":"error","name":"WrongMigrationId","inputs":[]}],"bytecode":{"object":"0x60a080604052346100e857306080527ff0c57e16840df040f15088dc2f81fe391c3923bec73e23a9662efc9c229c6a005460ff8160401c166100d9576002600160401b03196001600160401b03821601610073575b604051613ea190816100ed82396080518181816106c50152610b880152f35b6001600160401b0319166001600160401b039081177ff0c57e16840df040f15088dc2f81fe391c3923bec73e23a9662efc9c229c6a005581527fc7f505b2f371ae2175ee4913f4499e1f2633a7b5936321eed1cdaeb6115181d290602090a15f80610054565b63f92ee8a960e01b5f5260045ffd5b5f80fdfe60806040526004361015610011575f80fd5b5f3560e01c80630e89d8da1461029f57806311fcaded1461029a5780631a4a7c61146102315780632b78c9f7146102955780632be5079e14610290578063389be1c01461028b578063392e53cd1461028657806344160458146102815780634e4d0f741461027c5780634f1ef28614610277578063506476441461027257806350c246d61461026d57806352d1902d1461026857806354fd4d501461026357806356f4de3b1461025e5780635f7e7b8314610259578063612f2f371461025457806366d1b1871461024f5780636c376cc51461024a5780636d70f7ae14610245578063715018a61461024057806375418b9d1461023b57806379ba5097146102365780637c6f315814610231578063838b7dc81461022c5780638a3d4495146102275780638da5cb5b1461022257806392265b651461021d5780639d44e71714610218578063a415c02c14610213578063ad3cb1cc1461020e578063bf31b06d14610209578063c05665dd14610204578063c187ba3d146101ff578063cc4bc503146101fa578063d17b27d3146101f5578063d911c632146101f0578063e06174e4146101eb578063e30c3978146101e6578063e88e9749146101e15763f2fde38b146101dc575f80fd5b6120aa565b611f42565b611f0e565b611ee3565b611e15565b611dd5565b611b9f565b611b64565b61191a565b6118df565b611898565b61185b565b611605565b6115af565b611553565b61152d565b6114c5565b6103b3565b611479565b611282565b611036565b610fe2565b610fac565b610f83565b610d91565b610d53565b610c20565b610bcd565b610b76565b610b0e565b610810565b610683565b610545565b610513565b6104f0565b6104d0565b6103f0565b6103d4565b610347565b6102da565b90602080835192838152019201905f5b8181106102c15750505090565b825160ff168452602093840193909201916001016102b4565b34610338575f36600319011261033857600b5460011660028110156103335761030b6103299160011b60070161272e565b60ff60208251920151166040519283926040845260408401906102a4565b9060208301520390f35b611587565b5f80fd5b60ff81160361033857565b346103385760203660031901126103385760ff6004356103668161033c565b16805f52600360205260ff60405f205416156103a4575f908152600260209081526040918290205491516001600160a01b03909216825290f35b0390f35b63ae4207eb60e01b5f5260045ffd5b34610338575f36600319011261033857602061ffff60065416604051908152f35b34610338575f3660031901126103385760206040516101008152f35b346103385760403660031901126103385761040961374c565b61ffff600654166024359061041d8261033c565b60ff8216116104c1576104699061044960043561043981610bf3565b61ffff1661ffff195f5416175f55565b6104528161033c565b62ff00005f549160101b169062ff00001916175f55565b61048361047e6001546001600160801b031690565b612774565b61048c81612796565b7fc4537136927baa4e0a3e9e5518a9fce0fde1cf0b4a4ddb07effde98d41d3b105604051806104bc3394826127b2565b0390a2005b6330e40a8160e11b5f5260045ffd5b34610338575f36600319011261033857602060ff600f5416604051908152f35b34610338575f36600319011261033857602061ffff600654161515604051908152f35b34610338575f36600319011261033857602061ffff600d5416604051908152f35b6001600160a01b0381160361033857565b346103385760203660031901126103385760043561056281610534565b60018060a01b03165f526004602052602060ff60405f205416604051908152f35b634e487b7160e01b5f52604160045260245ffd5b604081019081106001600160401b038211176105b257604052565b610583565b606081019081106001600160401b038211176105b257604052565b90601f801991011681019081106001600160401b038211176105b257604052565b604051906106026040836105d2565b565b60405190610602610140836105d2565b6001600160401b0381116105b257601f01601f191660200190565b92919261063b82610614565b9161064960405193846105d2565b829481845281830111610338578281602093845f960137010152565b9080601f83011215610338578160206106809335910161062f565b90565b60403660031901126103385760043561069b81610534565b6024356001600160401b038111610338576106ba903690600401610665565b906001600160a01b037f0000000000000000000000000000000000000000000000000000000000000000163081149081156107bb575b506107ac576106fd61374c565b6040516352d1902d60e01b8152916020836004816001600160a01b0386165afa5f938161077b575b5061074657634c9c8ce360e01b5f526001600160a01b03821660045260245ffd5b905f80516020613e0c8339815191528303610767576107659250613a83565b005b632a87526960e21b5f52600483905260245ffd5b61079e91945060203d6020116107a5575b61079681836105d2565b81019061376c565b925f610725565b503d61078c565b63703e46dd60e11b5f5260045ffd5b5f80516020613e0c833981519152546001600160a01b0316141590505f6106f0565b602060031982011261033857600435906001600160401b0382116103385760609082900360031901126103385760040190565b346103385761081e366107dd565b61ffff6006541615610a0557610833816127f0565b6001600160a01b0381169033821415806109db575b6109cd57602083019061086d61086861086184876127fa565b369161062f565b61377b565b6001600160a01b0381165f908152600460205260409020610890905b5460ff1690565b926108c56108b96108ac8660ff165f52600260205260405f2090565b546001600160a01b031690565b6001600160a01b031690565b036103a457610974926109908561098561096c8661095d604061095860ff9961093f6109127fce0bbd257524157b555e3bcd8abfbce5ab8be730f18833ce74d50d6c57a8d2069d8a6127fa565b94909901986109346109238b61282c565b9161092c6105f3565b96369161062f565b855215156020850152565b6001600160a01b03165f90815260056020526040902090565b61288f565b6109668a6127f0565b996127fa565b97909261282c565b9161097d6105f3565b97369161062f565b865215156020860152565b6109c86109a861047e6001546001600160801b031690565b6109b181612796565b604051938493169660018060a01b03169583612990565b0390a3005b6282b42960e81b5f5260045ffd5b505f80516020613dec833981519152546109fd906001600160a01b03166108b9565b331415610848565b6321c4e35760e21b5f5260045ffd5b90600182811c92168015610a42575b6020831014610a2e57565b634e487b7160e01b5f52602260045260245ffd5b91607f1691610a23565b9060405191825f825492610a5f84610a14565b8084529360018116908115610ac85750600114610a84575b50610602925003836105d2565b90505f9291925260205f20905f915b818310610aac575050906020610602928201015f610a77565b6020919350806001915483858901015201910190918492610a93565b90506020925061060294915060ff191682840152151560051b8201015f610a77565b805180835260209291819084018484015e5f828201840152601f01601f1916010190565b3461033857602036600319011261033857600435610b2b81610534565b6001600160a01b03165f908152600560205260409020610b6a9060ff6001610b5283610a4c565b92015416604051928392604084526040840190610aea565b90151560208301520390f35b34610338575f366003190112610338577f00000000000000000000000000000000000000000000000000000000000000006001600160a01b031630036107ac5760206040515f80516020613e0c8339815191528152f35b34610338575f3660031901126103385760206001600160801b0360015416604051908152f35b61ffff81160361033857565b6001600160401b0381116105b25760051b60200190565b8015150361033857565b34610338573660031901606081126103385760401361033857604051610c4581610597565b600435610c5181610bf3565b8152602435610c5f8161033c565b60208201526044356001600160401b038111610338573660238201121561033857806004013591610c8f83610bff565b91610c9d60405193846105d2565b8383526024602084019460051b820101903682116103385760248101945b828610610ccc5761076585856129b7565b85356001600160401b038111610338578201606060231982360301126103385760405191610cf9836105b7565b6024820135610d0781610534565b83526044820135926001600160401b03841161033857606460209493610d34869560243691840101610665565b858401520135610d4381610c16565b6040820152815201950194610cbb565b346103385760203660031901126103385760ff600435610d728161033c565b165f526002602052602060018060a01b0360405f205416604051908152f35b3461033857602036600319011261033857600435610dae81610c16565b61ffff6006541615610a05578015610f2257600e546001600160a01b0316610f1357600e80546001600160a01b031916331790555f80516020613dec83398151915254610e2890610e07906001600160a01b03166108b9565b600e805460ff60a01b1916339290921460a01b60ff60a01b16919091179055565b5f80516020613dec83398151915254610e49906001600160a01b03166108b9565b3303610eb5575b7f1c1d5017b8b1542dedc14e2b0d29098feed77a27d5a6c2c18e71a432b67b26206104bc610e8961047e6001546001600160801b031690565b610e9281612796565b6040805194151585526001600160801b0390911660208501523393918291820190565b335f818152600460205260409020610ee9906108b9906108ac90610ed890610889565b60ff165f52600260205260405f2090565b036109cd57335f908152600560205260409020600101805460ff191660ff83151516179055610e50565b631ddb00d960e21b5f5260045ffd5b600e546001600160a01b03166001600160a01b031633141580610f59575b6109cd57600e80546001600160a81b0319169055610e28565b505f80516020613dec83398151915254610f7b906001600160a01b03166108b9565b331415610f40565b34610338575f3660031901126103385760206001600160401b03600b5460401c16604051908152f35b34610338575f36600319011261033857600e54604080516001600160a01b038316815260a09290921c60ff161515602083015290f35b3461033857602036600319011261033857600435610fff81610534565b6001600160a01b039081165f8181526004602090815260408083205460ff1683526002825291829020549151919093169091148152f35b34610338575f3660031901126103385761104e61374c565b5f80516020613e4c83398151915280546001600160a01b03199081169091555f80516020613dec833981519152805491821690555f906001600160a01b03167f8be0079c531659141344cd1fd0a4f28419497f9722a3daafe3b4186f6b6457e08280a3005b90602080835192838152019201905f5b8181106110d05750505090565b82516001600160a01b03168452602093840193909201916001016110c3565b906020806111068451604085526040850190610aea565b930151151591015290565b9080602083519182815201916020808360051b8301019401925f915b83831061113c57505050505090565b909192939460208061115a600193601f1986820301875289516110ef565b9701930193019193929061112d565b90602060ff8161118285516040865260408601906102a4565b9401511691015290565b60208082528251805161ffff1682840152015160ff1660408201526106809060208301516001600160801b0316606082015260408301516001600160401b03166080820152606083015161ffff1660a082015261016061012061126061123661121f611209608089015161018060c08901526101a08801906110b3565b60a0890151878203601f190160e0890152611111565b60c0880151868203601f1901610100880152611169565b60e08701516001600160401b031685840152610100870151858203601f19016101408701526102a4565b94015180516001600160a01b0316919092019081526020918201511515910152565b34610338575f3660031901126103385761129a612f7e565b50604051636c88e31960e11b81525f81600481305afa908115611452575f91611457575b506112c98151613080565b905f5b815181101561131957806112fd6112f861093f6112eb60019587612b0b565b516001600160a01b031690565b6130cf565b6113078286612b0b565b526113128185612b0b565b50016112cc565b50600b54906001600160401b0382169261134361133d6001861661159b565b61159b565b5061272e565b60405163d17b27d360e01b815294905f86600481305afa928315611452576103a0965f9461142c575b5061140c93946113ed6113876001546001600160801b031690565b976113e26113ab61139b60065461ffff1690565b9260401c6001600160401b031690565b966113d26113b7610604565b9b6113c061317c565b8d526001600160801b031660208d0152565b6001600160401b031660408b0152565b61ffff166060890152565b608087015260a086015260c08501526001600160401b031660e0840152565b61010082015261141a61319f565b6101208201526040519182918261118c565b61140c945061144c903d805f833e61144481836105d2565b8101906130f9565b9361136c565b613075565b61147391503d805f833e61146b81836105d2565b810190612ff2565b5f6112be565b34610338575f366003190112610338575f80516020613e4c83398151915254336001600160a01b03909116036114b257610765336137da565b63118cdaa760e01b5f523360045260245ffd5b34610338576040366003190112610338576004356001600160401b0381116103385736602382011215610338578060040135906001600160401b038211610338573660248360051b83010111610338576107659160248035926115278461033c565b016131ca565b34610338575f3660031901126103385760206001600160401b03600b5416604051908152f35b34610338575f366003190112610338575f80516020613dec833981519152546040516001600160a01b039091168152602090f35b634e487b7160e01b5f52603260045260245ffd5b60028110156103335760011b600701905f90565b346103385760203660031901126103385760043560028110156103385760011b6008015460405160ff919091168152602090f35b6020906003190112610338576004356001600160401b03811681036103385790565b3461033857611613366115e3565b61ffff6006541615610a055761ffff61162f600d5461ffff1690565b161561184c576001600160401b03611662611656600b546001600160401b039060401c1690565b6001600160401b031690565b91160361183d57335f90815260046020526040902061168090610889565b3360018060a01b036116a06108ac8460ff165f52600260205260405f2090565b160361182e576116c56116c16108898360ff165f52600c60205260405f2090565b1590565b61181f576116e16116eb9160ff165f52600c60205260405f2090565b805460ff19169055565b61171a6117086116fe600d5461ffff1690565b5f190161ffff1690565b61ffff1661ffff19600d541617600d55565b61173161172a600d5461ffff1690565b61ffff1690565b6117aa57600b5460401c6001600160401b031661175961047e6001546001600160801b031690565b61176281612796565b6040516001600160801b03909116815233916001600160401b0316907f01269879535f40ee8957e15e160bf1866c5e2728ff0cbc583d848821e2639b4e9080602081016109c8565b600b5460401c6001600160401b03166117ce61047e6001546001600160801b031690565b6117d781612796565b6040516001600160801b03909116815233916001600160401b0316907faf5e90e72015f43138f66b4cd08bd1dfa2839030104f22a00af843fe847c6d199080602081016109c8565b6313a9a39160e31b5f5260045ffd5b63a5523ee560e01b5f5260045ffd5b631a0fd8c760e21b5f5260045ffd5b631821b37560e31b5f5260045ffd5b34610338575f3660031901126103385760606001600160401b03600b5460401c1661ffff600d541660405191825280602083015215156040820152f35b34610338575f366003190112610338576103a06040516118b96040826105d2565b60058152640352e302e360dc1b6020820152604051918291602083526020830190610aea565b346103385760203660031901126103385760ff6004356118fe8161033c565b165f52600c602052602060ff60405f2054166040519015158152f35b346103385760203660031901126103385760043561193781610534565b61193f61374c565b6001600160a01b0381165f90815260046020526040902061195f90610889565b906119786108ac8360ff165f52600260205260405f2090565b6001600160a01b038083169291168290036103a45760065461ffff1661ffff6119af6119a95f5460ff9060101c1690565b60ff1690565b911611156104c15761ffff6119c7600d5461ffff1690565b1615611b2d576119d683613845565b8015611b1e575b611b0f57611a4d611a52915b611a11611a018660ff165f52600260205260405f2090565b80546001600160a01b0319169055565b611a296116e18660ff165f52600360205260405f2090565b6001600160a01b0381165f908152600460205260409020805460ff1916905561093f565b613608565b611a7c611a6a611a6560065461ffff1690565b61366c565b61ffff1661ffff196006541617600655565b611a8b6119a9600f5460ff1690565b9160ff8116928310611af5575b507f09f530ee5721466a79a706ccbc5875d7f2fec6ff088f543aa3e838ac941aa9516109c8611ad261047e6001546001600160801b031690565b611adb81612796565b6040516001600160801b0390911681529081906020820190565b611b099060ff1660ff19600f541617600f55565b5f611a98565b63997ac2d360e01b5f5260045ffd5b50611b2883613889565b6119dd565b611b54611b4e6119a9611b48600b546001600160401b031690565b60011690565b846138be565b611b0f57611a4d611a52916119e9565b346103385760203660031901126103385760ff600435611b838161033c565b165f526003602052602060ff60405f2054166040519015158152f35b3461033857611bad366107dd565b611bb561374c565b61010061ffff611bc860065461ffff1690565b161015611dc6576001600160a01b03611be0826127f0565b1615611db75760ff611c10610889611bf7846127f0565b6001600160a01b03165f90815260046020526040902090565b1615801590611d68575b611d59576109747fa1a8572b1f23d9ca7b47bfeebb78a9f3d78239f4ff88435c15521dba7f2efc7b60ff60208401611c5861086861086183886127fa565b610990611d3961098561096c611c6c613902565b94611cad611c798b6127f0565b611c8e8860ff165f52600260205260405f2090565b80546001600160a01b0319166001600160a01b03909216919091179055565b611cd2611cc58760ff165f52600360205260405f2090565b805460ff19166001179055565b611cf186611ce2611bf78d6127f0565b9060ff1660ff19825416179055565b611cfb818b6127fa565b60408c019591611d2d90611d22611d118961282c565b91611d1a6105f3565b94369161062f565b835215156020830152565b61095861093f8d6127f0565b611d51611a6a611d4c60065461ffff1690565b61367c565b61095d6139d0565b632a322e2b60e01b5f5260045ffd5b505f80526002602052611d9a7fac33ff75c19e70fe83507db0d683fd3465c996598dc972688b7ace676c89077b6108ac565b611da66108b9836127f0565b6001600160a01b0390911614611c1a565b63ccea9e6f60e01b5f5260045ffd5b636055dca160e01b5f5260045ffd5b34610338575f366003190112610338576103a0611df061369d565b6040519182916020835260208301906102a4565b9060206106809281815201906110b3565b34610338575f36600319011261033857611e3561172a60065461ffff1690565b611e3e81612b3a565b5f805b61010060ff82161080611eda575b15611ec157611e6c6108898260ff165f52600360205260405f2090565b611e7c575b60010160ff16611e41565b9060018060ff92611eb7611e9e6108ac8760ff165f52600260205260405f2090565b611ea88389612b0b565b6001600160a01b039091169052565b0192915050611e71565b6103a083611ece81613c99565b60405191829182611e04565b50838210611e4f565b34610338575f3660031901126103385760405f5460ff82519161ffff8116835260101c166020820152f35b34610338575f366003190112610338575f80516020613e4c833981519152546040516001600160a01b039091168152602090f35b3461033857611f50366115e3565b611f5861374c565b61ffff611f68600d5461ffff1690565b161561184c57600b54906001600160401b03611f89604084901c8216611656565b91160361183d57611fa9611338611b48611faf936001600160401b031690565b50612132565b5f5b8151811015611fee5780611fe86116e1611fd7611fd060019587612b0b565b5160ff1690565b60ff165f52600c60205260405f2090565b01611fb1565b611ffe61ffff19600d5416600d55565b61203761201b612016600b546001600160401b031690565b613737565b6001600160401b03166001600160401b0319600b541617600b55565b600b5460401c6001600160401b03167ff73240422246f63ed633ef3ce0726b8ab8fb69d46c8a4e5ecb0b2922668674a16001600160401b0361208461047e6001546001600160801b031690565b9261208e84612796565b6040516001600160801b039094168452169180602081016104bc565b34610338576020366003190112610338576004356120c781610534565b6120cf61374c565b5f80516020613e4c83398151915280546001600160a01b0319166001600160a01b039283169081179091555f80516020613dec833981519152549091167f38d16b8cac22d99fc7c124b9cd0de2d3fa1faef420bfe791d8c362d765e227005f80a3005b6040518154808252909291839061215060208301915f5260205f2090565b925f905b80601f83011061255b57610602945491818110612547575b81811061252f575b818110612517575b8181106124ff575b8181106124e8575b8181106124d0575b8181106124b8575b8181106124a0575b818110612488575b818110612470575b818110612458575b818110612440575b818110612428575b818110612410575b8181106123f8575b8181106123e0575b8181106123c8575b8181106123b0575b818110612398575b818110612380575b818110612368575b818110612350575b818110612338575b818110612320575b818110612308575b8181106122f0575b8181106122d8575b8181106122c0575b8181106122a8575b818110612290575b818110612278575b1061226a575b5003836105d2565b60f81c81526020015f612262565b60f083901c60ff16845292600190602001930161225c565b60e883901c60ff168452926001906020019301612254565b60e083901c60ff16845292600190602001930161224c565b60d883901c60ff168452926001906020019301612244565b60d083901c60ff16845292600190602001930161223c565b60c883901c60ff168452926001906020019301612234565b60c083901c60ff16845292600190602001930161222c565b60b883901c60ff168452926001906020019301612224565b60b083901c60ff16845292600190602001930161221c565b60a883901c60ff168452926001906020019301612214565b60a083901c60ff16845292600190602001930161220c565b609883901c60ff168452926001906020019301612204565b609083901c60ff1684529260019060200193016121fc565b608883901c60ff1684529260019060200193016121f4565b608083901c60ff1684529260019060200193016121ec565b607883901c60ff1684529260019060200193016121e4565b607083901c60ff1684529260019060200193016121dc565b606883901c60ff1684529260019060200193016121d4565b606083901c60ff1684529260019060200193016121cc565b605883901c60ff1684529260019060200193016121c4565b605083901c60ff1684529260019060200193016121bc565b604883901c60ff1684529260019060200193016121b4565b604083901c60ff1684529260019060200193016121ac565b603883901c60ff1684529260019060200193016121a4565b603083901c60ff16845292600190602001930161219c565b602883901c60ff168452926001906020019301612194565b602083811c60ff168552909360019101930161218c565b601883901c60ff168452926001906020019301612184565b601083901c60ff16845292600190602001930161217c565b600883901c60ff168452926001906020019301612174565b60ff8316845292600190602001930161216c565b916020919350610400600191612720875461257b8360ff831660ff169052565b600881901c60ff1683870152601081901c60ff166040840152601881901c60ff16606084015280861c60ff166080840152602881901c60ff1660a0840152603081901c60ff1660c0840152603881901c60ff1660e0840152604081901c60ff16610100840152604881901c60ff16610120840152605081901c60ff16610140840152605881901c60ff16610160840152606081901c60ff16610180840152606881901c60ff166101a0840152607081901c60ff166101c0840152607881901c60ff166101e0840152608081901c60ff16610200840152608881901c60ff16610220840152609081901c60ff16610240840152609881901c60ff1661026084015260a081901c60ff1661028084015260a881901c60ff166102a084015260b081901c60ff166102c084015260b881901c60ff166102e084015260c081901c60ff1661030084015260c881901c60ff1661032084015260d081901c60ff1661034084015260d881901c60ff1661036084015260e081901c60ff1661038084015260e881901c60ff166103a084015260f081901c60ff166103c084015260f81c6103e0830152565b019401920185929391612154565b9060405161273b81610597565b602060ff6001839561274c81612132565b8552015416910152565b356106808161033c565b634e487b7160e01b5f52601160045260245ffd5b6001600160801b03166001600160801b0381146127915760010190565b612760565b6001600160801b03166001600160801b03196001541617600155565b91909160406001600160801b03606083019461ffff6004356127d381610bf3565b16845260ff6024356127e48161033c565b16602085015216910152565b3561068081610534565b903590601e198136030182121561033857018035906001600160401b0382116103385760200191813603831361033857565b3561068081610c16565b818110612841575050565b5f8155600101612836565b9190601f811161285b57505050565b610602925f5260205f20906020601f840160051c83019310612885575b601f0160051c0190612836565b9091508190612878565b91909182519283516001600160401b0381116105b2576128b9816128b38554610a14565b8561284c565b6020601f821160011461291c576001926128f4836128fe94602094610602999a5f92612911575b50508160011b915f199060031b1c19161790565b85555b0151151590565b91019060ff801983541691151516179055565b015190505f806128e0565b601f1982169561292f855f5260205f2090565b965f5b8181106129785750836106029798602094600197946128fe97899510612960575b505050811b0185556128f7565b01515f1960f88460031b161c191690555f8080612953565b83830151895560019098019760209384019301612932565b906001600160801b036129b06020929594956040855260408501906110ef565b9416910152565b5f80516020613e2c83398151915254916001600160401b036129e9604085901c60ff16155b946001600160401b031690565b1680159081612b03575b6001149081612af9575b159081612af0575b50612ae157612a489183612a3f60016001600160401b03195f80516020613e2c8339815191525416175f80516020613e2c83398151915255565b612aac57612d5b565b612a4e57565b612a7860ff60401b195f80516020613e2c83398151915254165f80516020613e2c83398151915255565b604051600181527fc7f505b2f371ae2175ee4913f4499e1f2633a7b5936321eed1cdaeb6115181d29080602081015b0390a1565b612adc600160401b60ff60401b195f80516020613e2c8339815191525416175f80516020613e2c83398151915255565b612d5b565b63f92ee8a960e01b5f5260045ffd5b9050155f612a05565b303b1591506129fd565b8491506129f3565b80518210156103335760209160051b010190565b60405190612b2e6020836105d2565b5f808352366020840137565b90612b4482610bff565b612b5160405191826105d2565b8281528092612b62601f1991610bff565b0190602036910137565b90600160401b81116105b2578154818355808210612b8957505050565b610602925f52601f60205f20918180850160051c8401941680612bb3575b500160051c0190612836565b5f198501908154905f199060200360031b1c1690555f612ba7565b908051906001600160401b0382116105b2576020612bfb91612bf08486612b6c565b01925f5260205f2090565b8160051c915f5b838110612c6d5750601f198116900380612c1d575b50505050565b925f935f5b818110612c375750505001555f808080612c17565b9091946020612c6360019284612c4e8a5160ff1690565b919060ff809160031b9316831b921b19161790565b9601929101612c22565b5f805b60208110612c85575083820155600101612c02565b95906020612c9b60019289612c4e865160ff1690565b92019601612c70565b9291906080840160808552815180915260a0850190602060a08260051b8801019301915f905b828210612d0a57505050509060606106029294612cfb602082015f60ff6020915461ffff8116845260101c16910152565b01906001600160801b03169052565b90919293602080600192609f198b8203018552875190848060a01b038251168152604080612d45858501516060878601526060850190610aea565b9301511515910152960192019201909291612cca565b610100825111611dc6578151612d786119a9602084015160ff1690565b116104c157612dc090612d89613b25565b612d923361379f565b60209061ffff81511661ffff195f5416175f55015162ff0000805f549260101b16169062ff00001916175f55565b5f5b8151811015612e9a57612dd58183612b0b565b51906020820191612de6835161377b565b60ff821690612e066108b96108ac8460ff165f52600260205260405f2090565b611d595761095861093f600195612e6e612e9495612e42612e2d875160018060a01b031690565b611c8e8360ff165f52600260205260405f2090565b612e5a611cc58260ff165f52600360205260405f2090565b8551611ce2906001600160a01b0316611bf7565b51926112eb612e806040830151151590565b612e886105f3565b95865215156020860152565b01612dc2565b5090612ec38251612eaf611a6a8261ffff1690565b600f805460ff191660ff8316179055612b3a565b905f5b8351811015612ef15780612eeb60ff60019316612ee38387612b0b565b9060ff169052565b01612ec6565b5091612f1f7f1e7e8725c792f19ec6549d85782fc5ced586526af5a6e9f82c9414ee881bf877926007612bce565b612f3461047e6001546001600160801b031690565b90612f3e82612796565b612aa760405192839283612ca4565b60405190612f5a82610597565b5f6020838281520152565b60405190612f7282610597565b5f602083606081520152565b6040519061014082018281106001600160401b038211176105b25760405281612fa5612f4d565b81525f60208201525f60408201525f606082015260606080820152606060a0820152612fcf612f65565b60c08201525f60e08201526060610100820152610120612fed612f4d565b910152565b602081830312610338578051906001600160401b03821161033857019080601f8301121561033857815161302581610bff565b9261303360405194856105d2565b81845260208085019260051b82010192831161033857602001905b82821061305b5750505090565b60208091835161306a81610534565b81520191019061304e565b6040513d5f823e3d90fd5b9061308a82610bff565b61309760405191826105d2565b82815280926130a8601f1991610bff565b01905f5b8281106130b857505050565b6020906130c3612f65565b828285010152016130ac565b906040516130dc81610597565b602060ff600183956130ed81610a4c565b85520154161515910152565b602081830312610338578051906001600160401b03821161033857019080601f8301121561033857815161312c81610bff565b9261313a60405194856105d2565b81845260208085019260051b82010192831161033857602001905b8282106131625750505090565b6020809183516131718161033c565b815201910190613155565b6040519061318982610597565b5f5461ffff8116835260101c60ff166020830152565b604051906131ac82610597565b600e546001600160a01b038116835260a01c60ff1615156020830152565b90916131d461374c565b61ffff6006541615610a0557600e546001600160a01b0316610f135761ffff613200600d5461ffff1690565b16613497576101008311611dc6576001831161344e575b5f5b8381106134005750600d805461ffff191661ffff8516179055600b549261324e61133d6113386001600160401b038716611b48565b602081015160ff848116911614806133f5575b61337d575b50906133786001600160401b03926132de6132b56132b07fb95d8605e761f395e78cb1b5a269af6a9011d872bcb01715568de824b136435d97986001600160401b039060401c1690565b6134c4565b67ffffffffffffffff60401b600b549160401b169067ffffffffffffffff60401b191617600b55565b6132f661201b6132b0600b546001600160401b031690565b613330836001613314611338611b48600b546001600160401b031690565b50613320858b836134e1565b019060ff1660ff19825416179055565b600b549261334a604085901c6001600160401b03166129dc565b9061336061047e6001546001600160801b031690565b9261336a84612796565b604051968796169886613598565b0390a2565b939160015f5b865180518210156133e857611fd08261339b92612b0b565b60ff6133b36119a96133ae85898c6134a6565b612756565b9116036133c257600101613383565b505090919293505f5b6133d957905f939293613266565b63d990d65560e01b5f5260045ffd5b50509091929394506133cb565b508181515114613261565b61340e6133ae8286866134a6565b9061342a6116c16108898460ff165f52600360205260405f2090565b6103a457613448611cc560019360ff165f52600c60205260405f2090565b01613219565b60015b83811061345e5750613217565b61346c6133ae8286866134a6565b60ff6134876119a96133ae613480866134b6565b89896134a6565b91161115611db757600101613451565b6378a4646d60e11b5f5260045ffd5b91908110156103335760051b0190565b5f1981019190821161279157565b6001600160401b03166001600160401b0381146127915760010190565b91906001600160401b0382116105b257613509906134ff8385612b6c565b925f5260205f2090565b8160051c915f5b8381106135635750601f19811690038061352a5750505050565b925f935f5b8181106135445750505001555f808080612c17565b909194602061355960019284612c4e8a612756565b960192910161352f565b5f805b6020811061357b575083820155600101613510565b9590602061358f60019289612c4e86612756565b92019601613566565b9391959492958060808601608087525260a0850191905f5b8181106135e457505050916001600160401b036001600160801b039260ff6060959816602087015216604085015216910152565b90919260208060019260ff87356135fa8161033c565b1681520194019291016135b0565b60015f916136168154610a14565b8061362057500155565b601f8111831461363257508281550155565b8184526020842061364d91601f0160051c8101908401612836565b8083528260208120805482851b9083198460031b1c1916178355550155565b61ffff168015612791575f190190565b61ffff1661ffff81146127915760010190565b5f1981146127915760010190565b600d5461ffff16801561372e576136b79061ffff16612b3a565b906136d3611fa9611338611b48600b546001600160401b031690565b5f805b825181101561372857806136f5610889611fd7611fd060019588612b0b565b613700575b016136d6565b613723613710611fd08387612b0b565b612ee361371c8661368f565b9589612b0b565b6136fa565b50835250565b50610680612b1f565b6001600160401b03168015612791575f190190565b5f80516020613dec833981519152546001600160a01b031633036114b257565b90816020910312610338575190565b805115613790575161ffff5f54161061379057565b635e9b2d5360e01b5f5260045ffd5b6137a7613b25565b6137af613b25565b6001600160a01b038116156137c757610602906137da565b631e4fbdf760e01b5f525f60045260245ffd5b5f80516020613e4c83398151915280546001600160a01b03199081169091555f80516020613dec83398151915280549182166001600160a01b0393841690811790915591167f8be0079c531659141344cd1fd0a4f28419497f9722a3daafe3b4186f6b6457e05f80a3565b61384f6007612132565b905f5b82518110156138825760ff6138678285612b0b565b511660ff83161461387a57600101613852565b505050600190565b5050505f90565b6138936009612132565b905f5b82518110156138825760ff6138ab8285612b0b565b511660ff83161461387a57600101613896565b906002811015610333576138d79060011b600701612132565b905f5b82518110156138825760ff6138ef8285612b0b565b511660ff83161461387a576001016138da565b600f5460ff169061010082108061399d575b61060257815b60ff8082161061397357505f9160ff16915b8260ff82161061394557636055dca160e01b5f5260045ffd5b6139606116c16108898360ff165f52600360205260405f2090565b61396f5760010160ff1661392c565b9150565b61398e6116c16108898360ff165f52600360205260405f2090565b61396f5760010160ff1661391a565b506139b96116c16108898460ff165f52600360205260405f2090565b613914565b60ff60019116019060ff821161279157565b6139e46139df600f5460ff1690565b6139be565b60ff80821610613a5957505f5b613a006119a9600f5460ff1690565b60ff821611613a4757613a246116c16108898360ff165f52600360205260405f2090565b613a335760010160ff166139f1565b6106029060ff1660ff19600f541617600f55565b5061060260ff8019600f541617600f55565b613a746116c16108898360ff165f52600360205260405f2090565b613a335760010160ff166139e4565b90813b15613b04575f80516020613e0c83398151915280546001600160a01b0319166001600160a01b0384169081179091557fbc7cd75a20ee27fd9adebab32041f755214dbc6bffa90cc0225b39da2e5c2d3b5f80a2805115613aec57613ae991613d4d565b50565b505034613af557565b63b398979f60e01b5f5260045ffd5b50634c9c8ce360e01b5f9081526001600160a01b0391909116600452602490fd5b60ff5f80516020613e2c8339815191525460401c1615613b4157565b631afcd79f60e31b5f5260045ffd5b6101808284031115613c2057815183830160011c6020600160ff1b0316601f84160180519091908181811015613c17575b5085518081831015613c04575b5086528252835251928092805b5b60200180518611613b9c57935b830180518610613ba957938480821015613bca578151815183529052613b9b565b50509193506020830190808203613bf3575b5050808203613bea57505050565b61060292613b50565b613bfd9185613b50565b5f80613bdc565b909190808410613b8e579291505f613b8e565b9150905f613b81565b9190926020840193845181511015613c8b575b505b60208401828111613c84576020848251960101805186811115613c7b579085915b602082015201805186811115613c6e57908591613c56565b5060200194909452613c35565b50509350613c35565b5092505050565b84518151865290525f613c33565b80519060028210918060051b9215613cb057505050565b60208201939282019291835b8581519180601f190192835111613cd4575050613cbc565b90915094919293941115613d4557805b80519080601f190191825110613cfa5750613ce4565b86929394959691501115613d1b575f8352613d189190601f19613b50565b52565b9250602091505b8251815184528152910190601f190180821015613d4157602090613d22565b5050565b509192505050565b5f8061068093602081519101845af43d15613d89573d91613d6d83610614565b92613d7b60405194856105d2565b83523d5f602085013e613d8d565b6060915b90613db15750805115613da257805190602001fd5b63d6bda27560e01b5f5260045ffd5b81511580613de2575b613dc2575090565b639996b31560e01b5f9081526001600160a01b0391909116600452602490fd5b50803b15613dba56fe9016d09d72d40fdae2fd8ceac6b6234c7706214fd39c1cd1e609a0528c199300360894a13ba1a3210667c828492db98dca3e2076cc3735a920a3ca505d382bbcf0c57e16840df040f15088dc2f81fe391c3923bec73e23a9662efc9c229c6a00237e158222e3e6968b72b9db0d8043aacf074ad9f650f0d1606b4d82ee432c00a2646970667358221220d1c5f0db417c8fb375e061177ba8c4749fd56281b0c673466ba88a99cf9d313a64736f6c634300081a0033","linkReferences":{}},"methodIdentifiers":{"MAX_OPERATORS()":"2b78c9f7","UPGRADE_INTERFACE_VERSION()":"ad3cb1cc","abortMigration(uint64)":"e88e9749","acceptOwnership()":"79ba5097","addNodeOperator((address,bytes,bool))":"cc4bc503","completeMigration(uint64)":"9d44e717","getAllOperators()":"d911c632","getCurrentKeyspace()":"0e89d8da","getMigrationStatus()":"a415c02c","getOperatorAt(uint8)":"11fcaded","getOperatorCount()":"1a4a7c61","getPullingOperators()":"d17b27d3","getView()":"75418b9d","initialize((uint16,uint8),(address,bytes,bool)[])":"56f4de3b","isInitialized()":"392e53cd","isOperator(address)":"6d70f7ae","keyspaceVersion()":"8a3d4495","keyspaces(uint256)":"92265b65","maintenance()":"6c376cc5","migrationId()":"66d1b187","nextFreeSlot()":"389be1c0","operatorCount()":"7c6f3158","operatorInfo(address)":"50c246d6","operatorSlots(uint8)":"5f7e7b83","operatorToSlot(address)":"4e4d0f74","owner()":"8da5cb5b","pendingOwner()":"e30c3978","proxiableUUID()":"52d1902d","pullingCount()":"44160458","removeNodeOperator(address)":"c05665dd","renounceOwnership()":"715018a6","setMaintenance(bool)":"612f2f37","settings()":"e06174e4","slotOccupied(uint8)":"c187ba3d","slotPulling(uint8)":"bf31b06d","startMigration(uint8[],uint8)":"838b7dc8","transferOwnership(address)":"f2fde38b","updateNodeOperator((address,bytes,bool))":"50647644","updateSettings((uint16,uint8))":"2be5079e","upgradeToAndCall(address,bytes)":"4f1ef286","version()":"54fd4d50"},"id":34}