{"abi":[{"type":"constructor","inputs":[{"name":"initialOwner","type":"address","internalType":"address"},{"name":"maxNodes_","type":"uint8","internalType":"uint8"}],"stateMutability":"nonpayable"},{"type":"function","name":"getWhitelistedNodeAtIndex","inputs":[{"name":"index","type":"uint256","internalType":"uint256"}],"outputs":[{"name":"","type":"address","internalType":"address"}],"stateMutability":"view"},{"type":"function","name":"getWhitelistedNodes","inputs":[],"outputs":[{"name":"","type":"address[]","internalType":"address[]"}],"stateMutability":"view"},{"type":"function","name":"getWhitelistedNodesCount","inputs":[],"outputs":[{"name":"","type":"uint256","internalType":"uint256"}],"stateMutability":"view"},{"type":"function","name":"isNodeWhitelisted","inputs":[{"name":"node","type":"address","internalType":"address"}],"outputs":[{"name":"","type":"bool","internalType":"bool"}],"stateMutability":"view"},{"type":"function","name":"maxNodes","inputs":[],"outputs":[{"name":"","type":"uint8","internalType":"uint8"}],"stateMutability":"view"},{"type":"function","name":"owner","inputs":[],"outputs":[{"name":"","type":"address","internalType":"address"}],"stateMutability":"view"},{"type":"function","name":"removeNodeFromWhitelist","inputs":[{"name":"node","type":"address","internalType":"address"}],"outputs":[],"stateMutability":"nonpayable"},{"type":"function","name":"renounceOwnership","inputs":[],"outputs":[],"stateMutability":"nonpayable"},{"type":"function","name":"setMaxNodes","inputs":[{"name":"maxNodes_","type":"uint8","internalType":"uint8"}],"outputs":[],"stateMutability":"nonpayable"},{"type":"function","name":"transferOwnership","inputs":[{"name":"newOwner","type":"address","internalType":"address"}],"outputs":[],"stateMutability":"nonpayable"},{"type":"function","name":"whitelistNode","inputs":[{"name":"node","type":"address","internalType":"address"}],"outputs":[],"stateMutability":"nonpayable"},{"type":"event","name":"MaxNodesSet","inputs":[{"name":"maxNodes","type":"uint8","indexed":false,"internalType":"uint8"}],"anonymous":false},{"type":"event","name":"NodeRemovedFromWhitelist","inputs":[{"name":"node","type":"address","indexed":true,"internalType":"address"}],"anonymous":false},{"type":"event","name":"NodeWhitelisted","inputs":[{"name":"node","type":"address","indexed":true,"internalType":"address"}],"anonymous":false},{"type":"event","name":"OwnershipTransferred","inputs":[{"name":"previousOwner","type":"address","indexed":true,"internalType":"address"},{"name":"newOwner","type":"address","indexed":true,"internalType":"address"}],"anonymous":false},{"type":"error","name":"NodeAlreadyWhitelisted","inputs":[{"name":"node","type":"address","internalType":"address"}]},{"type":"error","name":"NodeNotWhitelisted","inputs":[{"name":"node","type":"address","internalType":"address"}]},{"type":"error","name":"OwnableInvalidOwner","inputs":[{"name":"owner","type":"address","internalType":"address"}]},{"type":"error","name":"OwnableUnauthorizedAccount","inputs":[{"name":"account","type":"address","internalType":"address"}]},{"type":"error","name":"UnchangedState","inputs":[]},{"type":"error","name":"WhitelistFull","inputs":[]}],"bytecode":{"object":"0x608060405234801561001057600080fd5b50604051610bee380380610bee83398101604081905261002f916100dc565b816001600160a01b03811661005e57604051631e4fbdf760e01b81526000600482015260240160405180910390fd5b6100678161008c565b506000805460ff909216600160a01b0260ff60a01b1990921691909117905550610128565b600080546001600160a01b038381166001600160a01b0319831681178455604051919092169283917f8be0079c531659141344cd1fd0a4f28419497f9722a3daafe3b4186f6b6457e09190a35050565b600080604083850312156100ef57600080fd5b82516001600160a01b038116811461010657600080fd5b602084015190925060ff8116811461011d57600080fd5b809150509250929050565b610ab7806101376000396000f3fe608060405234801561001057600080fd5b50600436106100c95760003560e01c80638da5cb5b11610081578063dbf43d621161005b578063dbf43d62146101a5578063ddf0185f146101ba578063f2fde38b146101f157600080fd5b80638da5cb5b14610161578063a133f77f1461017f578063a8d201ab1461019257600080fd5b8063715018a6116100b2578063715018a614610120578063738d8864146101285780637f32f7191461013e57600080fd5b806309afb36e146100ce5780633bf982a9146100e3575b600080fd5b6100e16100dc366004610917565b610204565b005b6100f66100f136600461093a565b61032d565b60405173ffffffffffffffffffffffffffffffffffffffff90911681526020015b60405180910390f35b6100e1610340565b610130610354565b604051908152602001610117565b61015161014c366004610953565b610365565b6040519015158152602001610117565b60005473ffffffffffffffffffffffffffffffffffffffff166100f6565b6100e161018d366004610953565b610372565b6100e16101a0366004610953565b610488565b6101ad610539565b6040516101179190610989565b6000546101df9074010000000000000000000000000000000000000000900460ff1681565b60405160ff9091168152602001610117565b6100e16101ff366004610953565b6105ef565b61020c610653565b60005460ff808316740100000000000000000000000000000000000000009092041603610265576040517f55ef8f6e00000000000000000000000000000000000000000000000000000000815260040160405180910390fd5b61026f60016106a6565b8160ff1610156102ab576040517f7f97b74a00000000000000000000000000000000000000000000000000000000815260040160405180910390fd5b60405160ff821681527f11241210488cb5dc228ddd0e32f73d3057a887380cfe17dedb145e0b67809fab9060200160405180910390a16000805460ff90921674010000000000000000000000000000000000000000027fffffffffffffffffffffff00ffffffffffffffffffffffffffffffffffffffff909216919091179055565b600061033a6001836106b0565b92915050565b610348610653565b61035260006106c3565b565b600061036060016106a6565b905090565b600061033a600183610738565b61037a610653565b60005474010000000000000000000000000000000000000000900460ff166103a260016106a6565b036103d9576040517f7f97b74a00000000000000000000000000000000000000000000000000000000815260040160405180910390fd5b6103e4600182610738565b15610438576040517f996753c500000000000000000000000000000000000000000000000000000000815273ffffffffffffffffffffffffffffffffffffffff821660048201526024015b60405180910390fd5b610443600182610767565b5060405173ffffffffffffffffffffffffffffffffffffffff8216907fee4f5445a2ccd282113afbcc4d8a3e943af8a2efb184fc0bce4e422eec8862b290600090a250565b610490610653565b61049b600182610738565b6104e9576040517ffab3374b00000000000000000000000000000000000000000000000000000000815273ffffffffffffffffffffffffffffffffffffffff8216600482015260240161042f565b6104f4600182610789565b5060405173ffffffffffffffffffffffffffffffffffffffff8216907f9c776004b7ad4544ecc8adf51fc2220023c2d6f0614b1f81f6ef44d4262a5af690600090a250565b6060600061054760016106a6565b67ffffffffffffffff81111561055f5761055f6109e3565b604051908082528060200260200182016040528015610588578160200160208202803683370190505b50905060005b61059860016106a6565b8110156105e9576105aa6001826106b0565b8282815181106105bc576105bc610a12565b73ffffffffffffffffffffffffffffffffffffffff9092166020928302919091019091015260010161058e565b50919050565b6105f7610653565b73ffffffffffffffffffffffffffffffffffffffff8116610647576040517f1e4fbdf70000000000000000000000000000000000000000000000000000000081526000600482015260240161042f565b610650816106c3565b50565b60005473ffffffffffffffffffffffffffffffffffffffff163314610352576040517f118cdaa700000000000000000000000000000000000000000000000000000000815233600482015260240161042f565b600061033a825490565b60006106bc83836107ab565b9392505050565b6000805473ffffffffffffffffffffffffffffffffffffffff8381167fffffffffffffffffffffffff0000000000000000000000000000000000000000831681178455604051919092169283917f8be0079c531659141344cd1fd0a4f28419497f9722a3daafe3b4186f6b6457e09190a35050565b73ffffffffffffffffffffffffffffffffffffffff8116600090815260018301602052604081205415156106bc565b60006106bc8373ffffffffffffffffffffffffffffffffffffffff84166107d5565b60006106bc8373ffffffffffffffffffffffffffffffffffffffff8416610824565b60008260000182815481106107c2576107c2610a12565b9060005260206000200154905092915050565b600081815260018301602052604081205461081c5750815460018181018455600084815260208082209093018490558454848252828601909352604090209190915561033a565b50600061033a565b6000818152600183016020526040812054801561090d576000610848600183610a41565b855490915060009061085c90600190610a41565b90508082146108c157600086600001828154811061087c5761087c610a12565b906000526020600020015490508087600001848154811061089f5761089f610a12565b6000918252602080832090910192909255918252600188019052604090208390555b85548690806108d2576108d2610a7b565b60019003818190600052602060002001600090559055856001016000868152602001908152602001600020600090556001935050505061033a565b600091505061033a565b60006020828403121561092957600080fd5b813560ff811681146106bc57600080fd5b60006020828403121561094c57600080fd5b5035919050565b60006020828403121561096557600080fd5b813573ffffffffffffffffffffffffffffffffffffffff811681146106bc57600080fd5b6020808252825182820181905260009190848201906040850190845b818110156109d757835173ffffffffffffffffffffffffffffffffffffffff16835292840192918401916001016109a5565b50909695505050505050565b7f4e487b7100000000000000000000000000000000000000000000000000000000600052604160045260246000fd5b7f4e487b7100000000000000000000000000000000000000000000000000000000600052603260045260246000fd5b8181038181111561033a577f4e487b7100000000000000000000000000000000000000000000000000000000600052601160045260246000fd5b7f4e487b7100000000000000000000000000000000000000000000000000000000600052603160045260246000fdfea164736f6c6343000819000a","linkReferences":{}},"methodIdentifiers":{"getWhitelistedNodeAtIndex(uint256)":"3bf982a9","getWhitelistedNodes()":"dbf43d62","getWhitelistedNodesCount()":"738d8864","isNodeWhitelisted(address)":"7f32f719","maxNodes()":"ddf0185f","owner()":"8da5cb5b","removeNodeFromWhitelist(address)":"a8d201ab","renounceOwnership()":"715018a6","setMaxNodes(uint8)":"09afb36e","transferOwnership(address)":"f2fde38b","whitelistNode(address)":"a133f77f"},"storageLayout":{"storage":[{"astId":47303,"contract":"src/PermissionedNodeRegistry.sol:PermissionedNodeRegistry","label":"_owner","offset":0,"slot":"0","type":"t_address"},{"astId":64939,"contract":"src/PermissionedNodeRegistry.sol:PermissionedNodeRegistry","label":"maxNodes","offset":20,"slot":"0","type":"t_uint8"},{"astId":64942,"contract":"src/PermissionedNodeRegistry.sol:PermissionedNodeRegistry","label":"stakingAllowlist","offset":0,"slot":"1","type":"t_struct(AddressSet)56668_storage"}],"types":{"t_address":{"encoding":"inplace","label":"address","numberOfBytes":"20"},"t_array(t_bytes32)dyn_storage":{"encoding":"dynamic_array","label":"bytes32[]","numberOfBytes":"32","base":"t_bytes32"},"t_bytes32":{"encoding":"inplace","label":"bytes32","numberOfBytes":"32"},"t_mapping(t_bytes32,t_uint256)":{"encoding":"mapping","key":"t_bytes32","label":"mapping(bytes32 => uint256)","numberOfBytes":"32","value":"t_uint256"},"t_struct(AddressSet)56668_storage":{"encoding":"inplace","label":"struct EnumerableSet.AddressSet","numberOfBytes":"64","members":[{"astId":56667,"contract":"src/PermissionedNodeRegistry.sol:PermissionedNodeRegistry","label":"_inner","offset":0,"slot":"0","type":"t_struct(Set)56353_storage"}]},"t_struct(Set)56353_storage":{"encoding":"inplace","label":"struct EnumerableSet.Set","numberOfBytes":"64","members":[{"astId":56348,"contract":"src/PermissionedNodeRegistry.sol:PermissionedNodeRegistry","label":"_values","offset":0,"slot":"0","type":"t_array(t_bytes32)dyn_storage"},{"astId":56352,"contract":"src/PermissionedNodeRegistry.sol:PermissionedNodeRegistry","label":"_positions","offset":0,"slot":"1","type":"t_mapping(t_bytes32,t_uint256)"}]},"t_uint256":{"encoding":"inplace","label":"uint256","numberOfBytes":"32"},"t_uint8":{"encoding":"inplace","label":"uint8","numberOfBytes":"1"}}},"id":85}