{"abi":[{"type":"function","name":"bakersSyndicateConfig","inputs":[],"outputs":[{"name":"","type":"address","internalType":"contract BakersSyndicateConfig"}],"stateMutability":"view"},{"type":"function","name":"initialize","inputs":[{"name":"init","type":"tuple","internalType":"struct RewardManager.Init","components":[{"name":"owner","type":"address","internalType":"address"},{"name":"maxRewardsPerEpoch","type":"uint256","internalType":"uint256"},{"name":"bakersSyndicateConfig","type":"address","internalType":"contract BakersSyndicateConfig"}]}],"outputs":[],"stateMutability":"nonpayable"},{"type":"function","name":"lastUpdatedEpoch","inputs":[],"outputs":[{"name":"","type":"uint256","internalType":"uint256"}],"stateMutability":"view"},{"type":"function","name":"maxRewardsPerEpoch","inputs":[],"outputs":[{"name":"","type":"uint256","internalType":"uint256"}],"stateMutability":"view"},{"type":"function","name":"owner","inputs":[],"outputs":[{"name":"","type":"address","internalType":"address"}],"stateMutability":"view"},{"type":"function","name":"performance","inputs":[{"name":"","type":"address","internalType":"address"}],"outputs":[{"name":"","type":"uint256","internalType":"uint256"}],"stateMutability":"view"},{"type":"function","name":"postPerformanceRecords","inputs":[{"name":"data","type":"tuple","internalType":"struct RewardManager.PerformanceData","components":[{"name":"nodes","type":"address[]","internalType":"address[]"},{"name":"performance","type":"uint256[]","internalType":"uint256[]"},{"name":"reportingEpoch","type":"uint256","internalType":"uint256"}]}],"outputs":[],"stateMutability":"nonpayable"},{"type":"function","name":"renounceOwnership","inputs":[],"outputs":[],"stateMutability":"nonpayable"},{"type":"function","name":"transferOwnership","inputs":[{"name":"newOwner","type":"address","internalType":"address"}],"outputs":[],"stateMutability":"nonpayable"},{"type":"event","name":"Initialized","inputs":[{"name":"version","type":"uint64","indexed":false,"internalType":"uint64"}],"anonymous":false},{"type":"event","name":"OwnershipTransferred","inputs":[{"name":"previousOwner","type":"address","indexed":true,"internalType":"address"},{"name":"newOwner","type":"address","indexed":true,"internalType":"address"}],"anonymous":false},{"type":"event","name":"PerformanceUpdated","inputs":[{"name":"reportingEpoch","type":"uint256","indexed":false,"internalType":"uint256"},{"name":"rewardsPerEpoch","type":"uint256","indexed":false,"internalType":"uint256"}],"anonymous":false},{"type":"error","name":"InvalidInitialization","inputs":[]},{"type":"error","name":"MismatchedDataLengths","inputs":[]},{"type":"error","name":"NotInitializing","inputs":[]},{"type":"error","name":"OwnableInvalidOwner","inputs":[{"name":"owner","type":"address","internalType":"address"}]},{"type":"error","name":"OwnableUnauthorizedAccount","inputs":[{"name":"account","type":"address","internalType":"address"}]},{"type":"error","name":"PerformanceDataAlreadyUpdated","inputs":[]},{"type":"error","name":"TotalPerformanceZero","inputs":[]},{"type":"error","name":"ZeroAddress","inputs":[]}],"bytecode":{"object":"0x6080604052348015600f57600080fd5b50610d1e8061001f6000396000f3fe608060405234801561001057600080fd5b50600436106100a35760003560e01c80637755e6b5116100765780638f3e12851161005b5780638f3e128514610183578063b7642a4314610196578063f2fde38b1461019f57600080fd5b80637755e6b5146101335780638da5cb5b1461014657600080fd5b806305d950a2146100a857806348d9727f146100db5780635e91440514610120578063715018a614610129575b600080fd5b6100c86100b6366004610ab4565b60036020526000908152604090205481565b6040519081526020015b60405180910390f35b6000546100fb9073ffffffffffffffffffffffffffffffffffffffff1681565b60405173ffffffffffffffffffffffffffffffffffffffff90911681526020016100d2565b6100c860015481565b6101316101b2565b005b610131610141366004610ad8565b6101c6565b7f9016d09d72d40fdae2fd8ceac6b6234c7706214fd39c1cd1e609a0528c1993005473ffffffffffffffffffffffffffffffffffffffff166100fb565b610131610191366004610b13565b610658565b6100c860025481565b6101316101ad366004610ab4565b610838565b6101ba6108a1565b6101c4600061092f565b565b6101ce6108a1565b60025481604001351161020d576040517f67cfdd8100000000000000000000000000000000000000000000000000000000815260040160405180910390fd5b61021a6020820182610ba3565b90506102268280610ba3565b90501461025f576040517f991c532900000000000000000000000000000000000000000000000000000000815260040160405180910390fd5b6000805b61026d8380610ba3565b90508110156102dc5760006102856020850185610ba3565b8381811061029557610295610c12565b9050602002013511156102d4576102af6020840184610ba3565b828181106102bf576102bf610c12565b90506020020135826102d19190610c70565b91505b600101610263565b5080600003610317576040517f60fd345600000000000000000000000000000000000000000000000000000000815260040160405180910390fd5b60008060009054906101000a900473ffffffffffffffffffffffffffffffffffffffff1673ffffffffffffffffffffffffffffffffffffffff16637b1391a66040518163ffffffff1660e01b8152600401602060405180830381865afa158015610385573d6000803e3d6000fd5b505050506040513d601f19601f820116820180604052508101906103a99190610c89565b905060005b6103b88480610ba3565b905081101561060f5760006103d06020860186610ba3565b838181106103e0576103e0610c12565b9050602002013511156106075760006103f98580610ba3565b8381811061040957610409610c12565b905060200201602081019061041e9190610ab4565b90508273ffffffffffffffffffffffffffffffffffffffff1663f18876846040518163ffffffff1660e01b8152600401602060405180830381865afa15801561046b573d6000803e3d6000fd5b505050506040513d601f19601f8201168201806040525081019061048f9190610ca6565b6040517f16934fc400000000000000000000000000000000000000000000000000000000815273ffffffffffffffffffffffffffffffffffffffff83811660048301528516906316934fc490602401602060405180830381865afa1580156104fb573d6000803e3d6000fd5b505050506040513d601f19601f8201168201806040525081019061051f9190610ca6565b101561052b5750610607565b600061053a6020870187610ba3565b8481811061054a5761054a610c12565b905060200201359050600085826001546105649190610cbf565b61056e9190610cd6565b604080517f4a9bd80200000000000000000000000000000000000000000000000000000000815273ffffffffffffffffffffffffffffffffffffffff868116600483015260248201849052918a01356044820152919250861690634a9bd80290606401600060405180830381600087803b1580156105eb57600080fd5b505af11580156105ff573d6000803e3d6000fd5b505050505050505b6001016103ae565b506040838101356002819055600154825191825260208201527fefd5c58271b5658cf554a26c568a524b8e12ff0a9af102dd91f87308b0427238910160405180910390a1505050565b7ff0c57e16840df040f15088dc2f81fe391c3923bec73e23a9662efc9c229c6a00805468010000000000000000810460ff16159067ffffffffffffffff166000811580156106a35750825b905060008267ffffffffffffffff1660011480156106c05750303b155b9050811580156106ce575080155b15610705576040517ff92ee8a900000000000000000000000000000000000000000000000000000000815260040160405180910390fd5b84547fffffffffffffffffffffffffffffffffffffffffffffffff000000000000000016600117855583156107665784547fffffffffffffffffffffffffffffffffffffffffffffff00ffffffffffffffff16680100000000000000001785555b8551610771906109c5565b61077e86604001516109d6565b6040860151600080547fffffffffffffffffffffffff00000000000000000000000000000000000000001673ffffffffffffffffffffffffffffffffffffffff909216919091179055602086015160015583156108305784547fffffffffffffffffffffffffffffffffffffffffffffff00ffffffffffffffff168555604051600181527fc7f505b2f371ae2175ee4913f4499e1f2633a7b5936321eed1cdaeb6115181d29060200160405180910390a15b505050505050565b6108406108a1565b73ffffffffffffffffffffffffffffffffffffffff8116610895576040517f1e4fbdf7000000000000000000000000000000000000000000000000000000008152600060048201526024015b60405180910390fd5b61089e8161092f565b50565b336108e07f9016d09d72d40fdae2fd8ceac6b6234c7706214fd39c1cd1e609a0528c1993005473ffffffffffffffffffffffffffffffffffffffff1690565b73ffffffffffffffffffffffffffffffffffffffff16146101c4576040517f118cdaa700000000000000000000000000000000000000000000000000000000815233600482015260240161088c565b7f9016d09d72d40fdae2fd8ceac6b6234c7706214fd39c1cd1e609a0528c19930080547fffffffffffffffffffffffff0000000000000000000000000000000000000000811673ffffffffffffffffffffffffffffffffffffffff848116918217845560405192169182907f8be0079c531659141344cd1fd0a4f28419497f9722a3daafe3b4186f6b6457e090600090a3505050565b6109cd610a23565b61089e81610a8a565b73ffffffffffffffffffffffffffffffffffffffff811661089e576040517fd92e233d00000000000000000000000000000000000000000000000000000000815260040160405180910390fd5b7ff0c57e16840df040f15088dc2f81fe391c3923bec73e23a9662efc9c229c6a005468010000000000000000900460ff166101c4576040517fd7e6bcf800000000000000000000000000000000000000000000000000000000815260040160405180910390fd5b610840610a23565b73ffffffffffffffffffffffffffffffffffffffff8116811461089e57600080fd5b600060208284031215610ac657600080fd5b8135610ad181610a92565b9392505050565b600060208284031215610aea57600080fd5b813567ffffffffffffffff811115610b0157600080fd5b820160608185031215610ad157600080fd5b600060608284031215610b2557600080fd5b6040516060810181811067ffffffffffffffff82111715610b6f577f4e487b7100000000000000000000000000000000000000000000000000000000600052604160045260246000fd5b6040528235610b7d81610a92565b8152602083810135908201526040830135610b9781610a92565b60408201529392505050565b60008083357fffffffffffffffffffffffffffffffffffffffffffffffffffffffffffffffe1843603018112610bd857600080fd5b83018035915067ffffffffffffffff821115610bf357600080fd5b6020019150600581901b3603821315610c0b57600080fd5b9250929050565b7f4e487b7100000000000000000000000000000000000000000000000000000000600052603260045260246000fd5b7f4e487b7100000000000000000000000000000000000000000000000000000000600052601160045260246000fd5b80820180821115610c8357610c83610c41565b92915050565b600060208284031215610c9b57600080fd5b8151610ad181610a92565b600060208284031215610cb857600080fd5b5051919050565b8082028115828204841417610c8357610c83610c41565b600082610d0c577f4e487b7100000000000000000000000000000000000000000000000000000000600052601260045260246000fd5b50049056fea164736f6c6343000819000a","linkReferences":{}},"methodIdentifiers":{"bakersSyndicateConfig()":"48d9727f","initialize((address,uint256,address))":"8f3e1285","lastUpdatedEpoch()":"b7642a43","maxRewardsPerEpoch()":"5e914405","owner()":"8da5cb5b","performance(address)":"05d950a2","postPerformanceRecords((address[],uint256[],uint256))":"7755e6b5","renounceOwnership()":"715018a6","transferOwnership(address)":"f2fde38b"},"storageLayout":{"storage":[{"astId":65174,"contract":"src/RewardManager.sol:RewardManager","label":"bakersSyndicateConfig","offset":0,"slot":"0","type":"t_contract(BakersSyndicateConfig)64752"},{"astId":65176,"contract":"src/RewardManager.sol:RewardManager","label":"maxRewardsPerEpoch","offset":0,"slot":"1","type":"t_uint256"},{"astId":65178,"contract":"src/RewardManager.sol:RewardManager","label":"lastUpdatedEpoch","offset":0,"slot":"2","type":"t_uint256"},{"astId":65191,"contract":"src/RewardManager.sol:RewardManager","label":"performance","offset":0,"slot":"3","type":"t_mapping(t_address,t_uint256)"}],"types":{"t_address":{"encoding":"inplace","label":"address","numberOfBytes":"20"},"t_contract(BakersSyndicateConfig)64752":{"encoding":"inplace","label":"contract BakersSyndicateConfig","numberOfBytes":"20"},"t_mapping(t_address,t_uint256)":{"encoding":"mapping","key":"t_address","label":"mapping(address => uint256)","numberOfBytes":"32","value":"t_uint256"},"t_uint256":{"encoding":"inplace","label":"uint256","numberOfBytes":"32"}}},"id":86}