{"abi":[{"type":"function","name":"bakersSyndicateConfig","inputs":[],"outputs":[{"name":"","type":"address","internalType":"contract BakersSyndicateConfig"}],"stateMutability":"view"},{"type":"function","name":"claimRewards","inputs":[],"outputs":[],"stateMutability":"nonpayable"},{"type":"function","name":"initialize","inputs":[{"name":"init","type":"tuple","internalType":"struct Staking.Init","components":[{"name":"owner","type":"address","internalType":"address"},{"name":"minStakeAmount","type":"uint256","internalType":"uint256"},{"name":"isStakingAllowlist","type":"bool","internalType":"bool"},{"name":"bakersSyndicateConfig","type":"address","internalType":"contract BakersSyndicateConfig"}]}],"outputs":[],"stateMutability":"nonpayable"},{"type":"function","name":"isStakingAllowlist","inputs":[],"outputs":[{"name":"","type":"bool","internalType":"bool"}],"stateMutability":"view"},{"type":"function","name":"minStakeAmount","inputs":[],"outputs":[{"name":"","type":"uint256","internalType":"uint256"}],"stateMutability":"view"},{"type":"function","name":"owner","inputs":[],"outputs":[{"name":"","type":"address","internalType":"address"}],"stateMutability":"view"},{"type":"function","name":"pendingRewards","inputs":[{"name":"staker","type":"address","internalType":"address"}],"outputs":[{"name":"pendingRewards","type":"uint256","internalType":"uint256"}],"stateMutability":"view"},{"type":"function","name":"renounceOwnership","inputs":[],"outputs":[],"stateMutability":"nonpayable"},{"type":"function","name":"setStakingAllowlist","inputs":[{"name":"isStakingAllowlist_","type":"bool","internalType":"bool"}],"outputs":[],"stateMutability":"nonpayable"},{"type":"function","name":"stake","inputs":[{"name":"amount","type":"uint256","internalType":"uint256"}],"outputs":[],"stateMutability":"nonpayable"},{"type":"function","name":"stakes","inputs":[{"name":"staker","type":"address","internalType":"address"}],"outputs":[{"name":"amount","type":"uint256","internalType":"uint256"}],"stateMutability":"view"},{"type":"function","name":"transferOwnership","inputs":[{"name":"newOwner","type":"address","internalType":"address"}],"outputs":[],"stateMutability":"nonpayable"},{"type":"function","name":"unstake","inputs":[{"name":"amount","type":"uint256","internalType":"uint256"}],"outputs":[],"stateMutability":"nonpayable"},{"type":"function","name":"updateMinStakeAmount","inputs":[{"name":"minStakeAmount_","type":"uint256","internalType":"uint256"}],"outputs":[],"stateMutability":"nonpayable"},{"type":"function","name":"updateRewards","inputs":[{"name":"node","type":"address","internalType":"address"},{"name":"amount","type":"uint256","internalType":"uint256"},{"name":"reportingEpoch","type":"uint256","internalType":"uint256"}],"outputs":[],"stateMutability":"nonpayable"},{"type":"event","name":"Initialized","inputs":[{"name":"version","type":"uint64","indexed":false,"internalType":"uint64"}],"anonymous":false},{"type":"event","name":"MinStakeAmountUpdated","inputs":[{"name":"oldMinStakeAmount","type":"uint256","indexed":false,"internalType":"uint256"},{"name":"newMinStakeAmount","type":"uint256","indexed":false,"internalType":"uint256"}],"anonymous":false},{"type":"event","name":"OwnershipTransferred","inputs":[{"name":"previousOwner","type":"address","indexed":true,"internalType":"address"},{"name":"newOwner","type":"address","indexed":true,"internalType":"address"}],"anonymous":false},{"type":"event","name":"RewardsClaimed","inputs":[{"name":"node","type":"address","indexed":true,"internalType":"address"},{"name":"rewardsClaimed","type":"uint256","indexed":false,"internalType":"uint256"}],"anonymous":false},{"type":"event","name":"RewardsUpdated","inputs":[{"name":"node","type":"address","indexed":true,"internalType":"address"},{"name":"reportingEpoch","type":"uint256","indexed":true,"internalType":"uint256"},{"name":"newRewards","type":"uint256","indexed":false,"internalType":"uint256"}],"anonymous":false},{"type":"event","name":"Staked","inputs":[{"name":"node","type":"address","indexed":true,"internalType":"address"},{"name":"amount","type":"uint256","indexed":false,"internalType":"uint256"}],"anonymous":false},{"type":"event","name":"StakingAllowlistSet","inputs":[{"name":"isStakingAllowlist","type":"bool","indexed":false,"internalType":"bool"}],"anonymous":false},{"type":"event","name":"Unstaked","inputs":[{"name":"node","type":"address","indexed":true,"internalType":"address"},{"name":"amount","type":"uint256","indexed":false,"internalType":"uint256"}],"anonymous":false},{"type":"error","name":"AddressEmptyCode","inputs":[{"name":"target","type":"address","internalType":"address"}]},{"type":"error","name":"AddressInsufficientBalance","inputs":[{"name":"account","type":"address","internalType":"address"}]},{"type":"error","name":"CallerNotBakersSyndicateContract","inputs":[]},{"type":"error","name":"FailedInnerCall","inputs":[]},{"type":"error","name":"InsufficientStake","inputs":[{"name":"staker","type":"address","internalType":"address"},{"name":"currentStake","type":"uint256","internalType":"uint256"},{"name":"amount","type":"uint256","internalType":"uint256"}]},{"type":"error","name":"InvalidInitialization","inputs":[]},{"type":"error","name":"InvalidInput","inputs":[]},{"type":"error","name":"NoRewards","inputs":[{"name":"node","type":"address","internalType":"address"}]},{"type":"error","name":"NotInitializing","inputs":[]},{"type":"error","name":"NotWhitelisted","inputs":[]},{"type":"error","name":"OwnableInvalidOwner","inputs":[{"name":"owner","type":"address","internalType":"address"}]},{"type":"error","name":"OwnableUnauthorizedAccount","inputs":[{"name":"account","type":"address","internalType":"address"}]},{"type":"error","name":"Paused","inputs":[]},{"type":"error","name":"SafeERC20FailedOperation","inputs":[{"name":"token","type":"address","internalType":"address"}]},{"type":"error","name":"StakingBelowMinimum","inputs":[{"name":"minStakeAmount","type":"uint256","internalType":"uint256"},{"name":"stakingAmount","type":"uint256","internalType":"uint256"}]},{"type":"error","name":"UnchangedState","inputs":[]},{"type":"error","name":"UnstakingBelowMinimum","inputs":[{"name":"minStakeAmount","type":"uint256","internalType":"uint256"},{"name":"currentStake","type":"uint256","internalType":"uint256"},{"name":"amount","type":"uint256","internalType":"uint256"}]},{"type":"error","name":"ZeroAddress","inputs":[]}],"bytecode":{"object":"0x6080604052348015600f57600080fd5b50611ac78061001f6000396000f3fe608060405234801561001057600080fd5b50600436106100f55760003560e01c80634a9bd80211610097578063a694fc3a11610066578063a694fc3a1461024a578063d8060cd51461025d578063f188768414610270578063f2fde38b1461027957600080fd5b80634a9bd802146101df578063581c02dd146101f2578063715018a6146102055780638da5cb5b1461020d57600080fd5b806331d7a262116100d357806331d7a26214610155578063372500ab1461017557806342d3915d1461017d57806348d9727f1461019a57600080fd5b806304f36cc2146100fa57806316934fc41461010f5780632e17de7814610142575b600080fd5b61010d610108366004611896565b61028c565b005b61012f61011d3660046118d5565b60036020526000908152604090205481565b6040519081526020015b60405180910390f35b61010d6101503660046118f2565b61033d565b61012f6101633660046118d5565b60026020526000908152604090205481565b61010d610700565b60005461018a9060ff1681565b6040519015158152602001610139565b6004546101ba9073ffffffffffffffffffffffffffffffffffffffff1681565b60405173ffffffffffffffffffffffffffffffffffffffff9091168152602001610139565b61010d6101ed36600461190b565b6108df565b61010d610200366004611940565b610b71565b61010d610d85565b7f9016d09d72d40fdae2fd8ceac6b6234c7706214fd39c1cd1e609a0528c1993005473ffffffffffffffffffffffffffffffffffffffff166101ba565b61010d6102583660046118f2565b610d99565b61010d61026b3660046118f2565b611208565b61012f60015481565b61010d6102873660046118d5565b61128c565b6102946112ed565b60005481151560ff9091161515036102d8576040517f55ef8f6e00000000000000000000000000000000000000000000000000000000815260040160405180910390fd5b600080547fffffffffffffffffffffffffffffffffffffffffffffffffffffffffffffff00168215159081179091556040519081527f057eeb69d5c59bed784bdea76ef5e308d88fef69b7f1dc8dbbfc3969ceea35b39060200160405180910390a150565b60048054604080517f7008b548000000000000000000000000000000000000000000000000000000008152905173ffffffffffffffffffffffffffffffffffffffff90921692637008b5489282820192602092908290030181865afa1580156103aa573d6000803e3d6000fd5b505050506040513d601f19601f820116820180604052508101906103ce91906119e3565b73ffffffffffffffffffffffffffffffffffffffff16631ea7ca896040518163ffffffff1660e01b8152600401602060405180830381865afa158015610418573d6000803e3d6000fd5b505050506040513d601f19601f8201168201806040525081019061043c9190611a00565b15610473576040517f9e87fac800000000000000000000000000000000000000000000000000000000815260040160405180910390fd5b806000036104ad576040517fb4fa3fb300000000000000000000000000000000000000000000000000000000815260040160405180910390fd5b336000908152600360205260409020548181101561050c576040517f936d426d00000000000000000000000000000000000000000000000000000000815233600482015260248101829052604481018390526064015b60405180910390fd5b60006105188383611a4c565b90506001548110801561052b5750600081115b15610577576001546040517fa8e5e2fd00000000000000000000000000000000000000000000000000000000815260048101919091526024810183905260448101849052606401610503565b3360009081526003602052604081208054859290610596908490611a4c565b909155505060405183815233907f0f5bb82176feb1b5e747e28471aa92156a04d9f3ab9f45f28e2d704232b93f759060200160405180910390a260048054604080517f9ff25901000000000000000000000000000000000000000000000000000000008152905173ffffffffffffffffffffffffffffffffffffffff90921692639ff259019282820192602092908290030181865afa15801561063d573d6000803e3d6000fd5b505050506040513d601f19601f8201168201806040525081019061066191906119e3565b6040517fa9059cbb0000000000000000000000000000000000000000000000000000000081523360048201526024810185905273ffffffffffffffffffffffffffffffffffffffff919091169063a9059cbb906044016020604051808303816000875af11580156106d6573d6000803e3d6000fd5b505050506040513d601f19601f820116820180604052508101906106fa9190611a00565b50505050565b336000908152600260205260408120549081900361074c576040517fc8fe3c53000000000000000000000000000000000000000000000000000000008152336004820152602401610503565b3360008181526002602052604080822091909155517ffc30cddea38e2bf4d6ea7d3f9ed3b6ad7f176419f4963bd81318067a4aee73fe906107909084815260200190565b60405180910390a26108dc600460009054906101000a900473ffffffffffffffffffffffffffffffffffffffff1673ffffffffffffffffffffffffffffffffffffffff16639dc941316040518163ffffffff1660e01b8152600401602060405180830381865afa158015610808573d6000803e3d6000fd5b505050506040513d601f19601f8201168201806040525081019061082c91906119e3565b60048054604080517f9ff2590100000000000000000000000000000000000000000000000000000000815290513393879373ffffffffffffffffffffffffffffffffffffffff1692639ff2590192818301926020928290030181865afa15801561089a573d6000803e3d6000fd5b505050506040513d601f19601f820116820180604052508101906108be91906119e3565b73ffffffffffffffffffffffffffffffffffffffff1692919061137b565b50565b60048054604080517f5932fdba000000000000000000000000000000000000000000000000000000008152905161097c93339373ffffffffffffffffffffffffffffffffffffffff16928392635932fdba928281019260209291908290030181865afa158015610953573d6000803e3d6000fd5b505050506040513d601f19601f820116820180604052508101906109779190611a5f565b611410565b60048054604080517f7008b548000000000000000000000000000000000000000000000000000000008152905173ffffffffffffffffffffffffffffffffffffffff90921692637008b5489282820192602092908290030181865afa1580156109e9573d6000803e3d6000fd5b505050506040513d601f19601f82011682018060405250810190610a0d91906119e3565b73ffffffffffffffffffffffffffffffffffffffff16631ea7ca896040518163ffffffff1660e01b8152600401602060405180830381865afa158015610a57573d6000803e3d6000fd5b505050506040513d601f19601f82011682018060405250810190610a7b9190611a00565b15610ab2576040517f9e87fac800000000000000000000000000000000000000000000000000000000815260040160405180910390fd5b60015473ffffffffffffffffffffffffffffffffffffffff841660009081526003602052604090205410610b1b5773ffffffffffffffffffffffffffffffffffffffff831660009081526002602052604081208054849290610b15908490611a78565b90915550505b808373ffffffffffffffffffffffffffffffffffffffff167fca40132af767b10947fd7de6fe4074613c5850cc28b8d0aa94adb189bfb716be84604051610b6491815260200190565b60405180910390a3505050565b7ff0c57e16840df040f15088dc2f81fe391c3923bec73e23a9662efc9c229c6a00805468010000000000000000810460ff16159067ffffffffffffffff16600081158015610bbc5750825b905060008267ffffffffffffffff166001148015610bd95750303b155b905081158015610be7575080155b15610c1e576040517ff92ee8a900000000000000000000000000000000000000000000000000000000815260040160405180910390fd5b84547fffffffffffffffffffffffffffffffffffffffffffffffff00000000000000001660011785558315610c7f5784547fffffffffffffffffffffffffffffffffffffffffffffff00ffffffffffffffff16680100000000000000001785555b8551610c8a906114e2565b610c9786606001516114f3565b60208601516001556060860151600480547fffffffffffffffffffffffff00000000000000000000000000000000000000001673ffffffffffffffffffffffffffffffffffffffff9092169190911790556040860151600080547fffffffffffffffffffffffffffffffffffffffffffffffffffffffffffffff00169115159190911790558315610d7d5784547fffffffffffffffffffffffffffffffffffffffffffffff00ffffffffffffffff168555604051600181527fc7f505b2f371ae2175ee4913f4499e1f2633a7b5936321eed1cdaeb6115181d29060200160405180910390a15b505050505050565b610d8d6112ed565b610d976000611540565b565b60048054604080517f7008b548000000000000000000000000000000000000000000000000000000008152905173ffffffffffffffffffffffffffffffffffffffff90921692637008b5489282820192602092908290030181865afa158015610e06573d6000803e3d6000fd5b505050506040513d601f19601f82011682018060405250810190610e2a91906119e3565b73ffffffffffffffffffffffffffffffffffffffff16631ea7ca896040518163ffffffff1660e01b8152600401602060405180830381865afa158015610e74573d6000803e3d6000fd5b505050506040513d601f19601f82011682018060405250810190610e989190611a00565b15610ecf576040517f9e87fac800000000000000000000000000000000000000000000000000000000815260040160405180910390fd5b60005460ff16156110315760048054604080517f5edc686e000000000000000000000000000000000000000000000000000000008152905173ffffffffffffffffffffffffffffffffffffffff90921692635edc686e9282820192602092908290030181865afa158015610f47573d6000803e3d6000fd5b505050506040513d601f19601f82011682018060405250810190610f6b91906119e3565b6040517f7f32f71900000000000000000000000000000000000000000000000000000000815233600482015273ffffffffffffffffffffffffffffffffffffffff9190911690637f32f71990602401602060405180830381865afa158015610fd7573d6000803e3d6000fd5b505050506040513d601f19601f82011682018060405250810190610ffb9190611a00565b611031576040517f584a793800000000000000000000000000000000000000000000000000000000815260040160405180910390fd5b60015481101561107b576001546040517f6c4e4d7d000000000000000000000000000000000000000000000000000000008152600481019190915260248101829052604401610503565b60405181815233907f9e71bc8eea02a63969f509818f2dafb9254532904319f9dbda79b67bd34a5f3d9060200160405180910390a233600090815260036020526040812080548392906110cf908490611a78565b909155505060048054604080517f9ff25901000000000000000000000000000000000000000000000000000000008152905173ffffffffffffffffffffffffffffffffffffffff90921692639ff259019282820192602092908290030181865afa158015611141573d6000803e3d6000fd5b505050506040513d601f19601f8201168201806040525081019061116591906119e3565b6040517f23b872dd0000000000000000000000000000000000000000000000000000000081523360048201523060248201526044810183905273ffffffffffffffffffffffffffffffffffffffff91909116906323b872dd906064016020604051808303816000875af11580156111e0573d6000803e3d6000fd5b505050506040513d601f19601f820116820180604052508101906112049190611a00565b5050565b6112106112ed565b806001540361124b576040517f55ef8f6e00000000000000000000000000000000000000000000000000000000815260040160405180910390fd5b60015460408051918252602082018390527fca0542093af2ac14ccf6e52b6e1a131c7e2825fb3b51139bf1dd8186a1339e95910160405180910390a1600155565b6112946112ed565b73ffffffffffffffffffffffffffffffffffffffff81166112e4576040517f1e4fbdf700000000000000000000000000000000000000000000000000000000815260006004820152602401610503565b6108dc81611540565b3361132c7f9016d09d72d40fdae2fd8ceac6b6234c7706214fd39c1cd1e609a0528c1993005473ffffffffffffffffffffffffffffffffffffffff1690565b73ffffffffffffffffffffffffffffffffffffffff1614610d97576040517f118cdaa7000000000000000000000000000000000000000000000000000000008152336004820152602401610503565b6040805173ffffffffffffffffffffffffffffffffffffffff85811660248301528416604482015260648082018490528251808303909101815260849091019091526020810180517bffffffffffffffffffffffffffffffffffffffffffffffffffffffff167f23b872dd000000000000000000000000000000000000000000000000000000001790526106fa9085906115d6565b6040517fe61ce9a700000000000000000000000000000000000000000000000000000000815273ffffffffffffffffffffffffffffffffffffffff84811660048301526024820183905283169063e61ce9a790604401602060405180830381865afa158015611483573d6000803e3d6000fd5b505050506040513d601f19601f820116820180604052508101906114a79190611a00565b6114dd576040517f81ba99fd00000000000000000000000000000000000000000000000000000000815260040160405180910390fd5b505050565b6114ea61166c565b6108dc816116d3565b73ffffffffffffffffffffffffffffffffffffffff81166108dc576040517fd92e233d00000000000000000000000000000000000000000000000000000000815260040160405180910390fd5b7f9016d09d72d40fdae2fd8ceac6b6234c7706214fd39c1cd1e609a0528c19930080547fffffffffffffffffffffffff0000000000000000000000000000000000000000811673ffffffffffffffffffffffffffffffffffffffff848116918217845560405192169182907f8be0079c531659141344cd1fd0a4f28419497f9722a3daafe3b4186f6b6457e090600090a3505050565b60006115f873ffffffffffffffffffffffffffffffffffffffff8416836116db565b9050805160001415801561161d57508080602001905181019061161b9190611a00565b155b156114dd576040517f5274afe700000000000000000000000000000000000000000000000000000000815273ffffffffffffffffffffffffffffffffffffffff84166004820152602401610503565b7ff0c57e16840df040f15088dc2f81fe391c3923bec73e23a9662efc9c229c6a005468010000000000000000900460ff16610d97576040517fd7e6bcf800000000000000000000000000000000000000000000000000000000815260040160405180910390fd5b61129461166c565b60606116e9838360006116f2565b90505b92915050565b606081471015611730576040517fcd786059000000000000000000000000000000000000000000000000000000008152306004820152602401610503565b6000808573ffffffffffffffffffffffffffffffffffffffff1684866040516117599190611a8b565b60006040518083038185875af1925050503d8060008114611796576040519150601f19603f3d011682016040523d82523d6000602084013e61179b565b606091505b50915091506117ab8683836117b7565b925050505b9392505050565b6060826117cc576117c782611846565b6117b0565b81511580156117f0575073ffffffffffffffffffffffffffffffffffffffff84163b155b1561183f576040517f9996b31500000000000000000000000000000000000000000000000000000000815273ffffffffffffffffffffffffffffffffffffffff85166004820152602401610503565b50806117b0565b8051156118565780518082602001fd5b6040517f1425ea4200000000000000000000000000000000000000000000000000000000815260040160405180910390fd5b80151581146108dc57600080fd5b6000602082840312156118a857600080fd5b81356117b081611888565b73ffffffffffffffffffffffffffffffffffffffff811681146108dc57600080fd5b6000602082840312156118e757600080fd5b81356117b0816118b3565b60006020828403121561190457600080fd5b5035919050565b60008060006060848603121561192057600080fd5b833561192b816118b3565b95602085013595506040909401359392505050565b60006080828403121561195257600080fd5b6040516080810181811067ffffffffffffffff8211171561199c577f4e487b7100000000000000000000000000000000000000000000000000000000600052604160045260246000fd5b60405282356119aa816118b3565b81526020838101359082015260408301356119c481611888565b604082015260608301356119d7816118b3565b60608201529392505050565b6000602082840312156119f557600080fd5b81516117b0816118b3565b600060208284031215611a1257600080fd5b81516117b081611888565b7f4e487b7100000000000000000000000000000000000000000000000000000000600052601160045260246000fd5b818103818111156116ec576116ec611a1d565b600060208284031215611a7157600080fd5b5051919050565b808201808211156116ec576116ec611a1d565b6000825160005b81811015611aac5760208186018101518583015201611a92565b50600092019182525091905056fea164736f6c6343000819000a","linkReferences":{}},"methodIdentifiers":{"bakersSyndicateConfig()":"48d9727f","claimRewards()":"372500ab","initialize((address,uint256,bool,address))":"581c02dd","isStakingAllowlist()":"42d3915d","minStakeAmount()":"f1887684","owner()":"8da5cb5b","pendingRewards(address)":"31d7a262","renounceOwnership()":"715018a6","setStakingAllowlist(bool)":"04f36cc2","stake(uint256)":"a694fc3a","stakes(address)":"16934fc4","transferOwnership(address)":"f2fde38b","unstake(uint256)":"2e17de78","updateMinStakeAmount(uint256)":"d8060cd5","updateRewards(address,uint256,uint256)":"4a9bd802"},"storageLayout":{"storage":[{"astId":65501,"contract":"src/Staking.sol:Staking","label":"isStakingAllowlist","offset":0,"slot":"0","type":"t_bool"},{"astId":65504,"contract":"src/Staking.sol:Staking","label":"minStakeAmount","offset":0,"slot":"1","type":"t_uint256"},{"astId":65509,"contract":"src/Staking.sol:Staking","label":"pendingRewards","offset":0,"slot":"2","type":"t_mapping(t_address,t_uint256)"},{"astId":65514,"contract":"src/Staking.sol:Staking","label":"stakes","offset":0,"slot":"3","type":"t_mapping(t_address,t_uint256)"},{"astId":65517,"contract":"src/Staking.sol:Staking","label":"bakersSyndicateConfig","offset":0,"slot":"4","type":"t_contract(BakersSyndicateConfig)64752"}],"types":{"t_address":{"encoding":"inplace","label":"address","numberOfBytes":"20"},"t_bool":{"encoding":"inplace","label":"bool","numberOfBytes":"1"},"t_contract(BakersSyndicateConfig)64752":{"encoding":"inplace","label":"contract BakersSyndicateConfig","numberOfBytes":"20"},"t_mapping(t_address,t_uint256)":{"encoding":"mapping","key":"t_address","label":"mapping(address => uint256)","numberOfBytes":"32","value":"t_uint256"},"t_uint256":{"encoding":"inplace","label":"uint256","numberOfBytes":"32"}}},"id":87}