{
    "abi": [
        {
            "type": "function",
            "name": "BAKERSSYNDICATE_REWARDS_VAULT",
            "inputs": [],
            "outputs": [
                {
                    "name": "",
                    "type": "bytes32",
                    "internalType": "bytes32"
                }
            ],
            "stateMutability": "view"
        },
        {
            "type": "function",
            "name": "BRR_TOKEN",
            "inputs": [],
            "outputs": [
                {
                    "name": "",
                    "type": "bytes32",
                    "internalType": "bytes32"
                }
            ],
            "stateMutability": "view"
        },
        {
            "type": "function",
            "name": "PAUSER",
            "inputs": [],
            "outputs": [
                {
                    "name": "",
                    "type": "bytes32",
                    "internalType": "bytes32"
                }
            ],
            "stateMutability": "view"
        },
        {
            "type": "function",
            "name": "PERMISSIONED_NODE_REGISTRY",
            "inputs": [],
            "outputs": [
                {
                    "name": "",
                    "type": "bytes32",
                    "internalType": "bytes32"
                }
            ],
            "stateMutability": "view"
        },
        {
            "type": "function",
            "name": "REWARD_MANAGER",
            "inputs": [],
            "outputs": [
                {
                    "name": "",
                    "type": "bytes32",
                    "internalType": "bytes32"
                }
            ],
            "stateMutability": "view"
        },
        {
            "type": "function",
            "name": "STAKING",
            "inputs": [],
            "outputs": [
                {
                    "name": "",
                    "type": "bytes32",
                    "internalType": "bytes32"
                }
            ],
            "stateMutability": "view"
        },
        {
            "type": "function",
            "name": "getBakersSyndicateRewardsVault",
            "inputs": [],
            "outputs": [
                {
                    "name": "",
                    "type": "address",
                    "internalType": "address"
                }
            ],
            "stateMutability": "view"
        },
        {
            "type": "function",
            "name": "getBrr",
            "inputs": [],
            "outputs": [
                {
                    "name": "",
                    "type": "address",
                    "internalType": "address"
                }
            ],
            "stateMutability": "view"
        },
        {
            "type": "function",
            "name": "getPauser",
            "inputs": [],
            "outputs": [
                {
                    "name": "",
                    "type": "address",
                    "internalType": "address"
                }
            ],
            "stateMutability": "view"
        },
        {
            "type": "function",
            "name": "getPermissionedNodeRegistry",
            "inputs": [],
            "outputs": [
                {
                    "name": "",
                    "type": "address",
                    "internalType": "address"
                }
            ],
            "stateMutability": "view"
        },
        {
            "type": "function",
            "name": "getRewardManager",
            "inputs": [],
            "outputs": [
                {
                    "name": "",
                    "type": "address",
                    "internalType": "address"
                }
            ],
            "stateMutability": "view"
        },
        {
            "type": "function",
            "name": "getStaking",
            "inputs": [],
            "outputs": [
                {
                    "name": "",
                    "type": "address",
                    "internalType": "address"
                }
            ],
            "stateMutability": "view"
        },
        {
            "type": "function",
            "name": "initialize",
            "inputs": [
                {
                    "name": "init",
                    "type": "tuple",
                    "internalType": "struct BakersSyndicateConfig.Init",
                    "components": [
                        {
                            "name": "owner",
                            "type": "address",
                            "internalType": "address"
                        }
                    ]
                }
            ],
            "outputs": [],
            "stateMutability": "nonpayable"
        },
        {
            "type": "function",
            "name": "onlyBakersSyndicateContract",
            "inputs": [
                {
                    "name": "_addr",
                    "type": "address",
                    "internalType": "address"
                },
                {
                    "name": "_contractName",
                    "type": "bytes32",
                    "internalType": "bytes32"
                }
            ],
            "outputs": [
                {
                    "name": "",
                    "type": "bool",
                    "internalType": "bool"
                }
            ],
            "stateMutability": "view"
        },
        {
            "type": "function",
            "name": "owner",
            "inputs": [],
            "outputs": [
                {
                    "name": "",
                    "type": "address",
                    "internalType": "address"
                }
            ],
            "stateMutability": "view"
        },
        {
            "type": "function",
            "name": "renounceOwnership",
            "inputs": [],
            "outputs": [],
            "stateMutability": "nonpayable"
        },
        {
            "type": "function",
            "name": "transferOwnership",
            "inputs": [
                {
                    "name": "newOwner",
                    "type": "address",
                    "internalType": "address"
                }
            ],
            "outputs": [],
            "stateMutability": "nonpayable"
        },
        {
            "type": "function",
            "name": "updateBakersSyndicateRewardsVault",
            "inputs": [
                {
                    "name": "bakersSyndicateRewardsVault",
                    "type": "address",
                    "internalType": "address"
                }
            ],
            "outputs": [],
            "stateMutability": "nonpayable"
        },
        {
            "type": "function",
            "name": "updateBrr",
            "inputs": [
                {
                    "name": "brr",
                    "type": "address",
                    "internalType": "address"
                }
            ],
            "outputs": [],
            "stateMutability": "nonpayable"
        },
        {
            "type": "function",
            "name": "updatePauser",
            "inputs": [
                {
                    "name": "pauser",
                    "type": "address",
                    "internalType": "address"
                }
            ],
            "outputs": [],
            "stateMutability": "nonpayable"
        },
        {
            "type": "function",
            "name": "updatePermissionedNodeRegistry",
            "inputs": [
                {
                    "name": "permissionedNodeRegistry",
                    "type": "address",
                    "internalType": "address"
                }
            ],
            "outputs": [],
            "stateMutability": "nonpayable"
        },
        {
            "type": "function",
            "name": "updateRewardManager",
            "inputs": [
                {
                    "name": "rewardManager",
                    "type": "address",
                    "internalType": "address"
                }
            ],
            "outputs": [],
            "stateMutability": "nonpayable"
        },
        {
            "type": "function",
            "name": "updateStaking",
            "inputs": [
                {
                    "name": "staking",
                    "type": "address",
                    "internalType": "address"
                }
            ],
            "outputs": [],
            "stateMutability": "nonpayable"
        },
        {
            "type": "event",
            "name": "Initialized",
            "inputs": [
                {
                    "name": "version",
                    "type": "uint64",
                    "indexed": false,
                    "internalType": "uint64"
                }
            ],
            "anonymous": false
        },
        {
            "type": "event",
            "name": "OwnershipTransferred",
            "inputs": [
                {
                    "name": "previousOwner",
                    "type": "address",
                    "indexed": true,
                    "internalType": "address"
                },
                {
                    "name": "newOwner",
                    "type": "address",
                    "indexed": true,
                    "internalType": "address"
                }
            ],
            "anonymous": false
        },
        {
            "type": "event",
            "name": "SetAccount",
            "inputs": [
                {
                    "name": "key",
                    "type": "bytes32",
                    "indexed": false,
                    "internalType": "bytes32"
                },
                {
                    "name": "val",
                    "type": "address",
                    "indexed": false,
                    "internalType": "address"
                }
            ],
            "anonymous": false
        },
        {
            "type": "event",
            "name": "SetContract",
            "inputs": [
                {
                    "name": "key",
                    "type": "bytes32",
                    "indexed": false,
                    "internalType": "bytes32"
                },
                {
                    "name": "val",
                    "type": "address",
                    "indexed": false,
                    "internalType": "address"
                }
            ],
            "anonymous": false
        },
        {
            "type": "error",
            "name": "IndenticalValue",
            "inputs": []
        },
        {
            "type": "error",
            "name": "InvalidInitialization",
            "inputs": []
        },
        {
            "type": "error",
            "name": "NotInitializing",
            "inputs": []
        },
        {
            "type": "error",
            "name": "OwnableInvalidOwner",
            "inputs": [
                {
                    "name": "owner",
                    "type": "address",
                    "internalType": "address"
                }
            ]
        },
        {
            "type": "error",
            "name": "OwnableUnauthorizedAccount",
            "inputs": [
                {
                    "name": "account",
                    "type": "address",
                    "internalType": "address"
                }
            ]
        },
        {
            "type": "error",
            "name": "ZeroAddress",
            "inputs": []
        }
    ],
    "bytecode": {
        "object": "0x6080604052348015600f57600080fd5b50610e2d8061001f6000396000f3fe608060405234801561001057600080fd5b506004361061018d5760003560e01c8063715018a6116100e35780639dc941311161008c578063d9dc869411610066578063d9dc8694146105b9578063e61ce9a7146105e0578063f2fde38b1461062b57600080fd5b80639dc94131146104da5780639ff2590114610540578063a345f38d146105a657600080fd5b80638da5cb5b116100bd5780638da5cb5b146104635780638f09926d146104a057806397610f30146104b357600080fd5b8063715018a6146103ce578063772e21e8146103d65780637b1391a6146103fd57600080fd5b806345dd9bf8116101455780635e13bf621161011f5780635e13bf62146102ef5780635edc686e146103025780637008b5481461036857600080fd5b806345dd9bf81461028e578063554bab3c146102b55780635932fdba146102c857600080fd5b80633c128dad116101765780633c128dad146102335780634191e0fe1461024657806343499e7e1461027b57600080fd5b806304e76c8f14610192578063050eb2eb1461021e575b600080fd5b7f6393fa734211156fcc8c7dda6b0650f5c731d4c838c1db43445a149aa2f5b6fe60005260016020527f93581be3bed347f62d1cd445cada38177f3541353e3f488b22052817d20340fa5473ffffffffffffffffffffffffffffffffffffffff165b60405173ffffffffffffffffffffffffffffffffffffffff90911681526020015b60405180910390f35b61023161022c366004610d63565b61063e565b005b610231610241366004610d63565b610673565b61026d7fa4083e7a78dd898def03c51ce199cb4286b8828be4f6f46e04aec6176196747181565b604051908152602001610215565b610231610289366004610d63565b6106a5565b61026d7f8448177557ce26b80f0c3fa4588bac17732ec5726d7720428b017052fd4b2fd381565b6102316102c3366004610d63565b6106d7565b61026d7f6393fa734211156fcc8c7dda6b0650f5c731d4c838c1db43445a149aa2f5b6fe81565b6102316102fd366004610d63565b610709565b7fa4083e7a78dd898def03c51ce199cb4286b8828be4f6f46e04aec6176196747160005260016020527f757e8fcf6b7d17163d6959c5761ac73e521449afb7753464c39fed983d26ffcd5473ffffffffffffffffffffffffffffffffffffffff166101f4565b7f539440820030c4994db4e31b6b800deafd503688728f932addfe7a410515c14c60005260016020527fee6a051a4eb319b826a9879fc346938922568a0f3c12a74b6db6b2cfeaae29f45473ffffffffffffffffffffffffffffffffffffffff166101f4565b61023161073b565b61026d7fd87882b1eae4d81a29183bc99416433a88c31cb54ff64ed6012f4a07995940af81565b7f080909c18c958ce5a2d36481697824e477319323d03154ceba3b78f28a61887b60005260016020527fdbf8a52094ade178680ebe8171a9625e29149ed275744ce850f498e78b88abeb5473ffffffffffffffffffffffffffffffffffffffff166101f4565b7f9016d09d72d40fdae2fd8ceac6b6234c7706214fd39c1cd1e609a0528c1993005473ffffffffffffffffffffffffffffffffffffffff166101f4565b6102316104ae366004610d85565b61074f565b61026d7f080909c18c958ce5a2d36481697824e477319323d03154ceba3b78f28a61887b81565b7fd87882b1eae4d81a29183bc99416433a88c31cb54ff64ed6012f4a07995940af60009081526020527f4659ed4a615b07fbece64193838930c7832e11795a16215af0e1e2f6cd92ab3b5473ffffffffffffffffffffffffffffffffffffffff166101f4565b7f8448177557ce26b80f0c3fa4588bac17732ec5726d7720428b017052fd4b2fd360005260016020527f34ea9f1f68c2f8acaf7b819c0a9a876c01b67902d18a33bd6284e139626bee815473ffffffffffffffffffffffffffffffffffffffff166101f4565b6102316105b4366004610d63565b6108d1565b61026d7f539440820030c4994db4e31b6b800deafd503688728f932addfe7a410515c14c81565b61061b6105ee366004610df6565b60009081526001602052604090205473ffffffffffffffffffffffffffffffffffffffff90811691161490565b6040519015158152602001610215565b610231610639366004610d63565b610903565b610646610969565b6106707f6393fa734211156fcc8c7dda6b0650f5c731d4c838c1db43445a149aa2f5b6fe826109f7565b50565b61067b610969565b6106707fa4083e7a78dd898def03c51ce199cb4286b8828be4f6f46e04aec61761967471826109f7565b6106ad610969565b6106707f8448177557ce26b80f0c3fa4588bac17732ec5726d7720428b017052fd4b2fd3826109f7565b6106df610969565b6106707f539440820030c4994db4e31b6b800deafd503688728f932addfe7a410515c14c826109f7565b610711610969565b6106707fd87882b1eae4d81a29183bc99416433a88c31cb54ff64ed6012f4a07995940af82610aec565b610743610969565b61074d6000610bd7565b565b7ff0c57e16840df040f15088dc2f81fe391c3923bec73e23a9662efc9c229c6a00805468010000000000000000810460ff16159067ffffffffffffffff1660008115801561079a5750825b905060008267ffffffffffffffff1660011480156107b75750303b155b9050811580156107c5575080155b156107fc576040517ff92ee8a900000000000000000000000000000000000000000000000000000000815260040160405180910390fd5b84547fffffffffffffffffffffffffffffffffffffffffffffffff0000000000000000166001178555831561085d5784547fffffffffffffffffffffffffffffffffffffffffffffff00ffffffffffffffff16680100000000000000001785555b855161086890610c6d565b83156108c95784547fffffffffffffffffffffffffffffffffffffffffffffff00ffffffffffffffff168555604051600181527fc7f505b2f371ae2175ee4913f4499e1f2633a7b5936321eed1cdaeb6115181d29060200160405180910390a15b505050505050565b6108d9610969565b6106707f080909c18c958ce5a2d36481697824e477319323d03154ceba3b78f28a61887b826109f7565b61090b610969565b73ffffffffffffffffffffffffffffffffffffffff8116610960576040517f1e4fbdf7000000000000000000000000000000000000000000000000000000008152600060048201526024015b60405180910390fd5b61067081610bd7565b336109a87f9016d09d72d40fdae2fd8ceac6b6234c7706214fd39c1cd1e609a0528c1993005473ffffffffffffffffffffffffffffffffffffffff1690565b73ffffffffffffffffffffffffffffffffffffffff161461074d576040517f118cdaa7000000000000000000000000000000000000000000000000000000008152336004820152602401610957565b610a0081610c7e565b60008281526001602052604090205473ffffffffffffffffffffffffffffffffffffffff808316911603610a60576040517fb5ca7aab00000000000000000000000000000000000000000000000000000000815260040160405180910390fd5b60008281526001602090815260409182902080547fffffffffffffffffffffffff00000000000000000000000000000000000000001673ffffffffffffffffffffffffffffffffffffffff85169081179091558251858152918201527f5de40a806536a2029221dac2c8887ac9f11952fcc1ed3d7cfb4476dd5259b74091015b60405180910390a15050565b610af581610c7e565b60008281526020819052604090205473ffffffffffffffffffffffffffffffffffffffff808316911603610b55576040517fb5ca7aab00000000000000000000000000000000000000000000000000000000815260040160405180910390fd5b6000828152602081815260409182902080547fffffffffffffffffffffffff00000000000000000000000000000000000000001673ffffffffffffffffffffffffffffffffffffffff85169081179091558251858152918201527fcbdd341876786c7241ad12a5ce5ea46739a4ce7b1587d0c216dfa655a98e50a69101610ae0565b7f9016d09d72d40fdae2fd8ceac6b6234c7706214fd39c1cd1e609a0528c19930080547fffffffffffffffffffffffff0000000000000000000000000000000000000000811673ffffffffffffffffffffffffffffffffffffffff848116918217845560405192169182907f8be0079c531659141344cd1fd0a4f28419497f9722a3daafe3b4186f6b6457e090600090a3505050565b610c75610ccb565b61067081610d32565b73ffffffffffffffffffffffffffffffffffffffff8116610670576040517fd92e233d00000000000000000000000000000000000000000000000000000000815260040160405180910390fd5b7ff0c57e16840df040f15088dc2f81fe391c3923bec73e23a9662efc9c229c6a005468010000000000000000900460ff1661074d576040517fd7e6bcf800000000000000000000000000000000000000000000000000000000815260040160405180910390fd5b61090b610ccb565b803573ffffffffffffffffffffffffffffffffffffffff81168114610d5e57600080fd5b919050565b600060208284031215610d7557600080fd5b610d7e82610d3a565b9392505050565b600060208284031215610d9757600080fd5b6040516020810181811067ffffffffffffffff82111715610de1577f4e487b7100000000000000000000000000000000000000000000000000000000600052604160045260246000fd5b604052610ded83610d3a565b81529392505050565b60008060408385031215610e0957600080fd5b610e1283610d3a565b94602093909301359350505056fea164736f6c6343000819000a",
        "linkReferences": {}
    },
    "methodIdentifiers": {
        "BAKERSSYNDICATE_REWARDS_VAULT()": "772e21e8",
        "BRR_TOKEN()": "45dd9bf8",
        "PAUSER()": "d9dc8694",
        "PERMISSIONED_NODE_REGISTRY()": "4191e0fe",
        "REWARD_MANAGER()": "5932fdba",
        "STAKING()": "97610f30",
        "getBakersSyndicateRewardsVault()": "9dc94131",
        "getBrr()": "9ff25901",
        "getPauser()": "7008b548",
        "getPermissionedNodeRegistry()": "5edc686e",
        "getRewardManager()": "04e76c8f",
        "getStaking()": "7b1391a6",
        "initialize((address))": "8f09926d",
        "onlyBakersSyndicateContract(address,bytes32)": "e61ce9a7",
        "owner()": "8da5cb5b",
        "renounceOwnership()": "715018a6",
        "transferOwnership(address)": "f2fde38b",
        "updateBakersSyndicateRewardsVault(address)": "5e13bf62",
        "updateBrr(address)": "43499e7e",
        "updatePauser(address)": "554bab3c",
        "updatePermissionedNodeRegistry(address)": "3c128dad",
        "updateRewardManager(address)": "050eb2eb",
        "updateStaking(address)": "a345f38d"
    },
    "storageLayout": {
        "storage": [
            {
                "astId": 64473,
                "contract": "src/BakersSyndicateConfig.sol:BakersSyndicateConfig",
                "label": "_accountsMap",
                "offset": 0,
                "slot": "0",
                "type": "t_mapping(t_bytes32,t_address)"
            },
            {
                "astId": 64477,
                "contract": "src/BakersSyndicateConfig.sol:BakersSyndicateConfig",
                "label": "_contractsMap",
                "offset": 0,
                "slot": "1",
                "type": "t_mapping(t_bytes32,t_address)"
            }
        ],
        "types": {
            "t_address": {
                "encoding": "inplace",
                "label": "address",
                "numberOfBytes": "20"
            },
            "t_bytes32": {
                "encoding": "inplace",
                "label": "bytes32",
                "numberOfBytes": "32"
            },
            "t_mapping(t_bytes32,t_address)": {
                "encoding": "mapping",
                "key": "t_bytes32",
                "label": "mapping(bytes32 => address)",
                "numberOfBytes": "32",
                "value": "t_address"
            }
        }
    },
    "id": 83
}